{
	"contracts/6_enumExample.sol": {
		"enumExample": {
			"abi": [
				{
					"inputs": [
						{
							"internalType": "enum enumExample.Status",
							"name": "_status",
							"type": "uint8"
						}
					],
					"name": "getKeyByValue",
					"outputs": [
						{
							"internalType": "string",
							"name": "",
							"type": "string"
						}
					],
					"stateMutability": "pure",
					"type": "function"
				},
				{
					"inputs": [],
					"name": "getStatus",
					"outputs": [
						{
							"internalType": "enum enumExample.Status",
							"name": "",
							"type": "uint8"
						}
					],
					"stateMutability": "view",
					"type": "function"
				},
				{
					"inputs": [
						{
							"internalType": "string",
							"name": "_status",
							"type": "string"
						}
					],
					"name": "getValueBykey",
					"outputs": [
						{
							"internalType": "enum enumExample.Status",
							"name": "",
							"type": "uint8"
						}
					],
					"stateMutability": "pure",
					"type": "function"
				},
				{
					"inputs": [],
					"name": "reset",
					"outputs": [],
					"stateMutability": "nonpayable",
					"type": "function"
				},
				{
					"inputs": [
						{
							"internalType": "enum enumExample.Status",
							"name": "_status",
							"type": "uint8"
						}
					],
					"name": "setStatus",
					"outputs": [],
					"stateMutability": "nonpayable",
					"type": "function"
				},
				{
					"inputs": [],
					"name": "setStatus2",
					"outputs": [],
					"stateMutability": "nonpayable",
					"type": "function"
				}
			],
			"devdoc": {
				"kind": "dev",
				"methods": {},
				"version": 1
			},
			"evm": {
				"assembly": "    /* \"contracts/6_enumExample.sol\":70:922  contract enumExample {... */\n  mstore(0x40, 0x80)\n  callvalue\n  dup1\n  iszero\n  tag_1\n  jumpi\n  0x00\n  dup1\n  revert\ntag_1:\n  pop\n  dataSize(sub_0)\n  dup1\n  dataOffset(sub_0)\n  0x00\n  codecopy\n  0x00\n  return\nstop\n\nsub_0: assembly {\n        /* \"contracts/6_enumExample.sol\":70:922  contract enumExample {... */\n      mstore(0x40, 0x80)\n      callvalue\n      dup1\n      iszero\n      tag_1\n      jumpi\n      0x00\n      dup1\n      revert\n    tag_1:\n      pop\n      jumpi(tag_2, lt(calldatasize, 0x04))\n      shr(0xe0, calldataload(0x00))\n      dup1\n      0x12e0cadf\n      eq\n      tag_3\n      jumpi\n      dup1\n      0x17108b11\n      eq\n      tag_4\n      jumpi\n      dup1\n      0x2e49d78b\n      eq\n      tag_5\n      jumpi\n      dup1\n      0x4e69d560\n      eq\n      tag_6\n      jumpi\n      dup1\n      0xd7fa42f7\n      eq\n      tag_7\n      jumpi\n      dup1\n      0xd826f88f\n      eq\n      tag_8\n      jumpi\n    tag_2:\n      0x00\n      dup1\n      revert\n        /* \"contracts/6_enumExample.sol\":313:380  function setStatus2() external  {... */\n    tag_3:\n      tag_9\n      tag_10\n      jump\t// in\n    tag_9:\n      stop\n        /* \"contracts/6_enumExample.sol\":650:920  function getValueBykey(string memory _status) pure external returns (Status) {... */\n    tag_4:\n      tag_11\n      0x04\n      dup1\n      calldatasize\n      sub\n      dup2\n      add\n      swap1\n      tag_12\n      swap2\n      swap1\n      tag_13\n      jump\t// in\n    tag_12:\n      tag_14\n      jump\t// in\n    tag_11:\n      mload(0x40)\n      tag_15\n      swap2\n      swap1\n      tag_16\n      jump\t// in\n    tag_15:\n      mload(0x40)\n      dup1\n      swap2\n      sub\n      swap1\n      return\n        /* \"contracts/6_enumExample.sol\":231:308  function setStatus(Status _status) external {... */\n    tag_5:\n      tag_17\n      0x04\n      dup1\n      calldatasize\n      sub\n      dup2\n      add\n      swap1\n      tag_18\n      swap2\n      swap1\n      tag_19\n      jump\t// in\n    tag_18:\n      tag_20\n      jump\t// in\n    tag_17:\n      stop\n        /* \"contracts/6_enumExample.sol\":144:226  function getStatus() view external returns (Status) {... */\n    tag_6:\n      tag_21\n      tag_22\n      jump\t// in\n    tag_21:\n      mload(0x40)\n      tag_23\n      swap2\n      swap1\n      tag_16\n      jump\t// in\n    tag_23:\n      mload(0x40)\n      dup1\n      swap2\n      sub\n      swap1\n      return\n        /* \"contracts/6_enumExample.sol\":447:645  function getKeyByValue(Status _status) pure external returns ( string memory) {... */\n    tag_7:\n      tag_24\n      0x04\n      dup1\n      calldatasize\n      sub\n      dup2\n      add\n      swap1\n      tag_25\n      swap2\n      swap1\n      tag_19\n      jump\t// in\n    tag_25:\n      tag_26\n      jump\t// in\n    tag_24:\n      mload(0x40)\n      tag_27\n      swap2\n      swap1\n      tag_28\n      jump\t// in\n    tag_27:\n      mload(0x40)\n      dup1\n      swap2\n      sub\n      swap1\n      return\n        /* \"contracts/6_enumExample.sol\":385:442  function reset() external  {... */\n    tag_8:\n      tag_29\n      tag_30\n      jump\t// in\n    tag_29:\n      stop\n        /* \"contracts/6_enumExample.sol\":313:380  function setStatus2() external  {... */\n    tag_10:\n        /* \"contracts/6_enumExample.sol\":364:373  Status.ON */\n      0x01\n        /* \"contracts/6_enumExample.sol\":355:361  status */\n      0x00\n      dup1\n        /* \"contracts/6_enumExample.sol\":355:373  status = Status.ON */\n      0x0100\n      exp\n      dup2\n      sload\n      dup2\n      0xff\n      mul\n      not\n      and\n      swap1\n      dup4\n      0x01\n      dup2\n      gt\n      iszero\n      tag_32\n      jumpi\n      tag_33\n      tag_34\n      jump\t// in\n    tag_33:\n    tag_32:\n      mul\n      or\n      swap1\n      sstore\n      pop\n        /* \"contracts/6_enumExample.sol\":313:380  function setStatus2() external  {... */\n      jump\t// out\n        /* \"contracts/6_enumExample.sol\":650:920  function getValueBykey(string memory _status) pure external returns (Status) {... */\n    tag_14:\n        /* \"contracts/6_enumExample.sol\":719:725  Status */\n      0x00\n        /* \"contracts/6_enumExample.sol\":784:791  _status */\n      dup2\n        /* \"contracts/6_enumExample.sol\":767:793  keccak256( bytes(_status)) */\n      dup1\n      mload\n      swap1\n      0x20\n      add\n      keccak256\n        /* \"contracts/6_enumExample.sol\":750:762  bytes(\"OFF\") */\n      mload(0x40)\n      dup1\n      0x40\n      add\n      0x40\n      mstore\n      dup1\n      0x03\n      dup2\n      mstore\n      0x20\n      add\n      0x4f46460000000000000000000000000000000000000000000000000000000000\n      dup2\n      mstore\n      pop\n        /* \"contracts/6_enumExample.sol\":740:763  keccak256(bytes(\"OFF\")) */\n      dup1\n      mload\n      swap1\n      0x20\n      add\n      keccak256\n        /* \"contracts/6_enumExample.sol\":740:793  keccak256(bytes(\"OFF\")) == keccak256( bytes(_status)) */\n      sub\n        /* \"contracts/6_enumExample.sol\":737:812  if(keccak256(bytes(\"OFF\")) == keccak256( bytes(_status))) return Status.OFF */\n      tag_36\n      jumpi\n        /* \"contracts/6_enumExample.sol\":802:812  Status.OFF */\n      0x00\n        /* \"contracts/6_enumExample.sol\":795:812  return Status.OFF */\n      swap1\n      pop\n      jump(tag_35)\n        /* \"contracts/6_enumExample.sol\":737:812  if(keccak256(bytes(\"OFF\")) == keccak256( bytes(_status))) return Status.OFF */\n    tag_36:\n        /* \"contracts/6_enumExample.sol\":868:875  _status */\n      dup2\n        /* \"contracts/6_enumExample.sol\":851:877  keccak256( bytes(_status)) */\n      dup1\n      mload\n      swap1\n      0x20\n      add\n      keccak256\n        /* \"contracts/6_enumExample.sol\":835:846  bytes(\"ON\") */\n      mload(0x40)\n      dup1\n      0x40\n      add\n      0x40\n      mstore\n      dup1\n      0x02\n      dup2\n      mstore\n      0x20\n      add\n      0x4f4e000000000000000000000000000000000000000000000000000000000000\n      dup2\n      mstore\n      pop\n        /* \"contracts/6_enumExample.sol\":825:847  keccak256(bytes(\"ON\")) */\n      dup1\n      mload\n      swap1\n      0x20\n      add\n      keccak256\n        /* \"contracts/6_enumExample.sol\":825:877  keccak256(bytes(\"ON\")) == keccak256( bytes(_status)) */\n      sub\n        /* \"contracts/6_enumExample.sol\":822:895  if(keccak256(bytes(\"ON\")) == keccak256( bytes(_status))) return Status.ON */\n      tag_37\n      jumpi\n        /* \"contracts/6_enumExample.sol\":886:895  Status.ON */\n      0x01\n        /* \"contracts/6_enumExample.sol\":879:895  return Status.ON */\n      swap1\n      pop\n      jump(tag_35)\n        /* \"contracts/6_enumExample.sol\":822:895  if(keccak256(bytes(\"ON\")) == keccak256( bytes(_status))) return Status.ON */\n    tag_37:\n        /* \"contracts/6_enumExample.sol\":905:913  revert() */\n      0x00\n      dup1\n      revert\n        /* \"contracts/6_enumExample.sol\":650:920  function getValueBykey(string memory _status) pure external returns (Status) {... */\n    tag_35:\n      swap2\n      swap1\n      pop\n      jump\t// out\n        /* \"contracts/6_enumExample.sol\":231:308  function setStatus(Status _status) external {... */\n    tag_20:\n        /* \"contracts/6_enumExample.sol\":294:301  _status */\n      dup1\n        /* \"contracts/6_enumExample.sol\":285:291  status */\n      0x00\n      dup1\n        /* \"contracts/6_enumExample.sol\":285:301  status = _status */\n      0x0100\n      exp\n      dup2\n      sload\n      dup2\n      0xff\n      mul\n      not\n      and\n      swap1\n      dup4\n      0x01\n      dup2\n      gt\n      iszero\n      tag_39\n      jumpi\n      tag_40\n      tag_34\n      jump\t// in\n    tag_40:\n    tag_39:\n      mul\n      or\n      swap1\n      sstore\n      pop\n        /* \"contracts/6_enumExample.sol\":231:308  function setStatus(Status _status) external {... */\n      pop\n      jump\t// out\n        /* \"contracts/6_enumExample.sol\":144:226  function getStatus() view external returns (Status) {... */\n    tag_22:\n        /* \"contracts/6_enumExample.sol\":188:194  Status */\n      0x00\n        /* \"contracts/6_enumExample.sol\":213:219  status */\n      dup1\n      0x00\n      swap1\n      sload\n      swap1\n      0x0100\n      exp\n      swap1\n      div\n      0xff\n      and\n        /* \"contracts/6_enumExample.sol\":206:219  return status */\n      swap1\n      pop\n        /* \"contracts/6_enumExample.sol\":144:226  function getStatus() view external returns (Status) {... */\n      swap1\n      jump\t// out\n        /* \"contracts/6_enumExample.sol\":447:645  function getKeyByValue(Status _status) pure external returns ( string memory) {... */\n    tag_26:\n        /* \"contracts/6_enumExample.sol\":510:523  string memory */\n      0x60\n        /* \"contracts/6_enumExample.sol\":552:559  _status */\n      dup2\n        /* \"contracts/6_enumExample.sol\":538:559  Status.OFF == _status */\n      0x01\n      dup2\n      gt\n      iszero\n      tag_43\n      jumpi\n      tag_44\n      tag_34\n      jump\t// in\n    tag_44:\n    tag_43:\n        /* \"contracts/6_enumExample.sol\":538:548  Status.OFF */\n      0x00\n        /* \"contracts/6_enumExample.sol\":538:559  Status.OFF == _status */\n      0x01\n      dup2\n      gt\n      iszero\n      tag_45\n      jumpi\n      tag_46\n      tag_34\n      jump\t// in\n    tag_46:\n    tag_45:\n      sub\n        /* \"contracts/6_enumExample.sol\":535:573  if(Status.OFF == _status) return \"OFF\" */\n      tag_47\n      jumpi\n        /* \"contracts/6_enumExample.sol\":561:573  return \"OFF\" */\n      mload(0x40)\n      dup1\n      0x40\n      add\n      0x40\n      mstore\n      dup1\n      0x03\n      dup2\n      mstore\n      0x20\n      add\n      0x4f46460000000000000000000000000000000000000000000000000000000000\n      dup2\n      mstore\n      pop\n      swap1\n      pop\n      jump(tag_42)\n        /* \"contracts/6_enumExample.sol\":535:573  if(Status.OFF == _status) return \"OFF\" */\n    tag_47:\n        /* \"contracts/6_enumExample.sol\":599:606  _status */\n      dup2\n        /* \"contracts/6_enumExample.sol\":586:606  Status.ON == _status */\n      0x01\n      dup2\n      gt\n      iszero\n      tag_48\n      jumpi\n      tag_49\n      tag_34\n      jump\t// in\n    tag_49:\n    tag_48:\n        /* \"contracts/6_enumExample.sol\":586:595  Status.ON */\n      0x01\n        /* \"contracts/6_enumExample.sol\":586:606  Status.ON == _status */\n      dup1\n      dup2\n      gt\n      iszero\n      tag_50\n      jumpi\n      tag_51\n      tag_34\n      jump\t// in\n    tag_51:\n    tag_50:\n      sub\n        /* \"contracts/6_enumExample.sol\":583:619  if(Status.ON == _status) return \"ON\" */\n      tag_52\n      jumpi\n        /* \"contracts/6_enumExample.sol\":608:619  return \"ON\" */\n      mload(0x40)\n      dup1\n      0x40\n      add\n      0x40\n      mstore\n      dup1\n      0x02\n      dup2\n      mstore\n      0x20\n      add\n      0x4f4e000000000000000000000000000000000000000000000000000000000000\n      dup2\n      mstore\n      pop\n      swap1\n      pop\n      jump(tag_42)\n        /* \"contracts/6_enumExample.sol\":583:619  if(Status.ON == _status) return \"ON\" */\n    tag_52:\n        /* \"contracts/6_enumExample.sol\":629:638  return \"\" */\n      mload(0x40)\n      dup1\n      0x20\n      add\n      0x40\n      mstore\n      dup1\n      0x00\n      dup2\n      mstore\n      pop\n      swap1\n      pop\n        /* \"contracts/6_enumExample.sol\":447:645  function getKeyByValue(Status _status) pure external returns ( string memory) {... */\n    tag_42:\n      swap2\n      swap1\n      pop\n      jump\t// out\n        /* \"contracts/6_enumExample.sol\":385:442  function reset() external  {... */\n    tag_30:\n        /* \"contracts/6_enumExample.sol\":429:435  status */\n      0x00\n      dup1\n        /* \"contracts/6_enumExample.sol\":422:435  delete status */\n      0x0100\n      exp\n      dup2\n      sload\n      swap1\n      0xff\n      mul\n      not\n      and\n      swap1\n      sstore\n        /* \"contracts/6_enumExample.sol\":385:442  function reset() external  {... */\n      jump\t// out\n        /* \"#utility.yul\":7:82   */\n    tag_54:\n        /* \"#utility.yul\":40:46   */\n      0x00\n        /* \"#utility.yul\":73:75   */\n      0x40\n        /* \"#utility.yul\":67:76   */\n      mload\n        /* \"#utility.yul\":57:76   */\n      swap1\n      pop\n        /* \"#utility.yul\":7:82   */\n      swap1\n      jump\t// out\n        /* \"#utility.yul\":88:205   */\n    tag_55:\n        /* \"#utility.yul\":197:198   */\n      0x00\n        /* \"#utility.yul\":194:195   */\n      dup1\n        /* \"#utility.yul\":187:199   */\n      revert\n        /* \"#utility.yul\":211:328   */\n    tag_56:\n        /* \"#utility.yul\":320:321   */\n      0x00\n        /* \"#utility.yul\":317:318   */\n      dup1\n        /* \"#utility.yul\":310:322   */\n      revert\n        /* \"#utility.yul\":334:451   */\n    tag_57:\n        /* \"#utility.yul\":443:444   */\n      0x00\n        /* \"#utility.yul\":440:441   */\n      dup1\n        /* \"#utility.yul\":433:445   */\n      revert\n        /* \"#utility.yul\":457:574   */\n    tag_58:\n        /* \"#utility.yul\":566:567   */\n      0x00\n        /* \"#utility.yul\":563:564   */\n      dup1\n        /* \"#utility.yul\":556:568   */\n      revert\n        /* \"#utility.yul\":580:682   */\n    tag_59:\n        /* \"#utility.yul\":621:627   */\n      0x00\n        /* \"#utility.yul\":672:674   */\n      0x1f\n        /* \"#utility.yul\":668:675   */\n      not\n        /* \"#utility.yul\":663:665   */\n      0x1f\n        /* \"#utility.yul\":656:661   */\n      dup4\n        /* \"#utility.yul\":652:666   */\n      add\n        /* \"#utility.yul\":648:676   */\n      and\n        /* \"#utility.yul\":638:676   */\n      swap1\n      pop\n        /* \"#utility.yul\":580:682   */\n      swap2\n      swap1\n      pop\n      jump\t// out\n        /* \"#utility.yul\":688:868   */\n    tag_60:\n        /* \"#utility.yul\":736:813   */\n      0x4e487b7100000000000000000000000000000000000000000000000000000000\n        /* \"#utility.yul\":733:734   */\n      0x00\n        /* \"#utility.yul\":726:814   */\n      mstore\n        /* \"#utility.yul\":833:837   */\n      0x41\n        /* \"#utility.yul\":830:831   */\n      0x04\n        /* \"#utility.yul\":823:838   */\n      mstore\n        /* \"#utility.yul\":857:861   */\n      0x24\n        /* \"#utility.yul\":854:855   */\n      0x00\n        /* \"#utility.yul\":847:862   */\n      revert\n        /* \"#utility.yul\":874:1155   */\n    tag_61:\n        /* \"#utility.yul\":957:984   */\n      tag_86\n        /* \"#utility.yul\":979:983   */\n      dup3\n        /* \"#utility.yul\":957:984   */\n      tag_59\n      jump\t// in\n    tag_86:\n        /* \"#utility.yul\":949:955   */\n      dup2\n        /* \"#utility.yul\":945:985   */\n      add\n        /* \"#utility.yul\":1087:1093   */\n      dup2\n        /* \"#utility.yul\":1075:1085   */\n      dup2\n        /* \"#utility.yul\":1072:1094   */\n      lt\n        /* \"#utility.yul\":1051:1069   */\n      0xffffffffffffffff\n        /* \"#utility.yul\":1039:1049   */\n      dup3\n        /* \"#utility.yul\":1036:1070   */\n      gt\n        /* \"#utility.yul\":1033:1095   */\n      or\n        /* \"#utility.yul\":1030:1118   */\n      iszero\n      tag_87\n      jumpi\n        /* \"#utility.yul\":1098:1116   */\n      tag_88\n      tag_60\n      jump\t// in\n    tag_88:\n        /* \"#utility.yul\":1030:1118   */\n    tag_87:\n        /* \"#utility.yul\":1138:1148   */\n      dup1\n        /* \"#utility.yul\":1134:1136   */\n      0x40\n        /* \"#utility.yul\":1127:1149   */\n      mstore\n        /* \"#utility.yul\":917:1155   */\n      pop\n        /* \"#utility.yul\":874:1155   */\n      pop\n      pop\n      jump\t// out\n        /* \"#utility.yul\":1161:1290   */\n    tag_62:\n        /* \"#utility.yul\":1195:1201   */\n      0x00\n        /* \"#utility.yul\":1222:1242   */\n      tag_90\n      tag_54\n      jump\t// in\n    tag_90:\n        /* \"#utility.yul\":1212:1242   */\n      swap1\n      pop\n        /* \"#utility.yul\":1251:1284   */\n      tag_91\n        /* \"#utility.yul\":1279:1283   */\n      dup3\n        /* \"#utility.yul\":1271:1277   */\n      dup3\n        /* \"#utility.yul\":1251:1284   */\n      tag_61\n      jump\t// in\n    tag_91:\n        /* \"#utility.yul\":1161:1290   */\n      swap2\n      swap1\n      pop\n      jump\t// out\n        /* \"#utility.yul\":1296:1604   */\n    tag_63:\n        /* \"#utility.yul\":1358:1362   */\n      0x00\n        /* \"#utility.yul\":1448:1466   */\n      0xffffffffffffffff\n        /* \"#utility.yul\":1440:1446   */\n      dup3\n        /* \"#utility.yul\":1437:1467   */\n      gt\n        /* \"#utility.yul\":1434:1490   */\n      iszero\n      tag_93\n      jumpi\n        /* \"#utility.yul\":1470:1488   */\n      tag_94\n      tag_60\n      jump\t// in\n    tag_94:\n        /* \"#utility.yul\":1434:1490   */\n    tag_93:\n        /* \"#utility.yul\":1508:1537   */\n      tag_95\n        /* \"#utility.yul\":1530:1536   */\n      dup3\n        /* \"#utility.yul\":1508:1537   */\n      tag_59\n      jump\t// in\n    tag_95:\n        /* \"#utility.yul\":1500:1537   */\n      swap1\n      pop\n        /* \"#utility.yul\":1592:1596   */\n      0x20\n        /* \"#utility.yul\":1586:1590   */\n      dup2\n        /* \"#utility.yul\":1582:1597   */\n      add\n        /* \"#utility.yul\":1574:1597   */\n      swap1\n      pop\n        /* \"#utility.yul\":1296:1604   */\n      swap2\n      swap1\n      pop\n      jump\t// out\n        /* \"#utility.yul\":1610:1756   */\n    tag_64:\n        /* \"#utility.yul\":1707:1713   */\n      dup3\n        /* \"#utility.yul\":1702:1705   */\n      dup2\n        /* \"#utility.yul\":1697:1700   */\n      dup4\n        /* \"#utility.yul\":1684:1714   */\n      calldatacopy\n        /* \"#utility.yul\":1748:1749   */\n      0x00\n        /* \"#utility.yul\":1739:1745   */\n      dup4\n        /* \"#utility.yul\":1734:1737   */\n      dup4\n        /* \"#utility.yul\":1730:1746   */\n      add\n        /* \"#utility.yul\":1723:1750   */\n      mstore\n        /* \"#utility.yul\":1610:1756   */\n      pop\n      pop\n      pop\n      jump\t// out\n        /* \"#utility.yul\":1762:2187   */\n    tag_65:\n        /* \"#utility.yul\":1840:1845   */\n      0x00\n        /* \"#utility.yul\":1865:1931   */\n      tag_98\n        /* \"#utility.yul\":1881:1930   */\n      tag_99\n        /* \"#utility.yul\":1923:1929   */\n      dup5\n        /* \"#utility.yul\":1881:1930   */\n      tag_63\n      jump\t// in\n    tag_99:\n        /* \"#utility.yul\":1865:1931   */\n      tag_62\n      jump\t// in\n    tag_98:\n        /* \"#utility.yul\":1856:1931   */\n      swap1\n      pop\n        /* \"#utility.yul\":1954:1960   */\n      dup3\n        /* \"#utility.yul\":1947:1952   */\n      dup2\n        /* \"#utility.yul\":1940:1961   */\n      mstore\n        /* \"#utility.yul\":1992:1996   */\n      0x20\n        /* \"#utility.yul\":1985:1990   */\n      dup2\n        /* \"#utility.yul\":1981:1997   */\n      add\n        /* \"#utility.yul\":2030:2033   */\n      dup5\n        /* \"#utility.yul\":2021:2027   */\n      dup5\n        /* \"#utility.yul\":2016:2019   */\n      dup5\n        /* \"#utility.yul\":2012:2028   */\n      add\n        /* \"#utility.yul\":2009:2034   */\n      gt\n        /* \"#utility.yul\":2006:2118   */\n      iszero\n      tag_100\n      jumpi\n        /* \"#utility.yul\":2037:2116   */\n      tag_101\n      tag_58\n      jump\t// in\n    tag_101:\n        /* \"#utility.yul\":2006:2118   */\n    tag_100:\n        /* \"#utility.yul\":2127:2181   */\n      tag_102\n        /* \"#utility.yul\":2174:2180   */\n      dup5\n        /* \"#utility.yul\":2169:2172   */\n      dup3\n        /* \"#utility.yul\":2164:2167   */\n      dup6\n        /* \"#utility.yul\":2127:2181   */\n      tag_64\n      jump\t// in\n    tag_102:\n        /* \"#utility.yul\":1846:2187   */\n      pop\n        /* \"#utility.yul\":1762:2187   */\n      swap4\n      swap3\n      pop\n      pop\n      pop\n      jump\t// out\n        /* \"#utility.yul\":2207:2547   */\n    tag_66:\n        /* \"#utility.yul\":2263:2268   */\n      0x00\n        /* \"#utility.yul\":2312:2315   */\n      dup3\n        /* \"#utility.yul\":2305:2309   */\n      0x1f\n        /* \"#utility.yul\":2297:2303   */\n      dup4\n        /* \"#utility.yul\":2293:2310   */\n      add\n        /* \"#utility.yul\":2289:2316   */\n      slt\n        /* \"#utility.yul\":2279:2401   */\n      tag_104\n      jumpi\n        /* \"#utility.yul\":2320:2399   */\n      tag_105\n      tag_57\n      jump\t// in\n    tag_105:\n        /* \"#utility.yul\":2279:2401   */\n    tag_104:\n        /* \"#utility.yul\":2437:2443   */\n      dup2\n        /* \"#utility.yul\":2424:2444   */\n      calldataload\n        /* \"#utility.yul\":2462:2541   */\n      tag_106\n        /* \"#utility.yul\":2537:2540   */\n      dup5\n        /* \"#utility.yul\":2529:2535   */\n      dup3\n        /* \"#utility.yul\":2522:2526   */\n      0x20\n        /* \"#utility.yul\":2514:2520   */\n      dup7\n        /* \"#utility.yul\":2510:2527   */\n      add\n        /* \"#utility.yul\":2462:2541   */\n      tag_65\n      jump\t// in\n    tag_106:\n        /* \"#utility.yul\":2453:2541   */\n      swap2\n      pop\n        /* \"#utility.yul\":2269:2547   */\n      pop\n        /* \"#utility.yul\":2207:2547   */\n      swap3\n      swap2\n      pop\n      pop\n      jump\t// out\n        /* \"#utility.yul\":2553:3062   */\n    tag_13:\n        /* \"#utility.yul\":2622:2628   */\n      0x00\n        /* \"#utility.yul\":2671:2673   */\n      0x20\n        /* \"#utility.yul\":2659:2668   */\n      dup3\n        /* \"#utility.yul\":2650:2657   */\n      dup5\n        /* \"#utility.yul\":2646:2669   */\n      sub\n        /* \"#utility.yul\":2642:2674   */\n      slt\n        /* \"#utility.yul\":2639:2758   */\n      iszero\n      tag_108\n      jumpi\n        /* \"#utility.yul\":2677:2756   */\n      tag_109\n      tag_55\n      jump\t// in\n    tag_109:\n        /* \"#utility.yul\":2639:2758   */\n    tag_108:\n        /* \"#utility.yul\":2825:2826   */\n      0x00\n        /* \"#utility.yul\":2814:2823   */\n      dup3\n        /* \"#utility.yul\":2810:2827   */\n      add\n        /* \"#utility.yul\":2797:2828   */\n      calldataload\n        /* \"#utility.yul\":2855:2873   */\n      0xffffffffffffffff\n        /* \"#utility.yul\":2847:2853   */\n      dup2\n        /* \"#utility.yul\":2844:2874   */\n      gt\n        /* \"#utility.yul\":2841:2958   */\n      iszero\n      tag_110\n      jumpi\n        /* \"#utility.yul\":2877:2956   */\n      tag_111\n      tag_56\n      jump\t// in\n    tag_111:\n        /* \"#utility.yul\":2841:2958   */\n    tag_110:\n        /* \"#utility.yul\":2982:3045   */\n      tag_112\n        /* \"#utility.yul\":3037:3044   */\n      dup5\n        /* \"#utility.yul\":3028:3034   */\n      dup3\n        /* \"#utility.yul\":3017:3026   */\n      dup6\n        /* \"#utility.yul\":3013:3035   */\n      add\n        /* \"#utility.yul\":2982:3045   */\n      tag_66\n      jump\t// in\n    tag_112:\n        /* \"#utility.yul\":2972:3045   */\n      swap2\n      pop\n        /* \"#utility.yul\":2768:3055   */\n      pop\n        /* \"#utility.yul\":2553:3062   */\n      swap3\n      swap2\n      pop\n      pop\n      jump\t// out\n        /* \"#utility.yul\":3068:3248   */\n    tag_34:\n        /* \"#utility.yul\":3116:3193   */\n      0x4e487b7100000000000000000000000000000000000000000000000000000000\n        /* \"#utility.yul\":3113:3114   */\n      0x00\n        /* \"#utility.yul\":3106:3194   */\n      mstore\n        /* \"#utility.yul\":3213:3217   */\n      0x21\n        /* \"#utility.yul\":3210:3211   */\n      0x04\n        /* \"#utility.yul\":3203:3218   */\n      mstore\n        /* \"#utility.yul\":3237:3241   */\n      0x24\n        /* \"#utility.yul\":3234:3235   */\n      0x00\n        /* \"#utility.yul\":3227:3242   */\n      revert\n        /* \"#utility.yul\":3254:3367   */\n    tag_67:\n        /* \"#utility.yul\":3335:3336   */\n      0x02\n        /* \"#utility.yul\":3328:3333   */\n      dup2\n        /* \"#utility.yul\":3325:3337   */\n      lt\n        /* \"#utility.yul\":3315:3361   */\n      tag_115\n      jumpi\n        /* \"#utility.yul\":3341:3359   */\n      tag_116\n      tag_34\n      jump\t// in\n    tag_116:\n        /* \"#utility.yul\":3315:3361   */\n    tag_115:\n        /* \"#utility.yul\":3254:3367   */\n      pop\n      jump\t// out\n        /* \"#utility.yul\":3373:3500   */\n    tag_68:\n        /* \"#utility.yul\":3418:3425   */\n      0x00\n        /* \"#utility.yul\":3447:3452   */\n      dup2\n        /* \"#utility.yul\":3436:3452   */\n      swap1\n      pop\n        /* \"#utility.yul\":3453:3494   */\n      tag_118\n        /* \"#utility.yul\":3488:3493   */\n      dup3\n        /* \"#utility.yul\":3453:3494   */\n      tag_67\n      jump\t// in\n    tag_118:\n        /* \"#utility.yul\":3373:3500   */\n      swap2\n      swap1\n      pop\n      jump\t// out\n        /* \"#utility.yul\":3506:3633   */\n    tag_69:\n        /* \"#utility.yul\":3562:3571   */\n      0x00\n        /* \"#utility.yul\":3595:3627   */\n      tag_120\n        /* \"#utility.yul\":3621:3626   */\n      dup3\n        /* \"#utility.yul\":3595:3627   */\n      tag_68\n      jump\t// in\n    tag_120:\n        /* \"#utility.yul\":3582:3627   */\n      swap1\n      pop\n        /* \"#utility.yul\":3506:3633   */\n      swap2\n      swap1\n      pop\n      jump\t// out\n        /* \"#utility.yul\":3639:3782   */\n    tag_70:\n        /* \"#utility.yul\":3732:3775   */\n      tag_122\n        /* \"#utility.yul\":3769:3774   */\n      dup2\n        /* \"#utility.yul\":3732:3775   */\n      tag_69\n      jump\t// in\n    tag_122:\n        /* \"#utility.yul\":3727:3730   */\n      dup3\n        /* \"#utility.yul\":3720:3776   */\n      mstore\n        /* \"#utility.yul\":3639:3782   */\n      pop\n      pop\n      jump\t// out\n        /* \"#utility.yul\":3788:4022   */\n    tag_16:\n        /* \"#utility.yul\":3887:3891   */\n      0x00\n        /* \"#utility.yul\":3925:3927   */\n      0x20\n        /* \"#utility.yul\":3914:3923   */\n      dup3\n        /* \"#utility.yul\":3910:3928   */\n      add\n        /* \"#utility.yul\":3902:3928   */\n      swap1\n      pop\n        /* \"#utility.yul\":3938:4015   */\n      tag_124\n        /* \"#utility.yul\":4012:4013   */\n      0x00\n        /* \"#utility.yul\":4001:4010   */\n      dup4\n        /* \"#utility.yul\":3997:4014   */\n      add\n        /* \"#utility.yul\":3988:3994   */\n      dup5\n        /* \"#utility.yul\":3938:4015   */\n      tag_70\n      jump\t// in\n    tag_124:\n        /* \"#utility.yul\":3788:4022   */\n      swap3\n      swap2\n      pop\n      pop\n      jump\t// out\n        /* \"#utility.yul\":4028:4135   */\n    tag_71:\n        /* \"#utility.yul\":4109:4110   */\n      0x02\n        /* \"#utility.yul\":4102:4107   */\n      dup2\n        /* \"#utility.yul\":4099:4111   */\n      lt\n        /* \"#utility.yul\":4089:4129   */\n      tag_126\n      jumpi\n        /* \"#utility.yul\":4125:4126   */\n      0x00\n        /* \"#utility.yul\":4122:4123   */\n      dup1\n        /* \"#utility.yul\":4115:4127   */\n      revert\n        /* \"#utility.yul\":4089:4129   */\n    tag_126:\n        /* \"#utility.yul\":4028:4135   */\n      pop\n      jump\t// out\n        /* \"#utility.yul\":4141:4296   */\n    tag_72:\n        /* \"#utility.yul\":4195:4200   */\n      0x00\n        /* \"#utility.yul\":4233:4239   */\n      dup2\n        /* \"#utility.yul\":4220:4240   */\n      calldataload\n        /* \"#utility.yul\":4211:4240   */\n      swap1\n      pop\n        /* \"#utility.yul\":4249:4290   */\n      tag_128\n        /* \"#utility.yul\":4284:4289   */\n      dup2\n        /* \"#utility.yul\":4249:4290   */\n      tag_71\n      jump\t// in\n    tag_128:\n        /* \"#utility.yul\":4141:4296   */\n      swap3\n      swap2\n      pop\n      pop\n      jump\t// out\n        /* \"#utility.yul\":4302:4647   */\n    tag_19:\n        /* \"#utility.yul\":4369:4375   */\n      0x00\n        /* \"#utility.yul\":4418:4420   */\n      0x20\n        /* \"#utility.yul\":4406:4415   */\n      dup3\n        /* \"#utility.yul\":4397:4404   */\n      dup5\n        /* \"#utility.yul\":4393:4416   */\n      sub\n        /* \"#utility.yul\":4389:4421   */\n      slt\n        /* \"#utility.yul\":4386:4505   */\n      iszero\n      tag_130\n      jumpi\n        /* \"#utility.yul\":4424:4503   */\n      tag_131\n      tag_55\n      jump\t// in\n    tag_131:\n        /* \"#utility.yul\":4386:4505   */\n    tag_130:\n        /* \"#utility.yul\":4544:4545   */\n      0x00\n        /* \"#utility.yul\":4569:4630   */\n      tag_132\n        /* \"#utility.yul\":4622:4629   */\n      dup5\n        /* \"#utility.yul\":4613:4619   */\n      dup3\n        /* \"#utility.yul\":4602:4611   */\n      dup6\n        /* \"#utility.yul\":4598:4620   */\n      add\n        /* \"#utility.yul\":4569:4630   */\n      tag_72\n      jump\t// in\n    tag_132:\n        /* \"#utility.yul\":4559:4630   */\n      swap2\n      pop\n        /* \"#utility.yul\":4515:4640   */\n      pop\n        /* \"#utility.yul\":4302:4647   */\n      swap3\n      swap2\n      pop\n      pop\n      jump\t// out\n        /* \"#utility.yul\":4653:4752   */\n    tag_73:\n        /* \"#utility.yul\":4705:4711   */\n      0x00\n        /* \"#utility.yul\":4739:4744   */\n      dup2\n        /* \"#utility.yul\":4733:4745   */\n      mload\n        /* \"#utility.yul\":4723:4745   */\n      swap1\n      pop\n        /* \"#utility.yul\":4653:4752   */\n      swap2\n      swap1\n      pop\n      jump\t// out\n        /* \"#utility.yul\":4758:4927   */\n    tag_74:\n        /* \"#utility.yul\":4842:4853   */\n      0x00\n        /* \"#utility.yul\":4876:4882   */\n      dup3\n        /* \"#utility.yul\":4871:4874   */\n      dup3\n        /* \"#utility.yul\":4864:4883   */\n      mstore\n        /* \"#utility.yul\":4916:4920   */\n      0x20\n        /* \"#utility.yul\":4911:4914   */\n      dup3\n        /* \"#utility.yul\":4907:4921   */\n      add\n        /* \"#utility.yul\":4892:4921   */\n      swap1\n      pop\n        /* \"#utility.yul\":4758:4927   */\n      swap3\n      swap2\n      pop\n      pop\n      jump\t// out\n        /* \"#utility.yul\":4933:5179   */\n    tag_75:\n        /* \"#utility.yul\":5014:5015   */\n      0x00\n        /* \"#utility.yul\":5024:5137   */\n    tag_136:\n        /* \"#utility.yul\":5038:5044   */\n      dup4\n        /* \"#utility.yul\":5035:5036   */\n      dup2\n        /* \"#utility.yul\":5032:5045   */\n      lt\n        /* \"#utility.yul\":5024:5137   */\n      iszero\n      tag_138\n      jumpi\n        /* \"#utility.yul\":5123:5124   */\n      dup1\n        /* \"#utility.yul\":5118:5121   */\n      dup3\n        /* \"#utility.yul\":5114:5125   */\n      add\n        /* \"#utility.yul\":5108:5126   */\n      mload\n        /* \"#utility.yul\":5104:5105   */\n      dup2\n        /* \"#utility.yul\":5099:5102   */\n      dup5\n        /* \"#utility.yul\":5095:5106   */\n      add\n        /* \"#utility.yul\":5088:5127   */\n      mstore\n        /* \"#utility.yul\":5060:5062   */\n      0x20\n        /* \"#utility.yul\":5057:5058   */\n      dup2\n        /* \"#utility.yul\":5053:5063   */\n      add\n        /* \"#utility.yul\":5048:5063   */\n      swap1\n      pop\n        /* \"#utility.yul\":5024:5137   */\n      jump(tag_136)\n    tag_138:\n        /* \"#utility.yul\":5171:5172   */\n      0x00\n        /* \"#utility.yul\":5162:5168   */\n      dup5\n        /* \"#utility.yul\":5157:5160   */\n      dup5\n        /* \"#utility.yul\":5153:5169   */\n      add\n        /* \"#utility.yul\":5146:5173   */\n      mstore\n        /* \"#utility.yul\":4995:5179   */\n      pop\n        /* \"#utility.yul\":4933:5179   */\n      pop\n      pop\n      pop\n      jump\t// out\n        /* \"#utility.yul\":5185:5562   */\n    tag_76:\n        /* \"#utility.yul\":5273:5276   */\n      0x00\n        /* \"#utility.yul\":5301:5340   */\n      tag_140\n        /* \"#utility.yul\":5334:5339   */\n      dup3\n        /* \"#utility.yul\":5301:5340   */\n      tag_73\n      jump\t// in\n    tag_140:\n        /* \"#utility.yul\":5356:5427   */\n      tag_141\n        /* \"#utility.yul\":5420:5426   */\n      dup2\n        /* \"#utility.yul\":5415:5418   */\n      dup6\n        /* \"#utility.yul\":5356:5427   */\n      tag_74\n      jump\t// in\n    tag_141:\n        /* \"#utility.yul\":5349:5427   */\n      swap4\n      pop\n        /* \"#utility.yul\":5436:5501   */\n      tag_142\n        /* \"#utility.yul\":5494:5500   */\n      dup2\n        /* \"#utility.yul\":5489:5492   */\n      dup6\n        /* \"#utility.yul\":5482:5486   */\n      0x20\n        /* \"#utility.yul\":5475:5480   */\n      dup7\n        /* \"#utility.yul\":5471:5487   */\n      add\n        /* \"#utility.yul\":5436:5501   */\n      tag_75\n      jump\t// in\n    tag_142:\n        /* \"#utility.yul\":5526:5555   */\n      tag_143\n        /* \"#utility.yul\":5548:5554   */\n      dup2\n        /* \"#utility.yul\":5526:5555   */\n      tag_59\n      jump\t// in\n    tag_143:\n        /* \"#utility.yul\":5521:5524   */\n      dup5\n        /* \"#utility.yul\":5517:5556   */\n      add\n        /* \"#utility.yul\":5510:5556   */\n      swap2\n      pop\n        /* \"#utility.yul\":5277:5562   */\n      pop\n        /* \"#utility.yul\":5185:5562   */\n      swap3\n      swap2\n      pop\n      pop\n      jump\t// out\n        /* \"#utility.yul\":5568:5881   */\n    tag_28:\n        /* \"#utility.yul\":5681:5685   */\n      0x00\n        /* \"#utility.yul\":5719:5721   */\n      0x20\n        /* \"#utility.yul\":5708:5717   */\n      dup3\n        /* \"#utility.yul\":5704:5722   */\n      add\n        /* \"#utility.yul\":5696:5722   */\n      swap1\n      pop\n        /* \"#utility.yul\":5768:5777   */\n      dup2\n        /* \"#utility.yul\":5762:5766   */\n      dup2\n        /* \"#utility.yul\":5758:5778   */\n      sub\n        /* \"#utility.yul\":5754:5755   */\n      0x00\n        /* \"#utility.yul\":5743:5752   */\n      dup4\n        /* \"#utility.yul\":5739:5756   */\n      add\n        /* \"#utility.yul\":5732:5779   */\n      mstore\n        /* \"#utility.yul\":5796:5874   */\n      tag_145\n        /* \"#utility.yul\":5869:5873   */\n      dup2\n        /* \"#utility.yul\":5860:5866   */\n      dup5\n        /* \"#utility.yul\":5796:5874   */\n      tag_76\n      jump\t// in\n    tag_145:\n        /* \"#utility.yul\":5788:5874   */\n      swap1\n      pop\n        /* \"#utility.yul\":5568:5881   */\n      swap3\n      swap2\n      pop\n      pop\n      jump\t// out\n\n    auxdata: 0xa26469706673582212209189fdc1fa5e483d5578482e34ec1fe961ba6a9e73a7bb4331a399782526b46664736f6c63430008100033\n}\n",
				"bytecode": {
					"linkReferences": {},
					"object": "608060405234801561001057600080fd5b50610691806100206000396000f3fe608060405234801561001057600080fd5b50600436106100625760003560e01c806312e0cadf1461006757806317108b11146100715780632e49d78b146100a15780634e69d560146100bd578063d7fa42f7146100db578063d826f88f1461010b575b600080fd5b61006f610115565b005b61008b6004803603810190610086919061048d565b610141565b604051610098919061054d565b60405180910390f35b6100bb60048036038101906100b6919061058d565b6101f3565b005b6100c561021f565b6040516100d2919061054d565b60405180910390f35b6100f560048036038101906100f0919061058d565b610235565b6040516101029190610639565b60405180910390f35b610113610320565b005b60016000806101000a81548160ff0219169083600181111561013a576101396104d6565b5b0217905550565b600081805190602001206040518060400160405280600381526020017f4f46460000000000000000000000000000000000000000000000000000000000815250805190602001200361019657600090506101ee565b81805190602001206040518060400160405280600281526020017f4f4e00000000000000000000000000000000000000000000000000000000000081525080519060200120036101e957600190506101ee565b600080fd5b919050565b806000806101000a81548160ff02191690836001811115610217576102166104d6565b5b021790555050565b60008060009054906101000a900460ff16905090565b606081600181111561024a576102496104d6565b5b6000600181111561025e5761025d6104d6565b5b036102a0576040518060400160405280600381526020017f4f46460000000000000000000000000000000000000000000000000000000000815250905061031b565b8160018111156102b3576102b26104d6565b5b6001808111156102c6576102c56104d6565b5b03610308576040518060400160405280600281526020017f4f4e000000000000000000000000000000000000000000000000000000000000815250905061031b565b6040518060200160405280600081525090505b919050565b6000806101000a81549060ff0219169055565b6000604051905090565b600080fd5b600080fd5b600080fd5b600080fd5b6000601f19601f8301169050919050565b7f4e487b7100000000000000000000000000000000000000000000000000000000600052604160045260246000fd5b61039a82610351565b810181811067ffffffffffffffff821117156103b9576103b8610362565b5b80604052505050565b60006103cc610333565b90506103d88282610391565b919050565b600067ffffffffffffffff8211156103f8576103f7610362565b5b61040182610351565b9050602081019050919050565b82818337600083830152505050565b600061043061042b846103dd565b6103c2565b90508281526020810184848401111561044c5761044b61034c565b5b61045784828561040e565b509392505050565b600082601f83011261047457610473610347565b5b813561048484826020860161041d565b91505092915050565b6000602082840312156104a3576104a261033d565b5b600082013567ffffffffffffffff8111156104c1576104c0610342565b5b6104cd8482850161045f565b91505092915050565b7f4e487b7100000000000000000000000000000000000000000000000000000000600052602160045260246000fd5b60028110610516576105156104d6565b5b50565b600081905061052782610505565b919050565b600061053782610519565b9050919050565b6105478161052c565b82525050565b6000602082019050610562600083018461053e565b92915050565b6002811061057557600080fd5b50565b60008135905061058781610568565b92915050565b6000602082840312156105a3576105a261033d565b5b60006105b184828501610578565b91505092915050565b600081519050919050565b600082825260208201905092915050565b60005b838110156105f45780820151818401526020810190506105d9565b60008484015250505050565b600061060b826105ba565b61061581856105c5565b93506106258185602086016105d6565b61062e81610351565b840191505092915050565b600060208201905081810360008301526106538184610600565b90509291505056fea26469706673582212209189fdc1fa5e483d5578482e34ec1fe961ba6a9e73a7bb4331a399782526b46664736f6c63430008100033",
					"opcodes": "PUSH1 0x80 PUSH1 0x40 MSTORE CALLVALUE DUP1 ISZERO PUSH2 0x10 JUMPI PUSH1 0x0 DUP1 REVERT JUMPDEST POP PUSH2 0x691 DUP1 PUSH2 0x20 PUSH1 0x0 CODECOPY PUSH1 0x0 RETURN INVALID PUSH1 0x80 PUSH1 0x40 MSTORE CALLVALUE DUP1 ISZERO PUSH2 0x10 JUMPI PUSH1 0x0 DUP1 REVERT JUMPDEST POP PUSH1 0x4 CALLDATASIZE LT PUSH2 0x62 JUMPI PUSH1 0x0 CALLDATALOAD PUSH1 0xE0 SHR DUP1 PUSH4 0x12E0CADF EQ PUSH2 0x67 JUMPI DUP1 PUSH4 0x17108B11 EQ PUSH2 0x71 JUMPI DUP1 PUSH4 0x2E49D78B EQ PUSH2 0xA1 JUMPI DUP1 PUSH4 0x4E69D560 EQ PUSH2 0xBD JUMPI DUP1 PUSH4 0xD7FA42F7 EQ PUSH2 0xDB JUMPI DUP1 PUSH4 0xD826F88F EQ PUSH2 0x10B JUMPI JUMPDEST PUSH1 0x0 DUP1 REVERT JUMPDEST PUSH2 0x6F PUSH2 0x115 JUMP JUMPDEST STOP JUMPDEST PUSH2 0x8B PUSH1 0x4 DUP1 CALLDATASIZE SUB DUP2 ADD SWAP1 PUSH2 0x86 SWAP2 SWAP1 PUSH2 0x48D JUMP JUMPDEST PUSH2 0x141 JUMP JUMPDEST PUSH1 0x40 MLOAD PUSH2 0x98 SWAP2 SWAP1 PUSH2 0x54D JUMP JUMPDEST PUSH1 0x40 MLOAD DUP1 SWAP2 SUB SWAP1 RETURN JUMPDEST PUSH2 0xBB PUSH1 0x4 DUP1 CALLDATASIZE SUB DUP2 ADD SWAP1 PUSH2 0xB6 SWAP2 SWAP1 PUSH2 0x58D JUMP JUMPDEST PUSH2 0x1F3 JUMP JUMPDEST STOP JUMPDEST PUSH2 0xC5 PUSH2 0x21F JUMP JUMPDEST PUSH1 0x40 MLOAD PUSH2 0xD2 SWAP2 SWAP1 PUSH2 0x54D JUMP JUMPDEST PUSH1 0x40 MLOAD DUP1 SWAP2 SUB SWAP1 RETURN JUMPDEST PUSH2 0xF5 PUSH1 0x4 DUP1 CALLDATASIZE SUB DUP2 ADD SWAP1 PUSH2 0xF0 SWAP2 SWAP1 PUSH2 0x58D JUMP JUMPDEST PUSH2 0x235 JUMP JUMPDEST PUSH1 0x40 MLOAD PUSH2 0x102 SWAP2 SWAP1 PUSH2 0x639 JUMP JUMPDEST PUSH1 0x40 MLOAD DUP1 SWAP2 SUB SWAP1 RETURN JUMPDEST PUSH2 0x113 PUSH2 0x320 JUMP JUMPDEST STOP JUMPDEST PUSH1 0x1 PUSH1 0x0 DUP1 PUSH2 0x100 EXP DUP2 SLOAD DUP2 PUSH1 0xFF MUL NOT AND SWAP1 DUP4 PUSH1 0x1 DUP2 GT ISZERO PUSH2 0x13A JUMPI PUSH2 0x139 PUSH2 0x4D6 JUMP JUMPDEST JUMPDEST MUL OR SWAP1 SSTORE POP JUMP JUMPDEST PUSH1 0x0 DUP2 DUP1 MLOAD SWAP1 PUSH1 0x20 ADD KECCAK256 PUSH1 0x40 MLOAD DUP1 PUSH1 0x40 ADD PUSH1 0x40 MSTORE DUP1 PUSH1 0x3 DUP2 MSTORE PUSH1 0x20 ADD PUSH32 0x4F46460000000000000000000000000000000000000000000000000000000000 DUP2 MSTORE POP DUP1 MLOAD SWAP1 PUSH1 0x20 ADD KECCAK256 SUB PUSH2 0x196 JUMPI PUSH1 0x0 SWAP1 POP PUSH2 0x1EE JUMP JUMPDEST DUP2 DUP1 MLOAD SWAP1 PUSH1 0x20 ADD KECCAK256 PUSH1 0x40 MLOAD DUP1 PUSH1 0x40 ADD PUSH1 0x40 MSTORE DUP1 PUSH1 0x2 DUP2 MSTORE PUSH1 0x20 ADD PUSH32 0x4F4E000000000000000000000000000000000000000000000000000000000000 DUP2 MSTORE POP DUP1 MLOAD SWAP1 PUSH1 0x20 ADD KECCAK256 SUB PUSH2 0x1E9 JUMPI PUSH1 0x1 SWAP1 POP PUSH2 0x1EE JUMP JUMPDEST PUSH1 0x0 DUP1 REVERT JUMPDEST SWAP2 SWAP1 POP JUMP JUMPDEST DUP1 PUSH1 0x0 DUP1 PUSH2 0x100 EXP DUP2 SLOAD DUP2 PUSH1 0xFF MUL NOT AND SWAP1 DUP4 PUSH1 0x1 DUP2 GT ISZERO PUSH2 0x217 JUMPI PUSH2 0x216 PUSH2 0x4D6 JUMP JUMPDEST JUMPDEST MUL OR SWAP1 SSTORE POP POP JUMP JUMPDEST PUSH1 0x0 DUP1 PUSH1 0x0 SWAP1 SLOAD SWAP1 PUSH2 0x100 EXP SWAP1 DIV PUSH1 0xFF AND SWAP1 POP SWAP1 JUMP JUMPDEST PUSH1 0x60 DUP2 PUSH1 0x1 DUP2 GT ISZERO PUSH2 0x24A JUMPI PUSH2 0x249 PUSH2 0x4D6 JUMP JUMPDEST JUMPDEST PUSH1 0x0 PUSH1 0x1 DUP2 GT ISZERO PUSH2 0x25E JUMPI PUSH2 0x25D PUSH2 0x4D6 JUMP JUMPDEST JUMPDEST SUB PUSH2 0x2A0 JUMPI PUSH1 0x40 MLOAD DUP1 PUSH1 0x40 ADD PUSH1 0x40 MSTORE DUP1 PUSH1 0x3 DUP2 MSTORE PUSH1 0x20 ADD PUSH32 0x4F46460000000000000000000000000000000000000000000000000000000000 DUP2 MSTORE POP SWAP1 POP PUSH2 0x31B JUMP JUMPDEST DUP2 PUSH1 0x1 DUP2 GT ISZERO PUSH2 0x2B3 JUMPI PUSH2 0x2B2 PUSH2 0x4D6 JUMP JUMPDEST JUMPDEST PUSH1 0x1 DUP1 DUP2 GT ISZERO PUSH2 0x2C6 JUMPI PUSH2 0x2C5 PUSH2 0x4D6 JUMP JUMPDEST JUMPDEST SUB PUSH2 0x308 JUMPI PUSH1 0x40 MLOAD DUP1 PUSH1 0x40 ADD PUSH1 0x40 MSTORE DUP1 PUSH1 0x2 DUP2 MSTORE PUSH1 0x20 ADD PUSH32 0x4F4E000000000000000000000000000000000000000000000000000000000000 DUP2 MSTORE POP SWAP1 POP PUSH2 0x31B JUMP JUMPDEST PUSH1 0x40 MLOAD DUP1 PUSH1 0x20 ADD PUSH1 0x40 MSTORE DUP1 PUSH1 0x0 DUP2 MSTORE POP SWAP1 POP JUMPDEST SWAP2 SWAP1 POP JUMP JUMPDEST PUSH1 0x0 DUP1 PUSH2 0x100 EXP DUP2 SLOAD SWAP1 PUSH1 0xFF MUL NOT AND SWAP1 SSTORE JUMP JUMPDEST PUSH1 0x0 PUSH1 0x40 MLOAD SWAP1 POP SWAP1 JUMP JUMPDEST PUSH1 0x0 DUP1 REVERT JUMPDEST PUSH1 0x0 DUP1 REVERT JUMPDEST PUSH1 0x0 DUP1 REVERT JUMPDEST PUSH1 0x0 DUP1 REVERT JUMPDEST PUSH1 0x0 PUSH1 0x1F NOT PUSH1 0x1F DUP4 ADD AND SWAP1 POP SWAP2 SWAP1 POP JUMP JUMPDEST PUSH32 0x4E487B7100000000000000000000000000000000000000000000000000000000 PUSH1 0x0 MSTORE PUSH1 0x41 PUSH1 0x4 MSTORE PUSH1 0x24 PUSH1 0x0 REVERT JUMPDEST PUSH2 0x39A DUP3 PUSH2 0x351 JUMP JUMPDEST DUP2 ADD DUP2 DUP2 LT PUSH8 0xFFFFFFFFFFFFFFFF DUP3 GT OR ISZERO PUSH2 0x3B9 JUMPI PUSH2 0x3B8 PUSH2 0x362 JUMP JUMPDEST JUMPDEST DUP1 PUSH1 0x40 MSTORE POP POP POP JUMP JUMPDEST PUSH1 0x0 PUSH2 0x3CC PUSH2 0x333 JUMP JUMPDEST SWAP1 POP PUSH2 0x3D8 DUP3 DUP3 PUSH2 0x391 JUMP JUMPDEST SWAP2 SWAP1 POP JUMP JUMPDEST PUSH1 0x0 PUSH8 0xFFFFFFFFFFFFFFFF DUP3 GT ISZERO PUSH2 0x3F8 JUMPI PUSH2 0x3F7 PUSH2 0x362 JUMP JUMPDEST JUMPDEST PUSH2 0x401 DUP3 PUSH2 0x351 JUMP JUMPDEST SWAP1 POP PUSH1 0x20 DUP2 ADD SWAP1 POP SWAP2 SWAP1 POP JUMP JUMPDEST DUP3 DUP2 DUP4 CALLDATACOPY PUSH1 0x0 DUP4 DUP4 ADD MSTORE POP POP POP JUMP JUMPDEST PUSH1 0x0 PUSH2 0x430 PUSH2 0x42B DUP5 PUSH2 0x3DD JUMP JUMPDEST PUSH2 0x3C2 JUMP JUMPDEST SWAP1 POP DUP3 DUP2 MSTORE PUSH1 0x20 DUP2 ADD DUP5 DUP5 DUP5 ADD GT ISZERO PUSH2 0x44C JUMPI PUSH2 0x44B PUSH2 0x34C JUMP JUMPDEST JUMPDEST PUSH2 0x457 DUP5 DUP3 DUP6 PUSH2 0x40E JUMP JUMPDEST POP SWAP4 SWAP3 POP POP POP JUMP JUMPDEST PUSH1 0x0 DUP3 PUSH1 0x1F DUP4 ADD SLT PUSH2 0x474 JUMPI PUSH2 0x473 PUSH2 0x347 JUMP JUMPDEST JUMPDEST DUP2 CALLDATALOAD PUSH2 0x484 DUP5 DUP3 PUSH1 0x20 DUP7 ADD PUSH2 0x41D JUMP JUMPDEST SWAP2 POP POP SWAP3 SWAP2 POP POP JUMP JUMPDEST PUSH1 0x0 PUSH1 0x20 DUP3 DUP5 SUB SLT ISZERO PUSH2 0x4A3 JUMPI PUSH2 0x4A2 PUSH2 0x33D JUMP JUMPDEST JUMPDEST PUSH1 0x0 DUP3 ADD CALLDATALOAD PUSH8 0xFFFFFFFFFFFFFFFF DUP2 GT ISZERO PUSH2 0x4C1 JUMPI PUSH2 0x4C0 PUSH2 0x342 JUMP JUMPDEST JUMPDEST PUSH2 0x4CD DUP5 DUP3 DUP6 ADD PUSH2 0x45F JUMP JUMPDEST SWAP2 POP POP SWAP3 SWAP2 POP POP JUMP JUMPDEST PUSH32 0x4E487B7100000000000000000000000000000000000000000000000000000000 PUSH1 0x0 MSTORE PUSH1 0x21 PUSH1 0x4 MSTORE PUSH1 0x24 PUSH1 0x0 REVERT JUMPDEST PUSH1 0x2 DUP2 LT PUSH2 0x516 JUMPI PUSH2 0x515 PUSH2 0x4D6 JUMP JUMPDEST JUMPDEST POP JUMP JUMPDEST PUSH1 0x0 DUP2 SWAP1 POP PUSH2 0x527 DUP3 PUSH2 0x505 JUMP JUMPDEST SWAP2 SWAP1 POP JUMP JUMPDEST PUSH1 0x0 PUSH2 0x537 DUP3 PUSH2 0x519 JUMP JUMPDEST SWAP1 POP SWAP2 SWAP1 POP JUMP JUMPDEST PUSH2 0x547 DUP2 PUSH2 0x52C JUMP JUMPDEST DUP3 MSTORE POP POP JUMP JUMPDEST PUSH1 0x0 PUSH1 0x20 DUP3 ADD SWAP1 POP PUSH2 0x562 PUSH1 0x0 DUP4 ADD DUP5 PUSH2 0x53E JUMP JUMPDEST SWAP3 SWAP2 POP POP JUMP JUMPDEST PUSH1 0x2 DUP2 LT PUSH2 0x575 JUMPI PUSH1 0x0 DUP1 REVERT JUMPDEST POP JUMP JUMPDEST PUSH1 0x0 DUP2 CALLDATALOAD SWAP1 POP PUSH2 0x587 DUP2 PUSH2 0x568 JUMP JUMPDEST SWAP3 SWAP2 POP POP JUMP JUMPDEST PUSH1 0x0 PUSH1 0x20 DUP3 DUP5 SUB SLT ISZERO PUSH2 0x5A3 JUMPI PUSH2 0x5A2 PUSH2 0x33D JUMP JUMPDEST JUMPDEST PUSH1 0x0 PUSH2 0x5B1 DUP5 DUP3 DUP6 ADD PUSH2 0x578 JUMP JUMPDEST SWAP2 POP POP SWAP3 SWAP2 POP POP JUMP JUMPDEST PUSH1 0x0 DUP2 MLOAD SWAP1 POP SWAP2 SWAP1 POP JUMP JUMPDEST PUSH1 0x0 DUP3 DUP3 MSTORE PUSH1 0x20 DUP3 ADD SWAP1 POP SWAP3 SWAP2 POP POP JUMP JUMPDEST PUSH1 0x0 JUMPDEST DUP4 DUP2 LT ISZERO PUSH2 0x5F4 JUMPI DUP1 DUP3 ADD MLOAD DUP2 DUP5 ADD MSTORE PUSH1 0x20 DUP2 ADD SWAP1 POP PUSH2 0x5D9 JUMP JUMPDEST PUSH1 0x0 DUP5 DUP5 ADD MSTORE POP POP POP POP JUMP JUMPDEST PUSH1 0x0 PUSH2 0x60B DUP3 PUSH2 0x5BA JUMP JUMPDEST PUSH2 0x615 DUP2 DUP6 PUSH2 0x5C5 JUMP JUMPDEST SWAP4 POP PUSH2 0x625 DUP2 DUP6 PUSH1 0x20 DUP7 ADD PUSH2 0x5D6 JUMP JUMPDEST PUSH2 0x62E DUP2 PUSH2 0x351 JUMP JUMPDEST DUP5 ADD SWAP2 POP POP SWAP3 SWAP2 POP POP JUMP JUMPDEST PUSH1 0x0 PUSH1 0x20 DUP3 ADD SWAP1 POP DUP2 DUP2 SUB PUSH1 0x0 DUP4 ADD MSTORE PUSH2 0x653 DUP2 DUP5 PUSH2 0x600 JUMP JUMPDEST SWAP1 POP SWAP3 SWAP2 POP POP JUMP INVALID LOG2 PUSH5 0x6970667358 0x22 SLT KECCAK256 SWAP2 DUP10 REVERT 0xC1 STATICCALL 0x5E BASEFEE RETURNDATASIZE SSTORE PUSH25 0x482E34EC1FE961BA6A9E73A7BB4331A399782526B46664736F PUSH13 0x63430008100033000000000000 "
				},
				"gasEstimates": {
					"creation": {
						"codeDepositCost": "336200",
						"executionCost": "374",
						"totalCost": "336574"
					},
					"external": {
						"getKeyByValue(uint8)": "infinite",
						"getStatus()": "2612",
						"getValueBykey(string)": "infinite",
						"reset()": "24474",
						"setStatus(uint8)": "24672",
						"setStatus2()": "24409"
					}
				},
				"methodIdentifiers": {
					"getKeyByValue(uint8)": "d7fa42f7",
					"getStatus()": "4e69d560",
					"getValueBykey(string)": "17108b11",
					"reset()": "d826f88f",
					"setStatus(uint8)": "2e49d78b",
					"setStatus2()": "12e0cadf"
				}
			},
			"storageLayout": {
				"storage": [
					{
						"astId": 7,
						"contract": "contracts/6_enumExample.sol:enumExample",
						"label": "status",
						"offset": 0,
						"slot": "0",
						"type": "t_enum(Status)4"
					}
				],
				"types": {
					"t_enum(Status)4": {
						"encoding": "inplace",
						"label": "enum enumExample.Status",
						"numberOfBytes": "1"
					}
				}
			},
			"userdoc": {
				"kind": "user",
				"methods": {},
				"version": 1
			}
		}
	}
}