{
	"contracts/10_callContractPrice.sol": {
		"Receiver": {
			"abi": [
				{
					"anonymous": false,
					"inputs": [
						{
							"indexed": false,
							"internalType": "address",
							"name": "caller",
							"type": "address"
						},
						{
							"indexed": false,
							"internalType": "uint256",
							"name": "amount",
							"type": "uint256"
						},
						{
							"indexed": false,
							"internalType": "string",
							"name": "message",
							"type": "string"
						}
					],
					"name": "Received",
					"type": "event"
				},
				{
					"stateMutability": "payable",
					"type": "fallback"
				},
				{
					"inputs": [
						{
							"internalType": "string",
							"name": "_message",
							"type": "string"
						},
						{
							"internalType": "uint256",
							"name": "_y",
							"type": "uint256"
						}
					],
					"name": "foo",
					"outputs": [
						{
							"internalType": "uint256",
							"name": "",
							"type": "uint256"
						}
					],
					"stateMutability": "payable",
					"type": "function"
				},
				{
					"inputs": [],
					"name": "getAddress",
					"outputs": [
						{
							"internalType": "address",
							"name": "",
							"type": "address"
						}
					],
					"stateMutability": "view",
					"type": "function"
				},
				{
					"inputs": [],
					"name": "getBalance",
					"outputs": [
						{
							"internalType": "uint256",
							"name": "",
							"type": "uint256"
						}
					],
					"stateMutability": "view",
					"type": "function"
				},
				{
					"stateMutability": "payable",
					"type": "receive"
				}
			],
			"devdoc": {
				"kind": "dev",
				"methods": {},
				"version": 1
			},
			"evm": {
				"assembly": "    /* \"contracts/10_callContractPrice.sol\":70:784  contract Receiver {... */\n  mstore(0x40, 0x80)\n  callvalue\n  dup1\n  iszero\n  tag_1\n  jumpi\n  0x00\n  dup1\n  revert\ntag_1:\n  pop\n  dataSize(sub_0)\n  dup1\n  dataOffset(sub_0)\n  0x00\n  codecopy\n  0x00\n  return\nstop\n\nsub_0: assembly {\n        /* \"contracts/10_callContractPrice.sol\":70:784  contract Receiver {... */\n      mstore(0x40, 0x80)\n      jumpi(tag_1, lt(calldatasize, 0x04))\n      shr(0xe0, calldataload(0x00))\n      dup1\n      0x12065fe0\n      eq\n      tag_3\n      jumpi\n      dup1\n      0x24ccab8f\n      eq\n      tag_4\n      jumpi\n      dup1\n      0x38cc4831\n      eq\n      tag_5\n      jumpi\n      jump(tag_2)\n    tag_1:\n      jumpi(tag_2, calldatasize)\n        /* \"contracts/10_callContractPrice.sol\":221:274  Received(msg.sender, msg.value, \"Receive was called\") */\n      0x59e04c3f0d44b7caf6e8ef854b61d9a51cf1960d7a88ff6356cc5e946b4b5832\n        /* \"contracts/10_callContractPrice.sol\":230:240  msg.sender */\n      caller\n        /* \"contracts/10_callContractPrice.sol\":242:251  msg.value */\n      callvalue\n        /* \"contracts/10_callContractPrice.sol\":221:274  Received(msg.sender, msg.value, \"Receive was called\") */\n      mload(0x40)\n      tag_8\n      swap3\n      swap2\n      swap1\n      tag_9\n      jump\t// in\n    tag_8:\n      mload(0x40)\n      dup1\n      swap2\n      sub\n      swap1\n      log1\n        /* \"contracts/10_callContractPrice.sol\":70:784  contract Receiver {... */\n      stop\n    tag_2:\n        /* \"contracts/10_callContractPrice.sol\":363:417  Received(msg.sender, msg.value, \"Fallback was called\") */\n      0x59e04c3f0d44b7caf6e8ef854b61d9a51cf1960d7a88ff6356cc5e946b4b5832\n        /* \"contracts/10_callContractPrice.sol\":372:382  msg.sender */\n      caller\n        /* \"contracts/10_callContractPrice.sol\":384:393  msg.value */\n      callvalue\n        /* \"contracts/10_callContractPrice.sol\":363:417  Received(msg.sender, msg.value, \"Fallback was called\") */\n      mload(0x40)\n      tag_12\n      swap3\n      swap2\n      swap1\n      tag_13\n      jump\t// in\n    tag_12:\n      mload(0x40)\n      dup1\n      swap2\n      sub\n      swap1\n      log1\n        /* \"contracts/10_callContractPrice.sol\":70:784  contract Receiver {... */\n      stop\n        /* \"contracts/10_callContractPrice.sol\":688:782  function getBalance() public view returns (uint) {... */\n    tag_3:\n      callvalue\n      dup1\n      iszero\n      tag_14\n      jumpi\n      0x00\n      dup1\n      revert\n    tag_14:\n      pop\n      tag_15\n      tag_16\n      jump\t// in\n    tag_15:\n      mload(0x40)\n      tag_17\n      swap2\n      swap1\n      tag_18\n      jump\t// in\n    tag_17:\n      mload(0x40)\n      dup1\n      swap2\n      sub\n      swap1\n      return\n        /* \"contracts/10_callContractPrice.sol\":430:588  function foo(string memory _message, uint _y) public payable returns (uint) {... */\n    tag_4:\n      tag_19\n      0x04\n      dup1\n      calldatasize\n      sub\n      dup2\n      add\n      swap1\n      tag_20\n      swap2\n      swap1\n      tag_21\n      jump\t// in\n    tag_20:\n      tag_22\n      jump\t// in\n    tag_19:\n      mload(0x40)\n      tag_23\n      swap2\n      swap1\n      tag_18\n      jump\t// in\n    tag_23:\n      mload(0x40)\n      dup1\n      swap2\n      sub\n      swap1\n      return\n        /* \"contracts/10_callContractPrice.sol\":594:683  function getAddress() public view returns (address) {... */\n    tag_5:\n      callvalue\n      dup1\n      iszero\n      tag_24\n      jumpi\n      0x00\n      dup1\n      revert\n    tag_24:\n      pop\n      tag_25\n      tag_26\n      jump\t// in\n    tag_25:\n      mload(0x40)\n      tag_27\n      swap2\n      swap1\n      tag_28\n      jump\t// in\n    tag_27:\n      mload(0x40)\n      dup1\n      swap2\n      sub\n      swap1\n      return\n        /* \"contracts/10_callContractPrice.sol\":688:782  function getBalance() public view returns (uint) {... */\n    tag_16:\n        /* \"contracts/10_callContractPrice.sol\":731:735  uint */\n      0x00\n        /* \"contracts/10_callContractPrice.sol\":754:775  address(this).balance */\n      selfbalance\n        /* \"contracts/10_callContractPrice.sol\":747:775  return address(this).balance */\n      swap1\n      pop\n        /* \"contracts/10_callContractPrice.sol\":688:782  function getBalance() public view returns (uint) {... */\n      swap1\n      jump\t// out\n        /* \"contracts/10_callContractPrice.sol\":430:588  function foo(string memory _message, uint _y) public payable returns (uint) {... */\n    tag_22:\n        /* \"contracts/10_callContractPrice.sol\":500:504  uint */\n      0x00\n        /* \"contracts/10_callContractPrice.sol\":521:562  Received(msg.sender, msg.value, _message) */\n      0x59e04c3f0d44b7caf6e8ef854b61d9a51cf1960d7a88ff6356cc5e946b4b5832\n        /* \"contracts/10_callContractPrice.sol\":530:540  msg.sender */\n      caller\n        /* \"contracts/10_callContractPrice.sol\":542:551  msg.value */\n      callvalue\n        /* \"contracts/10_callContractPrice.sol\":553:561  _message */\n      dup6\n        /* \"contracts/10_callContractPrice.sol\":521:562  Received(msg.sender, msg.value, _message) */\n      mload(0x40)\n      tag_31\n      swap4\n      swap3\n      swap2\n      swap1\n      tag_32\n      jump\t// in\n    tag_31:\n      mload(0x40)\n      dup1\n      swap2\n      sub\n      swap1\n      log1\n        /* \"contracts/10_callContractPrice.sol\":579:581  _y */\n      dup2\n        /* \"contracts/10_callContractPrice.sol\":572:581  return _y */\n      swap1\n      pop\n        /* \"contracts/10_callContractPrice.sol\":430:588  function foo(string memory _message, uint _y) public payable returns (uint) {... */\n      swap3\n      swap2\n      pop\n      pop\n      jump\t// out\n        /* \"contracts/10_callContractPrice.sol\":594:683  function getAddress() public view returns (address) {... */\n    tag_26:\n        /* \"contracts/10_callContractPrice.sol\":637:644  address */\n      0x00\n        /* \"contracts/10_callContractPrice.sol\":671:675  this */\n      address\n        /* \"contracts/10_callContractPrice.sol\":656:676  return address(this) */\n      swap1\n      pop\n        /* \"contracts/10_callContractPrice.sol\":594:683  function getAddress() public view returns (address) {... */\n      swap1\n      jump\t// out\n        /* \"#utility.yul\":7:133   */\n    tag_34:\n        /* \"#utility.yul\":44:51   */\n      0x00\n        /* \"#utility.yul\":84:126   */\n      0xffffffffffffffffffffffffffffffffffffffff\n        /* \"#utility.yul\":77:82   */\n      dup3\n        /* \"#utility.yul\":73:127   */\n      and\n        /* \"#utility.yul\":62:127   */\n      swap1\n      pop\n        /* \"#utility.yul\":7:133   */\n      swap2\n      swap1\n      pop\n      jump\t// out\n        /* \"#utility.yul\":139:235   */\n    tag_35:\n        /* \"#utility.yul\":176:183   */\n      0x00\n        /* \"#utility.yul\":205:229   */\n      tag_65\n        /* \"#utility.yul\":223:228   */\n      dup3\n        /* \"#utility.yul\":205:229   */\n      tag_34\n      jump\t// in\n    tag_65:\n        /* \"#utility.yul\":194:229   */\n      swap1\n      pop\n        /* \"#utility.yul\":139:235   */\n      swap2\n      swap1\n      pop\n      jump\t// out\n        /* \"#utility.yul\":241:359   */\n    tag_36:\n        /* \"#utility.yul\":328:352   */\n      tag_67\n        /* \"#utility.yul\":346:351   */\n      dup2\n        /* \"#utility.yul\":328:352   */\n      tag_35\n      jump\t// in\n    tag_67:\n        /* \"#utility.yul\":323:326   */\n      dup3\n        /* \"#utility.yul\":316:353   */\n      mstore\n        /* \"#utility.yul\":241:359   */\n      pop\n      pop\n      jump\t// out\n        /* \"#utility.yul\":365:442   */\n    tag_37:\n        /* \"#utility.yul\":402:409   */\n      0x00\n        /* \"#utility.yul\":431:436   */\n      dup2\n        /* \"#utility.yul\":420:436   */\n      swap1\n      pop\n        /* \"#utility.yul\":365:442   */\n      swap2\n      swap1\n      pop\n      jump\t// out\n        /* \"#utility.yul\":448:566   */\n    tag_38:\n        /* \"#utility.yul\":535:559   */\n      tag_70\n        /* \"#utility.yul\":553:558   */\n      dup2\n        /* \"#utility.yul\":535:559   */\n      tag_37\n      jump\t// in\n    tag_70:\n        /* \"#utility.yul\":530:533   */\n      dup3\n        /* \"#utility.yul\":523:560   */\n      mstore\n        /* \"#utility.yul\":448:566   */\n      pop\n      pop\n      jump\t// out\n        /* \"#utility.yul\":572:741   */\n    tag_39:\n        /* \"#utility.yul\":656:667   */\n      0x00\n        /* \"#utility.yul\":690:696   */\n      dup3\n        /* \"#utility.yul\":685:688   */\n      dup3\n        /* \"#utility.yul\":678:697   */\n      mstore\n        /* \"#utility.yul\":730:734   */\n      0x20\n        /* \"#utility.yul\":725:728   */\n      dup3\n        /* \"#utility.yul\":721:735   */\n      add\n        /* \"#utility.yul\":706:735   */\n      swap1\n      pop\n        /* \"#utility.yul\":572:741   */\n      swap3\n      swap2\n      pop\n      pop\n      jump\t// out\n        /* \"#utility.yul\":747:915   */\n    tag_40:\n        /* \"#utility.yul\":887:907   */\n      0x52656365697665207761732063616c6c65640000000000000000000000000000\n        /* \"#utility.yul\":883:884   */\n      0x00\n        /* \"#utility.yul\":875:881   */\n      dup3\n        /* \"#utility.yul\":871:885   */\n      add\n        /* \"#utility.yul\":864:908   */\n      mstore\n        /* \"#utility.yul\":747:915   */\n      pop\n      jump\t// out\n        /* \"#utility.yul\":921:1287   */\n    tag_41:\n        /* \"#utility.yul\":1063:1066   */\n      0x00\n        /* \"#utility.yul\":1084:1151   */\n      tag_74\n        /* \"#utility.yul\":1148:1150   */\n      0x12\n        /* \"#utility.yul\":1143:1146   */\n      dup4\n        /* \"#utility.yul\":1084:1151   */\n      tag_39\n      jump\t// in\n    tag_74:\n        /* \"#utility.yul\":1077:1151   */\n      swap2\n      pop\n        /* \"#utility.yul\":1160:1253   */\n      tag_75\n        /* \"#utility.yul\":1249:1252   */\n      dup3\n        /* \"#utility.yul\":1160:1253   */\n      tag_40\n      jump\t// in\n    tag_75:\n        /* \"#utility.yul\":1278:1280   */\n      0x20\n        /* \"#utility.yul\":1273:1276   */\n      dup3\n        /* \"#utility.yul\":1269:1281   */\n      add\n        /* \"#utility.yul\":1262:1281   */\n      swap1\n      pop\n        /* \"#utility.yul\":921:1287   */\n      swap2\n      swap1\n      pop\n      jump\t// out\n        /* \"#utility.yul\":1293:1932   */\n    tag_9:\n        /* \"#utility.yul\":1515:1519   */\n      0x00\n        /* \"#utility.yul\":1553:1555   */\n      0x60\n        /* \"#utility.yul\":1542:1551   */\n      dup3\n        /* \"#utility.yul\":1538:1556   */\n      add\n        /* \"#utility.yul\":1530:1556   */\n      swap1\n      pop\n        /* \"#utility.yul\":1566:1637   */\n      tag_77\n        /* \"#utility.yul\":1634:1635   */\n      0x00\n        /* \"#utility.yul\":1623:1632   */\n      dup4\n        /* \"#utility.yul\":1619:1636   */\n      add\n        /* \"#utility.yul\":1610:1616   */\n      dup6\n        /* \"#utility.yul\":1566:1637   */\n      tag_36\n      jump\t// in\n    tag_77:\n        /* \"#utility.yul\":1647:1719   */\n      tag_78\n        /* \"#utility.yul\":1715:1717   */\n      0x20\n        /* \"#utility.yul\":1704:1713   */\n      dup4\n        /* \"#utility.yul\":1700:1718   */\n      add\n        /* \"#utility.yul\":1691:1697   */\n      dup5\n        /* \"#utility.yul\":1647:1719   */\n      tag_38\n      jump\t// in\n    tag_78:\n        /* \"#utility.yul\":1766:1775   */\n      dup2\n        /* \"#utility.yul\":1760:1764   */\n      dup2\n        /* \"#utility.yul\":1756:1776   */\n      sub\n        /* \"#utility.yul\":1751:1753   */\n      0x40\n        /* \"#utility.yul\":1740:1749   */\n      dup4\n        /* \"#utility.yul\":1736:1754   */\n      add\n        /* \"#utility.yul\":1729:1777   */\n      mstore\n        /* \"#utility.yul\":1794:1925   */\n      tag_79\n        /* \"#utility.yul\":1920:1924   */\n      dup2\n        /* \"#utility.yul\":1794:1925   */\n      tag_41\n      jump\t// in\n    tag_79:\n        /* \"#utility.yul\":1786:1925   */\n      swap1\n      pop\n        /* \"#utility.yul\":1293:1932   */\n      swap4\n      swap3\n      pop\n      pop\n      pop\n      jump\t// out\n        /* \"#utility.yul\":1938:2107   */\n    tag_42:\n        /* \"#utility.yul\":2078:2099   */\n      0x46616c6c6261636b207761732063616c6c656400000000000000000000000000\n        /* \"#utility.yul\":2074:2075   */\n      0x00\n        /* \"#utility.yul\":2066:2072   */\n      dup3\n        /* \"#utility.yul\":2062:2076   */\n      add\n        /* \"#utility.yul\":2055:2100   */\n      mstore\n        /* \"#utility.yul\":1938:2107   */\n      pop\n      jump\t// out\n        /* \"#utility.yul\":2113:2479   */\n    tag_43:\n        /* \"#utility.yul\":2255:2258   */\n      0x00\n        /* \"#utility.yul\":2276:2343   */\n      tag_82\n        /* \"#utility.yul\":2340:2342   */\n      0x13\n        /* \"#utility.yul\":2335:2338   */\n      dup4\n        /* \"#utility.yul\":2276:2343   */\n      tag_39\n      jump\t// in\n    tag_82:\n        /* \"#utility.yul\":2269:2343   */\n      swap2\n      pop\n        /* \"#utility.yul\":2352:2445   */\n      tag_83\n        /* \"#utility.yul\":2441:2444   */\n      dup3\n        /* \"#utility.yul\":2352:2445   */\n      tag_42\n      jump\t// in\n    tag_83:\n        /* \"#utility.yul\":2470:2472   */\n      0x20\n        /* \"#utility.yul\":2465:2468   */\n      dup3\n        /* \"#utility.yul\":2461:2473   */\n      add\n        /* \"#utility.yul\":2454:2473   */\n      swap1\n      pop\n        /* \"#utility.yul\":2113:2479   */\n      swap2\n      swap1\n      pop\n      jump\t// out\n        /* \"#utility.yul\":2485:3124   */\n    tag_13:\n        /* \"#utility.yul\":2707:2711   */\n      0x00\n        /* \"#utility.yul\":2745:2747   */\n      0x60\n        /* \"#utility.yul\":2734:2743   */\n      dup3\n        /* \"#utility.yul\":2730:2748   */\n      add\n        /* \"#utility.yul\":2722:2748   */\n      swap1\n      pop\n        /* \"#utility.yul\":2758:2829   */\n      tag_85\n        /* \"#utility.yul\":2826:2827   */\n      0x00\n        /* \"#utility.yul\":2815:2824   */\n      dup4\n        /* \"#utility.yul\":2811:2828   */\n      add\n        /* \"#utility.yul\":2802:2808   */\n      dup6\n        /* \"#utility.yul\":2758:2829   */\n      tag_36\n      jump\t// in\n    tag_85:\n        /* \"#utility.yul\":2839:2911   */\n      tag_86\n        /* \"#utility.yul\":2907:2909   */\n      0x20\n        /* \"#utility.yul\":2896:2905   */\n      dup4\n        /* \"#utility.yul\":2892:2910   */\n      add\n        /* \"#utility.yul\":2883:2889   */\n      dup5\n        /* \"#utility.yul\":2839:2911   */\n      tag_38\n      jump\t// in\n    tag_86:\n        /* \"#utility.yul\":2958:2967   */\n      dup2\n        /* \"#utility.yul\":2952:2956   */\n      dup2\n        /* \"#utility.yul\":2948:2968   */\n      sub\n        /* \"#utility.yul\":2943:2945   */\n      0x40\n        /* \"#utility.yul\":2932:2941   */\n      dup4\n        /* \"#utility.yul\":2928:2946   */\n      add\n        /* \"#utility.yul\":2921:2969   */\n      mstore\n        /* \"#utility.yul\":2986:3117   */\n      tag_87\n        /* \"#utility.yul\":3112:3116   */\n      dup2\n        /* \"#utility.yul\":2986:3117   */\n      tag_43\n      jump\t// in\n    tag_87:\n        /* \"#utility.yul\":2978:3117   */\n      swap1\n      pop\n        /* \"#utility.yul\":2485:3124   */\n      swap4\n      swap3\n      pop\n      pop\n      pop\n      jump\t// out\n        /* \"#utility.yul\":3130:3352   */\n    tag_18:\n        /* \"#utility.yul\":3223:3227   */\n      0x00\n        /* \"#utility.yul\":3261:3263   */\n      0x20\n        /* \"#utility.yul\":3250:3259   */\n      dup3\n        /* \"#utility.yul\":3246:3264   */\n      add\n        /* \"#utility.yul\":3238:3264   */\n      swap1\n      pop\n        /* \"#utility.yul\":3274:3345   */\n      tag_89\n        /* \"#utility.yul\":3342:3343   */\n      0x00\n        /* \"#utility.yul\":3331:3340   */\n      dup4\n        /* \"#utility.yul\":3327:3344   */\n      add\n        /* \"#utility.yul\":3318:3324   */\n      dup5\n        /* \"#utility.yul\":3274:3345   */\n      tag_38\n      jump\t// in\n    tag_89:\n        /* \"#utility.yul\":3130:3352   */\n      swap3\n      swap2\n      pop\n      pop\n      jump\t// out\n        /* \"#utility.yul\":3358:3433   */\n    tag_44:\n        /* \"#utility.yul\":3391:3397   */\n      0x00\n        /* \"#utility.yul\":3424:3426   */\n      0x40\n        /* \"#utility.yul\":3418:3427   */\n      mload\n        /* \"#utility.yul\":3408:3427   */\n      swap1\n      pop\n        /* \"#utility.yul\":3358:3433   */\n      swap1\n      jump\t// out\n        /* \"#utility.yul\":3439:3556   */\n    tag_45:\n        /* \"#utility.yul\":3548:3549   */\n      0x00\n        /* \"#utility.yul\":3545:3546   */\n      dup1\n        /* \"#utility.yul\":3538:3550   */\n      revert\n        /* \"#utility.yul\":3562:3679   */\n    tag_46:\n        /* \"#utility.yul\":3671:3672   */\n      0x00\n        /* \"#utility.yul\":3668:3669   */\n      dup1\n        /* \"#utility.yul\":3661:3673   */\n      revert\n        /* \"#utility.yul\":3685:3802   */\n    tag_47:\n        /* \"#utility.yul\":3794:3795   */\n      0x00\n        /* \"#utility.yul\":3791:3792   */\n      dup1\n        /* \"#utility.yul\":3784:3796   */\n      revert\n        /* \"#utility.yul\":3808:3925   */\n    tag_48:\n        /* \"#utility.yul\":3917:3918   */\n      0x00\n        /* \"#utility.yul\":3914:3915   */\n      dup1\n        /* \"#utility.yul\":3907:3919   */\n      revert\n        /* \"#utility.yul\":3931:4033   */\n    tag_49:\n        /* \"#utility.yul\":3972:3978   */\n      0x00\n        /* \"#utility.yul\":4023:4025   */\n      0x1f\n        /* \"#utility.yul\":4019:4026   */\n      not\n        /* \"#utility.yul\":4014:4016   */\n      0x1f\n        /* \"#utility.yul\":4007:4012   */\n      dup4\n        /* \"#utility.yul\":4003:4017   */\n      add\n        /* \"#utility.yul\":3999:4027   */\n      and\n        /* \"#utility.yul\":3989:4027   */\n      swap1\n      pop\n        /* \"#utility.yul\":3931:4033   */\n      swap2\n      swap1\n      pop\n      jump\t// out\n        /* \"#utility.yul\":4039:4219   */\n    tag_50:\n        /* \"#utility.yul\":4087:4164   */\n      0x4e487b7100000000000000000000000000000000000000000000000000000000\n        /* \"#utility.yul\":4084:4085   */\n      0x00\n        /* \"#utility.yul\":4077:4165   */\n      mstore\n        /* \"#utility.yul\":4184:4188   */\n      0x41\n        /* \"#utility.yul\":4181:4182   */\n      0x04\n        /* \"#utility.yul\":4174:4189   */\n      mstore\n        /* \"#utility.yul\":4208:4212   */\n      0x24\n        /* \"#utility.yul\":4205:4206   */\n      0x00\n        /* \"#utility.yul\":4198:4213   */\n      revert\n        /* \"#utility.yul\":4225:4506   */\n    tag_51:\n        /* \"#utility.yul\":4308:4335   */\n      tag_98\n        /* \"#utility.yul\":4330:4334   */\n      dup3\n        /* \"#utility.yul\":4308:4335   */\n      tag_49\n      jump\t// in\n    tag_98:\n        /* \"#utility.yul\":4300:4306   */\n      dup2\n        /* \"#utility.yul\":4296:4336   */\n      add\n        /* \"#utility.yul\":4438:4444   */\n      dup2\n        /* \"#utility.yul\":4426:4436   */\n      dup2\n        /* \"#utility.yul\":4423:4445   */\n      lt\n        /* \"#utility.yul\":4402:4420   */\n      0xffffffffffffffff\n        /* \"#utility.yul\":4390:4400   */\n      dup3\n        /* \"#utility.yul\":4387:4421   */\n      gt\n        /* \"#utility.yul\":4384:4446   */\n      or\n        /* \"#utility.yul\":4381:4469   */\n      iszero\n      tag_99\n      jumpi\n        /* \"#utility.yul\":4449:4467   */\n      tag_100\n      tag_50\n      jump\t// in\n    tag_100:\n        /* \"#utility.yul\":4381:4469   */\n    tag_99:\n        /* \"#utility.yul\":4489:4499   */\n      dup1\n        /* \"#utility.yul\":4485:4487   */\n      0x40\n        /* \"#utility.yul\":4478:4500   */\n      mstore\n        /* \"#utility.yul\":4268:4506   */\n      pop\n        /* \"#utility.yul\":4225:4506   */\n      pop\n      pop\n      jump\t// out\n        /* \"#utility.yul\":4512:4641   */\n    tag_52:\n        /* \"#utility.yul\":4546:4552   */\n      0x00\n        /* \"#utility.yul\":4573:4593   */\n      tag_102\n      tag_44\n      jump\t// in\n    tag_102:\n        /* \"#utility.yul\":4563:4593   */\n      swap1\n      pop\n        /* \"#utility.yul\":4602:4635   */\n      tag_103\n        /* \"#utility.yul\":4630:4634   */\n      dup3\n        /* \"#utility.yul\":4622:4628   */\n      dup3\n        /* \"#utility.yul\":4602:4635   */\n      tag_51\n      jump\t// in\n    tag_103:\n        /* \"#utility.yul\":4512:4641   */\n      swap2\n      swap1\n      pop\n      jump\t// out\n        /* \"#utility.yul\":4647:4955   */\n    tag_53:\n        /* \"#utility.yul\":4709:4713   */\n      0x00\n        /* \"#utility.yul\":4799:4817   */\n      0xffffffffffffffff\n        /* \"#utility.yul\":4791:4797   */\n      dup3\n        /* \"#utility.yul\":4788:4818   */\n      gt\n        /* \"#utility.yul\":4785:4841   */\n      iszero\n      tag_105\n      jumpi\n        /* \"#utility.yul\":4821:4839   */\n      tag_106\n      tag_50\n      jump\t// in\n    tag_106:\n        /* \"#utility.yul\":4785:4841   */\n    tag_105:\n        /* \"#utility.yul\":4859:4888   */\n      tag_107\n        /* \"#utility.yul\":4881:4887   */\n      dup3\n        /* \"#utility.yul\":4859:4888   */\n      tag_49\n      jump\t// in\n    tag_107:\n        /* \"#utility.yul\":4851:4888   */\n      swap1\n      pop\n        /* \"#utility.yul\":4943:4947   */\n      0x20\n        /* \"#utility.yul\":4937:4941   */\n      dup2\n        /* \"#utility.yul\":4933:4948   */\n      add\n        /* \"#utility.yul\":4925:4948   */\n      swap1\n      pop\n        /* \"#utility.yul\":4647:4955   */\n      swap2\n      swap1\n      pop\n      jump\t// out\n        /* \"#utility.yul\":4961:5107   */\n    tag_54:\n        /* \"#utility.yul\":5058:5064   */\n      dup3\n        /* \"#utility.yul\":5053:5056   */\n      dup2\n        /* \"#utility.yul\":5048:5051   */\n      dup4\n        /* \"#utility.yul\":5035:5065   */\n      calldatacopy\n        /* \"#utility.yul\":5099:5100   */\n      0x00\n        /* \"#utility.yul\":5090:5096   */\n      dup4\n        /* \"#utility.yul\":5085:5088   */\n      dup4\n        /* \"#utility.yul\":5081:5097   */\n      add\n        /* \"#utility.yul\":5074:5101   */\n      mstore\n        /* \"#utility.yul\":4961:5107   */\n      pop\n      pop\n      pop\n      jump\t// out\n        /* \"#utility.yul\":5113:5538   */\n    tag_55:\n        /* \"#utility.yul\":5191:5196   */\n      0x00\n        /* \"#utility.yul\":5216:5282   */\n      tag_110\n        /* \"#utility.yul\":5232:5281   */\n      tag_111\n        /* \"#utility.yul\":5274:5280   */\n      dup5\n        /* \"#utility.yul\":5232:5281   */\n      tag_53\n      jump\t// in\n    tag_111:\n        /* \"#utility.yul\":5216:5282   */\n      tag_52\n      jump\t// in\n    tag_110:\n        /* \"#utility.yul\":5207:5282   */\n      swap1\n      pop\n        /* \"#utility.yul\":5305:5311   */\n      dup3\n        /* \"#utility.yul\":5298:5303   */\n      dup2\n        /* \"#utility.yul\":5291:5312   */\n      mstore\n        /* \"#utility.yul\":5343:5347   */\n      0x20\n        /* \"#utility.yul\":5336:5341   */\n      dup2\n        /* \"#utility.yul\":5332:5348   */\n      add\n        /* \"#utility.yul\":5381:5384   */\n      dup5\n        /* \"#utility.yul\":5372:5378   */\n      dup5\n        /* \"#utility.yul\":5367:5370   */\n      dup5\n        /* \"#utility.yul\":5363:5379   */\n      add\n        /* \"#utility.yul\":5360:5385   */\n      gt\n        /* \"#utility.yul\":5357:5469   */\n      iszero\n      tag_112\n      jumpi\n        /* \"#utility.yul\":5388:5467   */\n      tag_113\n      tag_48\n      jump\t// in\n    tag_113:\n        /* \"#utility.yul\":5357:5469   */\n    tag_112:\n        /* \"#utility.yul\":5478:5532   */\n      tag_114\n        /* \"#utility.yul\":5525:5531   */\n      dup5\n        /* \"#utility.yul\":5520:5523   */\n      dup3\n        /* \"#utility.yul\":5515:5518   */\n      dup6\n        /* \"#utility.yul\":5478:5532   */\n      tag_54\n      jump\t// in\n    tag_114:\n        /* \"#utility.yul\":5197:5538   */\n      pop\n        /* \"#utility.yul\":5113:5538   */\n      swap4\n      swap3\n      pop\n      pop\n      pop\n      jump\t// out\n        /* \"#utility.yul\":5558:5898   */\n    tag_56:\n        /* \"#utility.yul\":5614:5619   */\n      0x00\n        /* \"#utility.yul\":5663:5666   */\n      dup3\n        /* \"#utility.yul\":5656:5660   */\n      0x1f\n        /* \"#utility.yul\":5648:5654   */\n      dup4\n        /* \"#utility.yul\":5644:5661   */\n      add\n        /* \"#utility.yul\":5640:5667   */\n      slt\n        /* \"#utility.yul\":5630:5752   */\n      tag_116\n      jumpi\n        /* \"#utility.yul\":5671:5750   */\n      tag_117\n      tag_47\n      jump\t// in\n    tag_117:\n        /* \"#utility.yul\":5630:5752   */\n    tag_116:\n        /* \"#utility.yul\":5788:5794   */\n      dup2\n        /* \"#utility.yul\":5775:5795   */\n      calldataload\n        /* \"#utility.yul\":5813:5892   */\n      tag_118\n        /* \"#utility.yul\":5888:5891   */\n      dup5\n        /* \"#utility.yul\":5880:5886   */\n      dup3\n        /* \"#utility.yul\":5873:5877   */\n      0x20\n        /* \"#utility.yul\":5865:5871   */\n      dup7\n        /* \"#utility.yul\":5861:5878   */\n      add\n        /* \"#utility.yul\":5813:5892   */\n      tag_55\n      jump\t// in\n    tag_118:\n        /* \"#utility.yul\":5804:5892   */\n      swap2\n      pop\n        /* \"#utility.yul\":5620:5898   */\n      pop\n        /* \"#utility.yul\":5558:5898   */\n      swap3\n      swap2\n      pop\n      pop\n      jump\t// out\n        /* \"#utility.yul\":5904:6026   */\n    tag_57:\n        /* \"#utility.yul\":5977:6001   */\n      tag_120\n        /* \"#utility.yul\":5995:6000   */\n      dup2\n        /* \"#utility.yul\":5977:6001   */\n      tag_37\n      jump\t// in\n    tag_120:\n        /* \"#utility.yul\":5970:5975   */\n      dup2\n        /* \"#utility.yul\":5967:6002   */\n      eq\n        /* \"#utility.yul\":5957:6020   */\n      tag_121\n      jumpi\n        /* \"#utility.yul\":6016:6017   */\n      0x00\n        /* \"#utility.yul\":6013:6014   */\n      dup1\n        /* \"#utility.yul\":6006:6018   */\n      revert\n        /* \"#utility.yul\":5957:6020   */\n    tag_121:\n        /* \"#utility.yul\":5904:6026   */\n      pop\n      jump\t// out\n        /* \"#utility.yul\":6032:6171   */\n    tag_58:\n        /* \"#utility.yul\":6078:6083   */\n      0x00\n        /* \"#utility.yul\":6116:6122   */\n      dup2\n        /* \"#utility.yul\":6103:6123   */\n      calldataload\n        /* \"#utility.yul\":6094:6123   */\n      swap1\n      pop\n        /* \"#utility.yul\":6132:6165   */\n      tag_123\n        /* \"#utility.yul\":6159:6164   */\n      dup2\n        /* \"#utility.yul\":6132:6165   */\n      tag_57\n      jump\t// in\n    tag_123:\n        /* \"#utility.yul\":6032:6171   */\n      swap3\n      swap2\n      pop\n      pop\n      jump\t// out\n        /* \"#utility.yul\":6177:6831   */\n    tag_21:\n        /* \"#utility.yul\":6255:6261   */\n      0x00\n        /* \"#utility.yul\":6263:6269   */\n      dup1\n        /* \"#utility.yul\":6312:6314   */\n      0x40\n        /* \"#utility.yul\":6300:6309   */\n      dup4\n        /* \"#utility.yul\":6291:6298   */\n      dup6\n        /* \"#utility.yul\":6287:6310   */\n      sub\n        /* \"#utility.yul\":6283:6315   */\n      slt\n        /* \"#utility.yul\":6280:6399   */\n      iszero\n      tag_125\n      jumpi\n        /* \"#utility.yul\":6318:6397   */\n      tag_126\n      tag_45\n      jump\t// in\n    tag_126:\n        /* \"#utility.yul\":6280:6399   */\n    tag_125:\n        /* \"#utility.yul\":6466:6467   */\n      0x00\n        /* \"#utility.yul\":6455:6464   */\n      dup4\n        /* \"#utility.yul\":6451:6468   */\n      add\n        /* \"#utility.yul\":6438:6469   */\n      calldataload\n        /* \"#utility.yul\":6496:6514   */\n      0xffffffffffffffff\n        /* \"#utility.yul\":6488:6494   */\n      dup2\n        /* \"#utility.yul\":6485:6515   */\n      gt\n        /* \"#utility.yul\":6482:6599   */\n      iszero\n      tag_127\n      jumpi\n        /* \"#utility.yul\":6518:6597   */\n      tag_128\n      tag_46\n      jump\t// in\n    tag_128:\n        /* \"#utility.yul\":6482:6599   */\n    tag_127:\n        /* \"#utility.yul\":6623:6686   */\n      tag_129\n        /* \"#utility.yul\":6678:6685   */\n      dup6\n        /* \"#utility.yul\":6669:6675   */\n      dup3\n        /* \"#utility.yul\":6658:6667   */\n      dup7\n        /* \"#utility.yul\":6654:6676   */\n      add\n        /* \"#utility.yul\":6623:6686   */\n      tag_56\n      jump\t// in\n    tag_129:\n        /* \"#utility.yul\":6613:6686   */\n      swap3\n      pop\n        /* \"#utility.yul\":6409:6696   */\n      pop\n        /* \"#utility.yul\":6735:6737   */\n      0x20\n        /* \"#utility.yul\":6761:6814   */\n      tag_130\n        /* \"#utility.yul\":6806:6813   */\n      dup6\n        /* \"#utility.yul\":6797:6803   */\n      dup3\n        /* \"#utility.yul\":6786:6795   */\n      dup7\n        /* \"#utility.yul\":6782:6804   */\n      add\n        /* \"#utility.yul\":6761:6814   */\n      tag_58\n      jump\t// in\n    tag_130:\n        /* \"#utility.yul\":6751:6814   */\n      swap2\n      pop\n        /* \"#utility.yul\":6706:6824   */\n      pop\n        /* \"#utility.yul\":6177:6831   */\n      swap3\n      pop\n      swap3\n      swap1\n      pop\n      jump\t// out\n        /* \"#utility.yul\":6837:7059   */\n    tag_28:\n        /* \"#utility.yul\":6930:6934   */\n      0x00\n        /* \"#utility.yul\":6968:6970   */\n      0x20\n        /* \"#utility.yul\":6957:6966   */\n      dup3\n        /* \"#utility.yul\":6953:6971   */\n      add\n        /* \"#utility.yul\":6945:6971   */\n      swap1\n      pop\n        /* \"#utility.yul\":6981:7052   */\n      tag_132\n        /* \"#utility.yul\":7049:7050   */\n      0x00\n        /* \"#utility.yul\":7038:7047   */\n      dup4\n        /* \"#utility.yul\":7034:7051   */\n      add\n        /* \"#utility.yul\":7025:7031   */\n      dup5\n        /* \"#utility.yul\":6981:7052   */\n      tag_36\n      jump\t// in\n    tag_132:\n        /* \"#utility.yul\":6837:7059   */\n      swap3\n      swap2\n      pop\n      pop\n      jump\t// out\n        /* \"#utility.yul\":7065:7164   */\n    tag_59:\n        /* \"#utility.yul\":7117:7123   */\n      0x00\n        /* \"#utility.yul\":7151:7156   */\n      dup2\n        /* \"#utility.yul\":7145:7157   */\n      mload\n        /* \"#utility.yul\":7135:7157   */\n      swap1\n      pop\n        /* \"#utility.yul\":7065:7164   */\n      swap2\n      swap1\n      pop\n      jump\t// out\n        /* \"#utility.yul\":7170:7416   */\n    tag_60:\n        /* \"#utility.yul\":7251:7252   */\n      0x00\n        /* \"#utility.yul\":7261:7374   */\n    tag_135:\n        /* \"#utility.yul\":7275:7281   */\n      dup4\n        /* \"#utility.yul\":7272:7273   */\n      dup2\n        /* \"#utility.yul\":7269:7282   */\n      lt\n        /* \"#utility.yul\":7261:7374   */\n      iszero\n      tag_137\n      jumpi\n        /* \"#utility.yul\":7360:7361   */\n      dup1\n        /* \"#utility.yul\":7355:7358   */\n      dup3\n        /* \"#utility.yul\":7351:7362   */\n      add\n        /* \"#utility.yul\":7345:7363   */\n      mload\n        /* \"#utility.yul\":7341:7342   */\n      dup2\n        /* \"#utility.yul\":7336:7339   */\n      dup5\n        /* \"#utility.yul\":7332:7343   */\n      add\n        /* \"#utility.yul\":7325:7364   */\n      mstore\n        /* \"#utility.yul\":7297:7299   */\n      0x20\n        /* \"#utility.yul\":7294:7295   */\n      dup2\n        /* \"#utility.yul\":7290:7300   */\n      add\n        /* \"#utility.yul\":7285:7300   */\n      swap1\n      pop\n        /* \"#utility.yul\":7261:7374   */\n      jump(tag_135)\n    tag_137:\n        /* \"#utility.yul\":7408:7409   */\n      0x00\n        /* \"#utility.yul\":7399:7405   */\n      dup5\n        /* \"#utility.yul\":7394:7397   */\n      dup5\n        /* \"#utility.yul\":7390:7406   */\n      add\n        /* \"#utility.yul\":7383:7410   */\n      mstore\n        /* \"#utility.yul\":7232:7416   */\n      pop\n        /* \"#utility.yul\":7170:7416   */\n      pop\n      pop\n      pop\n      jump\t// out\n        /* \"#utility.yul\":7422:7799   */\n    tag_61:\n        /* \"#utility.yul\":7510:7513   */\n      0x00\n        /* \"#utility.yul\":7538:7577   */\n      tag_139\n        /* \"#utility.yul\":7571:7576   */\n      dup3\n        /* \"#utility.yul\":7538:7577   */\n      tag_59\n      jump\t// in\n    tag_139:\n        /* \"#utility.yul\":7593:7664   */\n      tag_140\n        /* \"#utility.yul\":7657:7663   */\n      dup2\n        /* \"#utility.yul\":7652:7655   */\n      dup6\n        /* \"#utility.yul\":7593:7664   */\n      tag_39\n      jump\t// in\n    tag_140:\n        /* \"#utility.yul\":7586:7664   */\n      swap4\n      pop\n        /* \"#utility.yul\":7673:7738   */\n      tag_141\n        /* \"#utility.yul\":7731:7737   */\n      dup2\n        /* \"#utility.yul\":7726:7729   */\n      dup6\n        /* \"#utility.yul\":7719:7723   */\n      0x20\n        /* \"#utility.yul\":7712:7717   */\n      dup7\n        /* \"#utility.yul\":7708:7724   */\n      add\n        /* \"#utility.yul\":7673:7738   */\n      tag_60\n      jump\t// in\n    tag_141:\n        /* \"#utility.yul\":7763:7792   */\n      tag_142\n        /* \"#utility.yul\":7785:7791   */\n      dup2\n        /* \"#utility.yul\":7763:7792   */\n      tag_49\n      jump\t// in\n    tag_142:\n        /* \"#utility.yul\":7758:7761   */\n      dup5\n        /* \"#utility.yul\":7754:7793   */\n      add\n        /* \"#utility.yul\":7747:7793   */\n      swap2\n      pop\n        /* \"#utility.yul\":7514:7799   */\n      pop\n        /* \"#utility.yul\":7422:7799   */\n      swap3\n      swap2\n      pop\n      pop\n      jump\t// out\n        /* \"#utility.yul\":7805:8338   */\n    tag_32:\n        /* \"#utility.yul\":7974:7978   */\n      0x00\n        /* \"#utility.yul\":8012:8014   */\n      0x60\n        /* \"#utility.yul\":8001:8010   */\n      dup3\n        /* \"#utility.yul\":7997:8015   */\n      add\n        /* \"#utility.yul\":7989:8015   */\n      swap1\n      pop\n        /* \"#utility.yul\":8025:8096   */\n      tag_144\n        /* \"#utility.yul\":8093:8094   */\n      0x00\n        /* \"#utility.yul\":8082:8091   */\n      dup4\n        /* \"#utility.yul\":8078:8095   */\n      add\n        /* \"#utility.yul\":8069:8075   */\n      dup7\n        /* \"#utility.yul\":8025:8096   */\n      tag_36\n      jump\t// in\n    tag_144:\n        /* \"#utility.yul\":8106:8178   */\n      tag_145\n        /* \"#utility.yul\":8174:8176   */\n      0x20\n        /* \"#utility.yul\":8163:8172   */\n      dup4\n        /* \"#utility.yul\":8159:8177   */\n      add\n        /* \"#utility.yul\":8150:8156   */\n      dup6\n        /* \"#utility.yul\":8106:8178   */\n      tag_38\n      jump\t// in\n    tag_145:\n        /* \"#utility.yul\":8225:8234   */\n      dup2\n        /* \"#utility.yul\":8219:8223   */\n      dup2\n        /* \"#utility.yul\":8215:8235   */\n      sub\n        /* \"#utility.yul\":8210:8212   */\n      0x40\n        /* \"#utility.yul\":8199:8208   */\n      dup4\n        /* \"#utility.yul\":8195:8213   */\n      add\n        /* \"#utility.yul\":8188:8236   */\n      mstore\n        /* \"#utility.yul\":8253:8331   */\n      tag_146\n        /* \"#utility.yul\":8326:8330   */\n      dup2\n        /* \"#utility.yul\":8317:8323   */\n      dup5\n        /* \"#utility.yul\":8253:8331   */\n      tag_61\n      jump\t// in\n    tag_146:\n        /* \"#utility.yul\":8245:8331   */\n      swap1\n      pop\n        /* \"#utility.yul\":7805:8338   */\n      swap5\n      swap4\n      pop\n      pop\n      pop\n      pop\n      jump\t// out\n\n    auxdata: 0xa26469706673582212207778c12f7fe3c612e08b5f8f0085306a2c4a079030bc4ad9d95f13f8b79e734164736f6c63430008100033\n}\n",
				"bytecode": {
					"linkReferences": {},
					"object": "608060405234801561001057600080fd5b50610604806100206000396000f3fe6080604052600436106100385760003560e01c806312065fe0146100b357806324ccab8f146100de57806338cc48311461010e57610078565b36610078577f59e04c3f0d44b7caf6e8ef854b61d9a51cf1960d7a88ff6356cc5e946b4b5832333460405161006e929190610246565b60405180910390a1005b7f59e04c3f0d44b7caf6e8ef854b61d9a51cf1960d7a88ff6356cc5e946b4b583233346040516100a99291906102ce565b60405180910390a1005b3480156100bf57600080fd5b506100c8610139565b6040516100d5919061030a565b60405180910390f35b6100f860048036038101906100f391906104ab565b610141565b604051610105919061030a565b60405180910390f35b34801561011a57600080fd5b50610123610187565b6040516101309190610507565b60405180910390f35b600047905090565b60007f59e04c3f0d44b7caf6e8ef854b61d9a51cf1960d7a88ff6356cc5e946b4b583233348560405161017693929190610590565b60405180910390a181905092915050565b600030905090565b600073ffffffffffffffffffffffffffffffffffffffff82169050919050565b60006101ba8261018f565b9050919050565b6101ca816101af565b82525050565b6000819050919050565b6101e3816101d0565b82525050565b600082825260208201905092915050565b7f52656365697665207761732063616c6c65640000000000000000000000000000600082015250565b60006102306012836101e9565b915061023b826101fa565b602082019050919050565b600060608201905061025b60008301856101c1565b61026860208301846101da565b818103604083015261027981610223565b90509392505050565b7f46616c6c6261636b207761732063616c6c656400000000000000000000000000600082015250565b60006102b86013836101e9565b91506102c382610282565b602082019050919050565b60006060820190506102e360008301856101c1565b6102f060208301846101da565b8181036040830152610301816102ab565b90509392505050565b600060208201905061031f60008301846101da565b92915050565b6000604051905090565b600080fd5b600080fd5b600080fd5b600080fd5b6000601f19601f8301169050919050565b7f4e487b7100000000000000000000000000000000000000000000000000000000600052604160045260246000fd5b61038c82610343565b810181811067ffffffffffffffff821117156103ab576103aa610354565b5b80604052505050565b60006103be610325565b90506103ca8282610383565b919050565b600067ffffffffffffffff8211156103ea576103e9610354565b5b6103f382610343565b9050602081019050919050565b82818337600083830152505050565b600061042261041d846103cf565b6103b4565b90508281526020810184848401111561043e5761043d61033e565b5b610449848285610400565b509392505050565b600082601f83011261046657610465610339565b5b813561047684826020860161040f565b91505092915050565b610488816101d0565b811461049357600080fd5b50565b6000813590506104a58161047f565b92915050565b600080604083850312156104c2576104c161032f565b5b600083013567ffffffffffffffff8111156104e0576104df610334565b5b6104ec85828601610451565b92505060206104fd85828601610496565b9150509250929050565b600060208201905061051c60008301846101c1565b92915050565b600081519050919050565b60005b8381101561054b578082015181840152602081019050610530565b60008484015250505050565b600061056282610522565b61056c81856101e9565b935061057c81856020860161052d565b61058581610343565b840191505092915050565b60006060820190506105a560008301866101c1565b6105b260208301856101da565b81810360408301526105c48184610557565b905094935050505056fea26469706673582212207778c12f7fe3c612e08b5f8f0085306a2c4a079030bc4ad9d95f13f8b79e734164736f6c63430008100033",
					"opcodes": "PUSH1 0x80 PUSH1 0x40 MSTORE CALLVALUE DUP1 ISZERO PUSH2 0x10 JUMPI PUSH1 0x0 DUP1 REVERT JUMPDEST POP PUSH2 0x604 DUP1 PUSH2 0x20 PUSH1 0x0 CODECOPY PUSH1 0x0 RETURN INVALID PUSH1 0x80 PUSH1 0x40 MSTORE PUSH1 0x4 CALLDATASIZE LT PUSH2 0x38 JUMPI PUSH1 0x0 CALLDATALOAD PUSH1 0xE0 SHR DUP1 PUSH4 0x12065FE0 EQ PUSH2 0xB3 JUMPI DUP1 PUSH4 0x24CCAB8F EQ PUSH2 0xDE JUMPI DUP1 PUSH4 0x38CC4831 EQ PUSH2 0x10E JUMPI PUSH2 0x78 JUMP JUMPDEST CALLDATASIZE PUSH2 0x78 JUMPI PUSH32 0x59E04C3F0D44B7CAF6E8EF854B61D9A51CF1960D7A88FF6356CC5E946B4B5832 CALLER CALLVALUE PUSH1 0x40 MLOAD PUSH2 0x6E SWAP3 SWAP2 SWAP1 PUSH2 0x246 JUMP JUMPDEST PUSH1 0x40 MLOAD DUP1 SWAP2 SUB SWAP1 LOG1 STOP JUMPDEST PUSH32 0x59E04C3F0D44B7CAF6E8EF854B61D9A51CF1960D7A88FF6356CC5E946B4B5832 CALLER CALLVALUE PUSH1 0x40 MLOAD PUSH2 0xA9 SWAP3 SWAP2 SWAP1 PUSH2 0x2CE JUMP JUMPDEST PUSH1 0x40 MLOAD DUP1 SWAP2 SUB SWAP1 LOG1 STOP JUMPDEST CALLVALUE DUP1 ISZERO PUSH2 0xBF JUMPI PUSH1 0x0 DUP1 REVERT JUMPDEST POP PUSH2 0xC8 PUSH2 0x139 JUMP JUMPDEST PUSH1 0x40 MLOAD PUSH2 0xD5 SWAP2 SWAP1 PUSH2 0x30A JUMP JUMPDEST PUSH1 0x40 MLOAD DUP1 SWAP2 SUB SWAP1 RETURN JUMPDEST PUSH2 0xF8 PUSH1 0x4 DUP1 CALLDATASIZE SUB DUP2 ADD SWAP1 PUSH2 0xF3 SWAP2 SWAP1 PUSH2 0x4AB JUMP JUMPDEST PUSH2 0x141 JUMP JUMPDEST PUSH1 0x40 MLOAD PUSH2 0x105 SWAP2 SWAP1 PUSH2 0x30A JUMP JUMPDEST PUSH1 0x40 MLOAD DUP1 SWAP2 SUB SWAP1 RETURN JUMPDEST CALLVALUE DUP1 ISZERO PUSH2 0x11A JUMPI PUSH1 0x0 DUP1 REVERT JUMPDEST POP PUSH2 0x123 PUSH2 0x187 JUMP JUMPDEST PUSH1 0x40 MLOAD PUSH2 0x130 SWAP2 SWAP1 PUSH2 0x507 JUMP JUMPDEST PUSH1 0x40 MLOAD DUP1 SWAP2 SUB SWAP1 RETURN JUMPDEST PUSH1 0x0 SELFBALANCE SWAP1 POP SWAP1 JUMP JUMPDEST PUSH1 0x0 PUSH32 0x59E04C3F0D44B7CAF6E8EF854B61D9A51CF1960D7A88FF6356CC5E946B4B5832 CALLER CALLVALUE DUP6 PUSH1 0x40 MLOAD PUSH2 0x176 SWAP4 SWAP3 SWAP2 SWAP1 PUSH2 0x590 JUMP JUMPDEST PUSH1 0x40 MLOAD DUP1 SWAP2 SUB SWAP1 LOG1 DUP2 SWAP1 POP SWAP3 SWAP2 POP POP JUMP JUMPDEST PUSH1 0x0 ADDRESS SWAP1 POP SWAP1 JUMP JUMPDEST PUSH1 0x0 PUSH20 0xFFFFFFFFFFFFFFFFFFFFFFFFFFFFFFFFFFFFFFFF DUP3 AND SWAP1 POP SWAP2 SWAP1 POP JUMP JUMPDEST PUSH1 0x0 PUSH2 0x1BA DUP3 PUSH2 0x18F JUMP JUMPDEST SWAP1 POP SWAP2 SWAP1 POP JUMP JUMPDEST PUSH2 0x1CA DUP2 PUSH2 0x1AF JUMP JUMPDEST DUP3 MSTORE POP POP JUMP JUMPDEST PUSH1 0x0 DUP2 SWAP1 POP SWAP2 SWAP1 POP JUMP JUMPDEST PUSH2 0x1E3 DUP2 PUSH2 0x1D0 JUMP JUMPDEST DUP3 MSTORE POP POP JUMP JUMPDEST PUSH1 0x0 DUP3 DUP3 MSTORE PUSH1 0x20 DUP3 ADD SWAP1 POP SWAP3 SWAP2 POP POP JUMP JUMPDEST PUSH32 0x52656365697665207761732063616C6C65640000000000000000000000000000 PUSH1 0x0 DUP3 ADD MSTORE POP JUMP JUMPDEST PUSH1 0x0 PUSH2 0x230 PUSH1 0x12 DUP4 PUSH2 0x1E9 JUMP JUMPDEST SWAP2 POP PUSH2 0x23B DUP3 PUSH2 0x1FA JUMP JUMPDEST PUSH1 0x20 DUP3 ADD SWAP1 POP SWAP2 SWAP1 POP JUMP JUMPDEST PUSH1 0x0 PUSH1 0x60 DUP3 ADD SWAP1 POP PUSH2 0x25B PUSH1 0x0 DUP4 ADD DUP6 PUSH2 0x1C1 JUMP JUMPDEST PUSH2 0x268 PUSH1 0x20 DUP4 ADD DUP5 PUSH2 0x1DA JUMP JUMPDEST DUP2 DUP2 SUB PUSH1 0x40 DUP4 ADD MSTORE PUSH2 0x279 DUP2 PUSH2 0x223 JUMP JUMPDEST SWAP1 POP SWAP4 SWAP3 POP POP POP JUMP JUMPDEST PUSH32 0x46616C6C6261636B207761732063616C6C656400000000000000000000000000 PUSH1 0x0 DUP3 ADD MSTORE POP JUMP JUMPDEST PUSH1 0x0 PUSH2 0x2B8 PUSH1 0x13 DUP4 PUSH2 0x1E9 JUMP JUMPDEST SWAP2 POP PUSH2 0x2C3 DUP3 PUSH2 0x282 JUMP JUMPDEST PUSH1 0x20 DUP3 ADD SWAP1 POP SWAP2 SWAP1 POP JUMP JUMPDEST PUSH1 0x0 PUSH1 0x60 DUP3 ADD SWAP1 POP PUSH2 0x2E3 PUSH1 0x0 DUP4 ADD DUP6 PUSH2 0x1C1 JUMP JUMPDEST PUSH2 0x2F0 PUSH1 0x20 DUP4 ADD DUP5 PUSH2 0x1DA JUMP JUMPDEST DUP2 DUP2 SUB PUSH1 0x40 DUP4 ADD MSTORE PUSH2 0x301 DUP2 PUSH2 0x2AB JUMP JUMPDEST SWAP1 POP SWAP4 SWAP3 POP POP POP JUMP JUMPDEST PUSH1 0x0 PUSH1 0x20 DUP3 ADD SWAP1 POP PUSH2 0x31F PUSH1 0x0 DUP4 ADD DUP5 PUSH2 0x1DA JUMP JUMPDEST SWAP3 SWAP2 POP POP JUMP JUMPDEST PUSH1 0x0 PUSH1 0x40 MLOAD SWAP1 POP SWAP1 JUMP JUMPDEST PUSH1 0x0 DUP1 REVERT JUMPDEST PUSH1 0x0 DUP1 REVERT JUMPDEST PUSH1 0x0 DUP1 REVERT JUMPDEST PUSH1 0x0 DUP1 REVERT JUMPDEST PUSH1 0x0 PUSH1 0x1F NOT PUSH1 0x1F DUP4 ADD AND SWAP1 POP SWAP2 SWAP1 POP JUMP JUMPDEST PUSH32 0x4E487B7100000000000000000000000000000000000000000000000000000000 PUSH1 0x0 MSTORE PUSH1 0x41 PUSH1 0x4 MSTORE PUSH1 0x24 PUSH1 0x0 REVERT JUMPDEST PUSH2 0x38C DUP3 PUSH2 0x343 JUMP JUMPDEST DUP2 ADD DUP2 DUP2 LT PUSH8 0xFFFFFFFFFFFFFFFF DUP3 GT OR ISZERO PUSH2 0x3AB JUMPI PUSH2 0x3AA PUSH2 0x354 JUMP JUMPDEST JUMPDEST DUP1 PUSH1 0x40 MSTORE POP POP POP JUMP JUMPDEST PUSH1 0x0 PUSH2 0x3BE PUSH2 0x325 JUMP JUMPDEST SWAP1 POP PUSH2 0x3CA DUP3 DUP3 PUSH2 0x383 JUMP JUMPDEST SWAP2 SWAP1 POP JUMP JUMPDEST PUSH1 0x0 PUSH8 0xFFFFFFFFFFFFFFFF DUP3 GT ISZERO PUSH2 0x3EA JUMPI PUSH2 0x3E9 PUSH2 0x354 JUMP JUMPDEST JUMPDEST PUSH2 0x3F3 DUP3 PUSH2 0x343 JUMP JUMPDEST SWAP1 POP PUSH1 0x20 DUP2 ADD SWAP1 POP SWAP2 SWAP1 POP JUMP JUMPDEST DUP3 DUP2 DUP4 CALLDATACOPY PUSH1 0x0 DUP4 DUP4 ADD MSTORE POP POP POP JUMP JUMPDEST PUSH1 0x0 PUSH2 0x422 PUSH2 0x41D DUP5 PUSH2 0x3CF JUMP JUMPDEST PUSH2 0x3B4 JUMP JUMPDEST SWAP1 POP DUP3 DUP2 MSTORE PUSH1 0x20 DUP2 ADD DUP5 DUP5 DUP5 ADD GT ISZERO PUSH2 0x43E JUMPI PUSH2 0x43D PUSH2 0x33E JUMP JUMPDEST JUMPDEST PUSH2 0x449 DUP5 DUP3 DUP6 PUSH2 0x400 JUMP JUMPDEST POP SWAP4 SWAP3 POP POP POP JUMP JUMPDEST PUSH1 0x0 DUP3 PUSH1 0x1F DUP4 ADD SLT PUSH2 0x466 JUMPI PUSH2 0x465 PUSH2 0x339 JUMP JUMPDEST JUMPDEST DUP2 CALLDATALOAD PUSH2 0x476 DUP5 DUP3 PUSH1 0x20 DUP7 ADD PUSH2 0x40F JUMP JUMPDEST SWAP2 POP POP SWAP3 SWAP2 POP POP JUMP JUMPDEST PUSH2 0x488 DUP2 PUSH2 0x1D0 JUMP JUMPDEST DUP2 EQ PUSH2 0x493 JUMPI PUSH1 0x0 DUP1 REVERT JUMPDEST POP JUMP JUMPDEST PUSH1 0x0 DUP2 CALLDATALOAD SWAP1 POP PUSH2 0x4A5 DUP2 PUSH2 0x47F JUMP JUMPDEST SWAP3 SWAP2 POP POP JUMP JUMPDEST PUSH1 0x0 DUP1 PUSH1 0x40 DUP4 DUP6 SUB SLT ISZERO PUSH2 0x4C2 JUMPI PUSH2 0x4C1 PUSH2 0x32F JUMP JUMPDEST JUMPDEST PUSH1 0x0 DUP4 ADD CALLDATALOAD PUSH8 0xFFFFFFFFFFFFFFFF DUP2 GT ISZERO PUSH2 0x4E0 JUMPI PUSH2 0x4DF PUSH2 0x334 JUMP JUMPDEST JUMPDEST PUSH2 0x4EC DUP6 DUP3 DUP7 ADD PUSH2 0x451 JUMP JUMPDEST SWAP3 POP POP PUSH1 0x20 PUSH2 0x4FD DUP6 DUP3 DUP7 ADD PUSH2 0x496 JUMP JUMPDEST SWAP2 POP POP SWAP3 POP SWAP3 SWAP1 POP JUMP JUMPDEST PUSH1 0x0 PUSH1 0x20 DUP3 ADD SWAP1 POP PUSH2 0x51C PUSH1 0x0 DUP4 ADD DUP5 PUSH2 0x1C1 JUMP JUMPDEST SWAP3 SWAP2 POP POP JUMP JUMPDEST PUSH1 0x0 DUP2 MLOAD SWAP1 POP SWAP2 SWAP1 POP JUMP JUMPDEST PUSH1 0x0 JUMPDEST DUP4 DUP2 LT ISZERO PUSH2 0x54B JUMPI DUP1 DUP3 ADD MLOAD DUP2 DUP5 ADD MSTORE PUSH1 0x20 DUP2 ADD SWAP1 POP PUSH2 0x530 JUMP JUMPDEST PUSH1 0x0 DUP5 DUP5 ADD MSTORE POP POP POP POP JUMP JUMPDEST PUSH1 0x0 PUSH2 0x562 DUP3 PUSH2 0x522 JUMP JUMPDEST PUSH2 0x56C DUP2 DUP6 PUSH2 0x1E9 JUMP JUMPDEST SWAP4 POP PUSH2 0x57C DUP2 DUP6 PUSH1 0x20 DUP7 ADD PUSH2 0x52D JUMP JUMPDEST PUSH2 0x585 DUP2 PUSH2 0x343 JUMP JUMPDEST DUP5 ADD SWAP2 POP POP SWAP3 SWAP2 POP POP JUMP JUMPDEST PUSH1 0x0 PUSH1 0x60 DUP3 ADD SWAP1 POP PUSH2 0x5A5 PUSH1 0x0 DUP4 ADD DUP7 PUSH2 0x1C1 JUMP JUMPDEST PUSH2 0x5B2 PUSH1 0x20 DUP4 ADD DUP6 PUSH2 0x1DA JUMP JUMPDEST DUP2 DUP2 SUB PUSH1 0x40 DUP4 ADD MSTORE PUSH2 0x5C4 DUP2 DUP5 PUSH2 0x557 JUMP JUMPDEST SWAP1 POP SWAP5 SWAP4 POP POP POP POP JUMP INVALID LOG2 PUSH5 0x6970667358 0x22 SLT KECCAK256 PUSH24 0x78C12F7FE3C612E08B5F8F0085306A2C4A079030BC4AD9D9 0x5F SGT 0xF8 0xB7 SWAP15 PUSH20 0x4164736F6C634300081000330000000000000000 "
				},
				"gasEstimates": {
					"creation": {
						"codeDepositCost": "308000",
						"executionCost": "349",
						"totalCost": "308349"
					},
					"external": {
						"": "2696",
						"foo(string,uint256)": "infinite",
						"getAddress()": "407",
						"getBalance()": "317"
					}
				},
				"methodIdentifiers": {
					"foo(string,uint256)": "24ccab8f",
					"getAddress()": "38cc4831",
					"getBalance()": "12065fe0"
				}
			},
			"storageLayout": {
				"storage": [],
				"types": null
			},
			"userdoc": {
				"kind": "user",
				"methods": {},
				"version": 1
			}
		}
	}
}