{
	"contracts/13_dex.sol": {
		"DEX": {
			"abi": [
				{
					"inputs": [],
					"stateMutability": "nonpayable",
					"type": "constructor"
				},
				{
					"anonymous": false,
					"inputs": [
						{
							"indexed": false,
							"internalType": "uint256",
							"name": "amount",
							"type": "uint256"
						}
					],
					"name": "Bought",
					"type": "event"
				},
				{
					"anonymous": false,
					"inputs": [
						{
							"indexed": false,
							"internalType": "uint256",
							"name": "amount",
							"type": "uint256"
						}
					],
					"name": "Log",
					"type": "event"
				},
				{
					"anonymous": false,
					"inputs": [
						{
							"indexed": false,
							"internalType": "uint256",
							"name": "amount",
							"type": "uint256"
						}
					],
					"name": "Sold",
					"type": "event"
				},
				{
					"inputs": [
						{
							"internalType": "uint256",
							"name": "amount",
							"type": "uint256"
						}
					],
					"name": "approve",
					"outputs": [
						{
							"internalType": "bool",
							"name": "",
							"type": "bool"
						}
					],
					"stateMutability": "nonpayable",
					"type": "function"
				},
				{
					"inputs": [],
					"name": "buy",
					"outputs": [],
					"stateMutability": "payable",
					"type": "function"
				},
				{
					"inputs": [],
					"name": "getAdress",
					"outputs": [
						{
							"internalType": "address",
							"name": "",
							"type": "address"
						}
					],
					"stateMutability": "view",
					"type": "function"
				},
				{
					"inputs": [],
					"name": "getAllowance",
					"outputs": [
						{
							"internalType": "uint256",
							"name": "",
							"type": "uint256"
						}
					],
					"stateMutability": "view",
					"type": "function"
				},
				{
					"inputs": [],
					"name": "getDexBalance",
					"outputs": [
						{
							"internalType": "uint256",
							"name": "",
							"type": "uint256"
						}
					],
					"stateMutability": "view",
					"type": "function"
				},
				{
					"inputs": [],
					"name": "getOwnerBalance",
					"outputs": [
						{
							"internalType": "uint256",
							"name": "",
							"type": "uint256"
						}
					],
					"stateMutability": "view",
					"type": "function"
				},
				{
					"inputs": [],
					"name": "getTokenAdress",
					"outputs": [
						{
							"internalType": "address",
							"name": "",
							"type": "address"
						}
					],
					"stateMutability": "view",
					"type": "function"
				},
				{
					"inputs": [],
					"name": "getTotalSupply",
					"outputs": [
						{
							"internalType": "uint256",
							"name": "",
							"type": "uint256"
						}
					],
					"stateMutability": "view",
					"type": "function"
				},
				{
					"inputs": [
						{
							"internalType": "uint256",
							"name": "amount",
							"type": "uint256"
						}
					],
					"name": "sell",
					"outputs": [],
					"stateMutability": "nonpayable",
					"type": "function"
				},
				{
					"inputs": [],
					"name": "token",
					"outputs": [
						{
							"internalType": "contract IERC20",
							"name": "",
							"type": "address"
						}
					],
					"stateMutability": "view",
					"type": "function"
				}
			],
			"devdoc": {
				"kind": "dev",
				"methods": {},
				"version": 1
			},
			"evm": {
				"assembly": "    /* \"contracts/13_dex.sol\":3055:4956  contract DEX{... */\n  mstore(0x40, 0x80)\n    /* \"contracts/13_dex.sol\":3230:3285  constructor() {... */\n  callvalue\n  dup1\n  iszero\n  tag_1\n  jumpi\n  0x00\n  dup1\n  revert\ntag_1:\n  pop\n    /* \"contracts/13_dex.sol\":3262:3278  new ERC20Basic() */\n  mload(0x40)\n  tag_4\n  swap1\n  tag_5\n  jump\t// in\ntag_4:\n  mload(0x40)\n  dup1\n  swap2\n  sub\n  swap1\n  0x00\n  create\n  dup1\n  iszero\n  dup1\n  iszero\n  tag_6\n  jumpi\n  returndatasize\n  0x00\n  dup1\n  returndatacopy\n  revert(0x00, returndatasize)\ntag_6:\n  pop\n    /* \"contracts/13_dex.sol\":3254:3259  token */\n  0x00\n  dup1\n    /* \"contracts/13_dex.sol\":3254:3278  token = new ERC20Basic() */\n  0x0100\n  exp\n  dup2\n  sload\n  dup2\n  0xffffffffffffffffffffffffffffffffffffffff\n  mul\n  not\n  and\n  swap1\n  dup4\n  0xffffffffffffffffffffffffffffffffffffffff\n  and\n  mul\n  or\n  swap1\n  sstore\n  pop\n    /* \"contracts/13_dex.sol\":3055:4956  contract DEX{... */\n  jump(tag_7)\ntag_5:\n  dataSize(sub_1)\n  dup1\n  dataOffset(sub_1)\n  dup4\n  codecopy\n  add\n  swap1\n  jump\t// out\ntag_7:\n  dataSize(sub_0)\n  dup1\n  dataOffset(sub_0)\n  0x00\n  codecopy\n  0x00\n  return\nstop\n\nsub_0: assembly {\n        /* \"contracts/13_dex.sol\":3055:4956  contract DEX{... */\n      mstore(0x40, 0x80)\n      jumpi(tag_1, lt(calldatasize, 0x04))\n      shr(0xe0, calldataload(0x00))\n      dup1\n      0xa6f2ae3a\n      gt\n      tag_12\n      jumpi\n      dup1\n      0xa6f2ae3a\n      eq\n      tag_7\n      jumpi\n      dup1\n      0xb759f954\n      eq\n      tag_8\n      jumpi\n      dup1\n      0xc4e41b22\n      eq\n      tag_9\n      jumpi\n      dup1\n      0xe4849b32\n      eq\n      tag_10\n      jumpi\n      dup1\n      0xfc0c546a\n      eq\n      tag_11\n      jumpi\n      jump(tag_1)\n    tag_12:\n      dup1\n      0x426301eb\n      eq\n      tag_2\n      jumpi\n      dup1\n      0x430f4801\n      eq\n      tag_3\n      jumpi\n      dup1\n      0x590791f2\n      eq\n      tag_4\n      jumpi\n      dup1\n      0x6b37d362\n      eq\n      tag_5\n      jumpi\n      dup1\n      0x973e9b8b\n      eq\n      tag_6\n      jumpi\n    tag_1:\n      0x00\n      dup1\n      revert\n        /* \"contracts/13_dex.sol\":4391:4488  function getTokenAdress() public view returns(address) {... */\n    tag_2:\n      callvalue\n      dup1\n      iszero\n      tag_13\n      jumpi\n      0x00\n      dup1\n      revert\n    tag_13:\n      pop\n      tag_14\n      tag_15\n      jump\t// in\n    tag_14:\n      mload(0x40)\n      tag_16\n      swap2\n      swap1\n      tag_17\n      jump\t// in\n    tag_16:\n      mload(0x40)\n      dup1\n      swap2\n      sub\n      swap1\n      return\n        /* \"contracts/13_dex.sol\":4072:4180  function getDexBalance() public view returns(uint256) {... */\n    tag_3:\n      callvalue\n      dup1\n      iszero\n      tag_18\n      jumpi\n      0x00\n      dup1\n      revert\n    tag_18:\n      pop\n      tag_19\n      tag_20\n      jump\t// in\n    tag_19:\n      mload(0x40)\n      tag_21\n      swap2\n      swap1\n      tag_22\n      jump\t// in\n    tag_21:\n      mload(0x40)\n      dup1\n      swap2\n      sub\n      swap1\n      return\n        /* \"contracts/13_dex.sol\":4186:4293  function getOwnerBalance() public view returns(uint256) {... */\n    tag_4:\n      callvalue\n      dup1\n      iszero\n      tag_23\n      jumpi\n      0x00\n      dup1\n      revert\n    tag_23:\n      pop\n      tag_24\n      tag_25\n      jump\t// in\n    tag_24:\n      mload(0x40)\n      tag_26\n      swap2\n      swap1\n      tag_22\n      jump\t// in\n    tag_26:\n      mload(0x40)\n      dup1\n      swap2\n      sub\n      swap1\n      return\n        /* \"contracts/13_dex.sol\":4299:4386  function getAdress() public view returns(address) {... */\n    tag_5:\n      callvalue\n      dup1\n      iszero\n      tag_27\n      jumpi\n      0x00\n      dup1\n      revert\n    tag_27:\n      pop\n      tag_28\n      tag_29\n      jump\t// in\n    tag_28:\n      mload(0x40)\n      tag_30\n      swap2\n      swap1\n      tag_17\n      jump\t// in\n    tag_30:\n      mload(0x40)\n      dup1\n      swap2\n      sub\n      swap1\n      return\n        /* \"contracts/13_dex.sol\":4596:4715  function getAllowance() public view returns(uint256) {... */\n    tag_6:\n      callvalue\n      dup1\n      iszero\n      tag_31\n      jumpi\n      0x00\n      dup1\n      revert\n    tag_31:\n      pop\n      tag_32\n      tag_33\n      jump\t// in\n    tag_32:\n      mload(0x40)\n      tag_34\n      swap2\n      swap1\n      tag_22\n      jump\t// in\n    tag_34:\n      mload(0x40)\n      dup1\n      swap2\n      sub\n      swap1\n      return\n        /* \"contracts/13_dex.sol\":3291:3717  function buy() payable public {... */\n    tag_7:\n      tag_35\n      tag_36\n      jump\t// in\n    tag_35:\n      stop\n        /* \"contracts/13_dex.sol\":4721:4954  function approve(uint256 amount) public returns(bool) {... */\n    tag_8:\n      callvalue\n      dup1\n      iszero\n      tag_37\n      jumpi\n      0x00\n      dup1\n      revert\n    tag_37:\n      pop\n      tag_38\n      0x04\n      dup1\n      calldatasize\n      sub\n      dup2\n      add\n      swap1\n      tag_39\n      swap2\n      swap1\n      tag_40\n      jump\t// in\n    tag_39:\n      tag_41\n      jump\t// in\n    tag_38:\n      mload(0x40)\n      tag_42\n      swap2\n      swap1\n      tag_43\n      jump\t// in\n    tag_42:\n      mload(0x40)\n      dup1\n      swap2\n      sub\n      swap1\n      return\n        /* \"contracts/13_dex.sol\":4493:4591  function getTotalSupply() public view returns(uint256) {... */\n    tag_9:\n      callvalue\n      dup1\n      iszero\n      tag_44\n      jumpi\n      0x00\n      dup1\n      revert\n    tag_44:\n      pop\n      tag_45\n      tag_46\n      jump\t// in\n    tag_45:\n      mload(0x40)\n      tag_47\n      swap2\n      swap1\n      tag_22\n      jump\t// in\n    tag_47:\n      mload(0x40)\n      dup1\n      swap2\n      sub\n      swap1\n      return\n        /* \"contracts/13_dex.sol\":3723:4066  function sell(uint256 amount) public {... */\n    tag_10:\n      callvalue\n      dup1\n      iszero\n      tag_48\n      jumpi\n      0x00\n      dup1\n      revert\n    tag_48:\n      pop\n      tag_49\n      0x04\n      dup1\n      calldatasize\n      sub\n      dup2\n      add\n      swap1\n      tag_50\n      swap2\n      swap1\n      tag_40\n      jump\t// in\n    tag_50:\n      tag_51\n      jump\t// in\n    tag_49:\n      stop\n        /* \"contracts/13_dex.sol\":3204:3223  IERC20 public token */\n    tag_11:\n      callvalue\n      dup1\n      iszero\n      tag_52\n      jumpi\n      0x00\n      dup1\n      revert\n    tag_52:\n      pop\n      tag_53\n      tag_54\n      jump\t// in\n    tag_53:\n      mload(0x40)\n      tag_55\n      swap2\n      swap1\n      tag_56\n      jump\t// in\n    tag_55:\n      mload(0x40)\n      dup1\n      swap2\n      sub\n      swap1\n      return\n        /* \"contracts/13_dex.sol\":4391:4488  function getTokenAdress() public view returns(address) {... */\n    tag_15:\n        /* \"contracts/13_dex.sol\":4437:4444  address */\n      0x00\n        /* \"contracts/13_dex.sol\":4463:4468  token */\n      dup1\n      0x00\n      swap1\n      sload\n      swap1\n      0x0100\n      exp\n      swap1\n      div\n      0xffffffffffffffffffffffffffffffffffffffff\n      and\n        /* \"contracts/13_dex.sol\":4463:4479  token.getAddress */\n      0xffffffffffffffffffffffffffffffffffffffff\n      and\n      0x38cc4831\n        /* \"contracts/13_dex.sol\":4463:4481  token.getAddress() */\n      mload(0x40)\n      dup2\n      0xffffffff\n      and\n      0xe0\n      shl\n      dup2\n      mstore\n      0x04\n      add\n      0x20\n      mload(0x40)\n      dup1\n      dup4\n      sub\n      dup2\n      dup7\n      gas\n      staticcall\n      iszero\n      dup1\n      iszero\n      tag_59\n      jumpi\n      returndatasize\n      0x00\n      dup1\n      returndatacopy\n      revert(0x00, returndatasize)\n    tag_59:\n      pop\n      pop\n      pop\n      pop\n      mload(0x40)\n      returndatasize\n      not(0x1f)\n      0x1f\n      dup3\n      add\n      and\n      dup3\n      add\n      dup1\n      0x40\n      mstore\n      pop\n      dup2\n      add\n      swap1\n      tag_60\n      swap2\n      swap1\n      tag_61\n      jump\t// in\n    tag_60:\n        /* \"contracts/13_dex.sol\":4456:4481  return token.getAddress() */\n      swap1\n      pop\n        /* \"contracts/13_dex.sol\":4391:4488  function getTokenAdress() public view returns(address) {... */\n      swap1\n      jump\t// out\n        /* \"contracts/13_dex.sol\":4072:4180  function getDexBalance() public view returns(uint256) {... */\n    tag_20:\n        /* \"contracts/13_dex.sol\":4117:4124  uint256 */\n      0x00\n        /* \"contracts/13_dex.sol\":4143:4148  token */\n      dup1\n      0x00\n      swap1\n      sload\n      swap1\n      0x0100\n      exp\n      swap1\n      div\n      0xffffffffffffffffffffffffffffffffffffffff\n      and\n        /* \"contracts/13_dex.sol\":4143:4158  token.balanceOf */\n      0xffffffffffffffffffffffffffffffffffffffff\n      and\n      0x70a08231\n        /* \"contracts/13_dex.sol\":4167:4171  this */\n      address\n        /* \"contracts/13_dex.sol\":4143:4173  token.balanceOf(address(this)) */\n      mload(0x40)\n      dup3\n      0xffffffff\n      and\n      0xe0\n      shl\n      dup2\n      mstore\n      0x04\n      add\n      tag_63\n      swap2\n      swap1\n      tag_17\n      jump\t// in\n    tag_63:\n      0x20\n      mload(0x40)\n      dup1\n      dup4\n      sub\n      dup2\n      dup7\n      gas\n      staticcall\n      iszero\n      dup1\n      iszero\n      tag_65\n      jumpi\n      returndatasize\n      0x00\n      dup1\n      returndatacopy\n      revert(0x00, returndatasize)\n    tag_65:\n      pop\n      pop\n      pop\n      pop\n      mload(0x40)\n      returndatasize\n      not(0x1f)\n      0x1f\n      dup3\n      add\n      and\n      dup3\n      add\n      dup1\n      0x40\n      mstore\n      pop\n      dup2\n      add\n      swap1\n      tag_66\n      swap2\n      swap1\n      tag_67\n      jump\t// in\n    tag_66:\n        /* \"contracts/13_dex.sol\":4136:4173  return token.balanceOf(address(this)) */\n      swap1\n      pop\n        /* \"contracts/13_dex.sol\":4072:4180  function getDexBalance() public view returns(uint256) {... */\n      swap1\n      jump\t// out\n        /* \"contracts/13_dex.sol\":4186:4293  function getOwnerBalance() public view returns(uint256) {... */\n    tag_25:\n        /* \"contracts/13_dex.sol\":4233:4240  uint256 */\n      0x00\n        /* \"contracts/13_dex.sol\":4259:4264  token */\n      dup1\n      0x00\n      swap1\n      sload\n      swap1\n      0x0100\n      exp\n      swap1\n      div\n      0xffffffffffffffffffffffffffffffffffffffff\n      and\n        /* \"contracts/13_dex.sol\":4259:4274  token.balanceOf */\n      0xffffffffffffffffffffffffffffffffffffffff\n      and\n      0x70a08231\n        /* \"contracts/13_dex.sol\":4275:4285  msg.sender */\n      caller\n        /* \"contracts/13_dex.sol\":4259:4286  token.balanceOf(msg.sender) */\n      mload(0x40)\n      dup3\n      0xffffffff\n      and\n      0xe0\n      shl\n      dup2\n      mstore\n      0x04\n      add\n      tag_69\n      swap2\n      swap1\n      tag_17\n      jump\t// in\n    tag_69:\n      0x20\n      mload(0x40)\n      dup1\n      dup4\n      sub\n      dup2\n      dup7\n      gas\n      staticcall\n      iszero\n      dup1\n      iszero\n      tag_71\n      jumpi\n      returndatasize\n      0x00\n      dup1\n      returndatacopy\n      revert(0x00, returndatasize)\n    tag_71:\n      pop\n      pop\n      pop\n      pop\n      mload(0x40)\n      returndatasize\n      not(0x1f)\n      0x1f\n      dup3\n      add\n      and\n      dup3\n      add\n      dup1\n      0x40\n      mstore\n      pop\n      dup2\n      add\n      swap1\n      tag_72\n      swap2\n      swap1\n      tag_67\n      jump\t// in\n    tag_72:\n        /* \"contracts/13_dex.sol\":4252:4286  return token.balanceOf(msg.sender) */\n      swap1\n      pop\n        /* \"contracts/13_dex.sol\":4186:4293  function getOwnerBalance() public view returns(uint256) {... */\n      swap1\n      jump\t// out\n        /* \"contracts/13_dex.sol\":4299:4386  function getAdress() public view returns(address) {... */\n    tag_29:\n        /* \"contracts/13_dex.sol\":4340:4347  address */\n      0x00\n        /* \"contracts/13_dex.sol\":4374:4378  this */\n      address\n        /* \"contracts/13_dex.sol\":4359:4379  return address(this) */\n      swap1\n      pop\n        /* \"contracts/13_dex.sol\":4299:4386  function getAdress() public view returns(address) {... */\n      swap1\n      jump\t// out\n        /* \"contracts/13_dex.sol\":4596:4715  function getAllowance() public view returns(uint256) {... */\n    tag_33:\n        /* \"contracts/13_dex.sol\":4640:4647  uint256 */\n      0x00\n        /* \"contracts/13_dex.sol\":4666:4671  token */\n      dup1\n      0x00\n      swap1\n      sload\n      swap1\n      0x0100\n      exp\n      swap1\n      div\n      0xffffffffffffffffffffffffffffffffffffffff\n      and\n        /* \"contracts/13_dex.sol\":4666:4681  token.allowance */\n      0xffffffffffffffffffffffffffffffffffffffff\n      and\n      0xdd62ed3e\n        /* \"contracts/13_dex.sol\":4682:4692  msg.sender */\n      caller\n        /* \"contracts/13_dex.sol\":4702:4706  this */\n      address\n        /* \"contracts/13_dex.sol\":4666:4708  token.allowance(msg.sender, address(this)) */\n      mload(0x40)\n      dup4\n      0xffffffff\n      and\n      0xe0\n      shl\n      dup2\n      mstore\n      0x04\n      add\n      tag_75\n      swap3\n      swap2\n      swap1\n      tag_76\n      jump\t// in\n    tag_75:\n      0x20\n      mload(0x40)\n      dup1\n      dup4\n      sub\n      dup2\n      dup7\n      gas\n      staticcall\n      iszero\n      dup1\n      iszero\n      tag_78\n      jumpi\n      returndatasize\n      0x00\n      dup1\n      returndatacopy\n      revert(0x00, returndatasize)\n    tag_78:\n      pop\n      pop\n      pop\n      pop\n      mload(0x40)\n      returndatasize\n      not(0x1f)\n      0x1f\n      dup3\n      add\n      and\n      dup3\n      add\n      dup1\n      0x40\n      mstore\n      pop\n      dup2\n      add\n      swap1\n      tag_79\n      swap2\n      swap1\n      tag_67\n      jump\t// in\n    tag_79:\n        /* \"contracts/13_dex.sol\":4659:4708  return token.allowance(msg.sender, address(this)) */\n      swap1\n      pop\n        /* \"contracts/13_dex.sol\":4596:4715  function getAllowance() public view returns(uint256) {... */\n      swap1\n      jump\t// out\n        /* \"contracts/13_dex.sol\":3291:3717  function buy() payable public {... */\n    tag_36:\n        /* \"contracts/13_dex.sol\":3331:3350  uint256 amountTobuy */\n      0x00\n        /* \"contracts/13_dex.sol\":3353:3362  msg.value */\n      callvalue\n        /* \"contracts/13_dex.sol\":3331:3362  uint256 amountTobuy = msg.value */\n      swap1\n      pop\n        /* \"contracts/13_dex.sol\":3372:3390  uint256 dexBalance */\n      0x00\n        /* \"contracts/13_dex.sol\":3393:3398  token */\n      dup1\n      0x00\n      swap1\n      sload\n      swap1\n      0x0100\n      exp\n      swap1\n      div\n      0xffffffffffffffffffffffffffffffffffffffff\n      and\n        /* \"contracts/13_dex.sol\":3393:3408  token.balanceOf */\n      0xffffffffffffffffffffffffffffffffffffffff\n      and\n      0x70a08231\n        /* \"contracts/13_dex.sol\":3417:3421  this */\n      address\n        /* \"contracts/13_dex.sol\":3393:3423  token.balanceOf(address(this)) */\n      mload(0x40)\n      dup3\n      0xffffffff\n      and\n      0xe0\n      shl\n      dup2\n      mstore\n      0x04\n      add\n      tag_81\n      swap2\n      swap1\n      tag_17\n      jump\t// in\n    tag_81:\n      0x20\n      mload(0x40)\n      dup1\n      dup4\n      sub\n      dup2\n      dup7\n      gas\n      staticcall\n      iszero\n      dup1\n      iszero\n      tag_83\n      jumpi\n      returndatasize\n      0x00\n      dup1\n      returndatacopy\n      revert(0x00, returndatasize)\n    tag_83:\n      pop\n      pop\n      pop\n      pop\n      mload(0x40)\n      returndatasize\n      not(0x1f)\n      0x1f\n      dup3\n      add\n      and\n      dup3\n      add\n      dup1\n      0x40\n      mstore\n      pop\n      dup2\n      add\n      swap1\n      tag_84\n      swap2\n      swap1\n      tag_67\n      jump\t// in\n    tag_84:\n        /* \"contracts/13_dex.sol\":3372:3423  uint256 dexBalance = token.balanceOf(address(this)) */\n      swap1\n      pop\n        /* \"contracts/13_dex.sol\":3438:3447  Log(1111) */\n      0x909c57d5c6ac08245cf2a6de3900e2b868513fa59099b92b27d8db823d92df9c\n        /* \"contracts/13_dex.sol\":3442:3446  1111 */\n      0x0457\n        /* \"contracts/13_dex.sol\":3438:3447  Log(1111) */\n      mload(0x40)\n      tag_85\n      swap2\n      swap1\n      tag_86\n      jump\t// in\n    tag_85:\n      mload(0x40)\n      dup1\n      swap2\n      sub\n      swap1\n      log1\n        /* \"contracts/13_dex.sol\":3479:3480  0 */\n      0x00\n        /* \"contracts/13_dex.sol\":3465:3476  amountTobuy */\n      dup3\n        /* \"contracts/13_dex.sol\":3465:3480  amountTobuy > 0 */\n      gt\n        /* \"contracts/13_dex.sol\":3457:3512  require(amountTobuy > 0, \"You need to send some Ether\") */\n      tag_87\n      jumpi\n      mload(0x40)\n      0x08c379a000000000000000000000000000000000000000000000000000000000\n      dup2\n      mstore\n      0x04\n      add\n      tag_88\n      swap1\n      tag_89\n      jump\t// in\n    tag_88:\n      mload(0x40)\n      dup1\n      swap2\n      sub\n      swap1\n      revert\n    tag_87:\n        /* \"contracts/13_dex.sol\":3545:3555  dexBalance */\n      dup1\n        /* \"contracts/13_dex.sol\":3530:3541  amountTobuy */\n      dup3\n        /* \"contracts/13_dex.sol\":3530:3555  amountTobuy <= dexBalance */\n      gt\n      iszero\n        /* \"contracts/13_dex.sol\":3522:3602  require(amountTobuy <= dexBalance,\"You don't have enough tokens in the reserve\") */\n      tag_90\n      jumpi\n      mload(0x40)\n      0x08c379a000000000000000000000000000000000000000000000000000000000\n      dup2\n      mstore\n      0x04\n      add\n      tag_91\n      swap1\n      tag_92\n      jump\t// in\n    tag_91:\n      mload(0x40)\n      dup1\n      swap2\n      sub\n      swap1\n      revert\n    tag_90:\n        /* \"contracts/13_dex.sol\":3617:3627  Log(22222) */\n      0x909c57d5c6ac08245cf2a6de3900e2b868513fa59099b92b27d8db823d92df9c\n        /* \"contracts/13_dex.sol\":3621:3626  22222 */\n      0x56ce\n        /* \"contracts/13_dex.sol\":3617:3627  Log(22222) */\n      mload(0x40)\n      tag_93\n      swap2\n      swap1\n      tag_94\n      jump\t// in\n    tag_93:\n      mload(0x40)\n      dup1\n      swap2\n      sub\n      swap1\n      log1\n        /* \"contracts/13_dex.sol\":3637:3642  token */\n      0x00\n      dup1\n      sload\n      swap1\n      0x0100\n      exp\n      swap1\n      div\n      0xffffffffffffffffffffffffffffffffffffffff\n      and\n        /* \"contracts/13_dex.sol\":3637:3651  token.transfer */\n      0xffffffffffffffffffffffffffffffffffffffff\n      and\n      0xa9059cbb\n        /* \"contracts/13_dex.sol\":3652:3662  msg.sender */\n      caller\n        /* \"contracts/13_dex.sol\":3664:3675  amountTobuy */\n      dup5\n        /* \"contracts/13_dex.sol\":3637:3676  token.transfer(msg.sender, amountTobuy) */\n      mload(0x40)\n      dup4\n      0xffffffff\n      and\n      0xe0\n      shl\n      dup2\n      mstore\n      0x04\n      add\n      tag_95\n      swap3\n      swap2\n      swap1\n      tag_96\n      jump\t// in\n    tag_95:\n      0x20\n      mload(0x40)\n      dup1\n      dup4\n      sub\n      dup2\n      0x00\n      dup8\n      gas\n      call\n      iszero\n      dup1\n      iszero\n      tag_98\n      jumpi\n      returndatasize\n      0x00\n      dup1\n      returndatacopy\n      revert(0x00, returndatasize)\n    tag_98:\n      pop\n      pop\n      pop\n      pop\n      mload(0x40)\n      returndatasize\n      not(0x1f)\n      0x1f\n      dup3\n      add\n      and\n      dup3\n      add\n      dup1\n      0x40\n      mstore\n      pop\n      dup2\n      add\n      swap1\n      tag_99\n      swap2\n      swap1\n      tag_100\n      jump\t// in\n    tag_99:\n      pop\n        /* \"contracts/13_dex.sol\":3691:3710  Bought(amountTobuy) */\n      0x4e08ba899977cf7d4c2964bce71c6b9a7ef76ee5166a4c1249a1e08016e33ef1\n        /* \"contracts/13_dex.sol\":3698:3709  amountTobuy */\n      dup3\n        /* \"contracts/13_dex.sol\":3691:3710  Bought(amountTobuy) */\n      mload(0x40)\n      tag_101\n      swap2\n      swap1\n      tag_22\n      jump\t// in\n    tag_101:\n      mload(0x40)\n      dup1\n      swap2\n      sub\n      swap1\n      log1\n        /* \"contracts/13_dex.sol\":3321:3717  {... */\n      pop\n      pop\n        /* \"contracts/13_dex.sol\":3291:3717  function buy() payable public {... */\n      jump\t// out\n        /* \"contracts/13_dex.sol\":4721:4954  function approve(uint256 amount) public returns(bool) {... */\n    tag_41:\n        /* \"contracts/13_dex.sol\":4769:4773  bool */\n      0x00\n        /* \"contracts/13_dex.sol\":4848:4862  bool isApprove */\n      dup1\n        /* \"contracts/13_dex.sol\":4865:4870  token */\n      0x00\n      dup1\n      sload\n      swap1\n      0x0100\n      exp\n      swap1\n      div\n      0xffffffffffffffffffffffffffffffffffffffff\n      and\n        /* \"contracts/13_dex.sol\":4865:4878  token.approve */\n      0xffffffffffffffffffffffffffffffffffffffff\n      and\n      0xe1f21c67\n        /* \"contracts/13_dex.sol\":4879:4889  msg.sender */\n      caller\n        /* \"contracts/13_dex.sol\":4899:4903  this */\n      address\n        /* \"contracts/13_dex.sol\":4906:4912  amount */\n      dup7\n        /* \"contracts/13_dex.sol\":4865:4913  token.approve(msg.sender, address(this), amount) */\n      mload(0x40)\n      dup5\n      0xffffffff\n      and\n      0xe0\n      shl\n      dup2\n      mstore\n      0x04\n      add\n      tag_103\n      swap4\n      swap3\n      swap2\n      swap1\n      tag_104\n      jump\t// in\n    tag_103:\n      0x20\n      mload(0x40)\n      dup1\n      dup4\n      sub\n      dup2\n      0x00\n      dup8\n      gas\n      call\n      iszero\n      dup1\n      iszero\n      tag_106\n      jumpi\n      returndatasize\n      0x00\n      dup1\n      returndatacopy\n      revert(0x00, returndatasize)\n    tag_106:\n      pop\n      pop\n      pop\n      pop\n      mload(0x40)\n      returndatasize\n      not(0x1f)\n      0x1f\n      dup3\n      add\n      and\n      dup3\n      add\n      dup1\n      0x40\n      mstore\n      pop\n      dup2\n      add\n      swap1\n      tag_107\n      swap2\n      swap1\n      tag_100\n      jump\t// in\n    tag_107:\n        /* \"contracts/13_dex.sol\":4848:4913  bool isApprove = token.approve(msg.sender, address(this), amount) */\n      swap1\n      pop\n        /* \"contracts/13_dex.sol\":4938:4947  isApprove */\n      dup1\n        /* \"contracts/13_dex.sol\":4931:4947  return isApprove */\n      swap2\n      pop\n      pop\n        /* \"contracts/13_dex.sol\":4721:4954  function approve(uint256 amount) public returns(bool) {... */\n      swap2\n      swap1\n      pop\n      jump\t// out\n        /* \"contracts/13_dex.sol\":4493:4591  function getTotalSupply() public view returns(uint256) {... */\n    tag_46:\n        /* \"contracts/13_dex.sol\":4539:4546  uint256 */\n      0x00\n        /* \"contracts/13_dex.sol\":4565:4570  token */\n      dup1\n      0x00\n      swap1\n      sload\n      swap1\n      0x0100\n      exp\n      swap1\n      div\n      0xffffffffffffffffffffffffffffffffffffffff\n      and\n        /* \"contracts/13_dex.sol\":4565:4582  token.totalSupply */\n      0xffffffffffffffffffffffffffffffffffffffff\n      and\n      0x18160ddd\n        /* \"contracts/13_dex.sol\":4565:4584  token.totalSupply() */\n      mload(0x40)\n      dup2\n      0xffffffff\n      and\n      0xe0\n      shl\n      dup2\n      mstore\n      0x04\n      add\n      0x20\n      mload(0x40)\n      dup1\n      dup4\n      sub\n      dup2\n      dup7\n      gas\n      staticcall\n      iszero\n      dup1\n      iszero\n      tag_110\n      jumpi\n      returndatasize\n      0x00\n      dup1\n      returndatacopy\n      revert(0x00, returndatasize)\n    tag_110:\n      pop\n      pop\n      pop\n      pop\n      mload(0x40)\n      returndatasize\n      not(0x1f)\n      0x1f\n      dup3\n      add\n      and\n      dup3\n      add\n      dup1\n      0x40\n      mstore\n      pop\n      dup2\n      add\n      swap1\n      tag_111\n      swap2\n      swap1\n      tag_67\n      jump\t// in\n    tag_111:\n        /* \"contracts/13_dex.sol\":4558:4584  return token.totalSupply() */\n      swap1\n      pop\n        /* \"contracts/13_dex.sol\":4493:4591  function getTotalSupply() public view returns(uint256) {... */\n      swap1\n      jump\t// out\n        /* \"contracts/13_dex.sol\":3723:4066  function sell(uint256 amount) public {... */\n    tag_51:\n        /* \"contracts/13_dex.sol\":3787:3788  0 */\n      0x00\n        /* \"contracts/13_dex.sol\":3778:3784  amount */\n      dup2\n        /* \"contracts/13_dex.sol\":3778:3788  amount > 0 */\n      gt\n        /* \"contracts/13_dex.sol\":3770:3830  require(amount > 0, \"You need to sell at least some tokens\") */\n      tag_113\n      jumpi\n      mload(0x40)\n      0x08c379a000000000000000000000000000000000000000000000000000000000\n      dup2\n      mstore\n      0x04\n      add\n      tag_114\n      swap1\n      tag_115\n      jump\t// in\n    tag_114:\n      mload(0x40)\n      dup1\n      swap2\n      sub\n      swap1\n      revert\n    tag_113:\n        /* \"contracts/13_dex.sol\":3840:3857  uint256 allowance */\n      0x00\n        /* \"contracts/13_dex.sol\":3860:3865  token */\n      dup1\n      0x00\n      swap1\n      sload\n      swap1\n      0x0100\n      exp\n      swap1\n      div\n      0xffffffffffffffffffffffffffffffffffffffff\n      and\n        /* \"contracts/13_dex.sol\":3860:3875  token.allowance */\n      0xffffffffffffffffffffffffffffffffffffffff\n      and\n      0xdd62ed3e\n        /* \"contracts/13_dex.sol\":3876:3886  msg.sender */\n      caller\n        /* \"contracts/13_dex.sol\":3896:3900  this */\n      address\n        /* \"contracts/13_dex.sol\":3860:3902  token.allowance(msg.sender, address(this)) */\n      mload(0x40)\n      dup4\n      0xffffffff\n      and\n      0xe0\n      shl\n      dup2\n      mstore\n      0x04\n      add\n      tag_116\n      swap3\n      swap2\n      swap1\n      tag_76\n      jump\t// in\n    tag_116:\n      0x20\n      mload(0x40)\n      dup1\n      dup4\n      sub\n      dup2\n      dup7\n      gas\n      staticcall\n      iszero\n      dup1\n      iszero\n      tag_118\n      jumpi\n      returndatasize\n      0x00\n      dup1\n      returndatacopy\n      revert(0x00, returndatasize)\n    tag_118:\n      pop\n      pop\n      pop\n      pop\n      mload(0x40)\n      returndatasize\n      not(0x1f)\n      0x1f\n      dup3\n      add\n      and\n      dup3\n      add\n      dup1\n      0x40\n      mstore\n      pop\n      dup2\n      add\n      swap1\n      tag_119\n      swap2\n      swap1\n      tag_67\n      jump\t// in\n    tag_119:\n        /* \"contracts/13_dex.sol\":3840:3902  uint256 allowance = token.allowance(msg.sender, address(this)) */\n      swap1\n      pop\n        /* \"contracts/13_dex.sol\":3933:3939  amount */\n      dup2\n        /* \"contracts/13_dex.sol\":3920:3929  allowance */\n      dup2\n        /* \"contracts/13_dex.sol\":3920:3939  allowance >= amount */\n      lt\n      iszero\n        /* \"contracts/13_dex.sol\":3912:3969  require(allowance >= amount, \"Check the token allowance\") */\n      tag_120\n      jumpi\n      mload(0x40)\n      0x08c379a000000000000000000000000000000000000000000000000000000000\n      dup2\n      mstore\n      0x04\n      add\n      tag_121\n      swap1\n      tag_122\n      jump\t// in\n    tag_121:\n      mload(0x40)\n      dup1\n      swap2\n      sub\n      swap1\n      revert\n    tag_120:\n        /* \"contracts/13_dex.sol\":3979:3984  token */\n      0x00\n      dup1\n      sload\n      swap1\n      0x0100\n      exp\n      swap1\n      div\n      0xffffffffffffffffffffffffffffffffffffffff\n      and\n        /* \"contracts/13_dex.sol\":3979:3997  token.transferFrom */\n      0xffffffffffffffffffffffffffffffffffffffff\n      and\n      0x23b872dd\n        /* \"contracts/13_dex.sol\":3998:4008  msg.sender */\n      caller\n        /* \"contracts/13_dex.sol\":4018:4022  this */\n      address\n        /* \"contracts/13_dex.sol\":4025:4031  amount */\n      dup6\n        /* \"contracts/13_dex.sol\":3979:4032  token.transferFrom(msg.sender, address(this), amount) */\n      mload(0x40)\n      dup5\n      0xffffffff\n      and\n      0xe0\n      shl\n      dup2\n      mstore\n      0x04\n      add\n      tag_123\n      swap4\n      swap3\n      swap2\n      swap1\n      tag_104\n      jump\t// in\n    tag_123:\n      0x20\n      mload(0x40)\n      dup1\n      dup4\n      sub\n      dup2\n      0x00\n      dup8\n      gas\n      call\n      iszero\n      dup1\n      iszero\n      tag_125\n      jumpi\n      returndatasize\n      0x00\n      dup1\n      returndatacopy\n      revert(0x00, returndatasize)\n    tag_125:\n      pop\n      pop\n      pop\n      pop\n      mload(0x40)\n      returndatasize\n      not(0x1f)\n      0x1f\n      dup3\n      add\n      and\n      dup3\n      add\n      dup1\n      0x40\n      mstore\n      pop\n      dup2\n      add\n      swap1\n      tag_126\n      swap2\n      swap1\n      tag_100\n      jump\t// in\n    tag_126:\n      pop\n        /* \"contracts/13_dex.sol\":4047:4059  Sold(amount) */\n      0x92f64ca637d023f354075a4be751b169c1a8a9ccb6d33cdd0cb3520543995727\n        /* \"contracts/13_dex.sol\":4052:4058  amount */\n      dup3\n        /* \"contracts/13_dex.sol\":4047:4059  Sold(amount) */\n      mload(0x40)\n      tag_127\n      swap2\n      swap1\n      tag_22\n      jump\t// in\n    tag_127:\n      mload(0x40)\n      dup1\n      swap2\n      sub\n      swap1\n      log1\n        /* \"contracts/13_dex.sol\":3760:4066  {... */\n      pop\n        /* \"contracts/13_dex.sol\":3723:4066  function sell(uint256 amount) public {... */\n      pop\n      jump\t// out\n        /* \"contracts/13_dex.sol\":3204:3223  IERC20 public token */\n    tag_54:\n      0x00\n      dup1\n      sload\n      swap1\n      0x0100\n      exp\n      swap1\n      div\n      0xffffffffffffffffffffffffffffffffffffffff\n      and\n      dup2\n      jump\t// out\n        /* \"#utility.yul\":7:133   */\n    tag_128:\n        /* \"#utility.yul\":44:51   */\n      0x00\n        /* \"#utility.yul\":84:126   */\n      0xffffffffffffffffffffffffffffffffffffffff\n        /* \"#utility.yul\":77:82   */\n      dup3\n        /* \"#utility.yul\":73:127   */\n      and\n        /* \"#utility.yul\":62:127   */\n      swap1\n      pop\n        /* \"#utility.yul\":7:133   */\n      swap2\n      swap1\n      pop\n      jump\t// out\n        /* \"#utility.yul\":139:235   */\n    tag_129:\n        /* \"#utility.yul\":176:183   */\n      0x00\n        /* \"#utility.yul\":205:229   */\n      tag_168\n        /* \"#utility.yul\":223:228   */\n      dup3\n        /* \"#utility.yul\":205:229   */\n      tag_128\n      jump\t// in\n    tag_168:\n        /* \"#utility.yul\":194:229   */\n      swap1\n      pop\n        /* \"#utility.yul\":139:235   */\n      swap2\n      swap1\n      pop\n      jump\t// out\n        /* \"#utility.yul\":241:359   */\n    tag_130:\n        /* \"#utility.yul\":328:352   */\n      tag_170\n        /* \"#utility.yul\":346:351   */\n      dup2\n        /* \"#utility.yul\":328:352   */\n      tag_129\n      jump\t// in\n    tag_170:\n        /* \"#utility.yul\":323:326   */\n      dup3\n        /* \"#utility.yul\":316:353   */\n      mstore\n        /* \"#utility.yul\":241:359   */\n      pop\n      pop\n      jump\t// out\n        /* \"#utility.yul\":365:587   */\n    tag_17:\n        /* \"#utility.yul\":458:462   */\n      0x00\n        /* \"#utility.yul\":496:498   */\n      0x20\n        /* \"#utility.yul\":485:494   */\n      dup3\n        /* \"#utility.yul\":481:499   */\n      add\n        /* \"#utility.yul\":473:499   */\n      swap1\n      pop\n        /* \"#utility.yul\":509:580   */\n      tag_172\n        /* \"#utility.yul\":577:578   */\n      0x00\n        /* \"#utility.yul\":566:575   */\n      dup4\n        /* \"#utility.yul\":562:579   */\n      add\n        /* \"#utility.yul\":553:559   */\n      dup5\n        /* \"#utility.yul\":509:580   */\n      tag_130\n      jump\t// in\n    tag_172:\n        /* \"#utility.yul\":365:587   */\n      swap3\n      swap2\n      pop\n      pop\n      jump\t// out\n        /* \"#utility.yul\":593:670   */\n    tag_131:\n        /* \"#utility.yul\":630:637   */\n      0x00\n        /* \"#utility.yul\":659:664   */\n      dup2\n        /* \"#utility.yul\":648:664   */\n      swap1\n      pop\n        /* \"#utility.yul\":593:670   */\n      swap2\n      swap1\n      pop\n      jump\t// out\n        /* \"#utility.yul\":676:794   */\n    tag_132:\n        /* \"#utility.yul\":763:787   */\n      tag_175\n        /* \"#utility.yul\":781:786   */\n      dup2\n        /* \"#utility.yul\":763:787   */\n      tag_131\n      jump\t// in\n    tag_175:\n        /* \"#utility.yul\":758:761   */\n      dup3\n        /* \"#utility.yul\":751:788   */\n      mstore\n        /* \"#utility.yul\":676:794   */\n      pop\n      pop\n      jump\t// out\n        /* \"#utility.yul\":800:1022   */\n    tag_22:\n        /* \"#utility.yul\":893:897   */\n      0x00\n        /* \"#utility.yul\":931:933   */\n      0x20\n        /* \"#utility.yul\":920:929   */\n      dup3\n        /* \"#utility.yul\":916:934   */\n      add\n        /* \"#utility.yul\":908:934   */\n      swap1\n      pop\n        /* \"#utility.yul\":944:1015   */\n      tag_177\n        /* \"#utility.yul\":1012:1013   */\n      0x00\n        /* \"#utility.yul\":1001:1010   */\n      dup4\n        /* \"#utility.yul\":997:1014   */\n      add\n        /* \"#utility.yul\":988:994   */\n      dup5\n        /* \"#utility.yul\":944:1015   */\n      tag_132\n      jump\t// in\n    tag_177:\n        /* \"#utility.yul\":800:1022   */\n      swap3\n      swap2\n      pop\n      pop\n      jump\t// out\n        /* \"#utility.yul\":1109:1226   */\n    tag_134:\n        /* \"#utility.yul\":1218:1219   */\n      0x00\n        /* \"#utility.yul\":1215:1216   */\n      dup1\n        /* \"#utility.yul\":1208:1220   */\n      revert\n        /* \"#utility.yul\":1355:1477   */\n    tag_136:\n        /* \"#utility.yul\":1428:1452   */\n      tag_182\n        /* \"#utility.yul\":1446:1451   */\n      dup2\n        /* \"#utility.yul\":1428:1452   */\n      tag_131\n      jump\t// in\n    tag_182:\n        /* \"#utility.yul\":1421:1426   */\n      dup2\n        /* \"#utility.yul\":1418:1453   */\n      eq\n        /* \"#utility.yul\":1408:1471   */\n      tag_183\n      jumpi\n        /* \"#utility.yul\":1467:1468   */\n      0x00\n        /* \"#utility.yul\":1464:1465   */\n      dup1\n        /* \"#utility.yul\":1457:1469   */\n      revert\n        /* \"#utility.yul\":1408:1471   */\n    tag_183:\n        /* \"#utility.yul\":1355:1477   */\n      pop\n      jump\t// out\n        /* \"#utility.yul\":1483:1622   */\n    tag_137:\n        /* \"#utility.yul\":1529:1534   */\n      0x00\n        /* \"#utility.yul\":1567:1573   */\n      dup2\n        /* \"#utility.yul\":1554:1574   */\n      calldataload\n        /* \"#utility.yul\":1545:1574   */\n      swap1\n      pop\n        /* \"#utility.yul\":1583:1616   */\n      tag_185\n        /* \"#utility.yul\":1610:1615   */\n      dup2\n        /* \"#utility.yul\":1583:1616   */\n      tag_136\n      jump\t// in\n    tag_185:\n        /* \"#utility.yul\":1483:1622   */\n      swap3\n      swap2\n      pop\n      pop\n      jump\t// out\n        /* \"#utility.yul\":1628:1957   */\n    tag_40:\n        /* \"#utility.yul\":1687:1693   */\n      0x00\n        /* \"#utility.yul\":1736:1738   */\n      0x20\n        /* \"#utility.yul\":1724:1733   */\n      dup3\n        /* \"#utility.yul\":1715:1722   */\n      dup5\n        /* \"#utility.yul\":1711:1734   */\n      sub\n        /* \"#utility.yul\":1707:1739   */\n      slt\n        /* \"#utility.yul\":1704:1823   */\n      iszero\n      tag_187\n      jumpi\n        /* \"#utility.yul\":1742:1821   */\n      tag_188\n      tag_134\n      jump\t// in\n    tag_188:\n        /* \"#utility.yul\":1704:1823   */\n    tag_187:\n        /* \"#utility.yul\":1862:1863   */\n      0x00\n        /* \"#utility.yul\":1887:1940   */\n      tag_189\n        /* \"#utility.yul\":1932:1939   */\n      dup5\n        /* \"#utility.yul\":1923:1929   */\n      dup3\n        /* \"#utility.yul\":1912:1921   */\n      dup6\n        /* \"#utility.yul\":1908:1930   */\n      add\n        /* \"#utility.yul\":1887:1940   */\n      tag_137\n      jump\t// in\n    tag_189:\n        /* \"#utility.yul\":1877:1940   */\n      swap2\n      pop\n        /* \"#utility.yul\":1833:1950   */\n      pop\n        /* \"#utility.yul\":1628:1957   */\n      swap3\n      swap2\n      pop\n      pop\n      jump\t// out\n        /* \"#utility.yul\":1963:2053   */\n    tag_138:\n        /* \"#utility.yul\":1997:2004   */\n      0x00\n        /* \"#utility.yul\":2040:2045   */\n      dup2\n        /* \"#utility.yul\":2033:2046   */\n      iszero\n        /* \"#utility.yul\":2026:2047   */\n      iszero\n        /* \"#utility.yul\":2015:2047   */\n      swap1\n      pop\n        /* \"#utility.yul\":1963:2053   */\n      swap2\n      swap1\n      pop\n      jump\t// out\n        /* \"#utility.yul\":2059:2168   */\n    tag_139:\n        /* \"#utility.yul\":2140:2161   */\n      tag_192\n        /* \"#utility.yul\":2155:2160   */\n      dup2\n        /* \"#utility.yul\":2140:2161   */\n      tag_138\n      jump\t// in\n    tag_192:\n        /* \"#utility.yul\":2135:2138   */\n      dup3\n        /* \"#utility.yul\":2128:2162   */\n      mstore\n        /* \"#utility.yul\":2059:2168   */\n      pop\n      pop\n      jump\t// out\n        /* \"#utility.yul\":2174:2384   */\n    tag_43:\n        /* \"#utility.yul\":2261:2265   */\n      0x00\n        /* \"#utility.yul\":2299:2301   */\n      0x20\n        /* \"#utility.yul\":2288:2297   */\n      dup3\n        /* \"#utility.yul\":2284:2302   */\n      add\n        /* \"#utility.yul\":2276:2302   */\n      swap1\n      pop\n        /* \"#utility.yul\":2312:2377   */\n      tag_194\n        /* \"#utility.yul\":2374:2375   */\n      0x00\n        /* \"#utility.yul\":2363:2372   */\n      dup4\n        /* \"#utility.yul\":2359:2376   */\n      add\n        /* \"#utility.yul\":2350:2356   */\n      dup5\n        /* \"#utility.yul\":2312:2377   */\n      tag_139\n      jump\t// in\n    tag_194:\n        /* \"#utility.yul\":2174:2384   */\n      swap3\n      swap2\n      pop\n      pop\n      jump\t// out\n        /* \"#utility.yul\":2390:2450   */\n    tag_140:\n        /* \"#utility.yul\":2418:2421   */\n      0x00\n        /* \"#utility.yul\":2439:2444   */\n      dup2\n        /* \"#utility.yul\":2432:2444   */\n      swap1\n      pop\n        /* \"#utility.yul\":2390:2450   */\n      swap2\n      swap1\n      pop\n      jump\t// out\n        /* \"#utility.yul\":2456:2598   */\n    tag_141:\n        /* \"#utility.yul\":2506:2515   */\n      0x00\n        /* \"#utility.yul\":2539:2592   */\n      tag_197\n        /* \"#utility.yul\":2557:2591   */\n      tag_198\n        /* \"#utility.yul\":2566:2590   */\n      tag_199\n        /* \"#utility.yul\":2584:2589   */\n      dup5\n        /* \"#utility.yul\":2566:2590   */\n      tag_128\n      jump\t// in\n    tag_199:\n        /* \"#utility.yul\":2557:2591   */\n      tag_140\n      jump\t// in\n    tag_198:\n        /* \"#utility.yul\":2539:2592   */\n      tag_128\n      jump\t// in\n    tag_197:\n        /* \"#utility.yul\":2526:2592   */\n      swap1\n      pop\n        /* \"#utility.yul\":2456:2598   */\n      swap2\n      swap1\n      pop\n      jump\t// out\n        /* \"#utility.yul\":2604:2730   */\n    tag_142:\n        /* \"#utility.yul\":2654:2663   */\n      0x00\n        /* \"#utility.yul\":2687:2724   */\n      tag_201\n        /* \"#utility.yul\":2718:2723   */\n      dup3\n        /* \"#utility.yul\":2687:2724   */\n      tag_141\n      jump\t// in\n    tag_201:\n        /* \"#utility.yul\":2674:2724   */\n      swap1\n      pop\n        /* \"#utility.yul\":2604:2730   */\n      swap2\n      swap1\n      pop\n      jump\t// out\n        /* \"#utility.yul\":2736:2876   */\n    tag_143:\n        /* \"#utility.yul\":2800:2809   */\n      0x00\n        /* \"#utility.yul\":2833:2870   */\n      tag_203\n        /* \"#utility.yul\":2864:2869   */\n      dup3\n        /* \"#utility.yul\":2833:2870   */\n      tag_142\n      jump\t// in\n    tag_203:\n        /* \"#utility.yul\":2820:2870   */\n      swap1\n      pop\n        /* \"#utility.yul\":2736:2876   */\n      swap2\n      swap1\n      pop\n      jump\t// out\n        /* \"#utility.yul\":2882:3041   */\n    tag_144:\n        /* \"#utility.yul\":2983:3034   */\n      tag_205\n        /* \"#utility.yul\":3028:3033   */\n      dup2\n        /* \"#utility.yul\":2983:3034   */\n      tag_143\n      jump\t// in\n    tag_205:\n        /* \"#utility.yul\":2978:2981   */\n      dup3\n        /* \"#utility.yul\":2971:3035   */\n      mstore\n        /* \"#utility.yul\":2882:3041   */\n      pop\n      pop\n      jump\t// out\n        /* \"#utility.yul\":3047:3297   */\n    tag_56:\n        /* \"#utility.yul\":3154:3158   */\n      0x00\n        /* \"#utility.yul\":3192:3194   */\n      0x20\n        /* \"#utility.yul\":3181:3190   */\n      dup3\n        /* \"#utility.yul\":3177:3195   */\n      add\n        /* \"#utility.yul\":3169:3195   */\n      swap1\n      pop\n        /* \"#utility.yul\":3205:3290   */\n      tag_207\n        /* \"#utility.yul\":3287:3288   */\n      0x00\n        /* \"#utility.yul\":3276:3285   */\n      dup4\n        /* \"#utility.yul\":3272:3289   */\n      add\n        /* \"#utility.yul\":3263:3269   */\n      dup5\n        /* \"#utility.yul\":3205:3290   */\n      tag_144\n      jump\t// in\n    tag_207:\n        /* \"#utility.yul\":3047:3297   */\n      swap3\n      swap2\n      pop\n      pop\n      jump\t// out\n        /* \"#utility.yul\":3303:3425   */\n    tag_145:\n        /* \"#utility.yul\":3376:3400   */\n      tag_209\n        /* \"#utility.yul\":3394:3399   */\n      dup2\n        /* \"#utility.yul\":3376:3400   */\n      tag_129\n      jump\t// in\n    tag_209:\n        /* \"#utility.yul\":3369:3374   */\n      dup2\n        /* \"#utility.yul\":3366:3401   */\n      eq\n        /* \"#utility.yul\":3356:3419   */\n      tag_210\n      jumpi\n        /* \"#utility.yul\":3415:3416   */\n      0x00\n        /* \"#utility.yul\":3412:3413   */\n      dup1\n        /* \"#utility.yul\":3405:3417   */\n      revert\n        /* \"#utility.yul\":3356:3419   */\n    tag_210:\n        /* \"#utility.yul\":3303:3425   */\n      pop\n      jump\t// out\n        /* \"#utility.yul\":3431:3574   */\n    tag_146:\n        /* \"#utility.yul\":3488:3493   */\n      0x00\n        /* \"#utility.yul\":3519:3525   */\n      dup2\n        /* \"#utility.yul\":3513:3526   */\n      mload\n        /* \"#utility.yul\":3504:3526   */\n      swap1\n      pop\n        /* \"#utility.yul\":3535:3568   */\n      tag_212\n        /* \"#utility.yul\":3562:3567   */\n      dup2\n        /* \"#utility.yul\":3535:3568   */\n      tag_145\n      jump\t// in\n    tag_212:\n        /* \"#utility.yul\":3431:3574   */\n      swap3\n      swap2\n      pop\n      pop\n      jump\t// out\n        /* \"#utility.yul\":3580:3931   */\n    tag_61:\n        /* \"#utility.yul\":3650:3656   */\n      0x00\n        /* \"#utility.yul\":3699:3701   */\n      0x20\n        /* \"#utility.yul\":3687:3696   */\n      dup3\n        /* \"#utility.yul\":3678:3685   */\n      dup5\n        /* \"#utility.yul\":3674:3697   */\n      sub\n        /* \"#utility.yul\":3670:3702   */\n      slt\n        /* \"#utility.yul\":3667:3786   */\n      iszero\n      tag_214\n      jumpi\n        /* \"#utility.yul\":3705:3784   */\n      tag_215\n      tag_134\n      jump\t// in\n    tag_215:\n        /* \"#utility.yul\":3667:3786   */\n    tag_214:\n        /* \"#utility.yul\":3825:3826   */\n      0x00\n        /* \"#utility.yul\":3850:3914   */\n      tag_216\n        /* \"#utility.yul\":3906:3913   */\n      dup5\n        /* \"#utility.yul\":3897:3903   */\n      dup3\n        /* \"#utility.yul\":3886:3895   */\n      dup6\n        /* \"#utility.yul\":3882:3904   */\n      add\n        /* \"#utility.yul\":3850:3914   */\n      tag_146\n      jump\t// in\n    tag_216:\n        /* \"#utility.yul\":3840:3914   */\n      swap2\n      pop\n        /* \"#utility.yul\":3796:3924   */\n      pop\n        /* \"#utility.yul\":3580:3931   */\n      swap3\n      swap2\n      pop\n      pop\n      jump\t// out\n        /* \"#utility.yul\":3937:4080   */\n    tag_147:\n        /* \"#utility.yul\":3994:3999   */\n      0x00\n        /* \"#utility.yul\":4025:4031   */\n      dup2\n        /* \"#utility.yul\":4019:4032   */\n      mload\n        /* \"#utility.yul\":4010:4032   */\n      swap1\n      pop\n        /* \"#utility.yul\":4041:4074   */\n      tag_218\n        /* \"#utility.yul\":4068:4073   */\n      dup2\n        /* \"#utility.yul\":4041:4074   */\n      tag_136\n      jump\t// in\n    tag_218:\n        /* \"#utility.yul\":3937:4080   */\n      swap3\n      swap2\n      pop\n      pop\n      jump\t// out\n        /* \"#utility.yul\":4086:4437   */\n    tag_67:\n        /* \"#utility.yul\":4156:4162   */\n      0x00\n        /* \"#utility.yul\":4205:4207   */\n      0x20\n        /* \"#utility.yul\":4193:4202   */\n      dup3\n        /* \"#utility.yul\":4184:4191   */\n      dup5\n        /* \"#utility.yul\":4180:4203   */\n      sub\n        /* \"#utility.yul\":4176:4208   */\n      slt\n        /* \"#utility.yul\":4173:4292   */\n      iszero\n      tag_220\n      jumpi\n        /* \"#utility.yul\":4211:4290   */\n      tag_221\n      tag_134\n      jump\t// in\n    tag_221:\n        /* \"#utility.yul\":4173:4292   */\n    tag_220:\n        /* \"#utility.yul\":4331:4332   */\n      0x00\n        /* \"#utility.yul\":4356:4420   */\n      tag_222\n        /* \"#utility.yul\":4412:4419   */\n      dup5\n        /* \"#utility.yul\":4403:4409   */\n      dup3\n        /* \"#utility.yul\":4392:4401   */\n      dup6\n        /* \"#utility.yul\":4388:4410   */\n      add\n        /* \"#utility.yul\":4356:4420   */\n      tag_147\n      jump\t// in\n    tag_222:\n        /* \"#utility.yul\":4346:4420   */\n      swap2\n      pop\n        /* \"#utility.yul\":4302:4430   */\n      pop\n        /* \"#utility.yul\":4086:4437   */\n      swap3\n      swap2\n      pop\n      pop\n      jump\t// out\n        /* \"#utility.yul\":4443:4775   */\n    tag_76:\n        /* \"#utility.yul\":4564:4568   */\n      0x00\n        /* \"#utility.yul\":4602:4604   */\n      0x40\n        /* \"#utility.yul\":4591:4600   */\n      dup3\n        /* \"#utility.yul\":4587:4605   */\n      add\n        /* \"#utility.yul\":4579:4605   */\n      swap1\n      pop\n        /* \"#utility.yul\":4615:4686   */\n      tag_224\n        /* \"#utility.yul\":4683:4684   */\n      0x00\n        /* \"#utility.yul\":4672:4681   */\n      dup4\n        /* \"#utility.yul\":4668:4685   */\n      add\n        /* \"#utility.yul\":4659:4665   */\n      dup6\n        /* \"#utility.yul\":4615:4686   */\n      tag_130\n      jump\t// in\n    tag_224:\n        /* \"#utility.yul\":4696:4768   */\n      tag_225\n        /* \"#utility.yul\":4764:4766   */\n      0x20\n        /* \"#utility.yul\":4753:4762   */\n      dup4\n        /* \"#utility.yul\":4749:4767   */\n      add\n        /* \"#utility.yul\":4740:4746   */\n      dup5\n        /* \"#utility.yul\":4696:4768   */\n      tag_130\n      jump\t// in\n    tag_225:\n        /* \"#utility.yul\":4443:4775   */\n      swap4\n      swap3\n      pop\n      pop\n      pop\n      jump\t// out\n        /* \"#utility.yul\":4781:4869   */\n    tag_148:\n        /* \"#utility.yul\":4829:4836   */\n      0x00\n        /* \"#utility.yul\":4858:4863   */\n      dup2\n        /* \"#utility.yul\":4847:4863   */\n      swap1\n      pop\n        /* \"#utility.yul\":4781:4869   */\n      swap2\n      swap1\n      pop\n      jump\t// out\n        /* \"#utility.yul\":4875:5039   */\n    tag_149:\n        /* \"#utility.yul\":4936:4945   */\n      0x00\n        /* \"#utility.yul\":4969:5033   */\n      tag_228\n        /* \"#utility.yul\":4987:5032   */\n      tag_229\n        /* \"#utility.yul\":4996:5031   */\n      tag_230\n        /* \"#utility.yul\":5025:5030   */\n      dup5\n        /* \"#utility.yul\":4996:5031   */\n      tag_148\n      jump\t// in\n    tag_230:\n        /* \"#utility.yul\":4987:5032   */\n      tag_140\n      jump\t// in\n    tag_229:\n        /* \"#utility.yul\":4969:5033   */\n      tag_131\n      jump\t// in\n    tag_228:\n        /* \"#utility.yul\":4956:5033   */\n      swap1\n      pop\n        /* \"#utility.yul\":4875:5039   */\n      swap2\n      swap1\n      pop\n      jump\t// out\n        /* \"#utility.yul\":5045:5198   */\n    tag_150:\n        /* \"#utility.yul\":5143:5191   */\n      tag_232\n        /* \"#utility.yul\":5185:5190   */\n      dup2\n        /* \"#utility.yul\":5143:5191   */\n      tag_149\n      jump\t// in\n    tag_232:\n        /* \"#utility.yul\":5138:5141   */\n      dup3\n        /* \"#utility.yul\":5131:5192   */\n      mstore\n        /* \"#utility.yul\":5045:5198   */\n      pop\n      pop\n      jump\t// out\n        /* \"#utility.yul\":5204:5448   */\n    tag_86:\n        /* \"#utility.yul\":5308:5312   */\n      0x00\n        /* \"#utility.yul\":5346:5348   */\n      0x20\n        /* \"#utility.yul\":5335:5344   */\n      dup3\n        /* \"#utility.yul\":5331:5349   */\n      add\n        /* \"#utility.yul\":5323:5349   */\n      swap1\n      pop\n        /* \"#utility.yul\":5359:5441   */\n      tag_234\n        /* \"#utility.yul\":5438:5439   */\n      0x00\n        /* \"#utility.yul\":5427:5436   */\n      dup4\n        /* \"#utility.yul\":5423:5440   */\n      add\n        /* \"#utility.yul\":5414:5420   */\n      dup5\n        /* \"#utility.yul\":5359:5441   */\n      tag_150\n      jump\t// in\n    tag_234:\n        /* \"#utility.yul\":5204:5448   */\n      swap3\n      swap2\n      pop\n      pop\n      jump\t// out\n        /* \"#utility.yul\":5454:5623   */\n    tag_151:\n        /* \"#utility.yul\":5538:5549   */\n      0x00\n        /* \"#utility.yul\":5572:5578   */\n      dup3\n        /* \"#utility.yul\":5567:5570   */\n      dup3\n        /* \"#utility.yul\":5560:5579   */\n      mstore\n        /* \"#utility.yul\":5612:5616   */\n      0x20\n        /* \"#utility.yul\":5607:5610   */\n      dup3\n        /* \"#utility.yul\":5603:5617   */\n      add\n        /* \"#utility.yul\":5588:5617   */\n      swap1\n      pop\n        /* \"#utility.yul\":5454:5623   */\n      swap3\n      swap2\n      pop\n      pop\n      jump\t// out\n        /* \"#utility.yul\":5629:5806   */\n    tag_152:\n        /* \"#utility.yul\":5769:5798   */\n      0x596f75206e65656420746f2073656e6420736f6d652045746865720000000000\n        /* \"#utility.yul\":5765:5766   */\n      0x00\n        /* \"#utility.yul\":5757:5763   */\n      dup3\n        /* \"#utility.yul\":5753:5767   */\n      add\n        /* \"#utility.yul\":5746:5799   */\n      mstore\n        /* \"#utility.yul\":5629:5806   */\n      pop\n      jump\t// out\n        /* \"#utility.yul\":5812:6178   */\n    tag_153:\n        /* \"#utility.yul\":5954:5957   */\n      0x00\n        /* \"#utility.yul\":5975:6042   */\n      tag_238\n        /* \"#utility.yul\":6039:6041   */\n      0x1b\n        /* \"#utility.yul\":6034:6037   */\n      dup4\n        /* \"#utility.yul\":5975:6042   */\n      tag_151\n      jump\t// in\n    tag_238:\n        /* \"#utility.yul\":5968:6042   */\n      swap2\n      pop\n        /* \"#utility.yul\":6051:6144   */\n      tag_239\n        /* \"#utility.yul\":6140:6143   */\n      dup3\n        /* \"#utility.yul\":6051:6144   */\n      tag_152\n      jump\t// in\n    tag_239:\n        /* \"#utility.yul\":6169:6171   */\n      0x20\n        /* \"#utility.yul\":6164:6167   */\n      dup3\n        /* \"#utility.yul\":6160:6172   */\n      add\n        /* \"#utility.yul\":6153:6172   */\n      swap1\n      pop\n        /* \"#utility.yul\":5812:6178   */\n      swap2\n      swap1\n      pop\n      jump\t// out\n        /* \"#utility.yul\":6184:6603   */\n    tag_89:\n        /* \"#utility.yul\":6350:6354   */\n      0x00\n        /* \"#utility.yul\":6388:6390   */\n      0x20\n        /* \"#utility.yul\":6377:6386   */\n      dup3\n        /* \"#utility.yul\":6373:6391   */\n      add\n        /* \"#utility.yul\":6365:6391   */\n      swap1\n      pop\n        /* \"#utility.yul\":6437:6446   */\n      dup2\n        /* \"#utility.yul\":6431:6435   */\n      dup2\n        /* \"#utility.yul\":6427:6447   */\n      sub\n        /* \"#utility.yul\":6423:6424   */\n      0x00\n        /* \"#utility.yul\":6412:6421   */\n      dup4\n        /* \"#utility.yul\":6408:6425   */\n      add\n        /* \"#utility.yul\":6401:6448   */\n      mstore\n        /* \"#utility.yul\":6465:6596   */\n      tag_241\n        /* \"#utility.yul\":6591:6595   */\n      dup2\n        /* \"#utility.yul\":6465:6596   */\n      tag_153\n      jump\t// in\n    tag_241:\n        /* \"#utility.yul\":6457:6596   */\n      swap1\n      pop\n        /* \"#utility.yul\":6184:6603   */\n      swap2\n      swap1\n      pop\n      jump\t// out\n        /* \"#utility.yul\":6609:6839   */\n    tag_154:\n        /* \"#utility.yul\":6749:6783   */\n      0x596f7520646f6e2774206861766520656e6f75676820746f6b656e7320696e20\n        /* \"#utility.yul\":6745:6746   */\n      0x00\n        /* \"#utility.yul\":6737:6743   */\n      dup3\n        /* \"#utility.yul\":6733:6747   */\n      add\n        /* \"#utility.yul\":6726:6784   */\n      mstore\n        /* \"#utility.yul\":6818:6831   */\n      0x7468652072657365727665000000000000000000000000000000000000000000\n        /* \"#utility.yul\":6813:6815   */\n      0x20\n        /* \"#utility.yul\":6805:6811   */\n      dup3\n        /* \"#utility.yul\":6801:6816   */\n      add\n        /* \"#utility.yul\":6794:6832   */\n      mstore\n        /* \"#utility.yul\":6609:6839   */\n      pop\n      jump\t// out\n        /* \"#utility.yul\":6845:7211   */\n    tag_155:\n        /* \"#utility.yul\":6987:6990   */\n      0x00\n        /* \"#utility.yul\":7008:7075   */\n      tag_244\n        /* \"#utility.yul\":7072:7074   */\n      0x2b\n        /* \"#utility.yul\":7067:7070   */\n      dup4\n        /* \"#utility.yul\":7008:7075   */\n      tag_151\n      jump\t// in\n    tag_244:\n        /* \"#utility.yul\":7001:7075   */\n      swap2\n      pop\n        /* \"#utility.yul\":7084:7177   */\n      tag_245\n        /* \"#utility.yul\":7173:7176   */\n      dup3\n        /* \"#utility.yul\":7084:7177   */\n      tag_154\n      jump\t// in\n    tag_245:\n        /* \"#utility.yul\":7202:7204   */\n      0x40\n        /* \"#utility.yul\":7197:7200   */\n      dup3\n        /* \"#utility.yul\":7193:7205   */\n      add\n        /* \"#utility.yul\":7186:7205   */\n      swap1\n      pop\n        /* \"#utility.yul\":6845:7211   */\n      swap2\n      swap1\n      pop\n      jump\t// out\n        /* \"#utility.yul\":7217:7636   */\n    tag_92:\n        /* \"#utility.yul\":7383:7387   */\n      0x00\n        /* \"#utility.yul\":7421:7423   */\n      0x20\n        /* \"#utility.yul\":7410:7419   */\n      dup3\n        /* \"#utility.yul\":7406:7424   */\n      add\n        /* \"#utility.yul\":7398:7424   */\n      swap1\n      pop\n        /* \"#utility.yul\":7470:7479   */\n      dup2\n        /* \"#utility.yul\":7464:7468   */\n      dup2\n        /* \"#utility.yul\":7460:7480   */\n      sub\n        /* \"#utility.yul\":7456:7457   */\n      0x00\n        /* \"#utility.yul\":7445:7454   */\n      dup4\n        /* \"#utility.yul\":7441:7458   */\n      add\n        /* \"#utility.yul\":7434:7481   */\n      mstore\n        /* \"#utility.yul\":7498:7629   */\n      tag_247\n        /* \"#utility.yul\":7624:7628   */\n      dup2\n        /* \"#utility.yul\":7498:7629   */\n      tag_155\n      jump\t// in\n    tag_247:\n        /* \"#utility.yul\":7490:7629   */\n      swap1\n      pop\n        /* \"#utility.yul\":7217:7636   */\n      swap2\n      swap1\n      pop\n      jump\t// out\n        /* \"#utility.yul\":7642:7731   */\n    tag_156:\n        /* \"#utility.yul\":7691:7698   */\n      0x00\n        /* \"#utility.yul\":7720:7725   */\n      dup2\n        /* \"#utility.yul\":7709:7725   */\n      swap1\n      pop\n        /* \"#utility.yul\":7642:7731   */\n      swap2\n      swap1\n      pop\n      jump\t// out\n        /* \"#utility.yul\":7737:7903   */\n    tag_157:\n        /* \"#utility.yul\":7799:7808   */\n      0x00\n        /* \"#utility.yul\":7832:7897   */\n      tag_250\n        /* \"#utility.yul\":7850:7896   */\n      tag_251\n        /* \"#utility.yul\":7859:7895   */\n      tag_252\n        /* \"#utility.yul\":7889:7894   */\n      dup5\n        /* \"#utility.yul\":7859:7895   */\n      tag_156\n      jump\t// in\n    tag_252:\n        /* \"#utility.yul\":7850:7896   */\n      tag_140\n      jump\t// in\n    tag_251:\n        /* \"#utility.yul\":7832:7897   */\n      tag_131\n      jump\t// in\n    tag_250:\n        /* \"#utility.yul\":7819:7897   */\n      swap1\n      pop\n        /* \"#utility.yul\":7737:7903   */\n      swap2\n      swap1\n      pop\n      jump\t// out\n        /* \"#utility.yul\":7909:8064   */\n    tag_158:\n        /* \"#utility.yul\":8008:8057   */\n      tag_254\n        /* \"#utility.yul\":8051:8056   */\n      dup2\n        /* \"#utility.yul\":8008:8057   */\n      tag_157\n      jump\t// in\n    tag_254:\n        /* \"#utility.yul\":8003:8006   */\n      dup3\n        /* \"#utility.yul\":7996:8058   */\n      mstore\n        /* \"#utility.yul\":7909:8064   */\n      pop\n      pop\n      jump\t// out\n        /* \"#utility.yul\":8070:8316   */\n    tag_94:\n        /* \"#utility.yul\":8175:8179   */\n      0x00\n        /* \"#utility.yul\":8213:8215   */\n      0x20\n        /* \"#utility.yul\":8202:8211   */\n      dup3\n        /* \"#utility.yul\":8198:8216   */\n      add\n        /* \"#utility.yul\":8190:8216   */\n      swap1\n      pop\n        /* \"#utility.yul\":8226:8309   */\n      tag_256\n        /* \"#utility.yul\":8306:8307   */\n      0x00\n        /* \"#utility.yul\":8295:8304   */\n      dup4\n        /* \"#utility.yul\":8291:8308   */\n      add\n        /* \"#utility.yul\":8282:8288   */\n      dup5\n        /* \"#utility.yul\":8226:8309   */\n      tag_158\n      jump\t// in\n    tag_256:\n        /* \"#utility.yul\":8070:8316   */\n      swap3\n      swap2\n      pop\n      pop\n      jump\t// out\n        /* \"#utility.yul\":8322:8654   */\n    tag_96:\n        /* \"#utility.yul\":8443:8447   */\n      0x00\n        /* \"#utility.yul\":8481:8483   */\n      0x40\n        /* \"#utility.yul\":8470:8479   */\n      dup3\n        /* \"#utility.yul\":8466:8484   */\n      add\n        /* \"#utility.yul\":8458:8484   */\n      swap1\n      pop\n        /* \"#utility.yul\":8494:8565   */\n      tag_258\n        /* \"#utility.yul\":8562:8563   */\n      0x00\n        /* \"#utility.yul\":8551:8560   */\n      dup4\n        /* \"#utility.yul\":8547:8564   */\n      add\n        /* \"#utility.yul\":8538:8544   */\n      dup6\n        /* \"#utility.yul\":8494:8565   */\n      tag_130\n      jump\t// in\n    tag_258:\n        /* \"#utility.yul\":8575:8647   */\n      tag_259\n        /* \"#utility.yul\":8643:8645   */\n      0x20\n        /* \"#utility.yul\":8632:8641   */\n      dup4\n        /* \"#utility.yul\":8628:8646   */\n      add\n        /* \"#utility.yul\":8619:8625   */\n      dup5\n        /* \"#utility.yul\":8575:8647   */\n      tag_132\n      jump\t// in\n    tag_259:\n        /* \"#utility.yul\":8322:8654   */\n      swap4\n      swap3\n      pop\n      pop\n      pop\n      jump\t// out\n        /* \"#utility.yul\":8660:8776   */\n    tag_159:\n        /* \"#utility.yul\":8730:8751   */\n      tag_261\n        /* \"#utility.yul\":8745:8750   */\n      dup2\n        /* \"#utility.yul\":8730:8751   */\n      tag_138\n      jump\t// in\n    tag_261:\n        /* \"#utility.yul\":8723:8728   */\n      dup2\n        /* \"#utility.yul\":8720:8752   */\n      eq\n        /* \"#utility.yul\":8710:8770   */\n      tag_262\n      jumpi\n        /* \"#utility.yul\":8766:8767   */\n      0x00\n        /* \"#utility.yul\":8763:8764   */\n      dup1\n        /* \"#utility.yul\":8756:8768   */\n      revert\n        /* \"#utility.yul\":8710:8770   */\n    tag_262:\n        /* \"#utility.yul\":8660:8776   */\n      pop\n      jump\t// out\n        /* \"#utility.yul\":8782:8919   */\n    tag_160:\n        /* \"#utility.yul\":8836:8841   */\n      0x00\n        /* \"#utility.yul\":8867:8873   */\n      dup2\n        /* \"#utility.yul\":8861:8874   */\n      mload\n        /* \"#utility.yul\":8852:8874   */\n      swap1\n      pop\n        /* \"#utility.yul\":8883:8913   */\n      tag_264\n        /* \"#utility.yul\":8907:8912   */\n      dup2\n        /* \"#utility.yul\":8883:8913   */\n      tag_159\n      jump\t// in\n    tag_264:\n        /* \"#utility.yul\":8782:8919   */\n      swap3\n      swap2\n      pop\n      pop\n      jump\t// out\n        /* \"#utility.yul\":8925:9270   */\n    tag_100:\n        /* \"#utility.yul\":8992:8998   */\n      0x00\n        /* \"#utility.yul\":9041:9043   */\n      0x20\n        /* \"#utility.yul\":9029:9038   */\n      dup3\n        /* \"#utility.yul\":9020:9027   */\n      dup5\n        /* \"#utility.yul\":9016:9039   */\n      sub\n        /* \"#utility.yul\":9012:9044   */\n      slt\n        /* \"#utility.yul\":9009:9128   */\n      iszero\n      tag_266\n      jumpi\n        /* \"#utility.yul\":9047:9126   */\n      tag_267\n      tag_134\n      jump\t// in\n    tag_267:\n        /* \"#utility.yul\":9009:9128   */\n    tag_266:\n        /* \"#utility.yul\":9167:9168   */\n      0x00\n        /* \"#utility.yul\":9192:9253   */\n      tag_268\n        /* \"#utility.yul\":9245:9252   */\n      dup5\n        /* \"#utility.yul\":9236:9242   */\n      dup3\n        /* \"#utility.yul\":9225:9234   */\n      dup6\n        /* \"#utility.yul\":9221:9243   */\n      add\n        /* \"#utility.yul\":9192:9253   */\n      tag_160\n      jump\t// in\n    tag_268:\n        /* \"#utility.yul\":9182:9253   */\n      swap2\n      pop\n        /* \"#utility.yul\":9138:9263   */\n      pop\n        /* \"#utility.yul\":8925:9270   */\n      swap3\n      swap2\n      pop\n      pop\n      jump\t// out\n        /* \"#utility.yul\":9276:9718   */\n    tag_104:\n        /* \"#utility.yul\":9425:9429   */\n      0x00\n        /* \"#utility.yul\":9463:9465   */\n      0x60\n        /* \"#utility.yul\":9452:9461   */\n      dup3\n        /* \"#utility.yul\":9448:9466   */\n      add\n        /* \"#utility.yul\":9440:9466   */\n      swap1\n      pop\n        /* \"#utility.yul\":9476:9547   */\n      tag_270\n        /* \"#utility.yul\":9544:9545   */\n      0x00\n        /* \"#utility.yul\":9533:9542   */\n      dup4\n        /* \"#utility.yul\":9529:9546   */\n      add\n        /* \"#utility.yul\":9520:9526   */\n      dup7\n        /* \"#utility.yul\":9476:9547   */\n      tag_130\n      jump\t// in\n    tag_270:\n        /* \"#utility.yul\":9557:9629   */\n      tag_271\n        /* \"#utility.yul\":9625:9627   */\n      0x20\n        /* \"#utility.yul\":9614:9623   */\n      dup4\n        /* \"#utility.yul\":9610:9628   */\n      add\n        /* \"#utility.yul\":9601:9607   */\n      dup6\n        /* \"#utility.yul\":9557:9629   */\n      tag_130\n      jump\t// in\n    tag_271:\n        /* \"#utility.yul\":9639:9711   */\n      tag_272\n        /* \"#utility.yul\":9707:9709   */\n      0x40\n        /* \"#utility.yul\":9696:9705   */\n      dup4\n        /* \"#utility.yul\":9692:9710   */\n      add\n        /* \"#utility.yul\":9683:9689   */\n      dup5\n        /* \"#utility.yul\":9639:9711   */\n      tag_132\n      jump\t// in\n    tag_272:\n        /* \"#utility.yul\":9276:9718   */\n      swap5\n      swap4\n      pop\n      pop\n      pop\n      pop\n      jump\t// out\n        /* \"#utility.yul\":9724:9948   */\n    tag_161:\n        /* \"#utility.yul\":9864:9898   */\n      0x596f75206e65656420746f2073656c6c206174206c6561737420736f6d652074\n        /* \"#utility.yul\":9860:9861   */\n      0x00\n        /* \"#utility.yul\":9852:9858   */\n      dup3\n        /* \"#utility.yul\":9848:9862   */\n      add\n        /* \"#utility.yul\":9841:9899   */\n      mstore\n        /* \"#utility.yul\":9933:9940   */\n      0x6f6b656e73000000000000000000000000000000000000000000000000000000\n        /* \"#utility.yul\":9928:9930   */\n      0x20\n        /* \"#utility.yul\":9920:9926   */\n      dup3\n        /* \"#utility.yul\":9916:9931   */\n      add\n        /* \"#utility.yul\":9909:9941   */\n      mstore\n        /* \"#utility.yul\":9724:9948   */\n      pop\n      jump\t// out\n        /* \"#utility.yul\":9954:10320   */\n    tag_162:\n        /* \"#utility.yul\":10096:10099   */\n      0x00\n        /* \"#utility.yul\":10117:10184   */\n      tag_275\n        /* \"#utility.yul\":10181:10183   */\n      0x25\n        /* \"#utility.yul\":10176:10179   */\n      dup4\n        /* \"#utility.yul\":10117:10184   */\n      tag_151\n      jump\t// in\n    tag_275:\n        /* \"#utility.yul\":10110:10184   */\n      swap2\n      pop\n        /* \"#utility.yul\":10193:10286   */\n      tag_276\n        /* \"#utility.yul\":10282:10285   */\n      dup3\n        /* \"#utility.yul\":10193:10286   */\n      tag_161\n      jump\t// in\n    tag_276:\n        /* \"#utility.yul\":10311:10313   */\n      0x40\n        /* \"#utility.yul\":10306:10309   */\n      dup3\n        /* \"#utility.yul\":10302:10314   */\n      add\n        /* \"#utility.yul\":10295:10314   */\n      swap1\n      pop\n        /* \"#utility.yul\":9954:10320   */\n      swap2\n      swap1\n      pop\n      jump\t// out\n        /* \"#utility.yul\":10326:10745   */\n    tag_115:\n        /* \"#utility.yul\":10492:10496   */\n      0x00\n        /* \"#utility.yul\":10530:10532   */\n      0x20\n        /* \"#utility.yul\":10519:10528   */\n      dup3\n        /* \"#utility.yul\":10515:10533   */\n      add\n        /* \"#utility.yul\":10507:10533   */\n      swap1\n      pop\n        /* \"#utility.yul\":10579:10588   */\n      dup2\n        /* \"#utility.yul\":10573:10577   */\n      dup2\n        /* \"#utility.yul\":10569:10589   */\n      sub\n        /* \"#utility.yul\":10565:10566   */\n      0x00\n        /* \"#utility.yul\":10554:10563   */\n      dup4\n        /* \"#utility.yul\":10550:10567   */\n      add\n        /* \"#utility.yul\":10543:10590   */\n      mstore\n        /* \"#utility.yul\":10607:10738   */\n      tag_278\n        /* \"#utility.yul\":10733:10737   */\n      dup2\n        /* \"#utility.yul\":10607:10738   */\n      tag_162\n      jump\t// in\n    tag_278:\n        /* \"#utility.yul\":10599:10738   */\n      swap1\n      pop\n        /* \"#utility.yul\":10326:10745   */\n      swap2\n      swap1\n      pop\n      jump\t// out\n        /* \"#utility.yul\":10751:10926   */\n    tag_163:\n        /* \"#utility.yul\":10891:10918   */\n      0x436865636b2074686520746f6b656e20616c6c6f77616e636500000000000000\n        /* \"#utility.yul\":10887:10888   */\n      0x00\n        /* \"#utility.yul\":10879:10885   */\n      dup3\n        /* \"#utility.yul\":10875:10889   */\n      add\n        /* \"#utility.yul\":10868:10919   */\n      mstore\n        /* \"#utility.yul\":10751:10926   */\n      pop\n      jump\t// out\n        /* \"#utility.yul\":10932:11298   */\n    tag_164:\n        /* \"#utility.yul\":11074:11077   */\n      0x00\n        /* \"#utility.yul\":11095:11162   */\n      tag_281\n        /* \"#utility.yul\":11159:11161   */\n      0x19\n        /* \"#utility.yul\":11154:11157   */\n      dup4\n        /* \"#utility.yul\":11095:11162   */\n      tag_151\n      jump\t// in\n    tag_281:\n        /* \"#utility.yul\":11088:11162   */\n      swap2\n      pop\n        /* \"#utility.yul\":11171:11264   */\n      tag_282\n        /* \"#utility.yul\":11260:11263   */\n      dup3\n        /* \"#utility.yul\":11171:11264   */\n      tag_163\n      jump\t// in\n    tag_282:\n        /* \"#utility.yul\":11289:11291   */\n      0x20\n        /* \"#utility.yul\":11284:11287   */\n      dup3\n        /* \"#utility.yul\":11280:11292   */\n      add\n        /* \"#utility.yul\":11273:11292   */\n      swap1\n      pop\n        /* \"#utility.yul\":10932:11298   */\n      swap2\n      swap1\n      pop\n      jump\t// out\n        /* \"#utility.yul\":11304:11723   */\n    tag_122:\n        /* \"#utility.yul\":11470:11474   */\n      0x00\n        /* \"#utility.yul\":11508:11510   */\n      0x20\n        /* \"#utility.yul\":11497:11506   */\n      dup3\n        /* \"#utility.yul\":11493:11511   */\n      add\n        /* \"#utility.yul\":11485:11511   */\n      swap1\n      pop\n        /* \"#utility.yul\":11557:11566   */\n      dup2\n        /* \"#utility.yul\":11551:11555   */\n      dup2\n        /* \"#utility.yul\":11547:11567   */\n      sub\n        /* \"#utility.yul\":11543:11544   */\n      0x00\n        /* \"#utility.yul\":11532:11541   */\n      dup4\n        /* \"#utility.yul\":11528:11545   */\n      add\n        /* \"#utility.yul\":11521:11568   */\n      mstore\n        /* \"#utility.yul\":11585:11716   */\n      tag_284\n        /* \"#utility.yul\":11711:11715   */\n      dup2\n        /* \"#utility.yul\":11585:11716   */\n      tag_164\n      jump\t// in\n    tag_284:\n        /* \"#utility.yul\":11577:11716   */\n      swap1\n      pop\n        /* \"#utility.yul\":11304:11723   */\n      swap2\n      swap1\n      pop\n      jump\t// out\n\n    auxdata: 0xa264697066735822122066cadf7e13410f7088f25d73f2dedcd6e5a6ed4eaed5b72aba2a8f8381a120c964736f6c634300081a0033\n}\n\nsub_1: assembly {\n        /* \"contracts/13_dex.sol\":1099:3053  contract ERC20Basic is IERC20 {... */\n      mstore(0x40, 0x80)\n        /* \"contracts/13_dex.sol\":1404:1412  10 ether */\n      0x8ac7230489e80000\n        /* \"contracts/13_dex.sol\":1381:1412  uint256 totalSupply_ = 10 ether */\n      0x02\n      sstore\n        /* \"contracts/13_dex.sol\":1451:1517  constructor() {... */\n      callvalue\n      dup1\n      iszero\n      tag_1\n      jumpi\n      0x00\n      dup1\n      revert\n    tag_1:\n      pop\n        /* \"contracts/13_dex.sol\":1498:1510  totalSupply_ */\n      sload(0x02)\n        /* \"contracts/13_dex.sol\":1475:1483  balances */\n      0x00\n        /* \"contracts/13_dex.sol\":1475:1495  balances[msg.sender] */\n      dup1\n        /* \"contracts/13_dex.sol\":1484:1494  msg.sender */\n      caller\n        /* \"contracts/13_dex.sol\":1475:1495  balances[msg.sender] */\n      0xffffffffffffffffffffffffffffffffffffffff\n      and\n      0xffffffffffffffffffffffffffffffffffffffff\n      and\n      dup2\n      mstore\n      0x20\n      add\n      swap1\n      dup2\n      mstore\n      0x20\n      add\n      0x00\n      keccak256\n        /* \"contracts/13_dex.sol\":1475:1510  balances[msg.sender] = totalSupply_ */\n      dup2\n      swap1\n      sstore\n      pop\n        /* \"contracts/13_dex.sol\":1099:3053  contract ERC20Basic is IERC20 {... */\n      dataSize(sub_0)\n      dup1\n      dataOffset(sub_0)\n      0x00\n      codecopy\n      0x00\n      return\n    stop\n\n    sub_0: assembly {\n            /* \"contracts/13_dex.sol\":1099:3053  contract ERC20Basic is IERC20 {... */\n          mstore(0x40, 0x80)\n          callvalue\n          dup1\n          iszero\n          tag_1\n          jumpi\n          0x00\n          dup1\n          revert\n        tag_1:\n          pop\n          jumpi(tag_2, lt(calldatasize, 0x04))\n          shr(0xe0, calldataload(0x00))\n          dup1\n          0x70a08231\n          gt\n          tag_13\n          jumpi\n          dup1\n          0x70a08231\n          eq\n          tag_8\n          jumpi\n          dup1\n          0x95d89b41\n          eq\n          tag_9\n          jumpi\n          dup1\n          0xa9059cbb\n          eq\n          tag_10\n          jumpi\n          dup1\n          0xdd62ed3e\n          eq\n          tag_11\n          jumpi\n          dup1\n          0xe1f21c67\n          eq\n          tag_12\n          jumpi\n          jump(tag_2)\n        tag_13:\n          dup1\n          0x06fdde03\n          eq\n          tag_3\n          jumpi\n          dup1\n          0x18160ddd\n          eq\n          tag_4\n          jumpi\n          dup1\n          0x23b872dd\n          eq\n          tag_5\n          jumpi\n          dup1\n          0x313ce567\n          eq\n          tag_6\n          jumpi\n          dup1\n          0x38cc4831\n          eq\n          tag_7\n          jumpi\n        tag_2:\n          0x00\n          dup1\n          revert\n            /* \"contracts/13_dex.sol\":1135:1180  string public constant name = \"ERC20-HYChain\" */\n        tag_3:\n          tag_14\n          tag_15\n          jump\t// in\n        tag_14:\n          mload(0x40)\n          tag_16\n          swap2\n          swap1\n          tag_17\n          jump\t// in\n        tag_16:\n          mload(0x40)\n          dup1\n          swap2\n          sub\n          swap1\n          return\n            /* \"contracts/13_dex.sol\":1624:1721  function totalSupply() public override view returns(uint256) {... */\n        tag_4:\n          tag_18\n          tag_19\n          jump\t// in\n        tag_18:\n          mload(0x40)\n          tag_20\n          swap2\n          swap1\n          tag_21\n          jump\t// in\n        tag_20:\n          mload(0x40)\n          dup1\n          swap2\n          sub\n          swap1\n          return\n            /* \"contracts/13_dex.sol\":2582:3051  function transferFrom(address owner, address buyer, uint256 numTokens) public override returns(bool) {... */\n        tag_5:\n          tag_22\n          0x04\n          dup1\n          calldatasize\n          sub\n          dup2\n          add\n          swap1\n          tag_23\n          swap2\n          swap1\n          tag_24\n          jump\t// in\n        tag_23:\n          tag_25\n          jump\t// in\n        tag_22:\n          mload(0x40)\n          tag_26\n          swap2\n          swap1\n          tag_27\n          jump\t// in\n        tag_26:\n          mload(0x40)\n          dup1\n          swap2\n          sub\n          swap1\n          return\n            /* \"contracts/13_dex.sol\":1233:1268  uint8 public constant decimals = 18 */\n        tag_6:\n          tag_28\n          tag_29\n          jump\t// in\n        tag_28:\n          mload(0x40)\n          tag_30\n          swap2\n          swap1\n          tag_31\n          jump\t// in\n        tag_30:\n          mload(0x40)\n          dup1\n          swap2\n          sub\n          swap1\n          return\n            /* \"contracts/13_dex.sol\":1522:1619  function getAddress() public override view returns(address) {... */\n        tag_7:\n          tag_32\n          tag_33\n          jump\t// in\n        tag_32:\n          mload(0x40)\n          tag_34\n          swap2\n          swap1\n          tag_35\n          jump\t// in\n        tag_34:\n          mload(0x40)\n          dup1\n          swap2\n          sub\n          swap1\n          return\n            /* \"contracts/13_dex.sol\":1726:1848  function balanceOf(address tokenOwner) public override view returns (uint256) {... */\n        tag_8:\n          tag_36\n          0x04\n          dup1\n          calldatasize\n          sub\n          dup2\n          add\n          swap1\n          tag_37\n          swap2\n          swap1\n          tag_38\n          jump\t// in\n        tag_37:\n          tag_39\n          jump\t// in\n        tag_36:\n          mload(0x40)\n          tag_40\n          swap2\n          swap1\n          tag_21\n          jump\t// in\n        tag_40:\n          mload(0x40)\n          dup1\n          swap2\n          sub\n          swap1\n          return\n            /* \"contracts/13_dex.sol\":1186:1227  string public constant symbol = \"ERC-HYC\" */\n        tag_9:\n          tag_41\n          tag_42\n          jump\t// in\n        tag_41:\n          mload(0x40)\n          tag_43\n          swap2\n          swap1\n          tag_17\n          jump\t// in\n        tag_43:\n          mload(0x40)\n          dup1\n          swap2\n          sub\n          swap1\n          return\n            /* \"contracts/13_dex.sol\":2222:2576  function transfer(address receiver, uint256 numTokens) public override returns (bool) {... */\n        tag_10:\n          tag_44\n          0x04\n          dup1\n          calldatasize\n          sub\n          dup2\n          add\n          swap1\n          tag_45\n          swap2\n          swap1\n          tag_46\n          jump\t// in\n        tag_45:\n          tag_47\n          jump\t// in\n        tag_44:\n          mload(0x40)\n          tag_48\n          swap2\n          swap1\n          tag_27\n          jump\t// in\n        tag_48:\n          mload(0x40)\n          dup1\n          swap2\n          sub\n          swap1\n          return\n            /* \"contracts/13_dex.sol\":2081:2216  function allowance(address owner, address delegate) public override view returns(uint) {... */\n        tag_11:\n          tag_49\n          0x04\n          dup1\n          calldatasize\n          sub\n          dup2\n          add\n          swap1\n          tag_50\n          swap2\n          swap1\n          tag_51\n          jump\t// in\n        tag_50:\n          tag_52\n          jump\t// in\n        tag_49:\n          mload(0x40)\n          tag_53\n          swap2\n          swap1\n          tag_21\n          jump\t// in\n        tag_53:\n          mload(0x40)\n          dup1\n          swap2\n          sub\n          swap1\n          return\n            /* \"contracts/13_dex.sol\":1853:2076  function approve(address owner, address delegate, uint256 numTokens) public override returns(bool) {... */\n        tag_12:\n          tag_54\n          0x04\n          dup1\n          calldatasize\n          sub\n          dup2\n          add\n          swap1\n          tag_55\n          swap2\n          swap1\n          tag_24\n          jump\t// in\n        tag_55:\n          tag_56\n          jump\t// in\n        tag_54:\n          mload(0x40)\n          tag_57\n          swap2\n          swap1\n          tag_27\n          jump\t// in\n        tag_57:\n          mload(0x40)\n          dup1\n          swap2\n          sub\n          swap1\n          return\n            /* \"contracts/13_dex.sol\":1135:1180  string public constant name = \"ERC20-HYChain\" */\n        tag_15:\n          mload(0x40)\n          dup1\n          0x40\n          add\n          0x40\n          mstore\n          dup1\n          0x0d\n          dup2\n          mstore\n          0x20\n          add\n          0x45524332302d4859436861696e00000000000000000000000000000000000000\n          dup2\n          mstore\n          pop\n          dup2\n          jump\t// out\n            /* \"contracts/13_dex.sol\":1624:1721  function totalSupply() public override view returns(uint256) {... */\n        tag_19:\n            /* \"contracts/13_dex.sol\":1676:1683  uint256 */\n          0x00\n            /* \"contracts/13_dex.sol\":1702:1714  totalSupply_ */\n          sload(0x02)\n            /* \"contracts/13_dex.sol\":1695:1714  return totalSupply_ */\n          swap1\n          pop\n            /* \"contracts/13_dex.sol\":1624:1721  function totalSupply() public override view returns(uint256) {... */\n          swap1\n          jump\t// out\n            /* \"contracts/13_dex.sol\":2582:3051  function transferFrom(address owner, address buyer, uint256 numTokens) public override returns(bool) {... */\n        tag_25:\n            /* \"contracts/13_dex.sol\":2677:2681  bool */\n          0x00\n            /* \"contracts/13_dex.sol\":2714:2722  balances */\n          dup1\n            /* \"contracts/13_dex.sol\":2714:2729  balances[owner] */\n          0x00\n            /* \"contracts/13_dex.sol\":2723:2728  owner */\n          dup6\n            /* \"contracts/13_dex.sol\":2714:2729  balances[owner] */\n          0xffffffffffffffffffffffffffffffffffffffff\n          and\n          0xffffffffffffffffffffffffffffffffffffffff\n          and\n          dup2\n          mstore\n          0x20\n          add\n          swap1\n          dup2\n          mstore\n          0x20\n          add\n          0x00\n          keccak256\n          sload\n            /* \"contracts/13_dex.sol\":2701:2710  numTokens */\n          dup3\n            /* \"contracts/13_dex.sol\":2701:2729  numTokens <= balances[owner] */\n          gt\n          iszero\n            /* \"contracts/13_dex.sol\":2693:2730  require(numTokens <= balances[owner]) */\n          tag_60\n          jumpi\n          0x00\n          dup1\n          revert\n        tag_60:\n            /* \"contracts/13_dex.sol\":2761:2768  allowed */\n          0x01\n            /* \"contracts/13_dex.sol\":2761:2775  allowed[owner] */\n          0x00\n            /* \"contracts/13_dex.sol\":2769:2774  owner */\n          dup6\n            /* \"contracts/13_dex.sol\":2761:2775  allowed[owner] */\n          0xffffffffffffffffffffffffffffffffffffffff\n          and\n          0xffffffffffffffffffffffffffffffffffffffff\n          and\n          dup2\n          mstore\n          0x20\n          add\n          swap1\n          dup2\n          mstore\n          0x20\n          add\n          0x00\n          keccak256\n            /* \"contracts/13_dex.sol\":2761:2787  allowed[owner][msg.sender] */\n          0x00\n            /* \"contracts/13_dex.sol\":2776:2786  msg.sender */\n          caller\n            /* \"contracts/13_dex.sol\":2761:2787  allowed[owner][msg.sender] */\n          0xffffffffffffffffffffffffffffffffffffffff\n          and\n          0xffffffffffffffffffffffffffffffffffffffff\n          and\n          dup2\n          mstore\n          0x20\n          add\n          swap1\n          dup2\n          mstore\n          0x20\n          add\n          0x00\n          keccak256\n          sload\n            /* \"contracts/13_dex.sol\":2748:2757  numTokens */\n          dup3\n            /* \"contracts/13_dex.sol\":2748:2787  numTokens <= allowed[owner][msg.sender] */\n          gt\n          iszero\n            /* \"contracts/13_dex.sol\":2740:2788  require(numTokens <= allowed[owner][msg.sender]) */\n          tag_61\n          jumpi\n          0x00\n          dup1\n          revert\n        tag_61:\n            /* \"contracts/13_dex.sol\":2817:2847  balances[owner].sub(numTokens) */\n          tag_62\n            /* \"contracts/13_dex.sol\":2837:2846  numTokens */\n          dup3\n            /* \"contracts/13_dex.sol\":2817:2825  balances */\n          0x00\n            /* \"contracts/13_dex.sol\":2817:2832  balances[owner] */\n          dup1\n            /* \"contracts/13_dex.sol\":2826:2831  owner */\n          dup8\n            /* \"contracts/13_dex.sol\":2817:2832  balances[owner] */\n          0xffffffffffffffffffffffffffffffffffffffff\n          and\n          0xffffffffffffffffffffffffffffffffffffffff\n          and\n          dup2\n          mstore\n          0x20\n          add\n          swap1\n          dup2\n          mstore\n          0x20\n          add\n          0x00\n          keccak256\n          sload\n            /* \"contracts/13_dex.sol\":2817:2836  balances[owner].sub */\n          tag_63\n          swap1\n            /* \"contracts/13_dex.sol\":2817:2847  balances[owner].sub(numTokens) */\n          swap2\n          swap1\n          0xffffffff\n          and\n          jump\t// in\n        tag_62:\n            /* \"contracts/13_dex.sol\":2799:2807  balances */\n          0x00\n            /* \"contracts/13_dex.sol\":2799:2814  balances[owner] */\n          dup1\n            /* \"contracts/13_dex.sol\":2808:2813  owner */\n          dup7\n            /* \"contracts/13_dex.sol\":2799:2814  balances[owner] */\n          0xffffffffffffffffffffffffffffffffffffffff\n          and\n          0xffffffffffffffffffffffffffffffffffffffff\n          and\n          dup2\n          mstore\n          0x20\n          add\n          swap1\n          dup2\n          mstore\n          0x20\n          add\n          0x00\n          keccak256\n            /* \"contracts/13_dex.sol\":2799:2847  balances[owner] = balances[owner].sub(numTokens) */\n          dup2\n          swap1\n          sstore\n          pop\n            /* \"contracts/13_dex.sol\":2881:2917  allowed[owner][buyer].sub(numTokens) */\n          tag_64\n            /* \"contracts/13_dex.sol\":2907:2916  numTokens */\n          dup3\n            /* \"contracts/13_dex.sol\":2881:2888  allowed */\n          0x01\n            /* \"contracts/13_dex.sol\":2881:2895  allowed[owner] */\n          0x00\n            /* \"contracts/13_dex.sol\":2889:2894  owner */\n          dup8\n            /* \"contracts/13_dex.sol\":2881:2895  allowed[owner] */\n          0xffffffffffffffffffffffffffffffffffffffff\n          and\n          0xffffffffffffffffffffffffffffffffffffffff\n          and\n          dup2\n          mstore\n          0x20\n          add\n          swap1\n          dup2\n          mstore\n          0x20\n          add\n          0x00\n          keccak256\n            /* \"contracts/13_dex.sol\":2881:2902  allowed[owner][buyer] */\n          0x00\n            /* \"contracts/13_dex.sol\":2896:2901  buyer */\n          dup7\n            /* \"contracts/13_dex.sol\":2881:2902  allowed[owner][buyer] */\n          0xffffffffffffffffffffffffffffffffffffffff\n          and\n          0xffffffffffffffffffffffffffffffffffffffff\n          and\n          dup2\n          mstore\n          0x20\n          add\n          swap1\n          dup2\n          mstore\n          0x20\n          add\n          0x00\n          keccak256\n          sload\n            /* \"contracts/13_dex.sol\":2881:2906  allowed[owner][buyer].sub */\n          tag_63\n          swap1\n            /* \"contracts/13_dex.sol\":2881:2917  allowed[owner][buyer].sub(numTokens) */\n          swap2\n          swap1\n          0xffffffff\n          and\n          jump\t// in\n        tag_64:\n            /* \"contracts/13_dex.sol\":2857:2864  allowed */\n          0x01\n            /* \"contracts/13_dex.sol\":2857:2871  allowed[owner] */\n          0x00\n            /* \"contracts/13_dex.sol\":2865:2870  owner */\n          dup7\n            /* \"contracts/13_dex.sol\":2857:2871  allowed[owner] */\n          0xffffffffffffffffffffffffffffffffffffffff\n          and\n          0xffffffffffffffffffffffffffffffffffffffff\n          and\n          dup2\n          mstore\n          0x20\n          add\n          swap1\n          dup2\n          mstore\n          0x20\n          add\n          0x00\n          keccak256\n            /* \"contracts/13_dex.sol\":2857:2878  allowed[owner][buyer] */\n          0x00\n            /* \"contracts/13_dex.sol\":2872:2877  buyer */\n          dup6\n            /* \"contracts/13_dex.sol\":2857:2878  allowed[owner][buyer] */\n          0xffffffffffffffffffffffffffffffffffffffff\n          and\n          0xffffffffffffffffffffffffffffffffffffffff\n          and\n          dup2\n          mstore\n          0x20\n          add\n          swap1\n          dup2\n          mstore\n          0x20\n          add\n          0x00\n          keccak256\n            /* \"contracts/13_dex.sol\":2857:2917  allowed[owner][buyer] = allowed[owner][buyer].sub(numTokens) */\n          dup2\n          swap1\n          sstore\n          pop\n            /* \"contracts/13_dex.sol\":2945:2975  balances[buyer].add(numTokens) */\n          tag_65\n            /* \"contracts/13_dex.sol\":2965:2974  numTokens */\n          dup3\n            /* \"contracts/13_dex.sol\":2945:2953  balances */\n          0x00\n            /* \"contracts/13_dex.sol\":2945:2960  balances[buyer] */\n          dup1\n            /* \"contracts/13_dex.sol\":2954:2959  buyer */\n          dup7\n            /* \"contracts/13_dex.sol\":2945:2960  balances[buyer] */\n          0xffffffffffffffffffffffffffffffffffffffff\n          and\n          0xffffffffffffffffffffffffffffffffffffffff\n          and\n          dup2\n          mstore\n          0x20\n          add\n          swap1\n          dup2\n          mstore\n          0x20\n          add\n          0x00\n          keccak256\n          sload\n            /* \"contracts/13_dex.sol\":2945:2964  balances[buyer].add */\n          tag_66\n          swap1\n            /* \"contracts/13_dex.sol\":2945:2975  balances[buyer].add(numTokens) */\n          swap2\n          swap1\n          0xffffffff\n          and\n          jump\t// in\n        tag_65:\n            /* \"contracts/13_dex.sol\":2927:2935  balances */\n          0x00\n            /* \"contracts/13_dex.sol\":2927:2942  balances[buyer] */\n          dup1\n            /* \"contracts/13_dex.sol\":2936:2941  buyer */\n          dup6\n            /* \"contracts/13_dex.sol\":2927:2942  balances[buyer] */\n          0xffffffffffffffffffffffffffffffffffffffff\n          and\n          0xffffffffffffffffffffffffffffffffffffffff\n          and\n          dup2\n          mstore\n          0x20\n          add\n          swap1\n          dup2\n          mstore\n          0x20\n          add\n          0x00\n          keccak256\n            /* \"contracts/13_dex.sol\":2927:2975  balances[buyer] = balances[buyer].add(numTokens) */\n          dup2\n          swap1\n          sstore\n          pop\n            /* \"contracts/13_dex.sol\":3006:3011  buyer */\n          dup3\n            /* \"contracts/13_dex.sol\":2990:3023  Transfer(owner, buyer, numTokens) */\n          0xffffffffffffffffffffffffffffffffffffffff\n          and\n            /* \"contracts/13_dex.sol\":2999:3004  owner */\n          dup5\n            /* \"contracts/13_dex.sol\":2990:3023  Transfer(owner, buyer, numTokens) */\n          0xffffffffffffffffffffffffffffffffffffffff\n          and\n          0xddf252ad1be2c89b69c2b068fc378daa952ba7f163c4a11628f55a4df523b3ef\n            /* \"contracts/13_dex.sol\":3013:3022  numTokens */\n          dup5\n            /* \"contracts/13_dex.sol\":2990:3023  Transfer(owner, buyer, numTokens) */\n          mload(0x40)\n          tag_67\n          swap2\n          swap1\n          tag_21\n          jump\t// in\n        tag_67:\n          mload(0x40)\n          dup1\n          swap2\n          sub\n          swap1\n          log3\n            /* \"contracts/13_dex.sol\":3040:3044  true */\n          0x01\n            /* \"contracts/13_dex.sol\":3033:3044  return true */\n          swap1\n          pop\n            /* \"contracts/13_dex.sol\":2582:3051  function transferFrom(address owner, address buyer, uint256 numTokens) public override returns(bool) {... */\n          swap4\n          swap3\n          pop\n          pop\n          pop\n          jump\t// out\n            /* \"contracts/13_dex.sol\":1233:1268  uint8 public constant decimals = 18 */\n        tag_29:\n            /* \"contracts/13_dex.sol\":1266:1268  18 */\n          0x12\n            /* \"contracts/13_dex.sol\":1233:1268  uint8 public constant decimals = 18 */\n          dup2\n          jump\t// out\n            /* \"contracts/13_dex.sol\":1522:1619  function getAddress() public override view returns(address) {... */\n        tag_33:\n            /* \"contracts/13_dex.sol\":1573:1580  address */\n          0x00\n            /* \"contracts/13_dex.sol\":1607:1611  this */\n          address\n            /* \"contracts/13_dex.sol\":1592:1612  return address(this) */\n          swap1\n          pop\n            /* \"contracts/13_dex.sol\":1522:1619  function getAddress() public override view returns(address) {... */\n          swap1\n          jump\t// out\n            /* \"contracts/13_dex.sol\":1726:1848  function balanceOf(address tokenOwner) public override view returns (uint256) {... */\n        tag_39:\n            /* \"contracts/13_dex.sol\":1795:1802  uint256 */\n          0x00\n            /* \"contracts/13_dex.sol\":1821:1829  balances */\n          dup1\n            /* \"contracts/13_dex.sol\":1821:1841  balances[tokenOwner] */\n          0x00\n            /* \"contracts/13_dex.sol\":1830:1840  tokenOwner */\n          dup4\n            /* \"contracts/13_dex.sol\":1821:1841  balances[tokenOwner] */\n          0xffffffffffffffffffffffffffffffffffffffff\n          and\n          0xffffffffffffffffffffffffffffffffffffffff\n          and\n          dup2\n          mstore\n          0x20\n          add\n          swap1\n          dup2\n          mstore\n          0x20\n          add\n          0x00\n          keccak256\n          sload\n            /* \"contracts/13_dex.sol\":1814:1841  return balances[tokenOwner] */\n          swap1\n          pop\n            /* \"contracts/13_dex.sol\":1726:1848  function balanceOf(address tokenOwner) public override view returns (uint256) {... */\n          swap2\n          swap1\n          pop\n          jump\t// out\n            /* \"contracts/13_dex.sol\":1186:1227  string public constant symbol = \"ERC-HYC\" */\n        tag_42:\n          mload(0x40)\n          dup1\n          0x40\n          add\n          0x40\n          mstore\n          dup1\n          0x07\n          dup2\n          mstore\n          0x20\n          add\n          0x4552432d48594300000000000000000000000000000000000000000000000000\n          dup2\n          mstore\n          pop\n          dup2\n          jump\t// out\n            /* \"contracts/13_dex.sol\":2222:2576  function transfer(address receiver, uint256 numTokens) public override returns (bool) {... */\n        tag_47:\n            /* \"contracts/13_dex.sol\":2302:2306  bool */\n          0x00\n            /* \"contracts/13_dex.sol\":2339:2347  balances */\n          dup1\n            /* \"contracts/13_dex.sol\":2339:2359  balances[msg.sender] */\n          0x00\n            /* \"contracts/13_dex.sol\":2348:2358  msg.sender */\n          caller\n            /* \"contracts/13_dex.sol\":2339:2359  balances[msg.sender] */\n          0xffffffffffffffffffffffffffffffffffffffff\n          and\n          0xffffffffffffffffffffffffffffffffffffffff\n          and\n          dup2\n          mstore\n          0x20\n          add\n          swap1\n          dup2\n          mstore\n          0x20\n          add\n          0x00\n          keccak256\n          sload\n            /* \"contracts/13_dex.sol\":2326:2335  numTokens */\n          dup3\n            /* \"contracts/13_dex.sol\":2326:2359  numTokens <= balances[msg.sender] */\n          gt\n          iszero\n            /* \"contracts/13_dex.sol\":2318:2360  require(numTokens <= balances[msg.sender]) */\n          tag_71\n          jumpi\n          0x00\n          dup1\n          revert\n        tag_71:\n            /* \"contracts/13_dex.sol\":2393:2428  balances[msg.sender].sub(numTokens) */\n          tag_72\n            /* \"contracts/13_dex.sol\":2418:2427  numTokens */\n          dup3\n            /* \"contracts/13_dex.sol\":2393:2401  balances */\n          0x00\n            /* \"contracts/13_dex.sol\":2393:2413  balances[msg.sender] */\n          dup1\n            /* \"contracts/13_dex.sol\":2402:2412  msg.sender */\n          caller\n            /* \"contracts/13_dex.sol\":2393:2413  balances[msg.sender] */\n          0xffffffffffffffffffffffffffffffffffffffff\n          and\n          0xffffffffffffffffffffffffffffffffffffffff\n          and\n          dup2\n          mstore\n          0x20\n          add\n          swap1\n          dup2\n          mstore\n          0x20\n          add\n          0x00\n          keccak256\n          sload\n            /* \"contracts/13_dex.sol\":2393:2417  balances[msg.sender].sub */\n          tag_63\n          swap1\n            /* \"contracts/13_dex.sol\":2393:2428  balances[msg.sender].sub(numTokens) */\n          swap2\n          swap1\n          0xffffffff\n          and\n          jump\t// in\n        tag_72:\n            /* \"contracts/13_dex.sol\":2370:2378  balances */\n          0x00\n            /* \"contracts/13_dex.sol\":2370:2390  balances[msg.sender] */\n          dup1\n            /* \"contracts/13_dex.sol\":2379:2389  msg.sender */\n          caller\n            /* \"contracts/13_dex.sol\":2370:2390  balances[msg.sender] */\n          0xffffffffffffffffffffffffffffffffffffffff\n          and\n          0xffffffffffffffffffffffffffffffffffffffff\n          and\n          dup2\n          mstore\n          0x20\n          add\n          swap1\n          dup2\n          mstore\n          0x20\n          add\n          0x00\n          keccak256\n            /* \"contracts/13_dex.sol\":2370:2428  balances[msg.sender] = balances[msg.sender].sub(numTokens) */\n          dup2\n          swap1\n          sstore\n          pop\n            /* \"contracts/13_dex.sol\":2459:2492  balances[receiver].add(numTokens) */\n          tag_73\n            /* \"contracts/13_dex.sol\":2482:2491  numTokens */\n          dup3\n            /* \"contracts/13_dex.sol\":2459:2467  balances */\n          0x00\n            /* \"contracts/13_dex.sol\":2459:2477  balances[receiver] */\n          dup1\n            /* \"contracts/13_dex.sol\":2468:2476  receiver */\n          dup7\n            /* \"contracts/13_dex.sol\":2459:2477  balances[receiver] */\n          0xffffffffffffffffffffffffffffffffffffffff\n          and\n          0xffffffffffffffffffffffffffffffffffffffff\n          and\n          dup2\n          mstore\n          0x20\n          add\n          swap1\n          dup2\n          mstore\n          0x20\n          add\n          0x00\n          keccak256\n          sload\n            /* \"contracts/13_dex.sol\":2459:2481  balances[receiver].add */\n          tag_66\n          swap1\n            /* \"contracts/13_dex.sol\":2459:2492  balances[receiver].add(numTokens) */\n          swap2\n          swap1\n          0xffffffff\n          and\n          jump\t// in\n        tag_73:\n            /* \"contracts/13_dex.sol\":2438:2446  balances */\n          0x00\n            /* \"contracts/13_dex.sol\":2438:2456  balances[receiver] */\n          dup1\n            /* \"contracts/13_dex.sol\":2447:2455  receiver */\n          dup6\n            /* \"contracts/13_dex.sol\":2438:2456  balances[receiver] */\n          0xffffffffffffffffffffffffffffffffffffffff\n          and\n          0xffffffffffffffffffffffffffffffffffffffff\n          and\n          dup2\n          mstore\n          0x20\n          add\n          swap1\n          dup2\n          mstore\n          0x20\n          add\n          0x00\n          keccak256\n            /* \"contracts/13_dex.sol\":2438:2492  balances[receiver] = balances[receiver].add(numTokens) */\n          dup2\n          swap1\n          sstore\n          pop\n            /* \"contracts/13_dex.sol\":2528:2536  receiver */\n          dup3\n            /* \"contracts/13_dex.sol\":2507:2548  Transfer(msg.sender, receiver, numTokens) */\n          0xffffffffffffffffffffffffffffffffffffffff\n          and\n            /* \"contracts/13_dex.sol\":2516:2526  msg.sender */\n          caller\n            /* \"contracts/13_dex.sol\":2507:2548  Transfer(msg.sender, receiver, numTokens) */\n          0xffffffffffffffffffffffffffffffffffffffff\n          and\n          0xddf252ad1be2c89b69c2b068fc378daa952ba7f163c4a11628f55a4df523b3ef\n            /* \"contracts/13_dex.sol\":2538:2547  numTokens */\n          dup5\n            /* \"contracts/13_dex.sol\":2507:2548  Transfer(msg.sender, receiver, numTokens) */\n          mload(0x40)\n          tag_74\n          swap2\n          swap1\n          tag_21\n          jump\t// in\n        tag_74:\n          mload(0x40)\n          dup1\n          swap2\n          sub\n          swap1\n          log3\n            /* \"contracts/13_dex.sol\":2565:2569  true */\n          0x01\n            /* \"contracts/13_dex.sol\":2558:2569  return true */\n          swap1\n          pop\n            /* \"contracts/13_dex.sol\":2222:2576  function transfer(address receiver, uint256 numTokens) public override returns (bool) {... */\n          swap3\n          swap2\n          pop\n          pop\n          jump\t// out\n            /* \"contracts/13_dex.sol\":2081:2216  function allowance(address owner, address delegate) public override view returns(uint) {... */\n        tag_52:\n            /* \"contracts/13_dex.sol\":2162:2166  uint */\n          0x00\n            /* \"contracts/13_dex.sol\":2185:2192  allowed */\n          0x01\n            /* \"contracts/13_dex.sol\":2185:2199  allowed[owner] */\n          0x00\n            /* \"contracts/13_dex.sol\":2193:2198  owner */\n          dup5\n            /* \"contracts/13_dex.sol\":2185:2199  allowed[owner] */\n          0xffffffffffffffffffffffffffffffffffffffff\n          and\n          0xffffffffffffffffffffffffffffffffffffffff\n          and\n          dup2\n          mstore\n          0x20\n          add\n          swap1\n          dup2\n          mstore\n          0x20\n          add\n          0x00\n          keccak256\n            /* \"contracts/13_dex.sol\":2185:2209  allowed[owner][delegate] */\n          0x00\n            /* \"contracts/13_dex.sol\":2200:2208  delegate */\n          dup4\n            /* \"contracts/13_dex.sol\":2185:2209  allowed[owner][delegate] */\n          0xffffffffffffffffffffffffffffffffffffffff\n          and\n          0xffffffffffffffffffffffffffffffffffffffff\n          and\n          dup2\n          mstore\n          0x20\n          add\n          swap1\n          dup2\n          mstore\n          0x20\n          add\n          0x00\n          keccak256\n          sload\n            /* \"contracts/13_dex.sol\":2178:2209  return allowed[owner][delegate] */\n          swap1\n          pop\n            /* \"contracts/13_dex.sol\":2081:2216  function allowance(address owner, address delegate) public override view returns(uint) {... */\n          swap3\n          swap2\n          pop\n          pop\n          jump\t// out\n            /* \"contracts/13_dex.sol\":1853:2076  function approve(address owner, address delegate, uint256 numTokens) public override returns(bool) {... */\n        tag_56:\n            /* \"contracts/13_dex.sol\":1946:1950  bool */\n          0x00\n            /* \"contracts/13_dex.sol\":1989:1998  numTokens */\n          dup2\n            /* \"contracts/13_dex.sol\":1962:1969  allowed */\n          0x01\n            /* \"contracts/13_dex.sol\":1962:1976  allowed[owner] */\n          0x00\n            /* \"contracts/13_dex.sol\":1970:1975  owner */\n          dup7\n            /* \"contracts/13_dex.sol\":1962:1976  allowed[owner] */\n          0xffffffffffffffffffffffffffffffffffffffff\n          and\n          0xffffffffffffffffffffffffffffffffffffffff\n          and\n          dup2\n          mstore\n          0x20\n          add\n          swap1\n          dup2\n          mstore\n          0x20\n          add\n          0x00\n          keccak256\n            /* \"contracts/13_dex.sol\":1962:1986  allowed[owner][delegate] */\n          0x00\n            /* \"contracts/13_dex.sol\":1977:1985  delegate */\n          dup6\n            /* \"contracts/13_dex.sol\":1962:1986  allowed[owner][delegate] */\n          0xffffffffffffffffffffffffffffffffffffffff\n          and\n          0xffffffffffffffffffffffffffffffffffffffff\n          and\n          dup2\n          mstore\n          0x20\n          add\n          swap1\n          dup2\n          mstore\n          0x20\n          add\n          0x00\n          keccak256\n            /* \"contracts/13_dex.sol\":1962:1998  allowed[owner][delegate] = numTokens */\n          dup2\n          swap1\n          sstore\n          pop\n            /* \"contracts/13_dex.sol\":2028:2036  delegate */\n          dup3\n            /* \"contracts/13_dex.sol\":2013:2048  Approve(owner, delegate, numTokens) */\n          0xffffffffffffffffffffffffffffffffffffffff\n          and\n            /* \"contracts/13_dex.sol\":2021:2026  owner */\n          dup5\n            /* \"contracts/13_dex.sol\":2013:2048  Approve(owner, delegate, numTokens) */\n          0xffffffffffffffffffffffffffffffffffffffff\n          and\n          0x6e11fb1b7f119e3f2fa29896ef5fdf8b8a2d0d4df6fe90ba8668e7d8b2ffa25e\n            /* \"contracts/13_dex.sol\":2038:2047  numTokens */\n          dup5\n            /* \"contracts/13_dex.sol\":2013:2048  Approve(owner, delegate, numTokens) */\n          mload(0x40)\n          tag_77\n          swap2\n          swap1\n          tag_21\n          jump\t// in\n        tag_77:\n          mload(0x40)\n          dup1\n          swap2\n          sub\n          swap1\n          log3\n            /* \"contracts/13_dex.sol\":2065:2069  true */\n          0x01\n            /* \"contracts/13_dex.sol\":2058:2069  return true */\n          swap1\n          pop\n            /* \"contracts/13_dex.sol\":1853:2076  function approve(address owner, address delegate, uint256 numTokens) public override returns(bool) {... */\n          swap4\n          swap3\n          pop\n          pop\n          pop\n          jump\t// out\n            /* \"contracts/13_dex.sol\":93:213  function sub(uint256 a, uint256 b) internal pure returns (uint256) {... */\n        tag_63:\n            /* \"contracts/13_dex.sol\":151:158  uint256 */\n          0x00\n            /* \"contracts/13_dex.sol\":182:183  a */\n          dup3\n            /* \"contracts/13_dex.sol\":177:178  b */\n          dup3\n            /* \"contracts/13_dex.sol\":177:183  b <= a */\n          gt\n          iszero\n            /* \"contracts/13_dex.sol\":170:184  assert(b <= a) */\n          tag_79\n          jumpi\n          tag_80\n          tag_81\n          jump\t// in\n        tag_80:\n        tag_79:\n            /* \"contracts/13_dex.sol\":205:206  b */\n          dup2\n            /* \"contracts/13_dex.sol\":201:202  a */\n          dup4\n            /* \"contracts/13_dex.sol\":201:206  a - b */\n          tag_82\n          swap2\n          swap1\n          tag_83\n          jump\t// in\n        tag_82:\n            /* \"contracts/13_dex.sol\":194:206  return a - b */\n          swap1\n          pop\n            /* \"contracts/13_dex.sol\":93:213  function sub(uint256 a, uint256 b) internal pure returns (uint256) {... */\n          swap3\n          swap2\n          pop\n          pop\n          jump\t// out\n            /* \"contracts/13_dex.sol\":218:362  function add(uint256 a, uint256 b) internal pure returns (uint256) { ... */\n        tag_66:\n            /* \"contracts/13_dex.sol\":276:283  uint256 */\n          0x00\n            /* \"contracts/13_dex.sol\":296:305  uint256 c */\n          dup1\n            /* \"contracts/13_dex.sol\":312:313  b */\n          dup3\n            /* \"contracts/13_dex.sol\":308:309  a */\n          dup5\n            /* \"contracts/13_dex.sol\":308:313  a + b */\n          tag_85\n          swap2\n          swap1\n          tag_86\n          jump\t// in\n        tag_85:\n            /* \"contracts/13_dex.sol\":296:313  uint256 c = a + b */\n          swap1\n          pop\n            /* \"contracts/13_dex.sol\":335:336  a */\n          dup4\n            /* \"contracts/13_dex.sol\":330:331  c */\n          dup2\n            /* \"contracts/13_dex.sol\":330:336  c >= a */\n          lt\n          iszero\n            /* \"contracts/13_dex.sol\":323:337  assert(c >= a) */\n          tag_87\n          jumpi\n          tag_88\n          tag_81\n          jump\t// in\n        tag_88:\n        tag_87:\n            /* \"contracts/13_dex.sol\":354:355  c */\n          dup1\n            /* \"contracts/13_dex.sol\":347:355  return c */\n          swap2\n          pop\n          pop\n            /* \"contracts/13_dex.sol\":218:362  function add(uint256 a, uint256 b) internal pure returns (uint256) { ... */\n          swap3\n          swap2\n          pop\n          pop\n          jump\t// out\n            /* \"#utility.yul\":7:106   */\n        tag_89:\n            /* \"#utility.yul\":59:65   */\n          0x00\n            /* \"#utility.yul\":93:98   */\n          dup2\n            /* \"#utility.yul\":87:99   */\n          mload\n            /* \"#utility.yul\":77:99   */\n          swap1\n          pop\n            /* \"#utility.yul\":7:106   */\n          swap2\n          swap1\n          pop\n          jump\t// out\n            /* \"#utility.yul\":112:281   */\n        tag_90:\n            /* \"#utility.yul\":196:207   */\n          0x00\n            /* \"#utility.yul\":230:236   */\n          dup3\n            /* \"#utility.yul\":225:228   */\n          dup3\n            /* \"#utility.yul\":218:237   */\n          mstore\n            /* \"#utility.yul\":270:274   */\n          0x20\n            /* \"#utility.yul\":265:268   */\n          dup3\n            /* \"#utility.yul\":261:275   */\n          add\n            /* \"#utility.yul\":246:275   */\n          swap1\n          pop\n            /* \"#utility.yul\":112:281   */\n          swap3\n          swap2\n          pop\n          pop\n          jump\t// out\n            /* \"#utility.yul\":287:426   */\n        tag_91:\n            /* \"#utility.yul\":376:382   */\n          dup3\n            /* \"#utility.yul\":371:374   */\n          dup2\n            /* \"#utility.yul\":366:369   */\n          dup4\n            /* \"#utility.yul\":360:383   */\n          mcopy\n            /* \"#utility.yul\":417:418   */\n          0x00\n            /* \"#utility.yul\":408:414   */\n          dup4\n            /* \"#utility.yul\":403:406   */\n          dup4\n            /* \"#utility.yul\":399:415   */\n          add\n            /* \"#utility.yul\":392:419   */\n          mstore\n            /* \"#utility.yul\":287:426   */\n          pop\n          pop\n          pop\n          jump\t// out\n            /* \"#utility.yul\":432:534   */\n        tag_92:\n            /* \"#utility.yul\":473:479   */\n          0x00\n            /* \"#utility.yul\":524:526   */\n          0x1f\n            /* \"#utility.yul\":520:527   */\n          not\n            /* \"#utility.yul\":515:517   */\n          0x1f\n            /* \"#utility.yul\":508:513   */\n          dup4\n            /* \"#utility.yul\":504:518   */\n          add\n            /* \"#utility.yul\":500:528   */\n          and\n            /* \"#utility.yul\":490:528   */\n          swap1\n          pop\n            /* \"#utility.yul\":432:534   */\n          swap2\n          swap1\n          pop\n          jump\t// out\n            /* \"#utility.yul\":540:917   */\n        tag_93:\n            /* \"#utility.yul\":628:631   */\n          0x00\n            /* \"#utility.yul\":656:695   */\n          tag_117\n            /* \"#utility.yul\":689:694   */\n          dup3\n            /* \"#utility.yul\":656:695   */\n          tag_89\n          jump\t// in\n        tag_117:\n            /* \"#utility.yul\":711:782   */\n          tag_118\n            /* \"#utility.yul\":775:781   */\n          dup2\n            /* \"#utility.yul\":770:773   */\n          dup6\n            /* \"#utility.yul\":711:782   */\n          tag_90\n          jump\t// in\n        tag_118:\n            /* \"#utility.yul\":704:782   */\n          swap4\n          pop\n            /* \"#utility.yul\":791:856   */\n          tag_119\n            /* \"#utility.yul\":849:855   */\n          dup2\n            /* \"#utility.yul\":844:847   */\n          dup6\n            /* \"#utility.yul\":837:841   */\n          0x20\n            /* \"#utility.yul\":830:835   */\n          dup7\n            /* \"#utility.yul\":826:842   */\n          add\n            /* \"#utility.yul\":791:856   */\n          tag_91\n          jump\t// in\n        tag_119:\n            /* \"#utility.yul\":881:910   */\n          tag_120\n            /* \"#utility.yul\":903:909   */\n          dup2\n            /* \"#utility.yul\":881:910   */\n          tag_92\n          jump\t// in\n        tag_120:\n            /* \"#utility.yul\":876:879   */\n          dup5\n            /* \"#utility.yul\":872:911   */\n          add\n            /* \"#utility.yul\":865:911   */\n          swap2\n          pop\n            /* \"#utility.yul\":632:917   */\n          pop\n            /* \"#utility.yul\":540:917   */\n          swap3\n          swap2\n          pop\n          pop\n          jump\t// out\n            /* \"#utility.yul\":923:1236   */\n        tag_17:\n            /* \"#utility.yul\":1036:1040   */\n          0x00\n            /* \"#utility.yul\":1074:1076   */\n          0x20\n            /* \"#utility.yul\":1063:1072   */\n          dup3\n            /* \"#utility.yul\":1059:1077   */\n          add\n            /* \"#utility.yul\":1051:1077   */\n          swap1\n          pop\n            /* \"#utility.yul\":1123:1132   */\n          dup2\n            /* \"#utility.yul\":1117:1121   */\n          dup2\n            /* \"#utility.yul\":1113:1133   */\n          sub\n            /* \"#utility.yul\":1109:1110   */\n          0x00\n            /* \"#utility.yul\":1098:1107   */\n          dup4\n            /* \"#utility.yul\":1094:1111   */\n          add\n            /* \"#utility.yul\":1087:1134   */\n          mstore\n            /* \"#utility.yul\":1151:1229   */\n          tag_122\n            /* \"#utility.yul\":1224:1228   */\n          dup2\n            /* \"#utility.yul\":1215:1221   */\n          dup5\n            /* \"#utility.yul\":1151:1229   */\n          tag_93\n          jump\t// in\n        tag_122:\n            /* \"#utility.yul\":1143:1229   */\n          swap1\n          pop\n            /* \"#utility.yul\":923:1236   */\n          swap3\n          swap2\n          pop\n          pop\n          jump\t// out\n            /* \"#utility.yul\":1242:1319   */\n        tag_94:\n            /* \"#utility.yul\":1279:1286   */\n          0x00\n            /* \"#utility.yul\":1308:1313   */\n          dup2\n            /* \"#utility.yul\":1297:1313   */\n          swap1\n          pop\n            /* \"#utility.yul\":1242:1319   */\n          swap2\n          swap1\n          pop\n          jump\t// out\n            /* \"#utility.yul\":1325:1443   */\n        tag_95:\n            /* \"#utility.yul\":1412:1436   */\n          tag_125\n            /* \"#utility.yul\":1430:1435   */\n          dup2\n            /* \"#utility.yul\":1412:1436   */\n          tag_94\n          jump\t// in\n        tag_125:\n            /* \"#utility.yul\":1407:1410   */\n          dup3\n            /* \"#utility.yul\":1400:1437   */\n          mstore\n            /* \"#utility.yul\":1325:1443   */\n          pop\n          pop\n          jump\t// out\n            /* \"#utility.yul\":1449:1671   */\n        tag_21:\n            /* \"#utility.yul\":1542:1546   */\n          0x00\n            /* \"#utility.yul\":1580:1582   */\n          0x20\n            /* \"#utility.yul\":1569:1578   */\n          dup3\n            /* \"#utility.yul\":1565:1583   */\n          add\n            /* \"#utility.yul\":1557:1583   */\n          swap1\n          pop\n            /* \"#utility.yul\":1593:1664   */\n          tag_127\n            /* \"#utility.yul\":1661:1662   */\n          0x00\n            /* \"#utility.yul\":1650:1659   */\n          dup4\n            /* \"#utility.yul\":1646:1663   */\n          add\n            /* \"#utility.yul\":1637:1643   */\n          dup5\n            /* \"#utility.yul\":1593:1664   */\n          tag_95\n          jump\t// in\n        tag_127:\n            /* \"#utility.yul\":1449:1671   */\n          swap3\n          swap2\n          pop\n          pop\n          jump\t// out\n            /* \"#utility.yul\":1758:1875   */\n        tag_97:\n            /* \"#utility.yul\":1867:1868   */\n          0x00\n            /* \"#utility.yul\":1864:1865   */\n          dup1\n            /* \"#utility.yul\":1857:1869   */\n          revert\n            /* \"#utility.yul\":2004:2130   */\n        tag_99:\n            /* \"#utility.yul\":2041:2048   */\n          0x00\n            /* \"#utility.yul\":2081:2123   */\n          0xffffffffffffffffffffffffffffffffffffffff\n            /* \"#utility.yul\":2074:2079   */\n          dup3\n            /* \"#utility.yul\":2070:2124   */\n          and\n            /* \"#utility.yul\":2059:2124   */\n          swap1\n          pop\n            /* \"#utility.yul\":2004:2130   */\n          swap2\n          swap1\n          pop\n          jump\t// out\n            /* \"#utility.yul\":2136:2232   */\n        tag_100:\n            /* \"#utility.yul\":2173:2180   */\n          0x00\n            /* \"#utility.yul\":2202:2226   */\n          tag_133\n            /* \"#utility.yul\":2220:2225   */\n          dup3\n            /* \"#utility.yul\":2202:2226   */\n          tag_99\n          jump\t// in\n        tag_133:\n            /* \"#utility.yul\":2191:2226   */\n          swap1\n          pop\n            /* \"#utility.yul\":2136:2232   */\n          swap2\n          swap1\n          pop\n          jump\t// out\n            /* \"#utility.yul\":2238:2360   */\n        tag_101:\n            /* \"#utility.yul\":2311:2335   */\n          tag_135\n            /* \"#utility.yul\":2329:2334   */\n          dup2\n            /* \"#utility.yul\":2311:2335   */\n          tag_100\n          jump\t// in\n        tag_135:\n            /* \"#utility.yul\":2304:2309   */\n          dup2\n            /* \"#utility.yul\":2301:2336   */\n          eq\n            /* \"#utility.yul\":2291:2354   */\n          tag_136\n          jumpi\n            /* \"#utility.yul\":2350:2351   */\n          0x00\n            /* \"#utility.yul\":2347:2348   */\n          dup1\n            /* \"#utility.yul\":2340:2352   */\n          revert\n            /* \"#utility.yul\":2291:2354   */\n        tag_136:\n            /* \"#utility.yul\":2238:2360   */\n          pop\n          jump\t// out\n            /* \"#utility.yul\":2366:2505   */\n        tag_102:\n            /* \"#utility.yul\":2412:2417   */\n          0x00\n            /* \"#utility.yul\":2450:2456   */\n          dup2\n            /* \"#utility.yul\":2437:2457   */\n          calldataload\n            /* \"#utility.yul\":2428:2457   */\n          swap1\n          pop\n            /* \"#utility.yul\":2466:2499   */\n          tag_138\n            /* \"#utility.yul\":2493:2498   */\n          dup2\n            /* \"#utility.yul\":2466:2499   */\n          tag_101\n          jump\t// in\n        tag_138:\n            /* \"#utility.yul\":2366:2505   */\n          swap3\n          swap2\n          pop\n          pop\n          jump\t// out\n            /* \"#utility.yul\":2511:2633   */\n        tag_103:\n            /* \"#utility.yul\":2584:2608   */\n          tag_140\n            /* \"#utility.yul\":2602:2607   */\n          dup2\n            /* \"#utility.yul\":2584:2608   */\n          tag_94\n          jump\t// in\n        tag_140:\n            /* \"#utility.yul\":2577:2582   */\n          dup2\n            /* \"#utility.yul\":2574:2609   */\n          eq\n            /* \"#utility.yul\":2564:2627   */\n          tag_141\n          jumpi\n            /* \"#utility.yul\":2623:2624   */\n          0x00\n            /* \"#utility.yul\":2620:2621   */\n          dup1\n            /* \"#utility.yul\":2613:2625   */\n          revert\n            /* \"#utility.yul\":2564:2627   */\n        tag_141:\n            /* \"#utility.yul\":2511:2633   */\n          pop\n          jump\t// out\n            /* \"#utility.yul\":2639:2778   */\n        tag_104:\n            /* \"#utility.yul\":2685:2690   */\n          0x00\n            /* \"#utility.yul\":2723:2729   */\n          dup2\n            /* \"#utility.yul\":2710:2730   */\n          calldataload\n            /* \"#utility.yul\":2701:2730   */\n          swap1\n          pop\n            /* \"#utility.yul\":2739:2772   */\n          tag_143\n            /* \"#utility.yul\":2766:2771   */\n          dup2\n            /* \"#utility.yul\":2739:2772   */\n          tag_103\n          jump\t// in\n        tag_143:\n            /* \"#utility.yul\":2639:2778   */\n          swap3\n          swap2\n          pop\n          pop\n          jump\t// out\n            /* \"#utility.yul\":2784:3403   */\n        tag_24:\n            /* \"#utility.yul\":2861:2867   */\n          0x00\n            /* \"#utility.yul\":2869:2875   */\n          dup1\n            /* \"#utility.yul\":2877:2883   */\n          0x00\n            /* \"#utility.yul\":2926:2928   */\n          0x60\n            /* \"#utility.yul\":2914:2923   */\n          dup5\n            /* \"#utility.yul\":2905:2912   */\n          dup7\n            /* \"#utility.yul\":2901:2924   */\n          sub\n            /* \"#utility.yul\":2897:2929   */\n          slt\n            /* \"#utility.yul\":2894:3013   */\n          iszero\n          tag_145\n          jumpi\n            /* \"#utility.yul\":2932:3011   */\n          tag_146\n          tag_97\n          jump\t// in\n        tag_146:\n            /* \"#utility.yul\":2894:3013   */\n        tag_145:\n            /* \"#utility.yul\":3052:3053   */\n          0x00\n            /* \"#utility.yul\":3077:3130   */\n          tag_147\n            /* \"#utility.yul\":3122:3129   */\n          dup7\n            /* \"#utility.yul\":3113:3119   */\n          dup3\n            /* \"#utility.yul\":3102:3111   */\n          dup8\n            /* \"#utility.yul\":3098:3120   */\n          add\n            /* \"#utility.yul\":3077:3130   */\n          tag_102\n          jump\t// in\n        tag_147:\n            /* \"#utility.yul\":3067:3130   */\n          swap4\n          pop\n            /* \"#utility.yul\":3023:3140   */\n          pop\n            /* \"#utility.yul\":3179:3181   */\n          0x20\n            /* \"#utility.yul\":3205:3258   */\n          tag_148\n            /* \"#utility.yul\":3250:3257   */\n          dup7\n            /* \"#utility.yul\":3241:3247   */\n          dup3\n            /* \"#utility.yul\":3230:3239   */\n          dup8\n            /* \"#utility.yul\":3226:3248   */\n          add\n            /* \"#utility.yul\":3205:3258   */\n          tag_102\n          jump\t// in\n        tag_148:\n            /* \"#utility.yul\":3195:3258   */\n          swap3\n          pop\n            /* \"#utility.yul\":3150:3268   */\n          pop\n            /* \"#utility.yul\":3307:3309   */\n          0x40\n            /* \"#utility.yul\":3333:3386   */\n          tag_149\n            /* \"#utility.yul\":3378:3385   */\n          dup7\n            /* \"#utility.yul\":3369:3375   */\n          dup3\n            /* \"#utility.yul\":3358:3367   */\n          dup8\n            /* \"#utility.yul\":3354:3376   */\n          add\n            /* \"#utility.yul\":3333:3386   */\n          tag_104\n          jump\t// in\n        tag_149:\n            /* \"#utility.yul\":3323:3386   */\n          swap2\n          pop\n            /* \"#utility.yul\":3278:3396   */\n          pop\n            /* \"#utility.yul\":2784:3403   */\n          swap3\n          pop\n          swap3\n          pop\n          swap3\n          jump\t// out\n            /* \"#utility.yul\":3409:3499   */\n        tag_105:\n            /* \"#utility.yul\":3443:3450   */\n          0x00\n            /* \"#utility.yul\":3486:3491   */\n          dup2\n            /* \"#utility.yul\":3479:3492   */\n          iszero\n            /* \"#utility.yul\":3472:3493   */\n          iszero\n            /* \"#utility.yul\":3461:3493   */\n          swap1\n          pop\n            /* \"#utility.yul\":3409:3499   */\n          swap2\n          swap1\n          pop\n          jump\t// out\n            /* \"#utility.yul\":3505:3614   */\n        tag_106:\n            /* \"#utility.yul\":3586:3607   */\n          tag_152\n            /* \"#utility.yul\":3601:3606   */\n          dup2\n            /* \"#utility.yul\":3586:3607   */\n          tag_105\n          jump\t// in\n        tag_152:\n            /* \"#utility.yul\":3581:3584   */\n          dup3\n            /* \"#utility.yul\":3574:3608   */\n          mstore\n            /* \"#utility.yul\":3505:3614   */\n          pop\n          pop\n          jump\t// out\n            /* \"#utility.yul\":3620:3830   */\n        tag_27:\n            /* \"#utility.yul\":3707:3711   */\n          0x00\n            /* \"#utility.yul\":3745:3747   */\n          0x20\n            /* \"#utility.yul\":3734:3743   */\n          dup3\n            /* \"#utility.yul\":3730:3748   */\n          add\n            /* \"#utility.yul\":3722:3748   */\n          swap1\n          pop\n            /* \"#utility.yul\":3758:3823   */\n          tag_154\n            /* \"#utility.yul\":3820:3821   */\n          0x00\n            /* \"#utility.yul\":3809:3818   */\n          dup4\n            /* \"#utility.yul\":3805:3822   */\n          add\n            /* \"#utility.yul\":3796:3802   */\n          dup5\n            /* \"#utility.yul\":3758:3823   */\n          tag_106\n          jump\t// in\n        tag_154:\n            /* \"#utility.yul\":3620:3830   */\n          swap3\n          swap2\n          pop\n          pop\n          jump\t// out\n            /* \"#utility.yul\":3836:3922   */\n        tag_107:\n            /* \"#utility.yul\":3871:3878   */\n          0x00\n            /* \"#utility.yul\":3911:3915   */\n          0xff\n            /* \"#utility.yul\":3904:3909   */\n          dup3\n            /* \"#utility.yul\":3900:3916   */\n          and\n            /* \"#utility.yul\":3889:3916   */\n          swap1\n          pop\n            /* \"#utility.yul\":3836:3922   */\n          swap2\n          swap1\n          pop\n          jump\t// out\n            /* \"#utility.yul\":3928:4040   */\n        tag_108:\n            /* \"#utility.yul\":4011:4033   */\n          tag_157\n            /* \"#utility.yul\":4027:4032   */\n          dup2\n            /* \"#utility.yul\":4011:4033   */\n          tag_107\n          jump\t// in\n        tag_157:\n            /* \"#utility.yul\":4006:4009   */\n          dup3\n            /* \"#utility.yul\":3999:4034   */\n          mstore\n            /* \"#utility.yul\":3928:4040   */\n          pop\n          pop\n          jump\t// out\n            /* \"#utility.yul\":4046:4260   */\n        tag_31:\n            /* \"#utility.yul\":4135:4139   */\n          0x00\n            /* \"#utility.yul\":4173:4175   */\n          0x20\n            /* \"#utility.yul\":4162:4171   */\n          dup3\n            /* \"#utility.yul\":4158:4176   */\n          add\n            /* \"#utility.yul\":4150:4176   */\n          swap1\n          pop\n            /* \"#utility.yul\":4186:4253   */\n          tag_159\n            /* \"#utility.yul\":4250:4251   */\n          0x00\n            /* \"#utility.yul\":4239:4248   */\n          dup4\n            /* \"#utility.yul\":4235:4252   */\n          add\n            /* \"#utility.yul\":4226:4232   */\n          dup5\n            /* \"#utility.yul\":4186:4253   */\n          tag_108\n          jump\t// in\n        tag_159:\n            /* \"#utility.yul\":4046:4260   */\n          swap3\n          swap2\n          pop\n          pop\n          jump\t// out\n            /* \"#utility.yul\":4266:4384   */\n        tag_109:\n            /* \"#utility.yul\":4353:4377   */\n          tag_161\n            /* \"#utility.yul\":4371:4376   */\n          dup2\n            /* \"#utility.yul\":4353:4377   */\n          tag_100\n          jump\t// in\n        tag_161:\n            /* \"#utility.yul\":4348:4351   */\n          dup3\n            /* \"#utility.yul\":4341:4378   */\n          mstore\n            /* \"#utility.yul\":4266:4384   */\n          pop\n          pop\n          jump\t// out\n            /* \"#utility.yul\":4390:4612   */\n        tag_35:\n            /* \"#utility.yul\":4483:4487   */\n          0x00\n            /* \"#utility.yul\":4521:4523   */\n          0x20\n            /* \"#utility.yul\":4510:4519   */\n          dup3\n            /* \"#utility.yul\":4506:4524   */\n          add\n            /* \"#utility.yul\":4498:4524   */\n          swap1\n          pop\n            /* \"#utility.yul\":4534:4605   */\n          tag_163\n            /* \"#utility.yul\":4602:4603   */\n          0x00\n            /* \"#utility.yul\":4591:4600   */\n          dup4\n            /* \"#utility.yul\":4587:4604   */\n          add\n            /* \"#utility.yul\":4578:4584   */\n          dup5\n            /* \"#utility.yul\":4534:4605   */\n          tag_109\n          jump\t// in\n        tag_163:\n            /* \"#utility.yul\":4390:4612   */\n          swap3\n          swap2\n          pop\n          pop\n          jump\t// out\n            /* \"#utility.yul\":4618:4947   */\n        tag_38:\n            /* \"#utility.yul\":4677:4683   */\n          0x00\n            /* \"#utility.yul\":4726:4728   */\n          0x20\n            /* \"#utility.yul\":4714:4723   */\n          dup3\n            /* \"#utility.yul\":4705:4712   */\n          dup5\n            /* \"#utility.yul\":4701:4724   */\n          sub\n            /* \"#utility.yul\":4697:4729   */\n          slt\n            /* \"#utility.yul\":4694:4813   */\n          iszero\n          tag_165\n          jumpi\n            /* \"#utility.yul\":4732:4811   */\n          tag_166\n          tag_97\n          jump\t// in\n        tag_166:\n            /* \"#utility.yul\":4694:4813   */\n        tag_165:\n            /* \"#utility.yul\":4852:4853   */\n          0x00\n            /* \"#utility.yul\":4877:4930   */\n          tag_167\n            /* \"#utility.yul\":4922:4929   */\n          dup5\n            /* \"#utility.yul\":4913:4919   */\n          dup3\n            /* \"#utility.yul\":4902:4911   */\n          dup6\n            /* \"#utility.yul\":4898:4920   */\n          add\n            /* \"#utility.yul\":4877:4930   */\n          tag_102\n          jump\t// in\n        tag_167:\n            /* \"#utility.yul\":4867:4930   */\n          swap2\n          pop\n            /* \"#utility.yul\":4823:4940   */\n          pop\n            /* \"#utility.yul\":4618:4947   */\n          swap3\n          swap2\n          pop\n          pop\n          jump\t// out\n            /* \"#utility.yul\":4953:5427   */\n        tag_46:\n            /* \"#utility.yul\":5021:5027   */\n          0x00\n            /* \"#utility.yul\":5029:5035   */\n          dup1\n            /* \"#utility.yul\":5078:5080   */\n          0x40\n            /* \"#utility.yul\":5066:5075   */\n          dup4\n            /* \"#utility.yul\":5057:5064   */\n          dup6\n            /* \"#utility.yul\":5053:5076   */\n          sub\n            /* \"#utility.yul\":5049:5081   */\n          slt\n            /* \"#utility.yul\":5046:5165   */\n          iszero\n          tag_169\n          jumpi\n            /* \"#utility.yul\":5084:5163   */\n          tag_170\n          tag_97\n          jump\t// in\n        tag_170:\n            /* \"#utility.yul\":5046:5165   */\n        tag_169:\n            /* \"#utility.yul\":5204:5205   */\n          0x00\n            /* \"#utility.yul\":5229:5282   */\n          tag_171\n            /* \"#utility.yul\":5274:5281   */\n          dup6\n            /* \"#utility.yul\":5265:5271   */\n          dup3\n            /* \"#utility.yul\":5254:5263   */\n          dup7\n            /* \"#utility.yul\":5250:5272   */\n          add\n            /* \"#utility.yul\":5229:5282   */\n          tag_102\n          jump\t// in\n        tag_171:\n            /* \"#utility.yul\":5219:5282   */\n          swap3\n          pop\n            /* \"#utility.yul\":5175:5292   */\n          pop\n            /* \"#utility.yul\":5331:5333   */\n          0x20\n            /* \"#utility.yul\":5357:5410   */\n          tag_172\n            /* \"#utility.yul\":5402:5409   */\n          dup6\n            /* \"#utility.yul\":5393:5399   */\n          dup3\n            /* \"#utility.yul\":5382:5391   */\n          dup7\n            /* \"#utility.yul\":5378:5400   */\n          add\n            /* \"#utility.yul\":5357:5410   */\n          tag_104\n          jump\t// in\n        tag_172:\n            /* \"#utility.yul\":5347:5410   */\n          swap2\n          pop\n            /* \"#utility.yul\":5302:5420   */\n          pop\n            /* \"#utility.yul\":4953:5427   */\n          swap3\n          pop\n          swap3\n          swap1\n          pop\n          jump\t// out\n            /* \"#utility.yul\":5433:5907   */\n        tag_51:\n            /* \"#utility.yul\":5501:5507   */\n          0x00\n            /* \"#utility.yul\":5509:5515   */\n          dup1\n            /* \"#utility.yul\":5558:5560   */\n          0x40\n            /* \"#utility.yul\":5546:5555   */\n          dup4\n            /* \"#utility.yul\":5537:5544   */\n          dup6\n            /* \"#utility.yul\":5533:5556   */\n          sub\n            /* \"#utility.yul\":5529:5561   */\n          slt\n            /* \"#utility.yul\":5526:5645   */\n          iszero\n          tag_174\n          jumpi\n            /* \"#utility.yul\":5564:5643   */\n          tag_175\n          tag_97\n          jump\t// in\n        tag_175:\n            /* \"#utility.yul\":5526:5645   */\n        tag_174:\n            /* \"#utility.yul\":5684:5685   */\n          0x00\n            /* \"#utility.yul\":5709:5762   */\n          tag_176\n            /* \"#utility.yul\":5754:5761   */\n          dup6\n            /* \"#utility.yul\":5745:5751   */\n          dup3\n            /* \"#utility.yul\":5734:5743   */\n          dup7\n            /* \"#utility.yul\":5730:5752   */\n          add\n            /* \"#utility.yul\":5709:5762   */\n          tag_102\n          jump\t// in\n        tag_176:\n            /* \"#utility.yul\":5699:5762   */\n          swap3\n          pop\n            /* \"#utility.yul\":5655:5772   */\n          pop\n            /* \"#utility.yul\":5811:5813   */\n          0x20\n            /* \"#utility.yul\":5837:5890   */\n          tag_177\n            /* \"#utility.yul\":5882:5889   */\n          dup6\n            /* \"#utility.yul\":5873:5879   */\n          dup3\n            /* \"#utility.yul\":5862:5871   */\n          dup7\n            /* \"#utility.yul\":5858:5880   */\n          add\n            /* \"#utility.yul\":5837:5890   */\n          tag_102\n          jump\t// in\n        tag_177:\n            /* \"#utility.yul\":5827:5890   */\n          swap2\n          pop\n            /* \"#utility.yul\":5782:5900   */\n          pop\n            /* \"#utility.yul\":5433:5907   */\n          swap3\n          pop\n          swap3\n          swap1\n          pop\n          jump\t// out\n            /* \"#utility.yul\":5913:6093   */\n        tag_81:\n            /* \"#utility.yul\":5961:6038   */\n          0x4e487b7100000000000000000000000000000000000000000000000000000000\n            /* \"#utility.yul\":5958:5959   */\n          0x00\n            /* \"#utility.yul\":5951:6039   */\n          mstore\n            /* \"#utility.yul\":6058:6062   */\n          0x01\n            /* \"#utility.yul\":6055:6056   */\n          0x04\n            /* \"#utility.yul\":6048:6063   */\n          mstore\n            /* \"#utility.yul\":6082:6086   */\n          0x24\n            /* \"#utility.yul\":6079:6080   */\n          0x00\n            /* \"#utility.yul\":6072:6087   */\n          revert\n            /* \"#utility.yul\":6099:6279   */\n        tag_110:\n            /* \"#utility.yul\":6147:6224   */\n          0x4e487b7100000000000000000000000000000000000000000000000000000000\n            /* \"#utility.yul\":6144:6145   */\n          0x00\n            /* \"#utility.yul\":6137:6225   */\n          mstore\n            /* \"#utility.yul\":6244:6248   */\n          0x11\n            /* \"#utility.yul\":6241:6242   */\n          0x04\n            /* \"#utility.yul\":6234:6249   */\n          mstore\n            /* \"#utility.yul\":6268:6272   */\n          0x24\n            /* \"#utility.yul\":6265:6266   */\n          0x00\n            /* \"#utility.yul\":6258:6273   */\n          revert\n            /* \"#utility.yul\":6285:6479   */\n        tag_83:\n            /* \"#utility.yul\":6325:6329   */\n          0x00\n            /* \"#utility.yul\":6345:6365   */\n          tag_181\n            /* \"#utility.yul\":6363:6364   */\n          dup3\n            /* \"#utility.yul\":6345:6365   */\n          tag_94\n          jump\t// in\n        tag_181:\n            /* \"#utility.yul\":6340:6365   */\n          swap2\n          pop\n            /* \"#utility.yul\":6379:6399   */\n          tag_182\n            /* \"#utility.yul\":6397:6398   */\n          dup4\n            /* \"#utility.yul\":6379:6399   */\n          tag_94\n          jump\t// in\n        tag_182:\n            /* \"#utility.yul\":6374:6399   */\n          swap3\n          pop\n            /* \"#utility.yul\":6423:6424   */\n          dup3\n            /* \"#utility.yul\":6420:6421   */\n          dup3\n            /* \"#utility.yul\":6416:6425   */\n          sub\n            /* \"#utility.yul\":6408:6425   */\n          swap1\n          pop\n            /* \"#utility.yul\":6447:6448   */\n          dup2\n            /* \"#utility.yul\":6441:6445   */\n          dup2\n            /* \"#utility.yul\":6438:6449   */\n          gt\n            /* \"#utility.yul\":6435:6472   */\n          iszero\n          tag_183\n          jumpi\n            /* \"#utility.yul\":6452:6470   */\n          tag_184\n          tag_110\n          jump\t// in\n        tag_184:\n            /* \"#utility.yul\":6435:6472   */\n        tag_183:\n            /* \"#utility.yul\":6285:6479   */\n          swap3\n          swap2\n          pop\n          pop\n          jump\t// out\n            /* \"#utility.yul\":6485:6676   */\n        tag_86:\n            /* \"#utility.yul\":6525:6528   */\n          0x00\n            /* \"#utility.yul\":6544:6564   */\n          tag_186\n            /* \"#utility.yul\":6562:6563   */\n          dup3\n            /* \"#utility.yul\":6544:6564   */\n          tag_94\n          jump\t// in\n        tag_186:\n            /* \"#utility.yul\":6539:6564   */\n          swap2\n          pop\n            /* \"#utility.yul\":6578:6598   */\n          tag_187\n            /* \"#utility.yul\":6596:6597   */\n          dup4\n            /* \"#utility.yul\":6578:6598   */\n          tag_94\n          jump\t// in\n        tag_187:\n            /* \"#utility.yul\":6573:6598   */\n          swap3\n          pop\n            /* \"#utility.yul\":6621:6622   */\n          dup3\n            /* \"#utility.yul\":6618:6619   */\n          dup3\n            /* \"#utility.yul\":6614:6623   */\n          add\n            /* \"#utility.yul\":6607:6623   */\n          swap1\n          pop\n            /* \"#utility.yul\":6642:6645   */\n          dup1\n            /* \"#utility.yul\":6639:6640   */\n          dup3\n            /* \"#utility.yul\":6636:6646   */\n          gt\n            /* \"#utility.yul\":6633:6669   */\n          iszero\n          tag_188\n          jumpi\n            /* \"#utility.yul\":6649:6667   */\n          tag_189\n          tag_110\n          jump\t// in\n        tag_189:\n            /* \"#utility.yul\":6633:6669   */\n        tag_188:\n            /* \"#utility.yul\":6485:6676   */\n          swap3\n          swap2\n          pop\n          pop\n          jump\t// out\n\n        auxdata: 0xa2646970667358221220505c607e0c5d95e018fe23f36dd268633ca37cd07f29d0406848386ef04672a464736f6c634300081a0033\n    }\n}\n",
				"bytecode": {
					"linkReferences": {},
					"object": "6080604052348015600e575f80fd5b506040516019906074565b604051809103905ff0801580156031573d5f803e3d5ffd5b505f806101000a81548173ffffffffffffffffffffffffffffffffffffffff021916908373ffffffffffffffffffffffffffffffffffffffff1602179055506081565b610e1b806110bc83390190565b61102e8061008e5f395ff3fe608060405260043610610090575f3560e01c8063a6f2ae3a11610058578063a6f2ae3a14610166578063b759f95414610170578063c4e41b22146101ac578063e4849b32146101d6578063fc0c546a146101fe57610090565b8063426301eb14610094578063430f4801146100be578063590791f2146100e85780636b37d36214610112578063973e9b8b1461013c575b5f80fd5b34801561009f575f80fd5b506100a8610228565b6040516100b59190610aa2565b60405180910390f35b3480156100c9575f80fd5b506100d26102bb565b6040516100df9190610ad3565b60405180910390f35b3480156100f3575f80fd5b506100fc610359565b6040516101099190610ad3565b60405180910390f35b34801561011d575f80fd5b506101266103f7565b6040516101339190610aa2565b60405180910390f35b348015610147575f80fd5b506101506103fe565b60405161015d9190610ad3565b60405180910390f35b61016e61049e565b005b34801561017b575f80fd5b5061019660048036038101906101919190610b1a565b61070a565b6040516101a39190610b5f565b60405180910390f35b3480156101b7575f80fd5b506101c06107b3565b6040516101cd9190610ad3565b60405180910390f35b3480156101e1575f80fd5b506101fc60048036038101906101f79190610b1a565b610846565b005b348015610209575f80fd5b50610212610a40565b60405161021f9190610bd3565b60405180910390f35b5f805f9054906101000a900473ffffffffffffffffffffffffffffffffffffffff1673ffffffffffffffffffffffffffffffffffffffff166338cc48316040518163ffffffff1660e01b8152600401602060405180830381865afa158015610292573d5f803e3d5ffd5b505050506040513d601f19601f820116820180604052508101906102b69190610c16565b905090565b5f805f9054906101000a900473ffffffffffffffffffffffffffffffffffffffff1673ffffffffffffffffffffffffffffffffffffffff166370a08231306040518263ffffffff1660e01b81526004016103159190610aa2565b602060405180830381865afa158015610330573d5f803e3d5ffd5b505050506040513d601f19601f820116820180604052508101906103549190610c55565b905090565b5f805f9054906101000a900473ffffffffffffffffffffffffffffffffffffffff1673ffffffffffffffffffffffffffffffffffffffff166370a08231336040518263ffffffff1660e01b81526004016103b39190610aa2565b602060405180830381865afa1580156103ce573d5f803e3d5ffd5b505050506040513d601f19601f820116820180604052508101906103f29190610c55565b905090565b5f30905090565b5f805f9054906101000a900473ffffffffffffffffffffffffffffffffffffffff1673ffffffffffffffffffffffffffffffffffffffff1663dd62ed3e33306040518363ffffffff1660e01b815260040161045a929190610c80565b602060405180830381865afa158015610475573d5f803e3d5ffd5b505050506040513d601f19601f820116820180604052508101906104999190610c55565b905090565b5f3490505f805f9054906101000a900473ffffffffffffffffffffffffffffffffffffffff1673ffffffffffffffffffffffffffffffffffffffff166370a08231306040518263ffffffff1660e01b81526004016104fc9190610aa2565b602060405180830381865afa158015610517573d5f803e3d5ffd5b505050506040513d601f19601f8201168201806040525081019061053b9190610c55565b90507f909c57d5c6ac08245cf2a6de3900e2b868513fa59099b92b27d8db823d92df9c61045760405161056e9190610ce0565b60405180910390a15f82116105b8576040517f08c379a00000000000000000000000000000000000000000000000000000000081526004016105af90610d53565b60405180910390fd5b808211156105fb576040517f08c379a00000000000000000000000000000000000000000000000000000000081526004016105f290610de1565b60405180910390fd5b7f909c57d5c6ac08245cf2a6de3900e2b868513fa59099b92b27d8db823d92df9c6156ce60405161062c9190610e38565b60405180910390a15f8054906101000a900473ffffffffffffffffffffffffffffffffffffffff1673ffffffffffffffffffffffffffffffffffffffff1663a9059cbb33846040518363ffffffff1660e01b815260040161068e929190610e51565b6020604051808303815f875af11580156106aa573d5f803e3d5ffd5b505050506040513d601f19601f820116820180604052508101906106ce9190610ea2565b507f4e08ba899977cf7d4c2964bce71c6b9a7ef76ee5166a4c1249a1e08016e33ef1826040516106fe9190610ad3565b60405180910390a15050565b5f805f8054906101000a900473ffffffffffffffffffffffffffffffffffffffff1673ffffffffffffffffffffffffffffffffffffffff1663e1f21c673330866040518463ffffffff1660e01b815260040161076893929190610ecd565b6020604051808303815f875af1158015610784573d5f803e3d5ffd5b505050506040513d601f19601f820116820180604052508101906107a89190610ea2565b905080915050919050565b5f805f9054906101000a900473ffffffffffffffffffffffffffffffffffffffff1673ffffffffffffffffffffffffffffffffffffffff166318160ddd6040518163ffffffff1660e01b8152600401602060405180830381865afa15801561081d573d5f803e3d5ffd5b505050506040513d601f19601f820116820180604052508101906108419190610c55565b905090565b5f8111610888576040517f08c379a000000000000000000000000000000000000000000000000000000000815260040161087f90610f72565b60405180910390fd5b5f805f9054906101000a900473ffffffffffffffffffffffffffffffffffffffff1673ffffffffffffffffffffffffffffffffffffffff1663dd62ed3e33306040518363ffffffff1660e01b81526004016108e4929190610c80565b602060405180830381865afa1580156108ff573d5f803e3d5ffd5b505050506040513d601f19601f820116820180604052508101906109239190610c55565b905081811015610968576040517f08c379a000000000000000000000000000000000000000000000000000000000815260040161095f90610fda565b60405180910390fd5b5f8054906101000a900473ffffffffffffffffffffffffffffffffffffffff1673ffffffffffffffffffffffffffffffffffffffff166323b872dd3330856040518463ffffffff1660e01b81526004016109c493929190610ecd565b6020604051808303815f875af11580156109e0573d5f803e3d5ffd5b505050506040513d601f19601f82011682018060405250810190610a049190610ea2565b507f92f64ca637d023f354075a4be751b169c1a8a9ccb6d33cdd0cb352054399572782604051610a349190610ad3565b60405180910390a15050565b5f8054906101000a900473ffffffffffffffffffffffffffffffffffffffff1681565b5f73ffffffffffffffffffffffffffffffffffffffff82169050919050565b5f610a8c82610a63565b9050919050565b610a9c81610a82565b82525050565b5f602082019050610ab55f830184610a93565b92915050565b5f819050919050565b610acd81610abb565b82525050565b5f602082019050610ae65f830184610ac4565b92915050565b5f80fd5b610af981610abb565b8114610b03575f80fd5b50565b5f81359050610b1481610af0565b92915050565b5f60208284031215610b2f57610b2e610aec565b5b5f610b3c84828501610b06565b91505092915050565b5f8115159050919050565b610b5981610b45565b82525050565b5f602082019050610b725f830184610b50565b92915050565b5f819050919050565b5f610b9b610b96610b9184610a63565b610b78565b610a63565b9050919050565b5f610bac82610b81565b9050919050565b5f610bbd82610ba2565b9050919050565b610bcd81610bb3565b82525050565b5f602082019050610be65f830184610bc4565b92915050565b610bf581610a82565b8114610bff575f80fd5b50565b5f81519050610c1081610bec565b92915050565b5f60208284031215610c2b57610c2a610aec565b5b5f610c3884828501610c02565b91505092915050565b5f81519050610c4f81610af0565b92915050565b5f60208284031215610c6a57610c69610aec565b5b5f610c7784828501610c41565b91505092915050565b5f604082019050610c935f830185610a93565b610ca06020830184610a93565b9392505050565b5f819050919050565b5f610cca610cc5610cc084610ca7565b610b78565b610abb565b9050919050565b610cda81610cb0565b82525050565b5f602082019050610cf35f830184610cd1565b92915050565b5f82825260208201905092915050565b7f596f75206e65656420746f2073656e6420736f6d6520457468657200000000005f82015250565b5f610d3d601b83610cf9565b9150610d4882610d09565b602082019050919050565b5f6020820190508181035f830152610d6a81610d31565b9050919050565b7f596f7520646f6e2774206861766520656e6f75676820746f6b656e7320696e205f8201527f7468652072657365727665000000000000000000000000000000000000000000602082015250565b5f610dcb602b83610cf9565b9150610dd682610d71565b604082019050919050565b5f6020820190508181035f830152610df881610dbf565b9050919050565b5f819050919050565b5f610e22610e1d610e1884610dff565b610b78565b610abb565b9050919050565b610e3281610e08565b82525050565b5f602082019050610e4b5f830184610e29565b92915050565b5f604082019050610e645f830185610a93565b610e716020830184610ac4565b9392505050565b610e8181610b45565b8114610e8b575f80fd5b50565b5f81519050610e9c81610e78565b92915050565b5f60208284031215610eb757610eb6610aec565b5b5f610ec484828501610e8e565b91505092915050565b5f606082019050610ee05f830186610a93565b610eed6020830185610a93565b610efa6040830184610ac4565b949350505050565b7f596f75206e65656420746f2073656c6c206174206c6561737420736f6d6520745f8201527f6f6b656e73000000000000000000000000000000000000000000000000000000602082015250565b5f610f5c602583610cf9565b9150610f6782610f02565b604082019050919050565b5f6020820190508181035f830152610f8981610f50565b9050919050565b7f436865636b2074686520746f6b656e20616c6c6f77616e6365000000000000005f82015250565b5f610fc4601983610cf9565b9150610fcf82610f90565b602082019050919050565b5f6020820190508181035f830152610ff181610fb8565b905091905056fea264697066735822122066cadf7e13410f7088f25d73f2dedcd6e5a6ed4eaed5b72aba2a8f8381a120c964736f6c634300081a00336080604052678ac7230489e80000600255348015601a575f80fd5b506002545f803373ffffffffffffffffffffffffffffffffffffffff1673ffffffffffffffffffffffffffffffffffffffff1681526020019081526020015f2081905550610db08061006b5f395ff3fe608060405234801561000f575f80fd5b506004361061009c575f3560e01c806370a082311161006457806370a082311461014857806395d89b4114610178578063a9059cbb14610196578063dd62ed3e146101c6578063e1f21c67146101f65761009c565b806306fdde03146100a057806318160ddd146100be57806323b872dd146100dc578063313ce5671461010c57806338cc48311461012a575b5f80fd5b6100a8610226565b6040516100b59190610a5b565b60405180910390f35b6100c661025f565b6040516100d39190610a93565b60405180910390f35b6100f660048036038101906100f19190610b34565b610268565b6040516101039190610b9e565b60405180910390f35b6101146105ca565b6040516101219190610bd2565b60405180910390f35b6101326105cf565b60405161013f9190610bfa565b60405180910390f35b610162600480360381019061015d9190610c13565b6105d6565b60405161016f9190610a93565b60405180910390f35b61018061061b565b60405161018d9190610a5b565b60405180910390f35b6101b060048036038101906101ab9190610c3e565b610654565b6040516101bd9190610b9e565b60405180910390f35b6101e060048036038101906101db9190610c7c565b61082a565b6040516101ed9190610a93565b60405180910390f35b610210600480360381019061020b9190610b34565b6108ac565b60405161021d9190610b9e565b60405180910390f35b6040518060400160405280600d81526020017f45524332302d4859436861696e0000000000000000000000000000000000000081525081565b5f600254905090565b5f805f8573ffffffffffffffffffffffffffffffffffffffff1673ffffffffffffffffffffffffffffffffffffffff1681526020019081526020015f20548211156102b1575f80fd5b60015f8573ffffffffffffffffffffffffffffffffffffffff1673ffffffffffffffffffffffffffffffffffffffff1681526020019081526020015f205f3373ffffffffffffffffffffffffffffffffffffffff1673ffffffffffffffffffffffffffffffffffffffff1681526020019081526020015f2054821115610335575f80fd5b610384825f808773ffffffffffffffffffffffffffffffffffffffff1673ffffffffffffffffffffffffffffffffffffffff1681526020019081526020015f205461099a90919063ffffffff16565b5f808673ffffffffffffffffffffffffffffffffffffffff1673ffffffffffffffffffffffffffffffffffffffff1681526020019081526020015f208190555061044f8260015f8773ffffffffffffffffffffffffffffffffffffffff1673ffffffffffffffffffffffffffffffffffffffff1681526020019081526020015f205f8673ffffffffffffffffffffffffffffffffffffffff1673ffffffffffffffffffffffffffffffffffffffff1681526020019081526020015f205461099a90919063ffffffff16565b60015f8673ffffffffffffffffffffffffffffffffffffffff1673ffffffffffffffffffffffffffffffffffffffff1681526020019081526020015f205f8573ffffffffffffffffffffffffffffffffffffffff1673ffffffffffffffffffffffffffffffffffffffff1681526020019081526020015f208190555061051a825f808673ffffffffffffffffffffffffffffffffffffffff1673ffffffffffffffffffffffffffffffffffffffff1681526020019081526020015f20546109c090919063ffffffff16565b5f808573ffffffffffffffffffffffffffffffffffffffff1673ffffffffffffffffffffffffffffffffffffffff1681526020019081526020015f20819055508273ffffffffffffffffffffffffffffffffffffffff168473ffffffffffffffffffffffffffffffffffffffff167fddf252ad1be2c89b69c2b068fc378daa952ba7f163c4a11628f55a4df523b3ef846040516105b79190610a93565b60405180910390a3600190509392505050565b601281565b5f30905090565b5f805f8373ffffffffffffffffffffffffffffffffffffffff1673ffffffffffffffffffffffffffffffffffffffff1681526020019081526020015f20549050919050565b6040518060400160405280600781526020017f4552432d4859430000000000000000000000000000000000000000000000000081525081565b5f805f3373ffffffffffffffffffffffffffffffffffffffff1673ffffffffffffffffffffffffffffffffffffffff1681526020019081526020015f205482111561069d575f80fd5b6106ec825f803373ffffffffffffffffffffffffffffffffffffffff1673ffffffffffffffffffffffffffffffffffffffff1681526020019081526020015f205461099a90919063ffffffff16565b5f803373ffffffffffffffffffffffffffffffffffffffff1673ffffffffffffffffffffffffffffffffffffffff1681526020019081526020015f208190555061077b825f808673ffffffffffffffffffffffffffffffffffffffff1673ffffffffffffffffffffffffffffffffffffffff1681526020019081526020015f20546109c090919063ffffffff16565b5f808573ffffffffffffffffffffffffffffffffffffffff1673ffffffffffffffffffffffffffffffffffffffff1681526020019081526020015f20819055508273ffffffffffffffffffffffffffffffffffffffff163373ffffffffffffffffffffffffffffffffffffffff167fddf252ad1be2c89b69c2b068fc378daa952ba7f163c4a11628f55a4df523b3ef846040516108189190610a93565b60405180910390a36001905092915050565b5f60015f8473ffffffffffffffffffffffffffffffffffffffff1673ffffffffffffffffffffffffffffffffffffffff1681526020019081526020015f205f8373ffffffffffffffffffffffffffffffffffffffff1673ffffffffffffffffffffffffffffffffffffffff1681526020019081526020015f2054905092915050565b5f8160015f8673ffffffffffffffffffffffffffffffffffffffff1673ffffffffffffffffffffffffffffffffffffffff1681526020019081526020015f205f8573ffffffffffffffffffffffffffffffffffffffff1673ffffffffffffffffffffffffffffffffffffffff1681526020019081526020015f20819055508273ffffffffffffffffffffffffffffffffffffffff168473ffffffffffffffffffffffffffffffffffffffff167f6e11fb1b7f119e3f2fa29896ef5fdf8b8a2d0d4df6fe90ba8668e7d8b2ffa25e846040516109879190610a93565b60405180910390a3600190509392505050565b5f828211156109ac576109ab610cba565b5b81836109b89190610d14565b905092915050565b5f8082846109ce9190610d47565b9050838110156109e1576109e0610cba565b5b8091505092915050565b5f81519050919050565b5f82825260208201905092915050565b8281835e5f83830152505050565b5f601f19601f8301169050919050565b5f610a2d826109eb565b610a3781856109f5565b9350610a47818560208601610a05565b610a5081610a13565b840191505092915050565b5f6020820190508181035f830152610a738184610a23565b905092915050565b5f819050919050565b610a8d81610a7b565b82525050565b5f602082019050610aa65f830184610a84565b92915050565b5f80fd5b5f73ffffffffffffffffffffffffffffffffffffffff82169050919050565b5f610ad982610ab0565b9050919050565b610ae981610acf565b8114610af3575f80fd5b50565b5f81359050610b0481610ae0565b92915050565b610b1381610a7b565b8114610b1d575f80fd5b50565b5f81359050610b2e81610b0a565b92915050565b5f805f60608486031215610b4b57610b4a610aac565b5b5f610b5886828701610af6565b9350506020610b6986828701610af6565b9250506040610b7a86828701610b20565b9150509250925092565b5f8115159050919050565b610b9881610b84565b82525050565b5f602082019050610bb15f830184610b8f565b92915050565b5f60ff82169050919050565b610bcc81610bb7565b82525050565b5f602082019050610be55f830184610bc3565b92915050565b610bf481610acf565b82525050565b5f602082019050610c0d5f830184610beb565b92915050565b5f60208284031215610c2857610c27610aac565b5b5f610c3584828501610af6565b91505092915050565b5f8060408385031215610c5457610c53610aac565b5b5f610c6185828601610af6565b9250506020610c7285828601610b20565b9150509250929050565b5f8060408385031215610c9257610c91610aac565b5b5f610c9f85828601610af6565b9250506020610cb085828601610af6565b9150509250929050565b7f4e487b71000000000000000000000000000000000000000000000000000000005f52600160045260245ffd5b7f4e487b71000000000000000000000000000000000000000000000000000000005f52601160045260245ffd5b5f610d1e82610a7b565b9150610d2983610a7b565b9250828203905081811115610d4157610d40610ce7565b5b92915050565b5f610d5182610a7b565b9150610d5c83610a7b565b9250828201905080821115610d7457610d73610ce7565b5b9291505056fea2646970667358221220505c607e0c5d95e018fe23f36dd268633ca37cd07f29d0406848386ef04672a464736f6c634300081a0033",
					"opcodes": "PUSH1 0x80 PUSH1 0x40 MSTORE CALLVALUE DUP1 ISZERO PUSH1 0xE JUMPI PUSH0 DUP1 REVERT JUMPDEST POP PUSH1 0x40 MLOAD PUSH1 0x19 SWAP1 PUSH1 0x74 JUMP JUMPDEST PUSH1 0x40 MLOAD DUP1 SWAP2 SUB SWAP1 PUSH0 CREATE DUP1 ISZERO DUP1 ISZERO PUSH1 0x31 JUMPI RETURNDATASIZE PUSH0 DUP1 RETURNDATACOPY RETURNDATASIZE PUSH0 REVERT JUMPDEST POP PUSH0 DUP1 PUSH2 0x100 EXP DUP2 SLOAD DUP2 PUSH20 0xFFFFFFFFFFFFFFFFFFFFFFFFFFFFFFFFFFFFFFFF MUL NOT AND SWAP1 DUP4 PUSH20 0xFFFFFFFFFFFFFFFFFFFFFFFFFFFFFFFFFFFFFFFF AND MUL OR SWAP1 SSTORE POP PUSH1 0x81 JUMP JUMPDEST PUSH2 0xE1B DUP1 PUSH2 0x10BC DUP4 CODECOPY ADD SWAP1 JUMP JUMPDEST PUSH2 0x102E DUP1 PUSH2 0x8E PUSH0 CODECOPY PUSH0 RETURN INVALID PUSH1 0x80 PUSH1 0x40 MSTORE PUSH1 0x4 CALLDATASIZE LT PUSH2 0x90 JUMPI PUSH0 CALLDATALOAD PUSH1 0xE0 SHR DUP1 PUSH4 0xA6F2AE3A GT PUSH2 0x58 JUMPI DUP1 PUSH4 0xA6F2AE3A EQ PUSH2 0x166 JUMPI DUP1 PUSH4 0xB759F954 EQ PUSH2 0x170 JUMPI DUP1 PUSH4 0xC4E41B22 EQ PUSH2 0x1AC JUMPI DUP1 PUSH4 0xE4849B32 EQ PUSH2 0x1D6 JUMPI DUP1 PUSH4 0xFC0C546A EQ PUSH2 0x1FE JUMPI PUSH2 0x90 JUMP JUMPDEST DUP1 PUSH4 0x426301EB EQ PUSH2 0x94 JUMPI DUP1 PUSH4 0x430F4801 EQ PUSH2 0xBE JUMPI DUP1 PUSH4 0x590791F2 EQ PUSH2 0xE8 JUMPI DUP1 PUSH4 0x6B37D362 EQ PUSH2 0x112 JUMPI DUP1 PUSH4 0x973E9B8B EQ PUSH2 0x13C JUMPI JUMPDEST PUSH0 DUP1 REVERT JUMPDEST CALLVALUE DUP1 ISZERO PUSH2 0x9F JUMPI PUSH0 DUP1 REVERT JUMPDEST POP PUSH2 0xA8 PUSH2 0x228 JUMP JUMPDEST PUSH1 0x40 MLOAD PUSH2 0xB5 SWAP2 SWAP1 PUSH2 0xAA2 JUMP JUMPDEST PUSH1 0x40 MLOAD DUP1 SWAP2 SUB SWAP1 RETURN JUMPDEST CALLVALUE DUP1 ISZERO PUSH2 0xC9 JUMPI PUSH0 DUP1 REVERT JUMPDEST POP PUSH2 0xD2 PUSH2 0x2BB JUMP JUMPDEST PUSH1 0x40 MLOAD PUSH2 0xDF SWAP2 SWAP1 PUSH2 0xAD3 JUMP JUMPDEST PUSH1 0x40 MLOAD DUP1 SWAP2 SUB SWAP1 RETURN JUMPDEST CALLVALUE DUP1 ISZERO PUSH2 0xF3 JUMPI PUSH0 DUP1 REVERT JUMPDEST POP PUSH2 0xFC PUSH2 0x359 JUMP JUMPDEST PUSH1 0x40 MLOAD PUSH2 0x109 SWAP2 SWAP1 PUSH2 0xAD3 JUMP JUMPDEST PUSH1 0x40 MLOAD DUP1 SWAP2 SUB SWAP1 RETURN JUMPDEST CALLVALUE DUP1 ISZERO PUSH2 0x11D JUMPI PUSH0 DUP1 REVERT JUMPDEST POP PUSH2 0x126 PUSH2 0x3F7 JUMP JUMPDEST PUSH1 0x40 MLOAD PUSH2 0x133 SWAP2 SWAP1 PUSH2 0xAA2 JUMP JUMPDEST PUSH1 0x40 MLOAD DUP1 SWAP2 SUB SWAP1 RETURN JUMPDEST CALLVALUE DUP1 ISZERO PUSH2 0x147 JUMPI PUSH0 DUP1 REVERT JUMPDEST POP PUSH2 0x150 PUSH2 0x3FE JUMP JUMPDEST PUSH1 0x40 MLOAD PUSH2 0x15D SWAP2 SWAP1 PUSH2 0xAD3 JUMP JUMPDEST PUSH1 0x40 MLOAD DUP1 SWAP2 SUB SWAP1 RETURN JUMPDEST PUSH2 0x16E PUSH2 0x49E JUMP JUMPDEST STOP JUMPDEST CALLVALUE DUP1 ISZERO PUSH2 0x17B JUMPI PUSH0 DUP1 REVERT JUMPDEST POP PUSH2 0x196 PUSH1 0x4 DUP1 CALLDATASIZE SUB DUP2 ADD SWAP1 PUSH2 0x191 SWAP2 SWAP1 PUSH2 0xB1A JUMP JUMPDEST PUSH2 0x70A JUMP JUMPDEST PUSH1 0x40 MLOAD PUSH2 0x1A3 SWAP2 SWAP1 PUSH2 0xB5F JUMP JUMPDEST PUSH1 0x40 MLOAD DUP1 SWAP2 SUB SWAP1 RETURN JUMPDEST CALLVALUE DUP1 ISZERO PUSH2 0x1B7 JUMPI PUSH0 DUP1 REVERT JUMPDEST POP PUSH2 0x1C0 PUSH2 0x7B3 JUMP JUMPDEST PUSH1 0x40 MLOAD PUSH2 0x1CD SWAP2 SWAP1 PUSH2 0xAD3 JUMP JUMPDEST PUSH1 0x40 MLOAD DUP1 SWAP2 SUB SWAP1 RETURN JUMPDEST CALLVALUE DUP1 ISZERO PUSH2 0x1E1 JUMPI PUSH0 DUP1 REVERT JUMPDEST POP PUSH2 0x1FC PUSH1 0x4 DUP1 CALLDATASIZE SUB DUP2 ADD SWAP1 PUSH2 0x1F7 SWAP2 SWAP1 PUSH2 0xB1A JUMP JUMPDEST PUSH2 0x846 JUMP JUMPDEST STOP JUMPDEST CALLVALUE DUP1 ISZERO PUSH2 0x209 JUMPI PUSH0 DUP1 REVERT JUMPDEST POP PUSH2 0x212 PUSH2 0xA40 JUMP JUMPDEST PUSH1 0x40 MLOAD PUSH2 0x21F SWAP2 SWAP1 PUSH2 0xBD3 JUMP JUMPDEST PUSH1 0x40 MLOAD DUP1 SWAP2 SUB SWAP1 RETURN JUMPDEST PUSH0 DUP1 PUSH0 SWAP1 SLOAD SWAP1 PUSH2 0x100 EXP SWAP1 DIV PUSH20 0xFFFFFFFFFFFFFFFFFFFFFFFFFFFFFFFFFFFFFFFF AND PUSH20 0xFFFFFFFFFFFFFFFFFFFFFFFFFFFFFFFFFFFFFFFF AND PUSH4 0x38CC4831 PUSH1 0x40 MLOAD DUP2 PUSH4 0xFFFFFFFF AND PUSH1 0xE0 SHL DUP2 MSTORE PUSH1 0x4 ADD PUSH1 0x20 PUSH1 0x40 MLOAD DUP1 DUP4 SUB DUP2 DUP7 GAS STATICCALL ISZERO DUP1 ISZERO PUSH2 0x292 JUMPI RETURNDATASIZE PUSH0 DUP1 RETURNDATACOPY RETURNDATASIZE PUSH0 REVERT JUMPDEST POP POP POP POP PUSH1 0x40 MLOAD RETURNDATASIZE PUSH1 0x1F NOT PUSH1 0x1F DUP3 ADD AND DUP3 ADD DUP1 PUSH1 0x40 MSTORE POP DUP2 ADD SWAP1 PUSH2 0x2B6 SWAP2 SWAP1 PUSH2 0xC16 JUMP JUMPDEST SWAP1 POP SWAP1 JUMP JUMPDEST PUSH0 DUP1 PUSH0 SWAP1 SLOAD SWAP1 PUSH2 0x100 EXP SWAP1 DIV PUSH20 0xFFFFFFFFFFFFFFFFFFFFFFFFFFFFFFFFFFFFFFFF AND PUSH20 0xFFFFFFFFFFFFFFFFFFFFFFFFFFFFFFFFFFFFFFFF AND PUSH4 0x70A08231 ADDRESS PUSH1 0x40 MLOAD DUP3 PUSH4 0xFFFFFFFF AND PUSH1 0xE0 SHL DUP2 MSTORE PUSH1 0x4 ADD PUSH2 0x315 SWAP2 SWAP1 PUSH2 0xAA2 JUMP JUMPDEST PUSH1 0x20 PUSH1 0x40 MLOAD DUP1 DUP4 SUB DUP2 DUP7 GAS STATICCALL ISZERO DUP1 ISZERO PUSH2 0x330 JUMPI RETURNDATASIZE PUSH0 DUP1 RETURNDATACOPY RETURNDATASIZE PUSH0 REVERT JUMPDEST POP POP POP POP PUSH1 0x40 MLOAD RETURNDATASIZE PUSH1 0x1F NOT PUSH1 0x1F DUP3 ADD AND DUP3 ADD DUP1 PUSH1 0x40 MSTORE POP DUP2 ADD SWAP1 PUSH2 0x354 SWAP2 SWAP1 PUSH2 0xC55 JUMP JUMPDEST SWAP1 POP SWAP1 JUMP JUMPDEST PUSH0 DUP1 PUSH0 SWAP1 SLOAD SWAP1 PUSH2 0x100 EXP SWAP1 DIV PUSH20 0xFFFFFFFFFFFFFFFFFFFFFFFFFFFFFFFFFFFFFFFF AND PUSH20 0xFFFFFFFFFFFFFFFFFFFFFFFFFFFFFFFFFFFFFFFF AND PUSH4 0x70A08231 CALLER PUSH1 0x40 MLOAD DUP3 PUSH4 0xFFFFFFFF AND PUSH1 0xE0 SHL DUP2 MSTORE PUSH1 0x4 ADD PUSH2 0x3B3 SWAP2 SWAP1 PUSH2 0xAA2 JUMP JUMPDEST PUSH1 0x20 PUSH1 0x40 MLOAD DUP1 DUP4 SUB DUP2 DUP7 GAS STATICCALL ISZERO DUP1 ISZERO PUSH2 0x3CE JUMPI RETURNDATASIZE PUSH0 DUP1 RETURNDATACOPY RETURNDATASIZE PUSH0 REVERT JUMPDEST POP POP POP POP PUSH1 0x40 MLOAD RETURNDATASIZE PUSH1 0x1F NOT PUSH1 0x1F DUP3 ADD AND DUP3 ADD DUP1 PUSH1 0x40 MSTORE POP DUP2 ADD SWAP1 PUSH2 0x3F2 SWAP2 SWAP1 PUSH2 0xC55 JUMP JUMPDEST SWAP1 POP SWAP1 JUMP JUMPDEST PUSH0 ADDRESS SWAP1 POP SWAP1 JUMP JUMPDEST PUSH0 DUP1 PUSH0 SWAP1 SLOAD SWAP1 PUSH2 0x100 EXP SWAP1 DIV PUSH20 0xFFFFFFFFFFFFFFFFFFFFFFFFFFFFFFFFFFFFFFFF AND PUSH20 0xFFFFFFFFFFFFFFFFFFFFFFFFFFFFFFFFFFFFFFFF AND PUSH4 0xDD62ED3E CALLER ADDRESS PUSH1 0x40 MLOAD DUP4 PUSH4 0xFFFFFFFF AND PUSH1 0xE0 SHL DUP2 MSTORE PUSH1 0x4 ADD PUSH2 0x45A SWAP3 SWAP2 SWAP1 PUSH2 0xC80 JUMP JUMPDEST PUSH1 0x20 PUSH1 0x40 MLOAD DUP1 DUP4 SUB DUP2 DUP7 GAS STATICCALL ISZERO DUP1 ISZERO PUSH2 0x475 JUMPI RETURNDATASIZE PUSH0 DUP1 RETURNDATACOPY RETURNDATASIZE PUSH0 REVERT JUMPDEST POP POP POP POP PUSH1 0x40 MLOAD RETURNDATASIZE PUSH1 0x1F NOT PUSH1 0x1F DUP3 ADD AND DUP3 ADD DUP1 PUSH1 0x40 MSTORE POP DUP2 ADD SWAP1 PUSH2 0x499 SWAP2 SWAP1 PUSH2 0xC55 JUMP JUMPDEST SWAP1 POP SWAP1 JUMP JUMPDEST PUSH0 CALLVALUE SWAP1 POP PUSH0 DUP1 PUSH0 SWAP1 SLOAD SWAP1 PUSH2 0x100 EXP SWAP1 DIV PUSH20 0xFFFFFFFFFFFFFFFFFFFFFFFFFFFFFFFFFFFFFFFF AND PUSH20 0xFFFFFFFFFFFFFFFFFFFFFFFFFFFFFFFFFFFFFFFF AND PUSH4 0x70A08231 ADDRESS PUSH1 0x40 MLOAD DUP3 PUSH4 0xFFFFFFFF AND PUSH1 0xE0 SHL DUP2 MSTORE PUSH1 0x4 ADD PUSH2 0x4FC SWAP2 SWAP1 PUSH2 0xAA2 JUMP JUMPDEST PUSH1 0x20 PUSH1 0x40 MLOAD DUP1 DUP4 SUB DUP2 DUP7 GAS STATICCALL ISZERO DUP1 ISZERO PUSH2 0x517 JUMPI RETURNDATASIZE PUSH0 DUP1 RETURNDATACOPY RETURNDATASIZE PUSH0 REVERT JUMPDEST POP POP POP POP PUSH1 0x40 MLOAD RETURNDATASIZE PUSH1 0x1F NOT PUSH1 0x1F DUP3 ADD AND DUP3 ADD DUP1 PUSH1 0x40 MSTORE POP DUP2 ADD SWAP1 PUSH2 0x53B SWAP2 SWAP1 PUSH2 0xC55 JUMP JUMPDEST SWAP1 POP PUSH32 0x909C57D5C6AC08245CF2A6DE3900E2B868513FA59099B92B27D8DB823D92DF9C PUSH2 0x457 PUSH1 0x40 MLOAD PUSH2 0x56E SWAP2 SWAP1 PUSH2 0xCE0 JUMP JUMPDEST PUSH1 0x40 MLOAD DUP1 SWAP2 SUB SWAP1 LOG1 PUSH0 DUP3 GT PUSH2 0x5B8 JUMPI PUSH1 0x40 MLOAD PUSH32 0x8C379A000000000000000000000000000000000000000000000000000000000 DUP2 MSTORE PUSH1 0x4 ADD PUSH2 0x5AF SWAP1 PUSH2 0xD53 JUMP JUMPDEST PUSH1 0x40 MLOAD DUP1 SWAP2 SUB SWAP1 REVERT JUMPDEST DUP1 DUP3 GT ISZERO PUSH2 0x5FB JUMPI PUSH1 0x40 MLOAD PUSH32 0x8C379A000000000000000000000000000000000000000000000000000000000 DUP2 MSTORE PUSH1 0x4 ADD PUSH2 0x5F2 SWAP1 PUSH2 0xDE1 JUMP JUMPDEST PUSH1 0x40 MLOAD DUP1 SWAP2 SUB SWAP1 REVERT JUMPDEST PUSH32 0x909C57D5C6AC08245CF2A6DE3900E2B868513FA59099B92B27D8DB823D92DF9C PUSH2 0x56CE PUSH1 0x40 MLOAD PUSH2 0x62C SWAP2 SWAP1 PUSH2 0xE38 JUMP JUMPDEST PUSH1 0x40 MLOAD DUP1 SWAP2 SUB SWAP1 LOG1 PUSH0 DUP1 SLOAD SWAP1 PUSH2 0x100 EXP SWAP1 DIV PUSH20 0xFFFFFFFFFFFFFFFFFFFFFFFFFFFFFFFFFFFFFFFF AND PUSH20 0xFFFFFFFFFFFFFFFFFFFFFFFFFFFFFFFFFFFFFFFF AND PUSH4 0xA9059CBB CALLER DUP5 PUSH1 0x40 MLOAD DUP4 PUSH4 0xFFFFFFFF AND PUSH1 0xE0 SHL DUP2 MSTORE PUSH1 0x4 ADD PUSH2 0x68E SWAP3 SWAP2 SWAP1 PUSH2 0xE51 JUMP JUMPDEST PUSH1 0x20 PUSH1 0x40 MLOAD DUP1 DUP4 SUB DUP2 PUSH0 DUP8 GAS CALL ISZERO DUP1 ISZERO PUSH2 0x6AA JUMPI RETURNDATASIZE PUSH0 DUP1 RETURNDATACOPY RETURNDATASIZE PUSH0 REVERT JUMPDEST POP POP POP POP PUSH1 0x40 MLOAD RETURNDATASIZE PUSH1 0x1F NOT PUSH1 0x1F DUP3 ADD AND DUP3 ADD DUP1 PUSH1 0x40 MSTORE POP DUP2 ADD SWAP1 PUSH2 0x6CE SWAP2 SWAP1 PUSH2 0xEA2 JUMP JUMPDEST POP PUSH32 0x4E08BA899977CF7D4C2964BCE71C6B9A7EF76EE5166A4C1249A1E08016E33EF1 DUP3 PUSH1 0x40 MLOAD PUSH2 0x6FE SWAP2 SWAP1 PUSH2 0xAD3 JUMP JUMPDEST PUSH1 0x40 MLOAD DUP1 SWAP2 SUB SWAP1 LOG1 POP POP JUMP JUMPDEST PUSH0 DUP1 PUSH0 DUP1 SLOAD SWAP1 PUSH2 0x100 EXP SWAP1 DIV PUSH20 0xFFFFFFFFFFFFFFFFFFFFFFFFFFFFFFFFFFFFFFFF AND PUSH20 0xFFFFFFFFFFFFFFFFFFFFFFFFFFFFFFFFFFFFFFFF AND PUSH4 0xE1F21C67 CALLER ADDRESS DUP7 PUSH1 0x40 MLOAD DUP5 PUSH4 0xFFFFFFFF AND PUSH1 0xE0 SHL DUP2 MSTORE PUSH1 0x4 ADD PUSH2 0x768 SWAP4 SWAP3 SWAP2 SWAP1 PUSH2 0xECD JUMP JUMPDEST PUSH1 0x20 PUSH1 0x40 MLOAD DUP1 DUP4 SUB DUP2 PUSH0 DUP8 GAS CALL ISZERO DUP1 ISZERO PUSH2 0x784 JUMPI RETURNDATASIZE PUSH0 DUP1 RETURNDATACOPY RETURNDATASIZE PUSH0 REVERT JUMPDEST POP POP POP POP PUSH1 0x40 MLOAD RETURNDATASIZE PUSH1 0x1F NOT PUSH1 0x1F DUP3 ADD AND DUP3 ADD DUP1 PUSH1 0x40 MSTORE POP DUP2 ADD SWAP1 PUSH2 0x7A8 SWAP2 SWAP1 PUSH2 0xEA2 JUMP JUMPDEST SWAP1 POP DUP1 SWAP2 POP POP SWAP2 SWAP1 POP JUMP JUMPDEST PUSH0 DUP1 PUSH0 SWAP1 SLOAD SWAP1 PUSH2 0x100 EXP SWAP1 DIV PUSH20 0xFFFFFFFFFFFFFFFFFFFFFFFFFFFFFFFFFFFFFFFF AND PUSH20 0xFFFFFFFFFFFFFFFFFFFFFFFFFFFFFFFFFFFFFFFF AND PUSH4 0x18160DDD PUSH1 0x40 MLOAD DUP2 PUSH4 0xFFFFFFFF AND PUSH1 0xE0 SHL DUP2 MSTORE PUSH1 0x4 ADD PUSH1 0x20 PUSH1 0x40 MLOAD DUP1 DUP4 SUB DUP2 DUP7 GAS STATICCALL ISZERO DUP1 ISZERO PUSH2 0x81D JUMPI RETURNDATASIZE PUSH0 DUP1 RETURNDATACOPY RETURNDATASIZE PUSH0 REVERT JUMPDEST POP POP POP POP PUSH1 0x40 MLOAD RETURNDATASIZE PUSH1 0x1F NOT PUSH1 0x1F DUP3 ADD AND DUP3 ADD DUP1 PUSH1 0x40 MSTORE POP DUP2 ADD SWAP1 PUSH2 0x841 SWAP2 SWAP1 PUSH2 0xC55 JUMP JUMPDEST SWAP1 POP SWAP1 JUMP JUMPDEST PUSH0 DUP2 GT PUSH2 0x888 JUMPI PUSH1 0x40 MLOAD PUSH32 0x8C379A000000000000000000000000000000000000000000000000000000000 DUP2 MSTORE PUSH1 0x4 ADD PUSH2 0x87F SWAP1 PUSH2 0xF72 JUMP JUMPDEST PUSH1 0x40 MLOAD DUP1 SWAP2 SUB SWAP1 REVERT JUMPDEST PUSH0 DUP1 PUSH0 SWAP1 SLOAD SWAP1 PUSH2 0x100 EXP SWAP1 DIV PUSH20 0xFFFFFFFFFFFFFFFFFFFFFFFFFFFFFFFFFFFFFFFF AND PUSH20 0xFFFFFFFFFFFFFFFFFFFFFFFFFFFFFFFFFFFFFFFF AND PUSH4 0xDD62ED3E CALLER ADDRESS PUSH1 0x40 MLOAD DUP4 PUSH4 0xFFFFFFFF AND PUSH1 0xE0 SHL DUP2 MSTORE PUSH1 0x4 ADD PUSH2 0x8E4 SWAP3 SWAP2 SWAP1 PUSH2 0xC80 JUMP JUMPDEST PUSH1 0x20 PUSH1 0x40 MLOAD DUP1 DUP4 SUB DUP2 DUP7 GAS STATICCALL ISZERO DUP1 ISZERO PUSH2 0x8FF JUMPI RETURNDATASIZE PUSH0 DUP1 RETURNDATACOPY RETURNDATASIZE PUSH0 REVERT JUMPDEST POP POP POP POP PUSH1 0x40 MLOAD RETURNDATASIZE PUSH1 0x1F NOT PUSH1 0x1F DUP3 ADD AND DUP3 ADD DUP1 PUSH1 0x40 MSTORE POP DUP2 ADD SWAP1 PUSH2 0x923 SWAP2 SWAP1 PUSH2 0xC55 JUMP JUMPDEST SWAP1 POP DUP2 DUP2 LT ISZERO PUSH2 0x968 JUMPI PUSH1 0x40 MLOAD PUSH32 0x8C379A000000000000000000000000000000000000000000000000000000000 DUP2 MSTORE PUSH1 0x4 ADD PUSH2 0x95F SWAP1 PUSH2 0xFDA JUMP JUMPDEST PUSH1 0x40 MLOAD DUP1 SWAP2 SUB SWAP1 REVERT JUMPDEST PUSH0 DUP1 SLOAD SWAP1 PUSH2 0x100 EXP SWAP1 DIV PUSH20 0xFFFFFFFFFFFFFFFFFFFFFFFFFFFFFFFFFFFFFFFF AND PUSH20 0xFFFFFFFFFFFFFFFFFFFFFFFFFFFFFFFFFFFFFFFF AND PUSH4 0x23B872DD CALLER ADDRESS DUP6 PUSH1 0x40 MLOAD DUP5 PUSH4 0xFFFFFFFF AND PUSH1 0xE0 SHL DUP2 MSTORE PUSH1 0x4 ADD PUSH2 0x9C4 SWAP4 SWAP3 SWAP2 SWAP1 PUSH2 0xECD JUMP JUMPDEST PUSH1 0x20 PUSH1 0x40 MLOAD DUP1 DUP4 SUB DUP2 PUSH0 DUP8 GAS CALL ISZERO DUP1 ISZERO PUSH2 0x9E0 JUMPI RETURNDATASIZE PUSH0 DUP1 RETURNDATACOPY RETURNDATASIZE PUSH0 REVERT JUMPDEST POP POP POP POP PUSH1 0x40 MLOAD RETURNDATASIZE PUSH1 0x1F NOT PUSH1 0x1F DUP3 ADD AND DUP3 ADD DUP1 PUSH1 0x40 MSTORE POP DUP2 ADD SWAP1 PUSH2 0xA04 SWAP2 SWAP1 PUSH2 0xEA2 JUMP JUMPDEST POP PUSH32 0x92F64CA637D023F354075A4BE751B169C1A8A9CCB6D33CDD0CB3520543995727 DUP3 PUSH1 0x40 MLOAD PUSH2 0xA34 SWAP2 SWAP1 PUSH2 0xAD3 JUMP JUMPDEST PUSH1 0x40 MLOAD DUP1 SWAP2 SUB SWAP1 LOG1 POP POP JUMP JUMPDEST PUSH0 DUP1 SLOAD SWAP1 PUSH2 0x100 EXP SWAP1 DIV PUSH20 0xFFFFFFFFFFFFFFFFFFFFFFFFFFFFFFFFFFFFFFFF AND DUP2 JUMP JUMPDEST PUSH0 PUSH20 0xFFFFFFFFFFFFFFFFFFFFFFFFFFFFFFFFFFFFFFFF DUP3 AND SWAP1 POP SWAP2 SWAP1 POP JUMP JUMPDEST PUSH0 PUSH2 0xA8C DUP3 PUSH2 0xA63 JUMP JUMPDEST SWAP1 POP SWAP2 SWAP1 POP JUMP JUMPDEST PUSH2 0xA9C DUP2 PUSH2 0xA82 JUMP JUMPDEST DUP3 MSTORE POP POP JUMP JUMPDEST PUSH0 PUSH1 0x20 DUP3 ADD SWAP1 POP PUSH2 0xAB5 PUSH0 DUP4 ADD DUP5 PUSH2 0xA93 JUMP JUMPDEST SWAP3 SWAP2 POP POP JUMP JUMPDEST PUSH0 DUP2 SWAP1 POP SWAP2 SWAP1 POP JUMP JUMPDEST PUSH2 0xACD DUP2 PUSH2 0xABB JUMP JUMPDEST DUP3 MSTORE POP POP JUMP JUMPDEST PUSH0 PUSH1 0x20 DUP3 ADD SWAP1 POP PUSH2 0xAE6 PUSH0 DUP4 ADD DUP5 PUSH2 0xAC4 JUMP JUMPDEST SWAP3 SWAP2 POP POP JUMP JUMPDEST PUSH0 DUP1 REVERT JUMPDEST PUSH2 0xAF9 DUP2 PUSH2 0xABB JUMP JUMPDEST DUP2 EQ PUSH2 0xB03 JUMPI PUSH0 DUP1 REVERT JUMPDEST POP JUMP JUMPDEST PUSH0 DUP2 CALLDATALOAD SWAP1 POP PUSH2 0xB14 DUP2 PUSH2 0xAF0 JUMP JUMPDEST SWAP3 SWAP2 POP POP JUMP JUMPDEST PUSH0 PUSH1 0x20 DUP3 DUP5 SUB SLT ISZERO PUSH2 0xB2F JUMPI PUSH2 0xB2E PUSH2 0xAEC JUMP JUMPDEST JUMPDEST PUSH0 PUSH2 0xB3C DUP5 DUP3 DUP6 ADD PUSH2 0xB06 JUMP JUMPDEST SWAP2 POP POP SWAP3 SWAP2 POP POP JUMP JUMPDEST PUSH0 DUP2 ISZERO ISZERO SWAP1 POP SWAP2 SWAP1 POP JUMP JUMPDEST PUSH2 0xB59 DUP2 PUSH2 0xB45 JUMP JUMPDEST DUP3 MSTORE POP POP JUMP JUMPDEST PUSH0 PUSH1 0x20 DUP3 ADD SWAP1 POP PUSH2 0xB72 PUSH0 DUP4 ADD DUP5 PUSH2 0xB50 JUMP JUMPDEST SWAP3 SWAP2 POP POP JUMP JUMPDEST PUSH0 DUP2 SWAP1 POP SWAP2 SWAP1 POP JUMP JUMPDEST PUSH0 PUSH2 0xB9B PUSH2 0xB96 PUSH2 0xB91 DUP5 PUSH2 0xA63 JUMP JUMPDEST PUSH2 0xB78 JUMP JUMPDEST PUSH2 0xA63 JUMP JUMPDEST SWAP1 POP SWAP2 SWAP1 POP JUMP JUMPDEST PUSH0 PUSH2 0xBAC DUP3 PUSH2 0xB81 JUMP JUMPDEST SWAP1 POP SWAP2 SWAP1 POP JUMP JUMPDEST PUSH0 PUSH2 0xBBD DUP3 PUSH2 0xBA2 JUMP JUMPDEST SWAP1 POP SWAP2 SWAP1 POP JUMP JUMPDEST PUSH2 0xBCD DUP2 PUSH2 0xBB3 JUMP JUMPDEST DUP3 MSTORE POP POP JUMP JUMPDEST PUSH0 PUSH1 0x20 DUP3 ADD SWAP1 POP PUSH2 0xBE6 PUSH0 DUP4 ADD DUP5 PUSH2 0xBC4 JUMP JUMPDEST SWAP3 SWAP2 POP POP JUMP JUMPDEST PUSH2 0xBF5 DUP2 PUSH2 0xA82 JUMP JUMPDEST DUP2 EQ PUSH2 0xBFF JUMPI PUSH0 DUP1 REVERT JUMPDEST POP JUMP JUMPDEST PUSH0 DUP2 MLOAD SWAP1 POP PUSH2 0xC10 DUP2 PUSH2 0xBEC JUMP JUMPDEST SWAP3 SWAP2 POP POP JUMP JUMPDEST PUSH0 PUSH1 0x20 DUP3 DUP5 SUB SLT ISZERO PUSH2 0xC2B JUMPI PUSH2 0xC2A PUSH2 0xAEC JUMP JUMPDEST JUMPDEST PUSH0 PUSH2 0xC38 DUP5 DUP3 DUP6 ADD PUSH2 0xC02 JUMP JUMPDEST SWAP2 POP POP SWAP3 SWAP2 POP POP JUMP JUMPDEST PUSH0 DUP2 MLOAD SWAP1 POP PUSH2 0xC4F DUP2 PUSH2 0xAF0 JUMP JUMPDEST SWAP3 SWAP2 POP POP JUMP JUMPDEST PUSH0 PUSH1 0x20 DUP3 DUP5 SUB SLT ISZERO PUSH2 0xC6A JUMPI PUSH2 0xC69 PUSH2 0xAEC JUMP JUMPDEST JUMPDEST PUSH0 PUSH2 0xC77 DUP5 DUP3 DUP6 ADD PUSH2 0xC41 JUMP JUMPDEST SWAP2 POP POP SWAP3 SWAP2 POP POP JUMP JUMPDEST PUSH0 PUSH1 0x40 DUP3 ADD SWAP1 POP PUSH2 0xC93 PUSH0 DUP4 ADD DUP6 PUSH2 0xA93 JUMP JUMPDEST PUSH2 0xCA0 PUSH1 0x20 DUP4 ADD DUP5 PUSH2 0xA93 JUMP JUMPDEST SWAP4 SWAP3 POP POP POP JUMP JUMPDEST PUSH0 DUP2 SWAP1 POP SWAP2 SWAP1 POP JUMP JUMPDEST PUSH0 PUSH2 0xCCA PUSH2 0xCC5 PUSH2 0xCC0 DUP5 PUSH2 0xCA7 JUMP JUMPDEST PUSH2 0xB78 JUMP JUMPDEST PUSH2 0xABB JUMP JUMPDEST SWAP1 POP SWAP2 SWAP1 POP JUMP JUMPDEST PUSH2 0xCDA DUP2 PUSH2 0xCB0 JUMP JUMPDEST DUP3 MSTORE POP POP JUMP JUMPDEST PUSH0 PUSH1 0x20 DUP3 ADD SWAP1 POP PUSH2 0xCF3 PUSH0 DUP4 ADD DUP5 PUSH2 0xCD1 JUMP JUMPDEST SWAP3 SWAP2 POP POP JUMP JUMPDEST PUSH0 DUP3 DUP3 MSTORE PUSH1 0x20 DUP3 ADD SWAP1 POP SWAP3 SWAP2 POP POP JUMP JUMPDEST PUSH32 0x596F75206E65656420746F2073656E6420736F6D652045746865720000000000 PUSH0 DUP3 ADD MSTORE POP JUMP JUMPDEST PUSH0 PUSH2 0xD3D PUSH1 0x1B DUP4 PUSH2 0xCF9 JUMP JUMPDEST SWAP2 POP PUSH2 0xD48 DUP3 PUSH2 0xD09 JUMP JUMPDEST PUSH1 0x20 DUP3 ADD SWAP1 POP SWAP2 SWAP1 POP JUMP JUMPDEST PUSH0 PUSH1 0x20 DUP3 ADD SWAP1 POP DUP2 DUP2 SUB PUSH0 DUP4 ADD MSTORE PUSH2 0xD6A DUP2 PUSH2 0xD31 JUMP JUMPDEST SWAP1 POP SWAP2 SWAP1 POP JUMP JUMPDEST PUSH32 0x596F7520646F6E2774206861766520656E6F75676820746F6B656E7320696E20 PUSH0 DUP3 ADD MSTORE PUSH32 0x7468652072657365727665000000000000000000000000000000000000000000 PUSH1 0x20 DUP3 ADD MSTORE POP JUMP JUMPDEST PUSH0 PUSH2 0xDCB PUSH1 0x2B DUP4 PUSH2 0xCF9 JUMP JUMPDEST SWAP2 POP PUSH2 0xDD6 DUP3 PUSH2 0xD71 JUMP JUMPDEST PUSH1 0x40 DUP3 ADD SWAP1 POP SWAP2 SWAP1 POP JUMP JUMPDEST PUSH0 PUSH1 0x20 DUP3 ADD SWAP1 POP DUP2 DUP2 SUB PUSH0 DUP4 ADD MSTORE PUSH2 0xDF8 DUP2 PUSH2 0xDBF JUMP JUMPDEST SWAP1 POP SWAP2 SWAP1 POP JUMP JUMPDEST PUSH0 DUP2 SWAP1 POP SWAP2 SWAP1 POP JUMP JUMPDEST PUSH0 PUSH2 0xE22 PUSH2 0xE1D PUSH2 0xE18 DUP5 PUSH2 0xDFF JUMP JUMPDEST PUSH2 0xB78 JUMP JUMPDEST PUSH2 0xABB JUMP JUMPDEST SWAP1 POP SWAP2 SWAP1 POP JUMP JUMPDEST PUSH2 0xE32 DUP2 PUSH2 0xE08 JUMP JUMPDEST DUP3 MSTORE POP POP JUMP JUMPDEST PUSH0 PUSH1 0x20 DUP3 ADD SWAP1 POP PUSH2 0xE4B PUSH0 DUP4 ADD DUP5 PUSH2 0xE29 JUMP JUMPDEST SWAP3 SWAP2 POP POP JUMP JUMPDEST PUSH0 PUSH1 0x40 DUP3 ADD SWAP1 POP PUSH2 0xE64 PUSH0 DUP4 ADD DUP6 PUSH2 0xA93 JUMP JUMPDEST PUSH2 0xE71 PUSH1 0x20 DUP4 ADD DUP5 PUSH2 0xAC4 JUMP JUMPDEST SWAP4 SWAP3 POP POP POP JUMP JUMPDEST PUSH2 0xE81 DUP2 PUSH2 0xB45 JUMP JUMPDEST DUP2 EQ PUSH2 0xE8B JUMPI PUSH0 DUP1 REVERT JUMPDEST POP JUMP JUMPDEST PUSH0 DUP2 MLOAD SWAP1 POP PUSH2 0xE9C DUP2 PUSH2 0xE78 JUMP JUMPDEST SWAP3 SWAP2 POP POP JUMP JUMPDEST PUSH0 PUSH1 0x20 DUP3 DUP5 SUB SLT ISZERO PUSH2 0xEB7 JUMPI PUSH2 0xEB6 PUSH2 0xAEC JUMP JUMPDEST JUMPDEST PUSH0 PUSH2 0xEC4 DUP5 DUP3 DUP6 ADD PUSH2 0xE8E JUMP JUMPDEST SWAP2 POP POP SWAP3 SWAP2 POP POP JUMP JUMPDEST PUSH0 PUSH1 0x60 DUP3 ADD SWAP1 POP PUSH2 0xEE0 PUSH0 DUP4 ADD DUP7 PUSH2 0xA93 JUMP JUMPDEST PUSH2 0xEED PUSH1 0x20 DUP4 ADD DUP6 PUSH2 0xA93 JUMP JUMPDEST PUSH2 0xEFA PUSH1 0x40 DUP4 ADD DUP5 PUSH2 0xAC4 JUMP JUMPDEST SWAP5 SWAP4 POP POP POP POP JUMP JUMPDEST PUSH32 0x596F75206E65656420746F2073656C6C206174206C6561737420736F6D652074 PUSH0 DUP3 ADD MSTORE PUSH32 0x6F6B656E73000000000000000000000000000000000000000000000000000000 PUSH1 0x20 DUP3 ADD MSTORE POP JUMP JUMPDEST PUSH0 PUSH2 0xF5C PUSH1 0x25 DUP4 PUSH2 0xCF9 JUMP JUMPDEST SWAP2 POP PUSH2 0xF67 DUP3 PUSH2 0xF02 JUMP JUMPDEST PUSH1 0x40 DUP3 ADD SWAP1 POP SWAP2 SWAP1 POP JUMP JUMPDEST PUSH0 PUSH1 0x20 DUP3 ADD SWAP1 POP DUP2 DUP2 SUB PUSH0 DUP4 ADD MSTORE PUSH2 0xF89 DUP2 PUSH2 0xF50 JUMP JUMPDEST SWAP1 POP SWAP2 SWAP1 POP JUMP JUMPDEST PUSH32 0x436865636B2074686520746F6B656E20616C6C6F77616E636500000000000000 PUSH0 DUP3 ADD MSTORE POP JUMP JUMPDEST PUSH0 PUSH2 0xFC4 PUSH1 0x19 DUP4 PUSH2 0xCF9 JUMP JUMPDEST SWAP2 POP PUSH2 0xFCF DUP3 PUSH2 0xF90 JUMP JUMPDEST PUSH1 0x20 DUP3 ADD SWAP1 POP SWAP2 SWAP1 POP JUMP JUMPDEST PUSH0 PUSH1 0x20 DUP3 ADD SWAP1 POP DUP2 DUP2 SUB PUSH0 DUP4 ADD MSTORE PUSH2 0xFF1 DUP2 PUSH2 0xFB8 JUMP JUMPDEST SWAP1 POP SWAP2 SWAP1 POP JUMP INVALID LOG2 PUSH5 0x6970667358 0x22 SLT KECCAK256 PUSH7 0xCADF7E13410F70 DUP9 CALLCODE TSTORE PUSH20 0xF2DEDCD6E5A6ED4EAED5B72ABA2A8F8381A120C9 PUSH5 0x736F6C6343 STOP ADDMOD BYTE STOP CALLER PUSH1 0x80 PUSH1 0x40 MSTORE PUSH8 0x8AC7230489E80000 PUSH1 0x2 SSTORE CALLVALUE DUP1 ISZERO PUSH1 0x1A JUMPI PUSH0 DUP1 REVERT JUMPDEST POP PUSH1 0x2 SLOAD PUSH0 DUP1 CALLER PUSH20 0xFFFFFFFFFFFFFFFFFFFFFFFFFFFFFFFFFFFFFFFF AND PUSH20 0xFFFFFFFFFFFFFFFFFFFFFFFFFFFFFFFFFFFFFFFF AND DUP2 MSTORE PUSH1 0x20 ADD SWAP1 DUP2 MSTORE PUSH1 0x20 ADD PUSH0 KECCAK256 DUP2 SWAP1 SSTORE POP PUSH2 0xDB0 DUP1 PUSH2 0x6B PUSH0 CODECOPY PUSH0 RETURN INVALID PUSH1 0x80 PUSH1 0x40 MSTORE CALLVALUE DUP1 ISZERO PUSH2 0xF JUMPI PUSH0 DUP1 REVERT JUMPDEST POP PUSH1 0x4 CALLDATASIZE LT PUSH2 0x9C JUMPI PUSH0 CALLDATALOAD PUSH1 0xE0 SHR DUP1 PUSH4 0x70A08231 GT PUSH2 0x64 JUMPI DUP1 PUSH4 0x70A08231 EQ PUSH2 0x148 JUMPI DUP1 PUSH4 0x95D89B41 EQ PUSH2 0x178 JUMPI DUP1 PUSH4 0xA9059CBB EQ PUSH2 0x196 JUMPI DUP1 PUSH4 0xDD62ED3E EQ PUSH2 0x1C6 JUMPI DUP1 PUSH4 0xE1F21C67 EQ PUSH2 0x1F6 JUMPI PUSH2 0x9C JUMP JUMPDEST DUP1 PUSH4 0x6FDDE03 EQ PUSH2 0xA0 JUMPI DUP1 PUSH4 0x18160DDD EQ PUSH2 0xBE JUMPI DUP1 PUSH4 0x23B872DD EQ PUSH2 0xDC JUMPI DUP1 PUSH4 0x313CE567 EQ PUSH2 0x10C JUMPI DUP1 PUSH4 0x38CC4831 EQ PUSH2 0x12A JUMPI JUMPDEST PUSH0 DUP1 REVERT JUMPDEST PUSH2 0xA8 PUSH2 0x226 JUMP JUMPDEST PUSH1 0x40 MLOAD PUSH2 0xB5 SWAP2 SWAP1 PUSH2 0xA5B JUMP JUMPDEST PUSH1 0x40 MLOAD DUP1 SWAP2 SUB SWAP1 RETURN JUMPDEST PUSH2 0xC6 PUSH2 0x25F JUMP JUMPDEST PUSH1 0x40 MLOAD PUSH2 0xD3 SWAP2 SWAP1 PUSH2 0xA93 JUMP JUMPDEST PUSH1 0x40 MLOAD DUP1 SWAP2 SUB SWAP1 RETURN JUMPDEST PUSH2 0xF6 PUSH1 0x4 DUP1 CALLDATASIZE SUB DUP2 ADD SWAP1 PUSH2 0xF1 SWAP2 SWAP1 PUSH2 0xB34 JUMP JUMPDEST PUSH2 0x268 JUMP JUMPDEST PUSH1 0x40 MLOAD PUSH2 0x103 SWAP2 SWAP1 PUSH2 0xB9E JUMP JUMPDEST PUSH1 0x40 MLOAD DUP1 SWAP2 SUB SWAP1 RETURN JUMPDEST PUSH2 0x114 PUSH2 0x5CA JUMP JUMPDEST PUSH1 0x40 MLOAD PUSH2 0x121 SWAP2 SWAP1 PUSH2 0xBD2 JUMP JUMPDEST PUSH1 0x40 MLOAD DUP1 SWAP2 SUB SWAP1 RETURN JUMPDEST PUSH2 0x132 PUSH2 0x5CF JUMP JUMPDEST PUSH1 0x40 MLOAD PUSH2 0x13F SWAP2 SWAP1 PUSH2 0xBFA JUMP JUMPDEST PUSH1 0x40 MLOAD DUP1 SWAP2 SUB SWAP1 RETURN JUMPDEST PUSH2 0x162 PUSH1 0x4 DUP1 CALLDATASIZE SUB DUP2 ADD SWAP1 PUSH2 0x15D SWAP2 SWAP1 PUSH2 0xC13 JUMP JUMPDEST PUSH2 0x5D6 JUMP JUMPDEST PUSH1 0x40 MLOAD PUSH2 0x16F SWAP2 SWAP1 PUSH2 0xA93 JUMP JUMPDEST PUSH1 0x40 MLOAD DUP1 SWAP2 SUB SWAP1 RETURN JUMPDEST PUSH2 0x180 PUSH2 0x61B JUMP JUMPDEST PUSH1 0x40 MLOAD PUSH2 0x18D SWAP2 SWAP1 PUSH2 0xA5B JUMP JUMPDEST PUSH1 0x40 MLOAD DUP1 SWAP2 SUB SWAP1 RETURN JUMPDEST PUSH2 0x1B0 PUSH1 0x4 DUP1 CALLDATASIZE SUB DUP2 ADD SWAP1 PUSH2 0x1AB SWAP2 SWAP1 PUSH2 0xC3E JUMP JUMPDEST PUSH2 0x654 JUMP JUMPDEST PUSH1 0x40 MLOAD PUSH2 0x1BD SWAP2 SWAP1 PUSH2 0xB9E JUMP JUMPDEST PUSH1 0x40 MLOAD DUP1 SWAP2 SUB SWAP1 RETURN JUMPDEST PUSH2 0x1E0 PUSH1 0x4 DUP1 CALLDATASIZE SUB DUP2 ADD SWAP1 PUSH2 0x1DB SWAP2 SWAP1 PUSH2 0xC7C JUMP JUMPDEST PUSH2 0x82A JUMP JUMPDEST PUSH1 0x40 MLOAD PUSH2 0x1ED SWAP2 SWAP1 PUSH2 0xA93 JUMP JUMPDEST PUSH1 0x40 MLOAD DUP1 SWAP2 SUB SWAP1 RETURN JUMPDEST PUSH2 0x210 PUSH1 0x4 DUP1 CALLDATASIZE SUB DUP2 ADD SWAP1 PUSH2 0x20B SWAP2 SWAP1 PUSH2 0xB34 JUMP JUMPDEST PUSH2 0x8AC JUMP JUMPDEST PUSH1 0x40 MLOAD PUSH2 0x21D SWAP2 SWAP1 PUSH2 0xB9E JUMP JUMPDEST PUSH1 0x40 MLOAD DUP1 SWAP2 SUB SWAP1 RETURN JUMPDEST PUSH1 0x40 MLOAD DUP1 PUSH1 0x40 ADD PUSH1 0x40 MSTORE DUP1 PUSH1 0xD DUP2 MSTORE PUSH1 0x20 ADD PUSH32 0x45524332302D4859436861696E00000000000000000000000000000000000000 DUP2 MSTORE POP DUP2 JUMP JUMPDEST PUSH0 PUSH1 0x2 SLOAD SWAP1 POP SWAP1 JUMP JUMPDEST PUSH0 DUP1 PUSH0 DUP6 PUSH20 0xFFFFFFFFFFFFFFFFFFFFFFFFFFFFFFFFFFFFFFFF AND PUSH20 0xFFFFFFFFFFFFFFFFFFFFFFFFFFFFFFFFFFFFFFFF AND DUP2 MSTORE PUSH1 0x20 ADD SWAP1 DUP2 MSTORE PUSH1 0x20 ADD PUSH0 KECCAK256 SLOAD DUP3 GT ISZERO PUSH2 0x2B1 JUMPI PUSH0 DUP1 REVERT JUMPDEST PUSH1 0x1 PUSH0 DUP6 PUSH20 0xFFFFFFFFFFFFFFFFFFFFFFFFFFFFFFFFFFFFFFFF AND PUSH20 0xFFFFFFFFFFFFFFFFFFFFFFFFFFFFFFFFFFFFFFFF AND DUP2 MSTORE PUSH1 0x20 ADD SWAP1 DUP2 MSTORE PUSH1 0x20 ADD PUSH0 KECCAK256 PUSH0 CALLER PUSH20 0xFFFFFFFFFFFFFFFFFFFFFFFFFFFFFFFFFFFFFFFF AND PUSH20 0xFFFFFFFFFFFFFFFFFFFFFFFFFFFFFFFFFFFFFFFF AND DUP2 MSTORE PUSH1 0x20 ADD SWAP1 DUP2 MSTORE PUSH1 0x20 ADD PUSH0 KECCAK256 SLOAD DUP3 GT ISZERO PUSH2 0x335 JUMPI PUSH0 DUP1 REVERT JUMPDEST PUSH2 0x384 DUP3 PUSH0 DUP1 DUP8 PUSH20 0xFFFFFFFFFFFFFFFFFFFFFFFFFFFFFFFFFFFFFFFF AND PUSH20 0xFFFFFFFFFFFFFFFFFFFFFFFFFFFFFFFFFFFFFFFF AND DUP2 MSTORE PUSH1 0x20 ADD SWAP1 DUP2 MSTORE PUSH1 0x20 ADD PUSH0 KECCAK256 SLOAD PUSH2 0x99A SWAP1 SWAP2 SWAP1 PUSH4 0xFFFFFFFF AND JUMP JUMPDEST PUSH0 DUP1 DUP7 PUSH20 0xFFFFFFFFFFFFFFFFFFFFFFFFFFFFFFFFFFFFFFFF AND PUSH20 0xFFFFFFFFFFFFFFFFFFFFFFFFFFFFFFFFFFFFFFFF AND DUP2 MSTORE PUSH1 0x20 ADD SWAP1 DUP2 MSTORE PUSH1 0x20 ADD PUSH0 KECCAK256 DUP2 SWAP1 SSTORE POP PUSH2 0x44F DUP3 PUSH1 0x1 PUSH0 DUP8 PUSH20 0xFFFFFFFFFFFFFFFFFFFFFFFFFFFFFFFFFFFFFFFF AND PUSH20 0xFFFFFFFFFFFFFFFFFFFFFFFFFFFFFFFFFFFFFFFF AND DUP2 MSTORE PUSH1 0x20 ADD SWAP1 DUP2 MSTORE PUSH1 0x20 ADD PUSH0 KECCAK256 PUSH0 DUP7 PUSH20 0xFFFFFFFFFFFFFFFFFFFFFFFFFFFFFFFFFFFFFFFF AND PUSH20 0xFFFFFFFFFFFFFFFFFFFFFFFFFFFFFFFFFFFFFFFF AND DUP2 MSTORE PUSH1 0x20 ADD SWAP1 DUP2 MSTORE PUSH1 0x20 ADD PUSH0 KECCAK256 SLOAD PUSH2 0x99A SWAP1 SWAP2 SWAP1 PUSH4 0xFFFFFFFF AND JUMP JUMPDEST PUSH1 0x1 PUSH0 DUP7 PUSH20 0xFFFFFFFFFFFFFFFFFFFFFFFFFFFFFFFFFFFFFFFF AND PUSH20 0xFFFFFFFFFFFFFFFFFFFFFFFFFFFFFFFFFFFFFFFF AND DUP2 MSTORE PUSH1 0x20 ADD SWAP1 DUP2 MSTORE PUSH1 0x20 ADD PUSH0 KECCAK256 PUSH0 DUP6 PUSH20 0xFFFFFFFFFFFFFFFFFFFFFFFFFFFFFFFFFFFFFFFF AND PUSH20 0xFFFFFFFFFFFFFFFFFFFFFFFFFFFFFFFFFFFFFFFF AND DUP2 MSTORE PUSH1 0x20 ADD SWAP1 DUP2 MSTORE PUSH1 0x20 ADD PUSH0 KECCAK256 DUP2 SWAP1 SSTORE POP PUSH2 0x51A DUP3 PUSH0 DUP1 DUP7 PUSH20 0xFFFFFFFFFFFFFFFFFFFFFFFFFFFFFFFFFFFFFFFF AND PUSH20 0xFFFFFFFFFFFFFFFFFFFFFFFFFFFFFFFFFFFFFFFF AND DUP2 MSTORE PUSH1 0x20 ADD SWAP1 DUP2 MSTORE PUSH1 0x20 ADD PUSH0 KECCAK256 SLOAD PUSH2 0x9C0 SWAP1 SWAP2 SWAP1 PUSH4 0xFFFFFFFF AND JUMP JUMPDEST PUSH0 DUP1 DUP6 PUSH20 0xFFFFFFFFFFFFFFFFFFFFFFFFFFFFFFFFFFFFFFFF AND PUSH20 0xFFFFFFFFFFFFFFFFFFFFFFFFFFFFFFFFFFFFFFFF AND DUP2 MSTORE PUSH1 0x20 ADD SWAP1 DUP2 MSTORE PUSH1 0x20 ADD PUSH0 KECCAK256 DUP2 SWAP1 SSTORE POP DUP3 PUSH20 0xFFFFFFFFFFFFFFFFFFFFFFFFFFFFFFFFFFFFFFFF AND DUP5 PUSH20 0xFFFFFFFFFFFFFFFFFFFFFFFFFFFFFFFFFFFFFFFF AND PUSH32 0xDDF252AD1BE2C89B69C2B068FC378DAA952BA7F163C4A11628F55A4DF523B3EF DUP5 PUSH1 0x40 MLOAD PUSH2 0x5B7 SWAP2 SWAP1 PUSH2 0xA93 JUMP JUMPDEST PUSH1 0x40 MLOAD DUP1 SWAP2 SUB SWAP1 LOG3 PUSH1 0x1 SWAP1 POP SWAP4 SWAP3 POP POP POP JUMP JUMPDEST PUSH1 0x12 DUP2 JUMP JUMPDEST PUSH0 ADDRESS SWAP1 POP SWAP1 JUMP JUMPDEST PUSH0 DUP1 PUSH0 DUP4 PUSH20 0xFFFFFFFFFFFFFFFFFFFFFFFFFFFFFFFFFFFFFFFF AND PUSH20 0xFFFFFFFFFFFFFFFFFFFFFFFFFFFFFFFFFFFFFFFF AND DUP2 MSTORE PUSH1 0x20 ADD SWAP1 DUP2 MSTORE PUSH1 0x20 ADD PUSH0 KECCAK256 SLOAD SWAP1 POP SWAP2 SWAP1 POP JUMP JUMPDEST PUSH1 0x40 MLOAD DUP1 PUSH1 0x40 ADD PUSH1 0x40 MSTORE DUP1 PUSH1 0x7 DUP2 MSTORE PUSH1 0x20 ADD PUSH32 0x4552432D48594300000000000000000000000000000000000000000000000000 DUP2 MSTORE POP DUP2 JUMP JUMPDEST PUSH0 DUP1 PUSH0 CALLER PUSH20 0xFFFFFFFFFFFFFFFFFFFFFFFFFFFFFFFFFFFFFFFF AND PUSH20 0xFFFFFFFFFFFFFFFFFFFFFFFFFFFFFFFFFFFFFFFF AND DUP2 MSTORE PUSH1 0x20 ADD SWAP1 DUP2 MSTORE PUSH1 0x20 ADD PUSH0 KECCAK256 SLOAD DUP3 GT ISZERO PUSH2 0x69D JUMPI PUSH0 DUP1 REVERT JUMPDEST PUSH2 0x6EC DUP3 PUSH0 DUP1 CALLER PUSH20 0xFFFFFFFFFFFFFFFFFFFFFFFFFFFFFFFFFFFFFFFF AND PUSH20 0xFFFFFFFFFFFFFFFFFFFFFFFFFFFFFFFFFFFFFFFF AND DUP2 MSTORE PUSH1 0x20 ADD SWAP1 DUP2 MSTORE PUSH1 0x20 ADD PUSH0 KECCAK256 SLOAD PUSH2 0x99A SWAP1 SWAP2 SWAP1 PUSH4 0xFFFFFFFF AND JUMP JUMPDEST PUSH0 DUP1 CALLER PUSH20 0xFFFFFFFFFFFFFFFFFFFFFFFFFFFFFFFFFFFFFFFF AND PUSH20 0xFFFFFFFFFFFFFFFFFFFFFFFFFFFFFFFFFFFFFFFF AND DUP2 MSTORE PUSH1 0x20 ADD SWAP1 DUP2 MSTORE PUSH1 0x20 ADD PUSH0 KECCAK256 DUP2 SWAP1 SSTORE POP PUSH2 0x77B DUP3 PUSH0 DUP1 DUP7 PUSH20 0xFFFFFFFFFFFFFFFFFFFFFFFFFFFFFFFFFFFFFFFF AND PUSH20 0xFFFFFFFFFFFFFFFFFFFFFFFFFFFFFFFFFFFFFFFF AND DUP2 MSTORE PUSH1 0x20 ADD SWAP1 DUP2 MSTORE PUSH1 0x20 ADD PUSH0 KECCAK256 SLOAD PUSH2 0x9C0 SWAP1 SWAP2 SWAP1 PUSH4 0xFFFFFFFF AND JUMP JUMPDEST PUSH0 DUP1 DUP6 PUSH20 0xFFFFFFFFFFFFFFFFFFFFFFFFFFFFFFFFFFFFFFFF AND PUSH20 0xFFFFFFFFFFFFFFFFFFFFFFFFFFFFFFFFFFFFFFFF AND DUP2 MSTORE PUSH1 0x20 ADD SWAP1 DUP2 MSTORE PUSH1 0x20 ADD PUSH0 KECCAK256 DUP2 SWAP1 SSTORE POP DUP3 PUSH20 0xFFFFFFFFFFFFFFFFFFFFFFFFFFFFFFFFFFFFFFFF AND CALLER PUSH20 0xFFFFFFFFFFFFFFFFFFFFFFFFFFFFFFFFFFFFFFFF AND PUSH32 0xDDF252AD1BE2C89B69C2B068FC378DAA952BA7F163C4A11628F55A4DF523B3EF DUP5 PUSH1 0x40 MLOAD PUSH2 0x818 SWAP2 SWAP1 PUSH2 0xA93 JUMP JUMPDEST PUSH1 0x40 MLOAD DUP1 SWAP2 SUB SWAP1 LOG3 PUSH1 0x1 SWAP1 POP SWAP3 SWAP2 POP POP JUMP JUMPDEST PUSH0 PUSH1 0x1 PUSH0 DUP5 PUSH20 0xFFFFFFFFFFFFFFFFFFFFFFFFFFFFFFFFFFFFFFFF AND PUSH20 0xFFFFFFFFFFFFFFFFFFFFFFFFFFFFFFFFFFFFFFFF AND DUP2 MSTORE PUSH1 0x20 ADD SWAP1 DUP2 MSTORE PUSH1 0x20 ADD PUSH0 KECCAK256 PUSH0 DUP4 PUSH20 0xFFFFFFFFFFFFFFFFFFFFFFFFFFFFFFFFFFFFFFFF AND PUSH20 0xFFFFFFFFFFFFFFFFFFFFFFFFFFFFFFFFFFFFFFFF AND DUP2 MSTORE PUSH1 0x20 ADD SWAP1 DUP2 MSTORE PUSH1 0x20 ADD PUSH0 KECCAK256 SLOAD SWAP1 POP SWAP3 SWAP2 POP POP JUMP JUMPDEST PUSH0 DUP2 PUSH1 0x1 PUSH0 DUP7 PUSH20 0xFFFFFFFFFFFFFFFFFFFFFFFFFFFFFFFFFFFFFFFF AND PUSH20 0xFFFFFFFFFFFFFFFFFFFFFFFFFFFFFFFFFFFFFFFF AND DUP2 MSTORE PUSH1 0x20 ADD SWAP1 DUP2 MSTORE PUSH1 0x20 ADD PUSH0 KECCAK256 PUSH0 DUP6 PUSH20 0xFFFFFFFFFFFFFFFFFFFFFFFFFFFFFFFFFFFFFFFF AND PUSH20 0xFFFFFFFFFFFFFFFFFFFFFFFFFFFFFFFFFFFFFFFF AND DUP2 MSTORE PUSH1 0x20 ADD SWAP1 DUP2 MSTORE PUSH1 0x20 ADD PUSH0 KECCAK256 DUP2 SWAP1 SSTORE POP DUP3 PUSH20 0xFFFFFFFFFFFFFFFFFFFFFFFFFFFFFFFFFFFFFFFF AND DUP5 PUSH20 0xFFFFFFFFFFFFFFFFFFFFFFFFFFFFFFFFFFFFFFFF AND PUSH32 0x6E11FB1B7F119E3F2FA29896EF5FDF8B8A2D0D4DF6FE90BA8668E7D8B2FFA25E DUP5 PUSH1 0x40 MLOAD PUSH2 0x987 SWAP2 SWAP1 PUSH2 0xA93 JUMP JUMPDEST PUSH1 0x40 MLOAD DUP1 SWAP2 SUB SWAP1 LOG3 PUSH1 0x1 SWAP1 POP SWAP4 SWAP3 POP POP POP JUMP JUMPDEST PUSH0 DUP3 DUP3 GT ISZERO PUSH2 0x9AC JUMPI PUSH2 0x9AB PUSH2 0xCBA JUMP JUMPDEST JUMPDEST DUP2 DUP4 PUSH2 0x9B8 SWAP2 SWAP1 PUSH2 0xD14 JUMP JUMPDEST SWAP1 POP SWAP3 SWAP2 POP POP JUMP JUMPDEST PUSH0 DUP1 DUP3 DUP5 PUSH2 0x9CE SWAP2 SWAP1 PUSH2 0xD47 JUMP JUMPDEST SWAP1 POP DUP4 DUP2 LT ISZERO PUSH2 0x9E1 JUMPI PUSH2 0x9E0 PUSH2 0xCBA JUMP JUMPDEST JUMPDEST DUP1 SWAP2 POP POP SWAP3 SWAP2 POP POP JUMP JUMPDEST PUSH0 DUP2 MLOAD SWAP1 POP SWAP2 SWAP1 POP JUMP JUMPDEST PUSH0 DUP3 DUP3 MSTORE PUSH1 0x20 DUP3 ADD SWAP1 POP SWAP3 SWAP2 POP POP JUMP JUMPDEST DUP3 DUP2 DUP4 MCOPY PUSH0 DUP4 DUP4 ADD MSTORE POP POP POP JUMP JUMPDEST PUSH0 PUSH1 0x1F NOT PUSH1 0x1F DUP4 ADD AND SWAP1 POP SWAP2 SWAP1 POP JUMP JUMPDEST PUSH0 PUSH2 0xA2D DUP3 PUSH2 0x9EB JUMP JUMPDEST PUSH2 0xA37 DUP2 DUP6 PUSH2 0x9F5 JUMP JUMPDEST SWAP4 POP PUSH2 0xA47 DUP2 DUP6 PUSH1 0x20 DUP7 ADD PUSH2 0xA05 JUMP JUMPDEST PUSH2 0xA50 DUP2 PUSH2 0xA13 JUMP JUMPDEST DUP5 ADD SWAP2 POP POP SWAP3 SWAP2 POP POP JUMP JUMPDEST PUSH0 PUSH1 0x20 DUP3 ADD SWAP1 POP DUP2 DUP2 SUB PUSH0 DUP4 ADD MSTORE PUSH2 0xA73 DUP2 DUP5 PUSH2 0xA23 JUMP JUMPDEST SWAP1 POP SWAP3 SWAP2 POP POP JUMP JUMPDEST PUSH0 DUP2 SWAP1 POP SWAP2 SWAP1 POP JUMP JUMPDEST PUSH2 0xA8D DUP2 PUSH2 0xA7B JUMP JUMPDEST DUP3 MSTORE POP POP JUMP JUMPDEST PUSH0 PUSH1 0x20 DUP3 ADD SWAP1 POP PUSH2 0xAA6 PUSH0 DUP4 ADD DUP5 PUSH2 0xA84 JUMP JUMPDEST SWAP3 SWAP2 POP POP JUMP JUMPDEST PUSH0 DUP1 REVERT JUMPDEST PUSH0 PUSH20 0xFFFFFFFFFFFFFFFFFFFFFFFFFFFFFFFFFFFFFFFF DUP3 AND SWAP1 POP SWAP2 SWAP1 POP JUMP JUMPDEST PUSH0 PUSH2 0xAD9 DUP3 PUSH2 0xAB0 JUMP JUMPDEST SWAP1 POP SWAP2 SWAP1 POP JUMP JUMPDEST PUSH2 0xAE9 DUP2 PUSH2 0xACF JUMP JUMPDEST DUP2 EQ PUSH2 0xAF3 JUMPI PUSH0 DUP1 REVERT JUMPDEST POP JUMP JUMPDEST PUSH0 DUP2 CALLDATALOAD SWAP1 POP PUSH2 0xB04 DUP2 PUSH2 0xAE0 JUMP JUMPDEST SWAP3 SWAP2 POP POP JUMP JUMPDEST PUSH2 0xB13 DUP2 PUSH2 0xA7B JUMP JUMPDEST DUP2 EQ PUSH2 0xB1D JUMPI PUSH0 DUP1 REVERT JUMPDEST POP JUMP JUMPDEST PUSH0 DUP2 CALLDATALOAD SWAP1 POP PUSH2 0xB2E DUP2 PUSH2 0xB0A JUMP JUMPDEST SWAP3 SWAP2 POP POP JUMP JUMPDEST PUSH0 DUP1 PUSH0 PUSH1 0x60 DUP5 DUP7 SUB SLT ISZERO PUSH2 0xB4B JUMPI PUSH2 0xB4A PUSH2 0xAAC JUMP JUMPDEST JUMPDEST PUSH0 PUSH2 0xB58 DUP7 DUP3 DUP8 ADD PUSH2 0xAF6 JUMP JUMPDEST SWAP4 POP POP PUSH1 0x20 PUSH2 0xB69 DUP7 DUP3 DUP8 ADD PUSH2 0xAF6 JUMP JUMPDEST SWAP3 POP POP PUSH1 0x40 PUSH2 0xB7A DUP7 DUP3 DUP8 ADD PUSH2 0xB20 JUMP JUMPDEST SWAP2 POP POP SWAP3 POP SWAP3 POP SWAP3 JUMP JUMPDEST PUSH0 DUP2 ISZERO ISZERO SWAP1 POP SWAP2 SWAP1 POP JUMP JUMPDEST PUSH2 0xB98 DUP2 PUSH2 0xB84 JUMP JUMPDEST DUP3 MSTORE POP POP JUMP JUMPDEST PUSH0 PUSH1 0x20 DUP3 ADD SWAP1 POP PUSH2 0xBB1 PUSH0 DUP4 ADD DUP5 PUSH2 0xB8F JUMP JUMPDEST SWAP3 SWAP2 POP POP JUMP JUMPDEST PUSH0 PUSH1 0xFF DUP3 AND SWAP1 POP SWAP2 SWAP1 POP JUMP JUMPDEST PUSH2 0xBCC DUP2 PUSH2 0xBB7 JUMP JUMPDEST DUP3 MSTORE POP POP JUMP JUMPDEST PUSH0 PUSH1 0x20 DUP3 ADD SWAP1 POP PUSH2 0xBE5 PUSH0 DUP4 ADD DUP5 PUSH2 0xBC3 JUMP JUMPDEST SWAP3 SWAP2 POP POP JUMP JUMPDEST PUSH2 0xBF4 DUP2 PUSH2 0xACF JUMP JUMPDEST DUP3 MSTORE POP POP JUMP JUMPDEST PUSH0 PUSH1 0x20 DUP3 ADD SWAP1 POP PUSH2 0xC0D PUSH0 DUP4 ADD DUP5 PUSH2 0xBEB JUMP JUMPDEST SWAP3 SWAP2 POP POP JUMP JUMPDEST PUSH0 PUSH1 0x20 DUP3 DUP5 SUB SLT ISZERO PUSH2 0xC28 JUMPI PUSH2 0xC27 PUSH2 0xAAC JUMP JUMPDEST JUMPDEST PUSH0 PUSH2 0xC35 DUP5 DUP3 DUP6 ADD PUSH2 0xAF6 JUMP JUMPDEST SWAP2 POP POP SWAP3 SWAP2 POP POP JUMP JUMPDEST PUSH0 DUP1 PUSH1 0x40 DUP4 DUP6 SUB SLT ISZERO PUSH2 0xC54 JUMPI PUSH2 0xC53 PUSH2 0xAAC JUMP JUMPDEST JUMPDEST PUSH0 PUSH2 0xC61 DUP6 DUP3 DUP7 ADD PUSH2 0xAF6 JUMP JUMPDEST SWAP3 POP POP PUSH1 0x20 PUSH2 0xC72 DUP6 DUP3 DUP7 ADD PUSH2 0xB20 JUMP JUMPDEST SWAP2 POP POP SWAP3 POP SWAP3 SWAP1 POP JUMP JUMPDEST PUSH0 DUP1 PUSH1 0x40 DUP4 DUP6 SUB SLT ISZERO PUSH2 0xC92 JUMPI PUSH2 0xC91 PUSH2 0xAAC JUMP JUMPDEST JUMPDEST PUSH0 PUSH2 0xC9F DUP6 DUP3 DUP7 ADD PUSH2 0xAF6 JUMP JUMPDEST SWAP3 POP POP PUSH1 0x20 PUSH2 0xCB0 DUP6 DUP3 DUP7 ADD PUSH2 0xAF6 JUMP JUMPDEST SWAP2 POP POP SWAP3 POP SWAP3 SWAP1 POP JUMP JUMPDEST PUSH32 0x4E487B7100000000000000000000000000000000000000000000000000000000 PUSH0 MSTORE PUSH1 0x1 PUSH1 0x4 MSTORE PUSH1 0x24 PUSH0 REVERT JUMPDEST PUSH32 0x4E487B7100000000000000000000000000000000000000000000000000000000 PUSH0 MSTORE PUSH1 0x11 PUSH1 0x4 MSTORE PUSH1 0x24 PUSH0 REVERT JUMPDEST PUSH0 PUSH2 0xD1E DUP3 PUSH2 0xA7B JUMP JUMPDEST SWAP2 POP PUSH2 0xD29 DUP4 PUSH2 0xA7B JUMP JUMPDEST SWAP3 POP DUP3 DUP3 SUB SWAP1 POP DUP2 DUP2 GT ISZERO PUSH2 0xD41 JUMPI PUSH2 0xD40 PUSH2 0xCE7 JUMP JUMPDEST JUMPDEST SWAP3 SWAP2 POP POP JUMP JUMPDEST PUSH0 PUSH2 0xD51 DUP3 PUSH2 0xA7B JUMP JUMPDEST SWAP2 POP PUSH2 0xD5C DUP4 PUSH2 0xA7B JUMP JUMPDEST SWAP3 POP DUP3 DUP3 ADD SWAP1 POP DUP1 DUP3 GT ISZERO PUSH2 0xD74 JUMPI PUSH2 0xD73 PUSH2 0xCE7 JUMP JUMPDEST JUMPDEST SWAP3 SWAP2 POP POP JUMP INVALID LOG2 PUSH5 0x6970667358 0x22 SLT KECCAK256 POP TLOAD PUSH1 0x7E 0xC TSTORE SWAP6 0xE0 XOR INVALID 0x23 RETURN PUSH14 0xD268633CA37CD07F29D040684838 PUSH15 0xF04672A464736F6C634300081A0033 "
				},
				"gasEstimates": {
					"creation": {
						"codeDepositCost": "828400",
						"executionCost": "infinite",
						"totalCost": "infinite"
					},
					"external": {
						"approve(uint256)": "infinite",
						"buy()": "infinite",
						"getAdress()": "446",
						"getAllowance()": "infinite",
						"getDexBalance()": "infinite",
						"getOwnerBalance()": "infinite",
						"getTokenAdress()": "infinite",
						"getTotalSupply()": "infinite",
						"sell(uint256)": "infinite",
						"token()": "infinite"
					}
				},
				"methodIdentifiers": {
					"approve(uint256)": "b759f954",
					"buy()": "a6f2ae3a",
					"getAdress()": "6b37d362",
					"getAllowance()": "973e9b8b",
					"getDexBalance()": "430f4801",
					"getOwnerBalance()": "590791f2",
					"getTokenAdress()": "426301eb",
					"getTotalSupply()": "c4e41b22",
					"sell(uint256)": "e4849b32",
					"token()": "fc0c546a"
				}
			},
			"storageLayout": {
				"storage": [
					{
						"astId": 384,
						"contract": "contracts/13_dex.sol:DEX",
						"label": "token",
						"offset": 0,
						"slot": "0",
						"type": "t_contract(IERC20)120"
					}
				],
				"types": {
					"t_contract(IERC20)120": {
						"encoding": "inplace",
						"label": "contract IERC20",
						"numberOfBytes": "20"
					}
				}
			},
			"userdoc": {
				"kind": "user",
				"methods": {},
				"version": 1
			}
		}
	}
}