{
	"contracts/5_exampleEvent.sol": {
		"exampleEvent": {
			"abi": [
				{
					"anonymous": false,
					"inputs": [
						{
							"indexed": false,
							"internalType": "address",
							"name": "_from",
							"type": "address"
						},
						{
							"indexed": false,
							"internalType": "string",
							"name": "_name",
							"type": "string"
						},
						{
							"indexed": false,
							"internalType": "uint256",
							"name": "_value",
							"type": "uint256"
						}
					],
					"name": "Deposit",
					"type": "event"
				},
				{
					"inputs": [
						{
							"internalType": "string",
							"name": "_name",
							"type": "string"
						}
					],
					"name": "deposit",
					"outputs": [],
					"stateMutability": "payable",
					"type": "function"
				}
			],
			"devdoc": {
				"kind": "dev",
				"methods": {},
				"version": 1
			},
			"evm": {
				"assembly": "    /* \"contracts/5_exampleEvent.sol\":70:278  contract exampleEvent {... */\n  mstore(0x40, 0x80)\n  callvalue\n  dup1\n  iszero\n  tag_1\n  jumpi\n  0x00\n  dup1\n  revert\ntag_1:\n  pop\n  dataSize(sub_0)\n  dup1\n  dataOffset(sub_0)\n  0x00\n  codecopy\n  0x00\n  return\nstop\n\nsub_0: assembly {\n        /* \"contracts/5_exampleEvent.sol\":70:278  contract exampleEvent {... */\n      mstore(0x40, 0x80)\n      jumpi(tag_1, lt(calldatasize, 0x04))\n      shr(0xe0, calldataload(0x00))\n      dup1\n      0xa26e1186\n      eq\n      tag_2\n      jumpi\n    tag_1:\n      0x00\n      dup1\n      revert\n        /* \"contracts/5_exampleEvent.sol\":163:276  function deposit(string memory _name) public  payable {... */\n    tag_2:\n      tag_3\n      0x04\n      dup1\n      calldatasize\n      sub\n      dup2\n      add\n      swap1\n      tag_4\n      swap2\n      swap1\n      tag_5\n      jump\t// in\n    tag_4:\n      tag_6\n      jump\t// in\n    tag_3:\n      stop\n    tag_6:\n        /* \"contracts/5_exampleEvent.sol\":232:269  Deposit(msg.sender, _name, msg.value) */\n      0x2d4b597935f3cd67fb2eebf1db4debc934cee5c7baa7153f980fdbeb2e74084e\n        /* \"contracts/5_exampleEvent.sol\":240:250  msg.sender */\n      caller\n        /* \"contracts/5_exampleEvent.sol\":252:257  _name */\n      dup3\n        /* \"contracts/5_exampleEvent.sol\":259:268  msg.value */\n      callvalue\n        /* \"contracts/5_exampleEvent.sol\":232:269  Deposit(msg.sender, _name, msg.value) */\n      mload(0x40)\n      tag_8\n      swap4\n      swap3\n      swap2\n      swap1\n      tag_9\n      jump\t// in\n    tag_8:\n      mload(0x40)\n      dup1\n      swap2\n      sub\n      swap1\n      log1\n        /* \"contracts/5_exampleEvent.sol\":163:276  function deposit(string memory _name) public  payable {... */\n      pop\n      jump\t// out\n        /* \"#utility.yul\":7:82   */\n    tag_10:\n        /* \"#utility.yul\":40:46   */\n      0x00\n        /* \"#utility.yul\":73:75   */\n      0x40\n        /* \"#utility.yul\":67:76   */\n      mload\n        /* \"#utility.yul\":57:76   */\n      swap1\n      pop\n        /* \"#utility.yul\":7:82   */\n      swap1\n      jump\t// out\n        /* \"#utility.yul\":88:205   */\n    tag_11:\n        /* \"#utility.yul\":197:198   */\n      0x00\n        /* \"#utility.yul\":194:195   */\n      dup1\n        /* \"#utility.yul\":187:199   */\n      revert\n        /* \"#utility.yul\":211:328   */\n    tag_12:\n        /* \"#utility.yul\":320:321   */\n      0x00\n        /* \"#utility.yul\":317:318   */\n      dup1\n        /* \"#utility.yul\":310:322   */\n      revert\n        /* \"#utility.yul\":334:451   */\n    tag_13:\n        /* \"#utility.yul\":443:444   */\n      0x00\n        /* \"#utility.yul\":440:441   */\n      dup1\n        /* \"#utility.yul\":433:445   */\n      revert\n        /* \"#utility.yul\":457:574   */\n    tag_14:\n        /* \"#utility.yul\":566:567   */\n      0x00\n        /* \"#utility.yul\":563:564   */\n      dup1\n        /* \"#utility.yul\":556:568   */\n      revert\n        /* \"#utility.yul\":580:682   */\n    tag_15:\n        /* \"#utility.yul\":621:627   */\n      0x00\n        /* \"#utility.yul\":672:674   */\n      0x1f\n        /* \"#utility.yul\":668:675   */\n      not\n        /* \"#utility.yul\":663:665   */\n      0x1f\n        /* \"#utility.yul\":656:661   */\n      dup4\n        /* \"#utility.yul\":652:666   */\n      add\n        /* \"#utility.yul\":648:676   */\n      and\n        /* \"#utility.yul\":638:676   */\n      swap1\n      pop\n        /* \"#utility.yul\":580:682   */\n      swap2\n      swap1\n      pop\n      jump\t// out\n        /* \"#utility.yul\":688:868   */\n    tag_16:\n        /* \"#utility.yul\":736:813   */\n      0x4e487b7100000000000000000000000000000000000000000000000000000000\n        /* \"#utility.yul\":733:734   */\n      0x00\n        /* \"#utility.yul\":726:814   */\n      mstore\n        /* \"#utility.yul\":833:837   */\n      0x41\n        /* \"#utility.yul\":830:831   */\n      0x04\n        /* \"#utility.yul\":823:838   */\n      mstore\n        /* \"#utility.yul\":857:861   */\n      0x24\n        /* \"#utility.yul\":854:855   */\n      0x00\n        /* \"#utility.yul\":847:862   */\n      revert\n        /* \"#utility.yul\":874:1155   */\n    tag_17:\n        /* \"#utility.yul\":957:984   */\n      tag_41\n        /* \"#utility.yul\":979:983   */\n      dup3\n        /* \"#utility.yul\":957:984   */\n      tag_15\n      jump\t// in\n    tag_41:\n        /* \"#utility.yul\":949:955   */\n      dup2\n        /* \"#utility.yul\":945:985   */\n      add\n        /* \"#utility.yul\":1087:1093   */\n      dup2\n        /* \"#utility.yul\":1075:1085   */\n      dup2\n        /* \"#utility.yul\":1072:1094   */\n      lt\n        /* \"#utility.yul\":1051:1069   */\n      0xffffffffffffffff\n        /* \"#utility.yul\":1039:1049   */\n      dup3\n        /* \"#utility.yul\":1036:1070   */\n      gt\n        /* \"#utility.yul\":1033:1095   */\n      or\n        /* \"#utility.yul\":1030:1118   */\n      iszero\n      tag_42\n      jumpi\n        /* \"#utility.yul\":1098:1116   */\n      tag_43\n      tag_16\n      jump\t// in\n    tag_43:\n        /* \"#utility.yul\":1030:1118   */\n    tag_42:\n        /* \"#utility.yul\":1138:1148   */\n      dup1\n        /* \"#utility.yul\":1134:1136   */\n      0x40\n        /* \"#utility.yul\":1127:1149   */\n      mstore\n        /* \"#utility.yul\":917:1155   */\n      pop\n        /* \"#utility.yul\":874:1155   */\n      pop\n      pop\n      jump\t// out\n        /* \"#utility.yul\":1161:1290   */\n    tag_18:\n        /* \"#utility.yul\":1195:1201   */\n      0x00\n        /* \"#utility.yul\":1222:1242   */\n      tag_45\n      tag_10\n      jump\t// in\n    tag_45:\n        /* \"#utility.yul\":1212:1242   */\n      swap1\n      pop\n        /* \"#utility.yul\":1251:1284   */\n      tag_46\n        /* \"#utility.yul\":1279:1283   */\n      dup3\n        /* \"#utility.yul\":1271:1277   */\n      dup3\n        /* \"#utility.yul\":1251:1284   */\n      tag_17\n      jump\t// in\n    tag_46:\n        /* \"#utility.yul\":1161:1290   */\n      swap2\n      swap1\n      pop\n      jump\t// out\n        /* \"#utility.yul\":1296:1604   */\n    tag_19:\n        /* \"#utility.yul\":1358:1362   */\n      0x00\n        /* \"#utility.yul\":1448:1466   */\n      0xffffffffffffffff\n        /* \"#utility.yul\":1440:1446   */\n      dup3\n        /* \"#utility.yul\":1437:1467   */\n      gt\n        /* \"#utility.yul\":1434:1490   */\n      iszero\n      tag_48\n      jumpi\n        /* \"#utility.yul\":1470:1488   */\n      tag_49\n      tag_16\n      jump\t// in\n    tag_49:\n        /* \"#utility.yul\":1434:1490   */\n    tag_48:\n        /* \"#utility.yul\":1508:1537   */\n      tag_50\n        /* \"#utility.yul\":1530:1536   */\n      dup3\n        /* \"#utility.yul\":1508:1537   */\n      tag_15\n      jump\t// in\n    tag_50:\n        /* \"#utility.yul\":1500:1537   */\n      swap1\n      pop\n        /* \"#utility.yul\":1592:1596   */\n      0x20\n        /* \"#utility.yul\":1586:1590   */\n      dup2\n        /* \"#utility.yul\":1582:1597   */\n      add\n        /* \"#utility.yul\":1574:1597   */\n      swap1\n      pop\n        /* \"#utility.yul\":1296:1604   */\n      swap2\n      swap1\n      pop\n      jump\t// out\n        /* \"#utility.yul\":1610:1756   */\n    tag_20:\n        /* \"#utility.yul\":1707:1713   */\n      dup3\n        /* \"#utility.yul\":1702:1705   */\n      dup2\n        /* \"#utility.yul\":1697:1700   */\n      dup4\n        /* \"#utility.yul\":1684:1714   */\n      calldatacopy\n        /* \"#utility.yul\":1748:1749   */\n      0x00\n        /* \"#utility.yul\":1739:1745   */\n      dup4\n        /* \"#utility.yul\":1734:1737   */\n      dup4\n        /* \"#utility.yul\":1730:1746   */\n      add\n        /* \"#utility.yul\":1723:1750   */\n      mstore\n        /* \"#utility.yul\":1610:1756   */\n      pop\n      pop\n      pop\n      jump\t// out\n        /* \"#utility.yul\":1762:2187   */\n    tag_21:\n        /* \"#utility.yul\":1840:1845   */\n      0x00\n        /* \"#utility.yul\":1865:1931   */\n      tag_53\n        /* \"#utility.yul\":1881:1930   */\n      tag_54\n        /* \"#utility.yul\":1923:1929   */\n      dup5\n        /* \"#utility.yul\":1881:1930   */\n      tag_19\n      jump\t// in\n    tag_54:\n        /* \"#utility.yul\":1865:1931   */\n      tag_18\n      jump\t// in\n    tag_53:\n        /* \"#utility.yul\":1856:1931   */\n      swap1\n      pop\n        /* \"#utility.yul\":1954:1960   */\n      dup3\n        /* \"#utility.yul\":1947:1952   */\n      dup2\n        /* \"#utility.yul\":1940:1961   */\n      mstore\n        /* \"#utility.yul\":1992:1996   */\n      0x20\n        /* \"#utility.yul\":1985:1990   */\n      dup2\n        /* \"#utility.yul\":1981:1997   */\n      add\n        /* \"#utility.yul\":2030:2033   */\n      dup5\n        /* \"#utility.yul\":2021:2027   */\n      dup5\n        /* \"#utility.yul\":2016:2019   */\n      dup5\n        /* \"#utility.yul\":2012:2028   */\n      add\n        /* \"#utility.yul\":2009:2034   */\n      gt\n        /* \"#utility.yul\":2006:2118   */\n      iszero\n      tag_55\n      jumpi\n        /* \"#utility.yul\":2037:2116   */\n      tag_56\n      tag_14\n      jump\t// in\n    tag_56:\n        /* \"#utility.yul\":2006:2118   */\n    tag_55:\n        /* \"#utility.yul\":2127:2181   */\n      tag_57\n        /* \"#utility.yul\":2174:2180   */\n      dup5\n        /* \"#utility.yul\":2169:2172   */\n      dup3\n        /* \"#utility.yul\":2164:2167   */\n      dup6\n        /* \"#utility.yul\":2127:2181   */\n      tag_20\n      jump\t// in\n    tag_57:\n        /* \"#utility.yul\":1846:2187   */\n      pop\n        /* \"#utility.yul\":1762:2187   */\n      swap4\n      swap3\n      pop\n      pop\n      pop\n      jump\t// out\n        /* \"#utility.yul\":2207:2547   */\n    tag_22:\n        /* \"#utility.yul\":2263:2268   */\n      0x00\n        /* \"#utility.yul\":2312:2315   */\n      dup3\n        /* \"#utility.yul\":2305:2309   */\n      0x1f\n        /* \"#utility.yul\":2297:2303   */\n      dup4\n        /* \"#utility.yul\":2293:2310   */\n      add\n        /* \"#utility.yul\":2289:2316   */\n      slt\n        /* \"#utility.yul\":2279:2401   */\n      tag_59\n      jumpi\n        /* \"#utility.yul\":2320:2399   */\n      tag_60\n      tag_13\n      jump\t// in\n    tag_60:\n        /* \"#utility.yul\":2279:2401   */\n    tag_59:\n        /* \"#utility.yul\":2437:2443   */\n      dup2\n        /* \"#utility.yul\":2424:2444   */\n      calldataload\n        /* \"#utility.yul\":2462:2541   */\n      tag_61\n        /* \"#utility.yul\":2537:2540   */\n      dup5\n        /* \"#utility.yul\":2529:2535   */\n      dup3\n        /* \"#utility.yul\":2522:2526   */\n      0x20\n        /* \"#utility.yul\":2514:2520   */\n      dup7\n        /* \"#utility.yul\":2510:2527   */\n      add\n        /* \"#utility.yul\":2462:2541   */\n      tag_21\n      jump\t// in\n    tag_61:\n        /* \"#utility.yul\":2453:2541   */\n      swap2\n      pop\n        /* \"#utility.yul\":2269:2547   */\n      pop\n        /* \"#utility.yul\":2207:2547   */\n      swap3\n      swap2\n      pop\n      pop\n      jump\t// out\n        /* \"#utility.yul\":2553:3062   */\n    tag_5:\n        /* \"#utility.yul\":2622:2628   */\n      0x00\n        /* \"#utility.yul\":2671:2673   */\n      0x20\n        /* \"#utility.yul\":2659:2668   */\n      dup3\n        /* \"#utility.yul\":2650:2657   */\n      dup5\n        /* \"#utility.yul\":2646:2669   */\n      sub\n        /* \"#utility.yul\":2642:2674   */\n      slt\n        /* \"#utility.yul\":2639:2758   */\n      iszero\n      tag_63\n      jumpi\n        /* \"#utility.yul\":2677:2756   */\n      tag_64\n      tag_11\n      jump\t// in\n    tag_64:\n        /* \"#utility.yul\":2639:2758   */\n    tag_63:\n        /* \"#utility.yul\":2825:2826   */\n      0x00\n        /* \"#utility.yul\":2814:2823   */\n      dup3\n        /* \"#utility.yul\":2810:2827   */\n      add\n        /* \"#utility.yul\":2797:2828   */\n      calldataload\n        /* \"#utility.yul\":2855:2873   */\n      0xffffffffffffffff\n        /* \"#utility.yul\":2847:2853   */\n      dup2\n        /* \"#utility.yul\":2844:2874   */\n      gt\n        /* \"#utility.yul\":2841:2958   */\n      iszero\n      tag_65\n      jumpi\n        /* \"#utility.yul\":2877:2956   */\n      tag_66\n      tag_12\n      jump\t// in\n    tag_66:\n        /* \"#utility.yul\":2841:2958   */\n    tag_65:\n        /* \"#utility.yul\":2982:3045   */\n      tag_67\n        /* \"#utility.yul\":3037:3044   */\n      dup5\n        /* \"#utility.yul\":3028:3034   */\n      dup3\n        /* \"#utility.yul\":3017:3026   */\n      dup6\n        /* \"#utility.yul\":3013:3035   */\n      add\n        /* \"#utility.yul\":2982:3045   */\n      tag_22\n      jump\t// in\n    tag_67:\n        /* \"#utility.yul\":2972:3045   */\n      swap2\n      pop\n        /* \"#utility.yul\":2768:3055   */\n      pop\n        /* \"#utility.yul\":2553:3062   */\n      swap3\n      swap2\n      pop\n      pop\n      jump\t// out\n        /* \"#utility.yul\":3068:3194   */\n    tag_23:\n        /* \"#utility.yul\":3105:3112   */\n      0x00\n        /* \"#utility.yul\":3145:3187   */\n      0xffffffffffffffffffffffffffffffffffffffff\n        /* \"#utility.yul\":3138:3143   */\n      dup3\n        /* \"#utility.yul\":3134:3188   */\n      and\n        /* \"#utility.yul\":3123:3188   */\n      swap1\n      pop\n        /* \"#utility.yul\":3068:3194   */\n      swap2\n      swap1\n      pop\n      jump\t// out\n        /* \"#utility.yul\":3200:3296   */\n    tag_24:\n        /* \"#utility.yul\":3237:3244   */\n      0x00\n        /* \"#utility.yul\":3266:3290   */\n      tag_70\n        /* \"#utility.yul\":3284:3289   */\n      dup3\n        /* \"#utility.yul\":3266:3290   */\n      tag_23\n      jump\t// in\n    tag_70:\n        /* \"#utility.yul\":3255:3290   */\n      swap1\n      pop\n        /* \"#utility.yul\":3200:3296   */\n      swap2\n      swap1\n      pop\n      jump\t// out\n        /* \"#utility.yul\":3302:3420   */\n    tag_25:\n        /* \"#utility.yul\":3389:3413   */\n      tag_72\n        /* \"#utility.yul\":3407:3412   */\n      dup2\n        /* \"#utility.yul\":3389:3413   */\n      tag_24\n      jump\t// in\n    tag_72:\n        /* \"#utility.yul\":3384:3387   */\n      dup3\n        /* \"#utility.yul\":3377:3414   */\n      mstore\n        /* \"#utility.yul\":3302:3420   */\n      pop\n      pop\n      jump\t// out\n        /* \"#utility.yul\":3426:3525   */\n    tag_26:\n        /* \"#utility.yul\":3478:3484   */\n      0x00\n        /* \"#utility.yul\":3512:3517   */\n      dup2\n        /* \"#utility.yul\":3506:3518   */\n      mload\n        /* \"#utility.yul\":3496:3518   */\n      swap1\n      pop\n        /* \"#utility.yul\":3426:3525   */\n      swap2\n      swap1\n      pop\n      jump\t// out\n        /* \"#utility.yul\":3531:3700   */\n    tag_27:\n        /* \"#utility.yul\":3615:3626   */\n      0x00\n        /* \"#utility.yul\":3649:3655   */\n      dup3\n        /* \"#utility.yul\":3644:3647   */\n      dup3\n        /* \"#utility.yul\":3637:3656   */\n      mstore\n        /* \"#utility.yul\":3689:3693   */\n      0x20\n        /* \"#utility.yul\":3684:3687   */\n      dup3\n        /* \"#utility.yul\":3680:3694   */\n      add\n        /* \"#utility.yul\":3665:3694   */\n      swap1\n      pop\n        /* \"#utility.yul\":3531:3700   */\n      swap3\n      swap2\n      pop\n      pop\n      jump\t// out\n        /* \"#utility.yul\":3706:3952   */\n    tag_28:\n        /* \"#utility.yul\":3787:3788   */\n      0x00\n        /* \"#utility.yul\":3797:3910   */\n    tag_76:\n        /* \"#utility.yul\":3811:3817   */\n      dup4\n        /* \"#utility.yul\":3808:3809   */\n      dup2\n        /* \"#utility.yul\":3805:3818   */\n      lt\n        /* \"#utility.yul\":3797:3910   */\n      iszero\n      tag_78\n      jumpi\n        /* \"#utility.yul\":3896:3897   */\n      dup1\n        /* \"#utility.yul\":3891:3894   */\n      dup3\n        /* \"#utility.yul\":3887:3898   */\n      add\n        /* \"#utility.yul\":3881:3899   */\n      mload\n        /* \"#utility.yul\":3877:3878   */\n      dup2\n        /* \"#utility.yul\":3872:3875   */\n      dup5\n        /* \"#utility.yul\":3868:3879   */\n      add\n        /* \"#utility.yul\":3861:3900   */\n      mstore\n        /* \"#utility.yul\":3833:3835   */\n      0x20\n        /* \"#utility.yul\":3830:3831   */\n      dup2\n        /* \"#utility.yul\":3826:3836   */\n      add\n        /* \"#utility.yul\":3821:3836   */\n      swap1\n      pop\n        /* \"#utility.yul\":3797:3910   */\n      jump(tag_76)\n    tag_78:\n        /* \"#utility.yul\":3944:3945   */\n      0x00\n        /* \"#utility.yul\":3935:3941   */\n      dup5\n        /* \"#utility.yul\":3930:3933   */\n      dup5\n        /* \"#utility.yul\":3926:3942   */\n      add\n        /* \"#utility.yul\":3919:3946   */\n      mstore\n        /* \"#utility.yul\":3768:3952   */\n      pop\n        /* \"#utility.yul\":3706:3952   */\n      pop\n      pop\n      pop\n      jump\t// out\n        /* \"#utility.yul\":3958:4335   */\n    tag_29:\n        /* \"#utility.yul\":4046:4049   */\n      0x00\n        /* \"#utility.yul\":4074:4113   */\n      tag_80\n        /* \"#utility.yul\":4107:4112   */\n      dup3\n        /* \"#utility.yul\":4074:4113   */\n      tag_26\n      jump\t// in\n    tag_80:\n        /* \"#utility.yul\":4129:4200   */\n      tag_81\n        /* \"#utility.yul\":4193:4199   */\n      dup2\n        /* \"#utility.yul\":4188:4191   */\n      dup6\n        /* \"#utility.yul\":4129:4200   */\n      tag_27\n      jump\t// in\n    tag_81:\n        /* \"#utility.yul\":4122:4200   */\n      swap4\n      pop\n        /* \"#utility.yul\":4209:4274   */\n      tag_82\n        /* \"#utility.yul\":4267:4273   */\n      dup2\n        /* \"#utility.yul\":4262:4265   */\n      dup6\n        /* \"#utility.yul\":4255:4259   */\n      0x20\n        /* \"#utility.yul\":4248:4253   */\n      dup7\n        /* \"#utility.yul\":4244:4260   */\n      add\n        /* \"#utility.yul\":4209:4274   */\n      tag_28\n      jump\t// in\n    tag_82:\n        /* \"#utility.yul\":4299:4328   */\n      tag_83\n        /* \"#utility.yul\":4321:4327   */\n      dup2\n        /* \"#utility.yul\":4299:4328   */\n      tag_15\n      jump\t// in\n    tag_83:\n        /* \"#utility.yul\":4294:4297   */\n      dup5\n        /* \"#utility.yul\":4290:4329   */\n      add\n        /* \"#utility.yul\":4283:4329   */\n      swap2\n      pop\n        /* \"#utility.yul\":4050:4335   */\n      pop\n        /* \"#utility.yul\":3958:4335   */\n      swap3\n      swap2\n      pop\n      pop\n      jump\t// out\n        /* \"#utility.yul\":4341:4418   */\n    tag_30:\n        /* \"#utility.yul\":4378:4385   */\n      0x00\n        /* \"#utility.yul\":4407:4412   */\n      dup2\n        /* \"#utility.yul\":4396:4412   */\n      swap1\n      pop\n        /* \"#utility.yul\":4341:4418   */\n      swap2\n      swap1\n      pop\n      jump\t// out\n        /* \"#utility.yul\":4424:4542   */\n    tag_31:\n        /* \"#utility.yul\":4511:4535   */\n      tag_86\n        /* \"#utility.yul\":4529:4534   */\n      dup2\n        /* \"#utility.yul\":4511:4535   */\n      tag_30\n      jump\t// in\n    tag_86:\n        /* \"#utility.yul\":4506:4509   */\n      dup3\n        /* \"#utility.yul\":4499:4536   */\n      mstore\n        /* \"#utility.yul\":4424:4542   */\n      pop\n      pop\n      jump\t// out\n        /* \"#utility.yul\":4548:5081   */\n    tag_9:\n        /* \"#utility.yul\":4717:4721   */\n      0x00\n        /* \"#utility.yul\":4755:4757   */\n      0x60\n        /* \"#utility.yul\":4744:4753   */\n      dup3\n        /* \"#utility.yul\":4740:4758   */\n      add\n        /* \"#utility.yul\":4732:4758   */\n      swap1\n      pop\n        /* \"#utility.yul\":4768:4839   */\n      tag_88\n        /* \"#utility.yul\":4836:4837   */\n      0x00\n        /* \"#utility.yul\":4825:4834   */\n      dup4\n        /* \"#utility.yul\":4821:4838   */\n      add\n        /* \"#utility.yul\":4812:4818   */\n      dup7\n        /* \"#utility.yul\":4768:4839   */\n      tag_25\n      jump\t// in\n    tag_88:\n        /* \"#utility.yul\":4886:4895   */\n      dup2\n        /* \"#utility.yul\":4880:4884   */\n      dup2\n        /* \"#utility.yul\":4876:4896   */\n      sub\n        /* \"#utility.yul\":4871:4873   */\n      0x20\n        /* \"#utility.yul\":4860:4869   */\n      dup4\n        /* \"#utility.yul\":4856:4874   */\n      add\n        /* \"#utility.yul\":4849:4897   */\n      mstore\n        /* \"#utility.yul\":4914:4992   */\n      tag_89\n        /* \"#utility.yul\":4987:4991   */\n      dup2\n        /* \"#utility.yul\":4978:4984   */\n      dup6\n        /* \"#utility.yul\":4914:4992   */\n      tag_29\n      jump\t// in\n    tag_89:\n        /* \"#utility.yul\":4906:4992   */\n      swap1\n      pop\n        /* \"#utility.yul\":5002:5074   */\n      tag_90\n        /* \"#utility.yul\":5070:5072   */\n      0x40\n        /* \"#utility.yul\":5059:5068   */\n      dup4\n        /* \"#utility.yul\":5055:5073   */\n      add\n        /* \"#utility.yul\":5046:5052   */\n      dup5\n        /* \"#utility.yul\":5002:5074   */\n      tag_31\n      jump\t// in\n    tag_90:\n        /* \"#utility.yul\":4548:5081   */\n      swap5\n      swap4\n      pop\n      pop\n      pop\n      pop\n      jump\t// out\n\n    auxdata: 0xa2646970667358221220e49a6b6c788791fbf702c7e2216babed16aeb69179f0eced746981c670bb2f2564736f6c63430008100033\n}\n",
				"bytecode": {
					"linkReferences": {},
					"object": "608060405234801561001057600080fd5b5061036d806100206000396000f3fe60806040526004361061001e5760003560e01c8063a26e118614610023575b600080fd5b61003d600480360381019061003891906101d7565b61003f565b005b7f2d4b597935f3cd67fb2eebf1db4debc934cee5c7baa7153f980fdbeb2e74084e338234604051610072939291906102f9565b60405180910390a150565b6000604051905090565b600080fd5b600080fd5b600080fd5b600080fd5b6000601f19601f8301169050919050565b7f4e487b7100000000000000000000000000000000000000000000000000000000600052604160045260246000fd5b6100e48261009b565b810181811067ffffffffffffffff82111715610103576101026100ac565b5b80604052505050565b600061011661007d565b905061012282826100db565b919050565b600067ffffffffffffffff821115610142576101416100ac565b5b61014b8261009b565b9050602081019050919050565b82818337600083830152505050565b600061017a61017584610127565b61010c565b90508281526020810184848401111561019657610195610096565b5b6101a1848285610158565b509392505050565b600082601f8301126101be576101bd610091565b5b81356101ce848260208601610167565b91505092915050565b6000602082840312156101ed576101ec610087565b5b600082013567ffffffffffffffff81111561020b5761020a61008c565b5b610217848285016101a9565b91505092915050565b600073ffffffffffffffffffffffffffffffffffffffff82169050919050565b600061024b82610220565b9050919050565b61025b81610240565b82525050565b600081519050919050565b600082825260208201905092915050565b60005b8381101561029b578082015181840152602081019050610280565b60008484015250505050565b60006102b282610261565b6102bc818561026c565b93506102cc81856020860161027d565b6102d58161009b565b840191505092915050565b6000819050919050565b6102f3816102e0565b82525050565b600060608201905061030e6000830186610252565b818103602083015261032081856102a7565b905061032f60408301846102ea565b94935050505056fea2646970667358221220e49a6b6c788791fbf702c7e2216babed16aeb69179f0eced746981c670bb2f2564736f6c63430008100033",
					"opcodes": "PUSH1 0x80 PUSH1 0x40 MSTORE CALLVALUE DUP1 ISZERO PUSH2 0x10 JUMPI PUSH1 0x0 DUP1 REVERT JUMPDEST POP PUSH2 0x36D DUP1 PUSH2 0x20 PUSH1 0x0 CODECOPY PUSH1 0x0 RETURN INVALID PUSH1 0x80 PUSH1 0x40 MSTORE PUSH1 0x4 CALLDATASIZE LT PUSH2 0x1E JUMPI PUSH1 0x0 CALLDATALOAD PUSH1 0xE0 SHR DUP1 PUSH4 0xA26E1186 EQ PUSH2 0x23 JUMPI JUMPDEST PUSH1 0x0 DUP1 REVERT JUMPDEST PUSH2 0x3D PUSH1 0x4 DUP1 CALLDATASIZE SUB DUP2 ADD SWAP1 PUSH2 0x38 SWAP2 SWAP1 PUSH2 0x1D7 JUMP JUMPDEST PUSH2 0x3F JUMP JUMPDEST STOP JUMPDEST PUSH32 0x2D4B597935F3CD67FB2EEBF1DB4DEBC934CEE5C7BAA7153F980FDBEB2E74084E CALLER DUP3 CALLVALUE PUSH1 0x40 MLOAD PUSH2 0x72 SWAP4 SWAP3 SWAP2 SWAP1 PUSH2 0x2F9 JUMP JUMPDEST PUSH1 0x40 MLOAD DUP1 SWAP2 SUB SWAP1 LOG1 POP JUMP JUMPDEST PUSH1 0x0 PUSH1 0x40 MLOAD SWAP1 POP SWAP1 JUMP JUMPDEST PUSH1 0x0 DUP1 REVERT JUMPDEST PUSH1 0x0 DUP1 REVERT JUMPDEST PUSH1 0x0 DUP1 REVERT JUMPDEST PUSH1 0x0 DUP1 REVERT JUMPDEST PUSH1 0x0 PUSH1 0x1F NOT PUSH1 0x1F DUP4 ADD AND SWAP1 POP SWAP2 SWAP1 POP JUMP JUMPDEST PUSH32 0x4E487B7100000000000000000000000000000000000000000000000000000000 PUSH1 0x0 MSTORE PUSH1 0x41 PUSH1 0x4 MSTORE PUSH1 0x24 PUSH1 0x0 REVERT JUMPDEST PUSH2 0xE4 DUP3 PUSH2 0x9B JUMP JUMPDEST DUP2 ADD DUP2 DUP2 LT PUSH8 0xFFFFFFFFFFFFFFFF DUP3 GT OR ISZERO PUSH2 0x103 JUMPI PUSH2 0x102 PUSH2 0xAC JUMP JUMPDEST JUMPDEST DUP1 PUSH1 0x40 MSTORE POP POP POP JUMP JUMPDEST PUSH1 0x0 PUSH2 0x116 PUSH2 0x7D JUMP JUMPDEST SWAP1 POP PUSH2 0x122 DUP3 DUP3 PUSH2 0xDB JUMP JUMPDEST SWAP2 SWAP1 POP JUMP JUMPDEST PUSH1 0x0 PUSH8 0xFFFFFFFFFFFFFFFF DUP3 GT ISZERO PUSH2 0x142 JUMPI PUSH2 0x141 PUSH2 0xAC JUMP JUMPDEST JUMPDEST PUSH2 0x14B DUP3 PUSH2 0x9B JUMP JUMPDEST SWAP1 POP PUSH1 0x20 DUP2 ADD SWAP1 POP SWAP2 SWAP1 POP JUMP JUMPDEST DUP3 DUP2 DUP4 CALLDATACOPY PUSH1 0x0 DUP4 DUP4 ADD MSTORE POP POP POP JUMP JUMPDEST PUSH1 0x0 PUSH2 0x17A PUSH2 0x175 DUP5 PUSH2 0x127 JUMP JUMPDEST PUSH2 0x10C JUMP JUMPDEST SWAP1 POP DUP3 DUP2 MSTORE PUSH1 0x20 DUP2 ADD DUP5 DUP5 DUP5 ADD GT ISZERO PUSH2 0x196 JUMPI PUSH2 0x195 PUSH2 0x96 JUMP JUMPDEST JUMPDEST PUSH2 0x1A1 DUP5 DUP3 DUP6 PUSH2 0x158 JUMP JUMPDEST POP SWAP4 SWAP3 POP POP POP JUMP JUMPDEST PUSH1 0x0 DUP3 PUSH1 0x1F DUP4 ADD SLT PUSH2 0x1BE JUMPI PUSH2 0x1BD PUSH2 0x91 JUMP JUMPDEST JUMPDEST DUP2 CALLDATALOAD PUSH2 0x1CE DUP5 DUP3 PUSH1 0x20 DUP7 ADD PUSH2 0x167 JUMP JUMPDEST SWAP2 POP POP SWAP3 SWAP2 POP POP JUMP JUMPDEST PUSH1 0x0 PUSH1 0x20 DUP3 DUP5 SUB SLT ISZERO PUSH2 0x1ED JUMPI PUSH2 0x1EC PUSH2 0x87 JUMP JUMPDEST JUMPDEST PUSH1 0x0 DUP3 ADD CALLDATALOAD PUSH8 0xFFFFFFFFFFFFFFFF DUP2 GT ISZERO PUSH2 0x20B JUMPI PUSH2 0x20A PUSH2 0x8C JUMP JUMPDEST JUMPDEST PUSH2 0x217 DUP5 DUP3 DUP6 ADD PUSH2 0x1A9 JUMP JUMPDEST SWAP2 POP POP SWAP3 SWAP2 POP POP JUMP JUMPDEST PUSH1 0x0 PUSH20 0xFFFFFFFFFFFFFFFFFFFFFFFFFFFFFFFFFFFFFFFF DUP3 AND SWAP1 POP SWAP2 SWAP1 POP JUMP JUMPDEST PUSH1 0x0 PUSH2 0x24B DUP3 PUSH2 0x220 JUMP JUMPDEST SWAP1 POP SWAP2 SWAP1 POP JUMP JUMPDEST PUSH2 0x25B DUP2 PUSH2 0x240 JUMP JUMPDEST DUP3 MSTORE POP POP JUMP JUMPDEST PUSH1 0x0 DUP2 MLOAD SWAP1 POP SWAP2 SWAP1 POP JUMP JUMPDEST PUSH1 0x0 DUP3 DUP3 MSTORE PUSH1 0x20 DUP3 ADD SWAP1 POP SWAP3 SWAP2 POP POP JUMP JUMPDEST PUSH1 0x0 JUMPDEST DUP4 DUP2 LT ISZERO PUSH2 0x29B JUMPI DUP1 DUP3 ADD MLOAD DUP2 DUP5 ADD MSTORE PUSH1 0x20 DUP2 ADD SWAP1 POP PUSH2 0x280 JUMP JUMPDEST PUSH1 0x0 DUP5 DUP5 ADD MSTORE POP POP POP POP JUMP JUMPDEST PUSH1 0x0 PUSH2 0x2B2 DUP3 PUSH2 0x261 JUMP JUMPDEST PUSH2 0x2BC DUP2 DUP6 PUSH2 0x26C JUMP JUMPDEST SWAP4 POP PUSH2 0x2CC DUP2 DUP6 PUSH1 0x20 DUP7 ADD PUSH2 0x27D JUMP JUMPDEST PUSH2 0x2D5 DUP2 PUSH2 0x9B JUMP JUMPDEST DUP5 ADD SWAP2 POP POP SWAP3 SWAP2 POP POP JUMP JUMPDEST PUSH1 0x0 DUP2 SWAP1 POP SWAP2 SWAP1 POP JUMP JUMPDEST PUSH2 0x2F3 DUP2 PUSH2 0x2E0 JUMP JUMPDEST DUP3 MSTORE POP POP JUMP JUMPDEST PUSH1 0x0 PUSH1 0x60 DUP3 ADD SWAP1 POP PUSH2 0x30E PUSH1 0x0 DUP4 ADD DUP7 PUSH2 0x252 JUMP JUMPDEST DUP2 DUP2 SUB PUSH1 0x20 DUP4 ADD MSTORE PUSH2 0x320 DUP2 DUP6 PUSH2 0x2A7 JUMP JUMPDEST SWAP1 POP PUSH2 0x32F PUSH1 0x40 DUP4 ADD DUP5 PUSH2 0x2EA JUMP JUMPDEST SWAP5 SWAP4 POP POP POP POP JUMP INVALID LOG2 PUSH5 0x6970667358 0x22 SLT KECCAK256 0xE4 SWAP11 PUSH12 0x6C788791FBF702C7E2216BAB 0xED AND 0xAE 0xB6 SWAP2 PUSH26 0xF0ECED746981C670BB2F2564736F6C6343000810003300000000 "
				},
				"gasEstimates": {
					"creation": {
						"codeDepositCost": "175400",
						"executionCost": "220",
						"totalCost": "175620"
					},
					"external": {
						"deposit(string)": "infinite"
					}
				},
				"methodIdentifiers": {
					"deposit(string)": "a26e1186"
				}
			},
			"storageLayout": {
				"storage": [],
				"types": null
			},
			"userdoc": {
				"kind": "user",
				"methods": {},
				"version": 1
			}
		}
	}
}